:01040000FFFC
:0300000002D189A1
:06D1890075812002D1CAED
:10BF1C000075CEA575CF5A0075CEA575CF5A00C247
:10BF2C00AF12EAF9D2AF0075CEA575CF5A0075CE17
:10BF3C00A575CF5A0012F006EF6401707C75CEA582
:10BF4C0075CF5A0075CEA575CF5A009006FDE0FF4F
:10BF5C0030E00654FEF012EDAA1289E49006FDE0E2
:10BF6C00FF30E10654FDF012939F9006B0E064019F
:10BF7C0060079006B1E0B4010312B4639006ACE024
:10BF8C0064017024F012B38C75CEA575CF5A007570
:10BF9C00CEA575CF5A007D017F0112BAC57FFF1265
:10BFAC00ED359006B27403F01289E475CEA575CF09
:0FBFBC005A0075CEA575CF5A001289E402BF3323
:10DE720000100044443031412D5632302E30331ED2
:10DE82001E26002000111111111111FFFFFFFFFFCB
:10DE9200FFFFFFFFFF11111111111100000000001F
:10DEA20000000000000000000000005A0000000016
:10DEB2001C0000000000000000000F0101FFFFFF36
:10DEC200FFFFFFFFFF00123456000000653412000E
:01DED200004F
:10D82A00E49006FDF0A3F09007017403F0E490077A
:10D83A0014F07B017A0779069001D6F0A304F0A3CD
:10D84A0004F07D997C0012CD217B017A077907903B
:10D85A0001D6E4F0A37402F0A3F07D9F7C0012CD00
:10D86A00217B017A0779099001D6E4F0A37402F0CA
:10D87A00A3F07DA17C0012CD217B017A077910905B
:10D88A0001D6E4F0A37404F0A37402F07DC17C0015
:03D89A0002CD219B
:10DA5A0000020000003E0102003E002F1402006D89
:10DA6A000052150200BF00101B02011B001A190206
:10DA7A0000CF0009460200D8003A150200BF001084
:10DA8A0052020135001A5302014F001E5402016D61
:10DA9A0000621A020112000965020800007166029A
:10DAAA0008710071670208E2007168020953007187
:0CDABA00690209C400716A020A3500719B
:10B87400900012E0FEA3E0FF900016E0FCA3E0FDC0
:02B884007B0245
:10B88600900189EEF0A3EFF0A3ECF0A3EDF0A3EBAB
:01B89600F0C1
:10B897009001CF74A5F0A3745AF090018BE0FEA33A
:10B8A700E0FFD39400EE9400500302B932EF9440C6
:10B8B700EE940090018E40057440F08002EFF07B1B
:10B8C700017A01798F900189E0FCA3E0FD90018E58
:10B8D700E0FF9001D6E4F0A3EFF090018DE0900136
:10B8E700D8F012CD217B017A01798F90018EE0FD8E
:10B8F7007C00E49001D6F0A3F012EB5B9001D0E05E
:10B907002FF09001CFE03EF090018EE0FF7E009097
:10B91700018AE02FF0900189E03EF0C390018CE0AE
:10B927009FF090018BE09EF002B8A19001CFE0FE5E
:03B93700A3E0FF8B
:01B93A0022EA
:08CE3E00900189EEF0A3EFF072
:10CE4600E4FFEF75F006A4245BF582E434DAF5839B
:10CE5600E4936D7068ED640260037FFF22EF75F066
:10CE660006A4245CF582E434DAF583E493FB7401CA
:10CE76009390018BCBF0A3EBF0EF75F006A4245E44
:10CE8600F582E434DAF583740193F990018BE0FAC4
:10CE9600A3E0FBC390018AE09B900189E09A401DC4
:10CEA600E9FB90018CE02BFB90018BE03400FAC388
:10CEB60090018AE09B900189E09A5001220FEF646D
:08CEC60012600302CE487FFF59
:01CECE002241
:10AD5F00900012E0FCA3E0FD2400FFEC3404FE9011
:10AD6F000017E02402FB900016E03400FA90002058
:03AD7F007422F04B
:10AD820090001AEEF0A3EFF0A3ECF0A3EDF0A3EA2B
:04AD9200F0A3EBF04F
:10AD960090001EE0FEA3E0FFD39400EE9400500363
:10ADA60002AE4DD3EF9440EE9400900061400574DE
:10ADB60040F08002EFF07B017A00792190001CE0E0
:10ADC600FCA3E0FD900061E0FF9001D6E4F0A3EF64
:10ADD600F0900020E0FFC4540F9001D8F012CD216E
:10ADE60075CEA575CF5A0075CEA575CF5A007B01D5
:10ADF6007A007921900061E0FD90018EE4F0A3EDE8
:10AE0600F0900020E0540F900190F090001AE0FEC0
:10AE1600A3E0FF12C9A4900061E0FFFD7C00900052
:10AE26001BE02DF090001AE03CF090001DE02DF0A4
:10AE360090001CE03CF0C390001FE09FF090001EC5
:07AE4600E09400F002AD965C
:01AE4D0022E2
:10C66F0090007AEEF0A3EFF0A3ECF0A3EDF0AF03A0
:10C67F007B017A007980AD0790017BE4F0A37440D1
:10C68F00F012EC6A90007CE0FEA3E0FFD39400EE82
:10C69F0094004069D3EF9440EE94009000C04005A1
:10C6AF007440F08002EFF090007AE0FEA3E0FF7B91
:10C6BF00017A0079809000C0E0FD90018EE4F0A334
:10C6CF00EDF090007FE0900190F012C9A475CEA517
:10C6DF0075CF5A0075CEA575CF5A009000C0E0FFF8
:10C6EF007E0090007BE02FF090007AE03EF0C39048
:0DC6FF00007DE09FF090007CE09EF08087C1
:01C70C00220A
:0BCD16009001D6E4F0A37402F0A3F03B
:10CD21009001D1EBF0A3EAF0A3E9F0A3ECF0A3EDBD
:01CD3100F011
:10CD32009001D8E024FE604B0470699001D4E0FEBB
:10CD4200A3E0AA06F99001D97401F0A3EAF0A3E9DD
:10CD5200F09001D9E0F9A3E0FAA3E09001DFC9F075
:10CD6200A3EAF0A3E9F09001D6E0FFA3E09001E28C
:10CD7200CFF0A3EFF09001D1E0FBA3E0FAA3E0F93A
:10CD820002DF329001D1E0FBA3E0FAA3E0F9A3E0D5
:10CD9200FCA3E0FDA3E0FFA3E09001E1CFF0A3EF4D
:07CDA200F002C52F12F0FBA7
:01CDA9002267
:10C9830090000EEEF0A3EFF09000147A00790EE021
:10C99300FEA3E0FF7B0190018EE4F0A37402F0A3F9
:01C9A300F0A3
:10C9A400900189EEF0A3EFF0A3EBF0A3EAF0A3E982
:01C9B400F092
:10C9B500900190E024FE603C04705A900189E0FEED
:10C9C500A3E0AA06F97B01C002C001A3E0F9A3E038
:10C9D500FAA3E09001DFC9F0A3EAF0A3E9F0900122
:10C9E5008EE0FFA3E09001E2CFF0A3EFF0D001D0FD
:10C9F5000202DF32900189E0FEA3E0FFA3E0FBA382
:10CA0500E0FAA3E0F9A3E0FDA3E0900196CDF0A341
:08CA1500EDF002C84912F0FB2C
:01CA1D0022F6
:109AF400900179EBF0A3EAF0A3E9F0900177EEF09E
:039B0400A3EFF0DC
:109B070090017EE0FD12CE3E90017FEFF0C39412EC
:109B1700400312F0FB90017FE0FF75F006A4245C80
:109B2700F582E434DAF583E493FD740193900182BE
:109B3700CDF0A3EDF0EF75F006A4245EF582E434D2
:109B4700DAF58374019324FEFFE49334FFFE90015A
:109B570086F0A3EFF0900183E02FFF900182E03EB3
:109B6700900184F0A3EFF090017FE075F006A42444
:109B77005AF582E434DAF583E493900188F0900192
:109B870077E0FEA3E0FFA3E0FBA3E0FAA3E0F9A3DD
:109B9700E0FDA3E090018ECDF0A3EDF090017EE013
:109BA700900190F012C9A4900182E0FEA3E0FF901B
:109BB700018612B87F900180EEF0A3EFF090018448
:109BC7007A01798012C992900188E0C39464504861
:109BD700900178E02400FF900177E03404FE9001C3
:109BE70079E0FBA3E0FAA3E0F9A3E0FDA3E090018D
:109BF7008ECDF0A3EDF090017EE0900190F012C9B8
:109C0700A4900185E02400FF900184E03404FE7BEA
:089C1700017A01798012C9995C
:019C1F002222
:10A3C300E4FEEE75F006A4245AF582E434DAF5834C
:10A3D300E4936F60050EEEB412E8EEC394124003EB
:10A3E30002A4C3EE75F006A4245CF582E434DAF526
:10A3F30083E493FD74019390001ACDF0A3EDF0EE86
:10A4030075F006A4245EF582E434DAF583740193CF
:10A4130024FEFCE49334FF90001CF0A3CCF0EF2463
:10A42300EB602224CF602E24F4603A14604714605A
:10A43300542440707290001AE0FEA3E0FF7BFF7A81
:10A44300DE7981804E90001AE0FEA3E0FF7BFF7A65
:10A45300DD79A8803E90001AE0FEA3E0FF7BFF7A3F
:10A46300BC7948802E90001AE0FEA3E0FF7BFF7AC0
:10A47300CA79B8801E90001AE0FEA3E0FF7BFF7A42
:10A48300CA79D2800E90001AE0FEA3E0FF7BFF7A28
:10A49300CA79F0A3E0FDA3E090018ECDF0A3EDF027
:10A4A300A37402F002C9A490001AE0FEA3E0FFA384
:10A4B300E0FCA3E0FD90007F7402F0E4FB12C66FA2
:01A4C3002276
:1070E000E490000DF090000DE0F9C394124003020B
:1070F00072B7E4900018F090000DE0FF75F006A460
:10710000245CF582E434DAF583E493FD7401939012
:107110000012CDF0A3EDF0EF75F006A4245EF58229
:10712000E434DAF58374019324FEFEE49334FF9093
:107130000016F0A3CEF0900016E0FAA3E0FB90005A
:1071400012E0FCA3E0FD2BFEEC3AA3F0A3CEF0E9A5
:1071500075F006A4245AF582E434DAF583E49390BA
:107160000019F075CEA575CF5A0075CEA575CF5A0A
:1071700000AF05AE04AD03AC027B0212B8869000EE
:107180000EEEF0A3EFF07B017A007910900014E08E
:10719000FCA3E0FD12CD16900010E0FEA3E0FF90EE
:1071A000000EE06E7003A3E06F6007900018E044EB
:1071B00001F0900019E0C39464504B900013E02458
:1071C00000FF900012E03404FE12B87C90000EEE36
:1071D000F0A3EFF07B017A007910900015E0240015
:1071E000FD900014E03404FC12CD16900010E0FE77
:1071F000A3E0FF90000EE06E7003A3E06F600790C5
:107200000018E04402F075CEA575CF5A0075CEA5E2
:1072100075CF5A00900018E070030272A024FE603F
:107220003614604124027075900019E0C3946450D4
:1072300015900012E0FEA3E0FF2400FDEE3404FCF4
:1072400012AD6E02728D900019E0FF12A3C312B846
:107250007412C98302728D900019E0C39464504087
:1072600012AD5F8028900019E0FF12A3C312B8741A
:1072700012C98375CEA575CF5A0075CEA575CF5AA4
:1072800000900019E0C39464501612AD5F75CEA54E
:1072900075CF5A0075CEA575CF5A00800312F0FB4A
:1072A00075CEA575CF5A0075CEA575CF5A00900042
:0772B0000DE004F00270E59F
:0172B70022B4
:05BB8800900093EFF0B6
:10BB8D00E4A3F0900094E0F9C39412400302BC4783
:10BB9D00E0FE75F006A4245CF582E434DAF583E466
:10BBAD0093FC740193FDEE75F006A4245EF582E41A
:10BBBD0034DAF58374019324FE2DFEE43C90009756
:10BBCD00F0A3CEF0E975F006A4245AF582E434DA38
:10BBDD00F583E493FF900099F0BF4608900093E041
:10BBED0064A5704D75CEA575CF5A0075CEA575CFD0
:10BBFD005A00E4900095F0A3F0900097E0FEA3E0CA
:10BC0D00FF7B017A00799512C999900099E0C39450
:10BC1D0064501EE4900095F0A3F0900098E024008D
:10BC2D00FF900097E03404FE7B017A00799512C9EC
:0ABC3D0099900094E004F002BB901F
:01BC470022DA
:10BFCB0012EF85EF6401600302C0659007DCE0C3EC
:10BFDB009403400302C079E004F0E0C394035003E0
:10BFEB0002C079900706E0645A600302C07990079B
:10BFFB00DDE06401607812DB9E75CEA575CF5A002B
:10C00B0075CEA575CF5A0012B38C75CEA575CF5AC8
:10C01B000075CEA575CF5A0012D7B675CEA575CFC4
:10C02B005A0075CEA575CF5A0012A0A912E5F2756C
:10C03B00CEA575CF5A0075CEA575CF5A00129D4B64
:10C04B0075CEA575CF5A0075CEA575CF5A007FA8B2
:10C05B001203AE9007DD7401F0229007DCE0D3945D
:0FC06B00004003E014F09007DCE07002A3F02225
:10E0F90012F036EF640170269007DAE0C3940350FA
:10E1090043E004F0E0C39403403AA3E064016034BF
:10E119007D017F0912BAC59007DB7401F0229007CF
:10E12900DAE0D3940040069007DCE014F09007DAB7
:10E13900E07011A3E0B4010C7DFF7F0912BAC5E4B8
:05E149009007DBF0224D
:10F0BF007B017A0779D990017BE4F0A37405F0E422
:04F0CF00FD02EC6AE8
:01005200228B
:10F00600E4FFE5A120E0050FEFB41EF6EFC3941967
:07F0160050037F01227F007F
:01F01D0022D0
:10E1A3009006FFE5A1F0E59560047F0180027F0002
:10E1B300E59460047E0180027E00EE4F601175904D
:10E1C30096759757E4F594F595759096759756005F
:10E1D300758F019004027486F0E4F58F75A001FF3A
:10E1E300FE7D32FC12AF3412E0A212EEC002E7E56C
:107665007B017A00790A9001D6E4F0A37403F0A3B4
:1076750014F07DBA7C0012CD2190000AE0B4650BB0
:10768500A3E0B43406A3E06412602D9004AF740146
:10769500F012D20F90007F7402F0E4FBFD7C10FF26
:1076A5007E0812C66F7FA512BB8875CEA575CF5A09
:1076B5000075CEA575CF5A00900700E070111270C5
:1076C500E075CEA575CF5A0075CEA575CF5A0012B7
:1076D500D82A12F0BF75CEA575CF5A0075CEA575FF
:1076E500CF5A007B017A0579B29001D6E4F0A374F4
:1076F5003AF0A37402F07DD87C0012CD2112F1A6D8
:1077050012F1A312DAC675CEA575CF5A0075CEA5AE
:1077150075CF5A0012E90B1268FC12ECBE12EA5D35
:1077250012EFD375CEA575CF5A0075CEA575CF5A74
:107735000012DFEC75CEA575CF5A0075CEA575CFB5
:107745005A009006BEE06430600302782475CEA529
:1077550075CF5A0075CEA575CF5A00900000F07B05
:10776500017A0079029001D6F0A37405F0A37402A2
:10777500F07D6C7C0C12CD217B017A00790890019B
:10778500D6E4F0A37402F0A3F07D6F7C0012CD2146
:10779500900008E0FB900004E0C39B5008900000B7
:1077A5007401F08005E4900000F09006C3E0FE90BF
:1077B5000000E02EFD900003E0FCC3ED9C9000006E
:1077C500F0EEC39B5005E014F08005900000E0F05A
:1077D500900000E0D3940640037406F0900000E0AA
:1077E500D39400403AE4A3F0900000E0FFA3E0C387
:1077F5009F501BE4FF1283CB75CEA575CF5A00753C
:10780500CEA575CF5A00900001E004F080DA75CE60
:10781500A575CF5A0075CEA575CF5A0012B38C0247
:02782500EA93E4
:10A7B600E4900000F0A3F075CEA575CF5A0075CED3
:10A7C600A575CF5A0075CEA575CF5A0075CEA5755D
:10A7D600CF5A0012ECBE1268FC12D9ED12ECE6124A
:10A7E600E0A29028C8E4F09028ADE04410F07D0285
:10A7F6007F0112E82043C90112E14E75CEA575CF3F
:10A806005A0075CEA575CF5A007F007E007D327C3A
:10A816000012AF347B017A00790212DED39001DF99
:10A826007401F0A37400F0A37402F0A3E4F0A3741F
:10A8360007F07B017A0679C112DF32E5A130E05CD0
:10A8460012CFEA12EEC012EA267B017A04796390EF
:10A85600018EE4F0A3741EF0A37402F07FCF7E0194
:10A8660012C9A47B017A04798290018EE4F0A37464
:10A876002DF0A37402F07FED7E0112C9A47B017A4C
:10A886000479B190018EE4F0A37432F0A37402F05F
:10A896007F1AFE12C9A412D20F12F0FB126EFF121B
:05A8A600E24202A7F4EC
:10D30F007F007E007D327C0012AF3412CFEA12D93B
:10D31F00ED7FFF12ED3575CEA575CF5A0075CEA5F1
:10D32F0075CF5A0012766512F04EE4FF12DB3212FF
:10D33F00F149E4FF125AC11266C57B017A0679E8FA
:10D34F0090017BE4F0A37405F0E4FD12EC6A900702
:10D35F00797404F0900775F07DFF7F0712BAC57BD3
:10D36F00017A07797590017BE4F0A3740CF0E4FD6A
:0AD37F0012EC6A43A50143A4012249
:10EAF90012E1A312F006EF70077F2C7E0112EFEDF1
:10EB090012F006EF70089007007403F08005E49096
:10EB19000700F0900700E0B4030302A7B612D30F71
:01EB290022C9
:10E2420012EF9FEF64014E70059006B004F0900645
:10E25200B0E0B4011EE4F0900622E0B40504E4F05C
:10E262008006900622E004F012B60D90060C7406A9
:10E27200F0800C90060CE0D394004003E014F09080
:0DE28200060CE07007900622F012B60D2287
:1089E40012F006EF6003028B4FD284C2AF125FA86D
:1089F4007B017A05792190017CE4F0A3743CF0A317
:108A04007402F0E4FFFE129AF49007007403F07B02
:108A1400017A0679C190017CE4F0A37407F0A37491
:108A240002F07FCF7E00129AF49007797404F07DEF
:108A3400017F0712BAC590077C7404F0900778F0A0
:108A44007DFF7F0A12BAC57B017A07797F9001D630
:108A5400E4F0A304F0A304F07D217C0112CD2112E3
:108A6400C12912ECE612E0A29028C8E4F09028ADE7
:108A7400E04410F012EEC012E7E512ECBEE49006FA
:108A84000CF09004AFF075CEA575CF5A0075CEA545
:108A940075CF5A00E4FD7F0112E82043C90112F1A9
:108AA4004912E14E75CEA575CF5A0075CEA575CF86
:108AB4005A007F007E007D327C0012AF347B017A45
:108AC40000790012DED39001DF7401F0A37400F08A
:108AD400A37400F0A3E4F0A37407F07B017A067991
:108AE400C112DF32E5A130E05912CFEA12EEC01212
:108AF400EA267B017A04796390018EE4F0A3741E64
:108B0400F0A37402F07FCF7E0112C9A47B017A0422
:108B1400798290018EE4F0A3742DF0A37402F07FA7
:108B2400ED7E0112C9A47B017A0479B190018EE42F
:108B3400F0A37432F0A37402F07F1AFE12C9A412D7
:0B8B4400F0FB126EFF12E242028A8A70
:018B4F002203
:10F0FB0075CEA575CF5A0075CEA575CF5A000000F9
:03F10B000080FB86
:0300030002004EAA
:04004E005388FD32A4
:03000B0002E048C8
:10E04800C0E0C083C082C0D0758A65758C669006B2
:10E05800FDE04401F09005A7E0600E9005A9E004FA
:10E06800F070069005A8E004F09005ACE0B4011B40
:10E07800D39005ABE094009005AAE09400400CA36F
:10E08800E024FFF09005AAE034FFF0900714E004C4
:0AE09800F0D0D0D082D083D0E03267
:0300130002F19760
:04F197005388F73270
:03001B0002F19B54
:04F19B0053887F32E4
:03002B0002F19F40
:04F19F0053C87F32A0
:03003B0002F0666A
:10F06600C0E0E5C030E00553C0FE8008E5C030E1F1
:07F076000353C0FDD0E0329E
:030043000294E63E
:0D94E600C0E0C0F0C083C082C0D075D010BF
:1094F300902840E0FF902843E05F900235F0E020A1
:10950300E203029589902840E054FBF0902836E06E
:1095130054FDF0900236E0D394004057A3E0FC24BE
:109523003AF582E43402F583E0900234F090033795
:10953300E0B40716900234E0FE547FFD30D006EE0F
:109543004480F08005900234EDF0900234E09028DE
:1095530037F09005A8E4F0A3F0743A2CF582E434D4
:1095630002F583E4F0900237E004F0900236E01451
:10957300F08013900237E4F09003347404F012E5A2
:109583006CE4FF12C487900235E0FF30E35090286B
:1095930040E054F7F0902836E054FEF0A3E0900248
:1095A30034F0E0547FFE900237E0243AF582E4344D
:1095B30002F583EEF09005A8E4F0A3F0900237E003
:1095C30004F0E0FED3940440020000EE75F0FA8448
:1095D300AEF0900237EEF0D3941540020000EF3066
:1095E300E407902840E054EFF0900235E030E507BF
:1095F300902840E054DFF0900235E0FF30E607901A
:109603002840E054BFF0EF30E70D902840E0547F4E
:0A961300F0900560E004F05391EFC1
:0B961D00D0D0D082D083D0F0D0E0325B
:03004B0002DD4291
:0BDD4200C0E0C083C082C0D075D010CC
:10DD4D00902848E0FF90284BE05FFD30E4079028D5
:10DD5D0048E054EFF0AF15ED30E507902848E0545A
:10DD6D00DFF0AF15ED30E614902848E054BFF09089
:10DD7D0006FDE04402F09005EC7401F0AF15ED30B6
:10DD8D00E70D902848E0547FF090055FE004F053D4
:02DD9D0091DF14
:09DD9F00D0D0D082D083D0E03254
:0300530002EBE7D6
:0BEBE700C0E0C083C082C0D075D01019
:10EBF200902850E0FF902853E05FFF30E307902811
:08EC020050E054F7F05391BFFC
:09EC0A00D0D0D082D083D0E032DA
:109628004106B0004106AD004106AC004106AB0161
:109638004106B1004106AF004106B2004106BF0035
:0C9648004106B3004106C0004106AE0020
:10CB52007B017A00790D12DED37B017A00790D1206
:10CB6200AA8FEF70647B017A00790D9001D6F0A351
:10CB72007407F0A37402F07DCF7C0012CD217B01FB
:10CB82007A00790D12AA8FEF703690000D7403F0BF
:10CB9200A37416F0A37404F0A37420F0A37412F02B
:10CBA200A37430F0A3F07B017A00790D90017CE44C
:10CBB200F0A37407F0A37402F07FCF7E00129AF400
:10CBC2007B017A00790D12DC089001DF7401F0A379
:10CBD2007400F0A3740DF0A3E4F0A37407F07B01DA
:07CBE2007A0679C102DF327F
:03F1A30002CB524A
:10D0760012F036EF700E9006BFE0700804F09006CE
:10D08600B37403F012F036BF0109E49006BFF090C6
:10D0960006B3F012EF9FEF64014E700F9006ADE0FD
:10D0A60070099006B004F09006ADF012EF9FEF4EB7
:10D0B60070049006ADF012F01EEF64014E700D90F4
:10D0C60006ABE07007A304F09006ABF012F01EEF7B
:10D0D6004E70049006ABF012EFB9EF64014E700F7C
:10D0E6009006AFE070099006B104F09006AFF0121A
:0BD0F600EFB9EF4E70049006AFF0227F
:10EDAA00E4900000F0900000E0FFC39401501312B9
:10EDBA00B0F9900000E0FF12A1B9900000E004F061
:05EDCA0080E302D07699
:10939F0012CB5275CEA575CF5A0075CEA575CF5A83
:1093AF00009007EDE0D394004006E014F012ECBEFD
:1093BF009007EDE0703F128E2275CEA575CF5A0043
:1093CF0075CEA575CF5A00125FA875CEA575CF5A69
:1093DF000075CEA575CF5A0012EB8C12D74275CE01
:1093EF00A575CF5A0075CEA575CF5A0012BFCB12F7
:1093FF00F1B812EA5D12F036EF70199006B3E0D3B0
:10940F009400400280179006C07401F09006AE746D
:10941F0058F080139006AEE0D394004005E014F0AE
:10942F008005E49006C0F09006B2E0700812B463B5
:10943F0012B60D80069006B2E014F012A5C2900687
:10944F00C7E070621266C575CEA575CF5A0075CE8E
:10945F00A575CF5A0012646F75CEA575CF5A0075DA
:10946F00CEA575CF5A00126EFF12D20F9006BEE036
:10947F00B4301175CEA575CF5A0075CEA575CF5ADC
:10948F000012CA1E75CEA575CF5A0075CEA575CF21
:10949F005A0012CDAA75CEA575CF5A0075CEA575F7
:1094AF00CF5A0012DFEC9006C7E0B4251112F1B6C7
:1094BF0075CEA575CF5A0075CEA575CF5A009006FB
:1094CF00C7E0B4311112EFD375CEA575CF5A007521
:0794DF00CEA575CF5A002253
:01F1B4002238
:0AF15F00E49006BDF09006BCF0221B
:0BBDB800E0FCA3E0A3FDE0900230F0EF
:10BDC30090022BEBF0A3EAF0A3E9F0A3ECF0A3EDD0
:01BDD300F07F
:10BDD400E4900233F090023174A0F0A304F012E76F
:10BDE400E5900233E004F0E0D3940A40037F00229C
:10BDF40012EA26900231E0FF12C8E6BF01E0900289
:10BE04002EE0FF12C8E6EF640160037F0022900277
:10BE14002EA3E0FF12C8E6EF640160037F00221244
:10BE2400EA26900232E0FF12C8E6EF640160037F65
:10BE34000022900230E0FF14F0EF6026E07003FF70
:10BE440080027F0112CECF90022BE0FBA3E0FAA385
:10BE5400E0F9EF1218BA90022CE475F00112198B74
:07BE640080D012E7E57F0129
:01BE6B0022B4
:10C331009001E0EEF0A3EFF0A3EBF0A3EAF0A3E9A4
:01C34100F00B
:10C34200E49001E8F09001E674A0F0A304F000127A
:10C35200E7E59001E8E004F0E0D3940A40037F00AF
:10C362002212EA269001E6E0FF12C8E6BF01E09041
:10C3720001E0E0FF12C8E6EF640160037F00229053
:10C3820001E0A3E0FF12C8E6EF640160037F002230
:10C392009001E2E0FBA3E0FAA3E0F9121852FF12C7
:10C3A200C8E6EF64016004007F00229001E3E475B7
:10C3B200F00112198B9001E1E004F070069001E0A7
:10C3C200E004F09001E5E014F0E070C412E7E57FCC
:09C3D200057E0012EFED007F0171
:01C3DB00223F
:10D294009001E4EBF0A3EAF0A3E9F0A3ECF0A3ED32
:01D2A400F099
:10D2A500A3E0FFD394004006EFD3944040037F00F2
:10D2B50022E490022AF07B017A0179EA9001E712D3
:10D2C500BDB89001E4E0FBA3E0FAA3E0F9A312BD29
:10D2D500B890022E7401F0A37401F0A374EAF090E3
:10D2E50001E9E0900231F09001E4E0FBA3E0FAA34C
:10D2F500E0F912D389EF70037F012290022AE0043E
:09D30500F0E0C3940340AF7F0087
:01D30E0022FC
:10CF5D00900199EEF0A3EFF0A3EBF0A3EAF0A3E9B3
:01CF6D00F0D3
:10CF6E00A3E0FFD394004006EFD39440400312F0A9
:10CF7E00FBE49001DFF0900199E0FEA3E0FFA3E057
:10CF8E00FBA3E0FAA3E0F9A3E09001E5F012C331B0
:10CF9E007B017A01799F900199E0FCA3E090019EBC
:10CFAE0012BDBD90022E7401F0A37401F0A3749F04
:10CFBE00F090019EE0900231F090019BE0FBA3E027
:10CFCE00FAA3E0F912D389EF70037F01229001DFFB
:0BCFDE00E004F0E0C39403409D7F00DE
:01CFE9002225
:10C52F009001DCEBF0A3EAF0A3E9F0A3ECF0A3EDAC
:01C53F00F00B
:10C540009001E1E0FEA3E0FFD39400EE9400407C74
:10C550009001DFA3E0543FFD600974409D9001E32A
:10C56000F080069001E37440F09001E3E0FDC3EF3A
:10C570009DEE940050079001E1A3E0A3F09001DC50
:10C58000E0FBA3E0FAA3E0F9A3E0FCA3E0FD900147
:10C59000E3E09001E9F012D294EF7002FF229001E3
:10C5A000E3E0FFFD7C009001DDEC8DF012198B9033
:10C5B00001E0E02DF09001DFE03CF0C39001E2E00B
:0EC5C0009FF09001E1E09400F002C5407F0181
:01C5CE00224A
:10C84900900191EEF0A3EFF0A3EBF0A3EAF0A3E9D6
:01C85900F0EE
:10C85A00900196E0FCA3E0FDD39400EC94004079AB
:10C86A00900191E0FEA3E0FF543FFB600974409BF6
:10C87A00900198F080069001987440F0900198E039
:10C88A00FBC3ED9BEC94005007900196A3E0A3F044
:10C89A00900193E0FBA3E0FAA3E0F9900198E090FD
:10C8AA00019EF012CF5DEF7002FF22900198E0FF27
:10C8BA00FD7C00900192E02DF0900191E03CF09017
:10C8CA000194EC8DF012198BC3900197E09FF090C0
:0BC8DA000196E09400F002C85A7F01B4
:01C8E5002230
:10EEC0009028ACE04402F0A3E04402F0A3E0440444
:0EEED000F09028ACE054FBF0A3E054FBF022DD
:10EA26009028ACE04402F0A3E04402F0A3E04404E2
:10EA3600F0000000000000E054FDF09028ADE05426
:10EA4600FDF09028ACE054FDF000000000000090BE
:07EA560028AEE054FBF022A2
:10E7E5009028AEE054FDF09028ADE054FDF090285F
:10E7F500ACE054FDF00000000000009028AEE044BD
:10E8050004F00000000000009028ACE04402F0A3F2
:0BE81500E04402F000000000000022C0
:10C8E600E4F508F5089028AEE054FBF0EF30E70ECB
:10C8F6009028ACE04402F0A3E04402F080159028B2
:10C90600AEE054FDF09028ADE054FDF09028ACE088
:10C9160054FDF0EF25E0FF9028AEE04404F000005F
:10C92600000000000508E508B408BA9028AEE054F7
:10C93600FBF09028ACE04402F0A3E04402F0750856
:10C9460020E4F5089028AFE020E1149028AEE044FA
:10C9560004F0000000000000E054FBF07F01220517
:10C9660008E508B420DE9028AEE04404F00000009C
:0CC97600000000E054FBF012E7E57F0039
:01C982002292
:10CECF00E4F508F5099028ACE04402F0A3E0440231
:10CEDF00F0A3E054FBF0E4F508E50925E0F509902F
:10CEEF0028AEE04404F0000000000000A3E030E1B1
:10CEFF00034309019028AEE054FBF000000000004E
:10CF0F00000508E508B408D1EF60179028AEE0548B
:10CF1F00FDF09028ADE054FDF09028ACE054FDF00A
:10CF2F00800C9028ACE04402F0A3E04402F090287B
:10CF3F00AEE04404F0000000000000E054FBF0906D
:0DCF4F0028ACE04402F0A3E04402F0AF097A
:01CF5C0022B2
:01F1B5002237
:10F0D300E5E820E10343E80290284BE020E704E061
:04F0E3004480F02253
:10ED0E007F7D7E28129254EF54C7FF9000CA74285C
:10ED1E00F0A3747DF012C7AB902843E0547FF090BF
:06ED2E0028AEE04408F0ED
:01ED340022BC
:06C70D009007D3121BA7E8
:10C71300E4FF90288474CCF0E4F0902885E0600A6C
:10C723000FEFD3940840F37F00229007D3A3A3A372
:10C73300E0FF902880EFF09007D3E0FCA3E0FDA397
:10C74300E0FEA3E0FF7808121B35902881EFF090FC
:10C7530007D3E0FCA3E0FDA3E0FEA3E0FF78101203
:10C763001B35902882EFF09007D3E0FCA3E0FDA3F4
:10C77300E0FEA3E0FF7818121B35902883EFF090BA
:10C7830007D7E0FEA3E0F5828E83E4F0FF000FEF0E
:10C79300B408FAE4FF902885E0600A0FEFD3940809
:07C7A30040F37F00227F013B
:01C7AA00226C
:06C07A009007C5121BA790
:10C08000E4FB90288474CCF0E4F0902885E0600A0A
:10C090000BEBD3940840F37F00229007C5A3A3A322
:10C0A000E0FF902880EFF09007C5E0FCA3E0FDA33F
:10C0B000E0FEA3E0FF7808121B35902881EFF09096
:10C0C00007C5E0FCA3E0FDA3E0FEA3E0FF781012AB
:10C0D0001B35902882EFF09007C5E0FCA3E0FDA39C
:10C0E000E0FEA3E0FF7818121B35902883EFF0D212
:10C0F0008720870C9007CBE004F0E0D3941E40F13A
:10C100009007C9E0FEA3E0F5828E83E4F0FB000B0C
:10C11000EBB408FAE4FB902885E0600A0BEBD394BB
:08C120000840F37F00227F01BB
:01C1280022F4
:06C7AB009000C6121BA75E
:10C7B100E4FF90288474CCF0E4F0902885E0600ACE
:10C7C1000FEFD3940840F37F00229000C6A3A3A3E8
:10C7D100E0FF902880EFF09000C6E0FCA3E0FDA30D
:10C7E100E0FEA3E0FF7808121B35902881EFF0905E
:10C7F10000C6E0FCA3E0FDA3E0FEA3E0FF78101279
:10C801001B35902882EFF09000C6E0FCA3E0FDA369
:10C81100E0FEA3E0FF7818121B35902883EFF0901B
:10C8210000CAE0FEA3E0F5828E83E4F0FF000FEF83
:10C83100B408FAE4FF902885E0600A0FEFD394086A
:07C8410040F37F00227F019C
:01C8480022CD
:1092540090288474CCF0E4F0F508902885E0600B45
:109264000508E508D3940840F180248F828E83E0BA
:10927400F508E4F508000508E508B408F8E4F5087D
:10928400902885E0600F0508E508D3940840F1E4D0
:10929400FFFEFDFC22902880E0FFE4FCFDFE900030
:1092A400C6121BA7902881E0FFE4FCFDFE7808129B
:1092B4001B489000CA121BA79000C6E0FCA3E0FD67
:1092C400A3E0FEA3E0FFA3E0F8A3E0F9A3E0FAA380
:1092D400E0FBEF2BFFEE3AFEED39FDEC38FC90009D
:1092E400C6121BA7902882E0FFE4FCFDFE9000CA92
:1092F400121BA79000CAE0FCA3E0FDA3E0FEA3E0DC
:10930400FF7810121B489000CA121BA79000C6E0F9
:10931400FCA3E0FDA3E0FEA3E0FFA3E0F8A3E0F9D3
:10932400A3E0FAA3E0FBEF2BFFEE3AFEED39FDECF0
:1093340038FC9000C6121BA7902883E0FFE4FCFDD4
:10934400FE9000CA121BA79000CAE0FCA3E0FDA394
:10935400E0FEA3E0FF7818121B489000CA121BA776
:109364009000C6E0FCA3E0FDA3E0FEA3E0FFA3E0C1
:10937400F8A3E0F9A3E0FAA3E0FBEF2BFFEE3AFE3B
:10938400ED39FDEC38FC9000C6121BA79000C6E036
:0A939400FCA3E0FDA3E0FEA3E0FF50
:01939E0022AC
:10BC480000000000000000000000000000000000EC
:10BC580000000000000000000000000000000000DC
:10BC6800000000003D99E1FB3DE6D2F937341C9F06
:10BC7800392B0436392B0436000000000960000017
:10BC880027100461A83000927C000063B3ED3B707C
:10BC9800B76B3B70B76B0105B210E80105C210E93C
:10BCA8000105B6287B0105C6287C0105BA10ED01FF
:10BCB80005CA10EE0105BE10EB0105CE10EC01051A
:10BCC800D210EA00927C0010F500927C0010FB1D57
:10BCD8000004C30185300000000186000000000157
:10BCE80087811D2BA70125000000000183000000AB
:09BCF80000013200000000012CE3
:079654004405AE0000000018
:10E945007B017A0579B29001D674A5F0A3745AF0CB
:10E955007D387C0012EB5B9005EAEEF0A3EFF07BCF
:10E96500017A0579B290017CE4F0A37438F0A374C0
:09E9750002F07FD87E00029AF442
:10E6B4007B017A0579B29001D674A5F0A3745AF05F
:10E6C4007D387C0012EB5B9005EAE06E7003A3E0FA
:10E6D4006F601A7B017A0579B29001D6E4F0A374D5
:0DE6E4003AF0A37402F07DD87C0012CD2125
:01E6F1002206
:1066C5009000C1121BB30000000012E6B47B017AF2
:1066D5000079C59001D6E4F0A304F0A304F07DB9D8
:1066E5007C0012CD219000C5E09000CAB43C267410
:1066F50010F0A374F4F07F6B7E2A7D707C0012C7C6
:10670500AB9000CA7410F0A374FAF07F6B7E2A7DFB
:10671500707C0080247410F0A374F4F07F307EA8A0
:106725007D617C0412C7AB9000CA7410F0A374FAA3
:10673500F07F307EA87D617C0412C7ABE49000B584
:10674500F09000B5E0FF75F006A424CFF582E4349F
:10675500BCF583E493FD7401939000BFCDF0A3EDE8
:10676500F0EF75F006A424CBF582E434BCF5831272
:106775001B879000BB121BA79000B1121BB3000032
:1067850000009000BFE0FEA3E0FF1292549000B11C
:10679500121BA79000BBE0FCA3E0FDA3E0FEA3E075
:1067A500FF9000B1E0F8A3E0F9A3E0FAA3E0FBC392
:1067B500121B2460349000BBE0FCA3E0FDA3E0FEC7
:1067C500A3E0FF9000B1121BA79000B1E0FCA3E08D
:1067D500FDA3E0FEA3E0FF9000BFE0FBA3E0900077
:1067E500CACBF0A3EBF012C7AB9000B5E004F0E024
:1067F500C394025003026746E49000B5F09000B5DB
:10680500E0FF75F005A424A1F582E434BCF583E42A
:1068150093FD7401939000B9CDF0A3EDF0EF75F001
:1068250005A4249EF582E434BCF583E493F9740150
:1068350093FA7402939000B6C9F0A3EAF0A3E9F0C5
:106845009000B1121BB3000000009000B9E0FEA358
:10685500E0FF1292549000B1121BA79000B9E0FE20
:10686500A3E0FF647B7003EE6428600AEF647C702C
:1068750003EE6428701B9000B6E0FBA3E0FAA3E0EA
:10688500F9121B5B9000B4E06F605CE4FCFDFE80D8
:10689500309000B6E0FBA3E0FAA3E0F9121B5B9091
:1068A50000B1E0F8A3E0F9A3E0FAA3E0FBC3121BF3
:1068B5002460349000B6E0FBA3E0FAA3E0F9121BD4
:1068C5005B9000B1121BA79000B1E0FCA3E0FDA313
:1068D500E0FEA3E0FF9000B9E0FBA3E09000CACB87
:1068E500F0A3EBF012C7AB9000B5E004F0E0C39461
:0668F500095003026802D5
:0168FB00227A
:088B500090073EEFF0A3EDF0E9
:108B580075CEA575CF5A0075CEA575CF5A0090076A
:108B680049121BB300000000E49005ECF0900744A4
:108B7800F090073EE0FF900744E0C39F4003028C5B
:108B88008F75CEA575CF5A0075CEA575CF5A0090B2
:108B980005ECE060FAE49005ECF075CEA575CF5AC7
:108BA8000075CEA575CF5A0090073FE070097FD2B7
:108BB8007E10129254803AE4FB7D017F0B7E0112F5
:108BC8000000BF0134784D7C077D017B017A007974
:108BD800007E007F0412182C7B017A07794D7D04F2
:108BE80012C1D890074DE0FCA3E0FDA3E0FEA3E08E
:108BF800FF900740121BA780079006FEE04410F084
:108C0800E4FFFEFD7C80900740E0F8A3E0F9A3E0D4
:108C1800FAA3E0FBC3121B244024900740E0FCA306
:108C2800E0FDA3E0FEA3E0FF121AF3EF2401FFE446
:108C38003EFEE43DFDE43CFC900740121BA7900774
:108C480040E0FCA3E0FDA3E0FEA3E0FF900745128F
:108C58001BA7900749E0FCA3E0FDA3E0FEA3E0FF0B
:108C6800900745E0F8A3E0F9A3E0FAA3E0FBEF2BB7
:108C7800FFEE3AFEED39FDEC38FCA3121BA7900776
:108C880044E004F0028B7990073EE0FBE4FAF9F83F
:108C9800900749E0FCA3E0FDA3E0FEA3E0FF121A61
:108CA8006175CEA575CF5A0075CEA575CF5A00004F
:018CB8002299
:088CB900900751EFF0A3EDF06C
:108CC10075CEA575CF5A0075CEA575CF5A00900700
:108CD1005C121BB300000000E49005ECF090075714
:108CE100F0900751E0FF900757E0C39F4003028DCA
:108CF100F875CEA575CF5A0075CEA575CF5A0090DF
:108D010005ECE060FAE49005ECF075CEA575CF5A5C
:108D11000075CEA575CF5A00900752E070097FD437
:108D21007E10129254803AE4FB7D017F0E7E011287
:108D31000000BF013478607C077D017B017A0079F6
:108D4100007E007F0412182C7B017A0779607D0474
:108D510012C1D8900760E0FCA3E0FDA3E0FEA3E010
:108D6100FF900753121BA780079006FEE04410F006
:108D7100E4FFFEFD7C80900753E0F8A3E0F9A3E057
:108D8100FAA3E0FBC3121B244024900753E0FCA389
:108D9100E0FDA3E0FEA3E0FF121AF3EF2401FFE4DC
:108DA1003EFEE43DFDE43CFC900753121BA79007F7
:108DB10053E0FCA3E0FDA3E0FEA3E0FF90075812FF
:108DC1001BA790075CE0FCA3E0FDA3E0FEA3E0FF8E
:108DD100900758E0F8A3E0F9A3E0FAA3E0FBEF2B3A
:108DE100FFEE3AFEED39FDEC38FCA3121BA790070C
:108DF10057E004F0028CE2900751E0FBE4FAF9F845
:108E010090075CE0FCA3E0FDA3E0FEA3E0FF121AE3
:108E11006175CEA575CF5A0075CEA575CF5A0000E4
:018E2100222E
:10A8AB009000B1E0FCA3E0FDA3E0FEA3E0FF90006D
:10A8BB00C9121BA79000B9E0FCA3E0FDA3E0FEA327
:02A8CB00E0FFAC
:10A8CD00E412161C9000CD121BA79000C9E0FCA34A
:10A8DD00E0FDA3E0FEA3E0FFE412161C9000D112F0
:10A8ED001BA79000C9E0FCA3E0FDA3E0FEA3E0FFE1
:10A8FD00E412161CA804A905AA06AB079000CDE02A
:10A90D00FCA3E0FDA3E0FEA3E0FF1213149000D121
:10A91D00E0F8A3E0F9A3E0FAA3E0FB121512900012
:10A92D00D5121BA7E4FFFE7D807C3F9000D5E0F89B
:10A93D00A3E0F9A3E0FAA3E0FB121318A804A905FC
:10A94D00AA06AB07E4FFFE7D807C3F121512900036
:10A95D00D9121BA7E4FFFE7D807CBF9000D9E0F8E3
:10A96D00A3E0F9A3E0FAA3E0FB1213189000DD12A7
:10A97D001BA7E4FFFEFD7C4F9000DDE0F8A3E0F99E
:0FA98D00A3E0FAA3E0FB12140912AC6F12165AE2
:01A99C002298
:06A2C0009000C5121BA76F
:10A2C600E49000CFF07F32FEFDFC9000C9E0F8A3D9
:10A2D600E0F9A3E0FAA3E0FBC3121B2450037F00BE
:10A2E600229000C5E0FCA3E0FDA3E0FEA3E0FFA3EF
:10A2F600E0F8A3E0F9A3E0FAA3E0FBD3121B2440A5
:10A306004D9000C5E0F8A3E0F9A3E0FAA3E0FBA3B3
:10A31600E0FCA3E0FDA3E0FEA3E09BFFEE9AFEEDCA
:10A3260099FDEC98FCE47BE87A03F9F81219D690CB
:10A3360000C9E0F8A3E0F9A3E0FAA3E0FB121A6172
:10A346009000CDEEF0A3EFF0A37401F0804A9000E8
:10A35600C9E0F8A3E0F9A3E0FAA3E0FB9000C5E0AA
:10A36600FCA3E0FDA3E0FEA3E0C39BFFEE9AFEED97
:10A3760099FDEC98FCE47BE87A03F9F81219D6907B
:10A3860000C9E0F8A3E0F9A3E0FAA3E0FB121A6122
:10A396009000CDEEF0A3EFF09000CDE0FEA3E0FF3D
:10A3A6007C0B7DC3121CC6E47BD07A07F9F8121A1F
:0CA3B600619000CFE0B40104EF4480FF90
:01A3C2002278
:069F98009007AA121BA7AE
:109F9E0075CEA575CF5A0075CEA575CF5A00900710
:109FAE00AEE07040A3121BB3000000009007AFE0BC
:109FBE00FCA3E0FDA3E0FEA3E0FF9000CA7410F046
:109FCE00A374E9F012C7AB9007AFE0FCA3E0FDA3CA
:109FDE00E0FEA3E0FF9000CA7410F0A374EEF0123E
:109FEE00C7AB80469007AF121BB30000000090076E
:109FFE00AFE0FCA3E0FDA3E0FEA3E0FF9000007441
:10A00E0001F0A3742EF0E4A3F01200009007AFE06D
:10A01E00FCA3E0FDA3E0FEA3E0FF9000007401F0BE
:10A02E00A3742FF0E4A3F01200009007AEE0FD7FC2
:10A03E0002128B50C004C005C006C0079007AAE0EC
:10A04E00FCA3E0FDA3E0FEA3E0FF9000C9121BA756
:10A05E00D007D006D005D00412A8CD9007AF121BA2
:10A06E00A775CEA575CF5A0075CEA575CF5A00909F
:10A07E0007AEE07011A3E0FCA3E0FDA3E0FEA3E0B9
:10A08E00FF9005C280119007AFE0FCA3E0FDA3E0B6
:0AA09E00FEA3E0FF9005B2121BA71D
:01A0A8002295
:06B539009007B3121BA7EE
:10B53F00C20575CEA575CF5A0075CEA575CF5A0029
:10B54F009007B8121BB3000000009007B7E0701B04
:10B55F00A3E0FCA3E0FDA3E0FEA3E0FF9000CA740C
:10B56F0010F0A374EEF012C7AB801E9007B8E0FC8A
:10B57F00A3E0FDA3E0FEA3E0FF9000007401F0A3A1
:10B58F00742FF0E4A3F01200009007B7E0FD7F03E3
:10B59F00128B50C004C005C006C0079007B3E0FC73
:10B5AF00A3E0FDA3E0FEA3E0FF9000C9121BA7D00C
:10B5BF0007D006D005D00412A2C0E4FCFDFE900710
:10B5CF00B8121BA775CEA575CF5A0075CEA575CF2E
:10B5DF005A009007B7E07011A3E0FCA3E0FDA3E0D1
:10B5EF00FEA3E0FF9005CA80119007B8E0FCA3E02E
:0DB5FF00FDA3E0FEA3E0FF9005BA121BA71C
:01B60C00221B
:067490009007BC121BA7CF
:1074960075CEA575CF5A0075CEA575CF5A00900743
:1074A600C1121BB3000000009007C0E0701BA3E0F0
:1074B600FCA3E0FDA3E0FEA3E0FF9000CA7428F061
:1074C600A3747CF012C7AB80169000007401F0A381
:1074D6007484F0E4A3F07FA9FE7D0BFC1200007516
:1074E600CEA575CF5A0075CEA575CF5A00E4900586
:1074F600ECF09005ECE060FAE49005ECF09007C043
:10750600E0FD7F02128B50C004C005C006C0079084
:1075160007BCE0FCA3E0FDA3E0FEA3E0FF9000C9EA
:10752600121BA7D007D006D005D00412A2C0E4FCD7
:10753600FDFE9007C1121BA775CEA575CF5A007523
:10754600CEA575CF5A009007C0E0700FA3E0FCA34C
:10755600E0FDA3E0FEA3E0FF02765E9007C1A3A3D1
:10756600A3E05480FFEF9007C16066E0FCA3E0FD56
:10757600A3E0FEA3E0547FFFEC9007C1121BA79087
:1075860007C1E0FCA3E0FDA3E0FEA3E0FFE41216C2
:107596001C7BCD7ACC798C783F12140912165A903E
:1075A60007C1121BA79007C1E0FCA3E0FDA3E0FE04
:1075B600A3E0FF7808121B489007C1121BA790078B
:1075C600C1E0FCA3E0FDA3E0FEA3E0FFED440480E0
:1075D6004DE0FCA3E0FDA3E0FEA3E0FFE412161CD1
:1075E6007BCD7ACC798C783F12140912165A900703
:1075F600C1121BA79007C1E0FCA3E0FDA3E0FEA318
:10760600E0FF7808121B489007C1121BA79007C11C
:10761600E0FCA3E0FDA3E0FEA3E0FFED54FBFDECE0
:107626009007C1121BA79005C6121BB3000B00A939
:107636009005C6E0FCA3E0FDA3E0FEA3E0FF9007F3
:10764600C1E0F8A3E0F9A3E0FAA3E0FBEF4BFFEEFD
:0E7656004AFEED49FDEC48FC9005C6121BA74C
:017664002203
:10822E00900008EEF0A3EFF0E024E8FF900008E0E5
:10823E003403AB07FA3395E0F9F8E4FFFEFD7C80DA
:10824E00121A6190000E121BA7900009E024E8FF9D
:10825E00900008E03403AB07FA3395E0F9F8E4FF39
:10826E00FEFD7C80121A61AF0390000AEAF0A3EFC4
:10827E00F090000AE0FEA3E0FF7C037DE81218EE0A
:10828E00900008E0FAA3E0FB24E8FDEA3403FC12B8
:10829E001900A3EEF0A3EFF0AF03AE02EE3395E0BC
:1082AE00FDFC90000EE0F8A3E0F9A3E0FAA3E0FBDA
:1082BE001219D6C004A905AA06AB0790000AE0FC65
:1082CE00A3E0FD900008E0FEA3E0FF1218EE7C0391
:1082DE007DE8121900E4FCFDD000EB2FFFEA3EFE14
:1082EE00ED39FDEC38FC900012121BA7900009E04E
:1082FE0024E8FF900008E03403AB07FA3395E0F969
:10830E00F8900004E0FCA3E0FDA3E0FEA3E0FF1262
:10831E00E528900016121BA7900009E024E8FF90B4
:10832E000008E03403AB07FA3395E0F9F890000447
:10833E00E0FCA3E0FDA3E0FEA3E0FF12E528AE0201
:10834E00AF0390000CEEF0A3EFF07C037DE8121863
:10835E00EE900009E024E8FD900008E03403FC12E2
:10836E00190090000CEEF0A3EFF0E47FE87E03FD21
:10837E00FC900016E0F8A3E0F9A3E0FAA3E0FB12EC
:10838E0019D6A804A905AA06AB0790000CE0FEA317
:10839E00E0FFE4FCFDEB2FFFEA3EFEED39FDEC388D
:1083AE00FC900012E0F8A3E0F9A3E0FAA3E0FBC30F
:0C83BE00EF9BFFEE9AFEED99FDEC98FCA1
:0183CA002290
:10A5C2007FFD7E10129254A804A905AA06AB07E4E7
:10A5D200FFFE7D7DFC121A61900000EEF0A3EFF009
:10A5E200E4FCFD9005AEE0F8A3E0F9A3E0FAA3E0F5
:10A5F200FBC3121B24700302A6BE900000E0FAA364
:10A60200E0FBFFAE02E4FCFD9005AE121BA7D3EB0C
:10A6120094F4EA9401400F900001E0240CFF9000B2
:10A6220000E034FE801F900000E0FEA3E0FFC39430
:10A63200F4EE94015057C374F49FFF74019EFEC35D
:10A64200E49FFFE49EFEEF25E0FFEE33FEC006C06E
:10A65200079005B2E0FCA3E0FDA3E0FEA3E0FF90BB
:10A662000004121BA7D007D00612822E9005C21238
:10A672001BA79005C2E0FCA3E0FDA3E0FEA3E0FF60
:10A682009000CA7410F0A374E9F002C7AB9005B24F
:10A69200E0FCA3E0FDA3E0FEA3E0FF9000CA74107B
:10A6A200F0A374E9F012C7AB9005B2E0FCA3E0FDA1
:0CA6B200A3E0FEA3E0FF9005C2121BA76E
:01A6BE002279
:102DF200900663121BB30000000020AF030235CE21
:102E02009005ED7455F090BC92121B8790066712E4
:102E12001BA7E47F19FEFDFC900667E0F8A3E0F92A
:102E2200A3E0FAA3E0FB1219D6E47B0AFAF9F8123E
:102E32001A6190066D121BA7E47F46FEFDFC900608
:102E420067E0F8A3E0F9A3E0FAA3E0FB1219D6E4E5
:102E52007B64FAF9F8121A61900671121BA7E47FDB
:102E620023FEFDFC900667E0F8A3E0F9A3E0FAA3D5
:102E7200E0FB1219D6E47B64FAF9F8121A619006A3
:102E820075121BA7E47F03FEFDFC900667E0F8A322
:102E9200E0F9A3E0FAA3E0FB1219D6E47B64FAF9A5
:102EA200F8121A61900679121BA775CEA575CF5A32
:102EB2000075CEA575CF5A00E4FD7F04128B5090A9
:102EC200067D121BA790066DE0FCA3E0FDA3E0FEC9
:102ED200A3E0FF90067DE0F8A3E0F9A3E0FAA3E007
:102EE200FBD3121B244008E490066BF0022F709073
:102EF2000671E0FCA3E0FDA3E0FEA3E0FF90067DE7
:102F0200E0F8A3E0F9A3E0FAA3E0FBD3121B24400C
:102F12000890066B7401F08055900675E0FCA3E002
:102F2200FDA3E0FEA3E0FF90067DE0F8A3E0F9A395
:102F3200E0FAA3E0FBD3121B24400890066B740254
:102F4200F0802B900679E0FCA3E0FDA3E0FEA3E075
:102F5200FFA3E0F8A3E0F9A3E0FAA3E0FBD3121B7E
:102F62002490066B40057403F080037408F0900609
:102F72006BE070199005C2121BB3000000009005AF
:102F8200C6121BB3000000007FA01203AE90066BB6
:102F9200E0640160030231BB900667E0FCA3E0FD40
:102FA200A3E0FEA3E0FFE49007AEF0129F98900624
:102FB2005F121BB300000000E490065AF07F1E7EF1
:102FC2000012EFED7FD57E1012925490065B121B19
:102FD200A7E4FFFEFD7C8090065BE0F8A3E0F9A386
:102FE200E0FAA3E0FBC3121B24402490065BE0FC42
:102FF200A3E0FDA3E0FEA3E0FF121AF3EF2401FF1A
:10300200E43EFEE43DFDE43CFC90065B121BA7900F
:10301200065FE0FCA3E0FDA3E0FEA3E0FF90065BF9
:10302200E0F8A3E0F9A3E0FAA3E0FBEF2BFFEE3A0E
:10303200FEED39FDEC38FCA3121BA775CEA575CFAA
:103042005A0075CEA575CF5A0090065AE004F0E0FA
:10305200C394085003022FBF90065FE0FCA3E0FD7B
:10306200A3E0FEA3E0FFE47B08FAF9F8121A6190EC
:10307200065F121BA790065FE0FCA3E0FDA3E0FE43
:10308200A3E0FFE412161CC004C005C006C00790EE
:10309200BC86121B87E412161CD003D002D001D0CA
:1030A200001215129005E6121BA790065F121BB3C1
:1030B20000000000E490065AF07F1E7E0012EFED41
:1030C2007FD37E1012925490065B121BA7E4FFFE80
:1030D200FD7C8090065BE0F8A3E0F9A3E0FAA3E0B0
:1030E200FBC3121B24402490065BE0FCA3E0FDA37B
:1030F200E0FEA3E0FF121AF3EF2401FFE43EFEE438
:103102003DFDE43CFC90065B121BA790065FE0FCD1
:10311200A3E0FDA3E0FEA3E0FF90065BE0F8A3E0DE
:10312200F9A3E0FAA3E0FBEF2BFFEE3AFEED39FD47
:10313200EC38FCA3121BA775CEA575CF5A0075CE2D
:10314200A575CF5A0090065AE004F0E0C3940850E7
:10315200030230BB90065FE0FCA3E0FDA3E0FEA308
:10316200E0FFE47B08FAF9F8121A6190065F121B7D
:10317200A790065FE0FCA3E0FDA3E0FEA3E0FFE46E
:1031820012161CC004C005C006C00790BC82121BE8
:1031920087E412161CD003D002D001D000121512FF
:1031A2009005DE121BA77FA11203AE75CEA575CFC7
:1031B2005A0075CEA575CF5A0090066BE0B402385E
:1031C200900667E0FCA3E0FDA3E0FEA3E0FFE47B42
:1031D20002FAF9F8121A61900667121BA7900667A5
:1031E200E0FCA3E0FDA3E0FEA3E0FFE49007C0F053
:1031F2001274907FA21203AE90066BE0B403389073
:103202000667E0FCA3E0FDA3E0FEA3E0FFE47B147D
:10321200FAF9F8121A61900667121BA7900667E086
:10322200FCA3E0FDA3E0FEA3E0FFE49007B7F012E9
:10323200B5397FA31203AE90066CE0B40419900571
:10324200C2121BB3000000009005C6121BB3000B94
:1032520000A97FA41203AE90066CE064056003022D
:1032620034DB9007AE04F07FED7EB37D637C001209
:103272009F9890065F121BB300000000E490065A6C
:10328200F0E4FB7D017F0E7E01120000BF01347865
:10329200817C067D017B017A0079007E007F041229
:1032A200182C7B017A0679817D0412C1D89006819F
:1032B200E0FCA3E0FDA3E0FEA3E0FF90065B121B8F
:1032C200A780079006FEE04410F0E4FFFEFD7C803C
:1032D20090065BE0F8A3E0F9A3E0FAA3E0FBC312D7
:1032E2001B24402490065BE0FCA3E0FDA3E0FEA3C8
:1032F200E0FF121AF3EF2401FFE43EFEE43DFDE499
:103302003CFC90065B121BA790065FE0FCA3E0FD6D
:10331200A3E0FEA3E0FF90065BE0F8A3E0F9A3E0E0
:10332200FAA3E0FBEF2BFFEE3AFEED39FDEC38FCA1
:10333200A3121BA775CEA575CF5A0075CEA575CF62
:103342005A0090065AE004F0E0C394085003023297
:103352008390065FE0FCA3E0FDA3E0FEA3E0FFE4B0
:103362007B08FAF9F8121A6190065F121BA7900601
:103372005FE0FCA3E0FDA3E0FEA3E0FFE412161C65
:10338200C004C005C006C00790BC86121B87E412A9
:10339200161CD003D002D001D0001215129005E6FF
:1033A200121BA790065F121BB300000000E49006F8
:1033B2005AF0E4FB7D017F0D7E01120000BF013453
:1033C20078817C067D017B017A0079007E007F0492
:1033D20012182C7B017A0679817D0412C1D89006DD
:1033E20081E0FCA3E0FDA3E0FEA3E0FF90065B12F8
:1033F2001BA780079006FEE04410F0E4FFFEFD7C70
:103402008090065BE0F8A3E0F9A3E0FAA3E0FBC337
:10341200121B24402490065BE0FCA3E0FDA3E0FE27
:10342200A3E0FF121AF3EF2401FFE43EFEE43DFDA8
:10343200E43CFC90065B121BA790065FE0FCA3E055
:10344200FDA3E0FEA3E0FF90065BE0F8A3E0F9A392
:10345200E0FAA3E0FBEF2BFFEE3AFEED39FDEC388C
:10346200FCA3121BA775CEA575CF5A0075CEA57504
:10347200CF5A0090065AE004F0E0C39408500302C9
:1034820033B490065FE0FCA3E0FDA3E0FEA3E0FFFF
:10349200E47B08FAF9F8121A6190065F121BA790F2
:1034A200065FE0FCA3E0FDA3E0FEA3E0FFE412164A
:1034B2001CC004C005C006C00790BC82121B87E472
:1034C20012161CD003D002D001D0001215129005A2
:1034D200DE121BA77FA51203AE90066CE0B406397C
:1034E200900667E0FCA3E0FDA3E0FEA3E0FFE47B1F
:1034F20002FAF9F8121A61900667121BA790066782
:10350200E0FCA3E0FDA3E0FEA3E0FF9007C074018E
:10351200F01274907FA61203AE90066CE0B40739E5
:10352200900667E0FCA3E0FDA3E0FEA3E0FFE47BDE
:1035320014FAF9F8121A61900667121BA79006672F
:10354200E0FCA3E0FDA3E0FEA3E0FF9007B7740157
:10355200F012B5397FA71203AE90066CE0640870D2
:103562005290066BE06408704A12DB9E75CEA57518
:10357200CF5A0075CEA575CF5A0075CEA575CF5A14
:103582000075CEA575CF5A0012A0A9900564E0750A
:10359200F00AA424A8F582E43405F583E4F0A3F04C
:1035A20075CEA575CF5A0075CEA575CF5A007FA8E6
:1035B2001203AE12E9451266C575CEA575CF5A0043
:0C35C20075CEA575CF5A00E49005EDF021
:0135CE0022DA
:0B556200900093EBF0A3EAF0A3E9F047
:10556D00E49000A2F0900093E0FBA3E0FAA3E0F931
:10557D0090000D12186BFF12E86F9000A3EFF090E2
:10558D000093E0FBA3E0FAA3E0F990000E12186B74
:10559D00FF12E86FEFC454F0FEC006900093E0FBDD
:1055AD00A3E0FAA3E0F990000F12186BFF12E86F59
:1055BD00D0E02F9000A4F0900093E0FBA3E0FAA3BD
:1055CD00E0F990001112186BFF12E86FEFC454F060
:1055DD00FEC006900093E0FBA3E0FAA3E0F9900073
:1055ED001212186BFF12E86FD0E02F9000A5F07B20
:1055FD00017A0079A212B7AB900096121BA7E49026
:10560D0000A2F0900093E0FBA3E0FAA3E0F9900074
:10561D001312186BFF12E86F9000A3EFF090009338
:10562D00E0FBA3E0FAA3E0F990001412186BFF124F
:10563D00E86FEFC454F0FEC006900093E0FBA3E0CA
:10564D00FAA3E0F990001612186BFF12E86FD0E084
:10565D002F9000A4F0900093E0FBA3E0FAA3E0F9F3
:10566D0090001712186BFF12E86FEFC454F0FEC0D4
:10567D0006900093E0FBA3E0FAA3E0F99000181266
:10568D00186BFF12E86FD0E02F9000A5F07B017A28
:10569D000079A212B7AB90009A121BA7E49000A25A
:1056AD00F0900093E0FBA3E0FAA3E0F9900019124B
:1056BD00186BFF12E86F9000A3EFF0900093E0FBE2
:1056CD00A3E0FAA3E0F990001A12186BFF12E86F2D
:1056DD00EFC454F0FEC006900093E0FBA3E0FAA3E4
:1056ED00E0F990001B12186BFF12E86FD0E02F90BD
:1056FD0000A4F0900093E0FBA3E0FAA3E0F9900082
:10570D001C12186BFF12E86FEFC454F0FEC0069028
:10571D000093E0FBA3E0FAA3E0F990001E12186BD2
:10572D00FF12E86FD0E02F9000A5F07B017A007991
:10573D00A212B7AB90009E121BA7900093E0FBA3A3
:10574D00E0FAA3E0241FF9E43AFA9001DFEBF0A3AD
:10575D00EAF0A3E9F0A3E4F0A37406F07B017A006C
:10576D0079A612DF32E49000ACF07B017A0079A6C5
:10577D0012E4519000AD121BA7900577E0FCA3E059
:10578D00FDA3E0FEA3E0FF121C8C57BF0000FEB08E
:10579D0058050000FEB158180000FEB257BF0000BA
:1057AD00FEB358050000FEB458180000FEB5000009
:1057BD00583D9000ADE0FCA3E0FDA3E0FEA3E0FFAB
:1057CD0012BA0175CEA575CF5A0075CEA575CF5AF3
:1057DD0000900096E0FCA3E0FDA3E0FEA3E0FF90A7
:1057ED0000B5121BA790009AE0FCA3E0FDA3E0FE1C
:1057FD00A3E0FF125D3A80249000ADE0FCA3E0FD34
:10580D00A3E0FEA3E0FF129E7480119000ADE0FCBA
:10581D00A3E0FDA3E0FEA3E0FF127D3E12E94512D9
:10582D0066C575CEA575CF5A0075CEA575CF5A0034
:01583D002248
:06BA01009000B1121BA72A
:10BA070075CEA575CF5A0075CEA575CF5A00E4FF40
:10BA1700FEFDFC9000B1E0F8A3E0F9A3E0FAA3E093
:10BA2700FB1215AFE4FFFE7DC87C429000B1E0F841
:10BA3700A3E0F9A3E0FAA3E0FB1213187B007A5006
:10BA470079C3784712140912165A9000B5121BA72A
:10BA5700E47FB07EFEFDFC900577E0F8A3E0F9A354
:10BA6700E0FAA3E0FBC3121B2470527FE87E10129A
:10BA770092549000B9121BA79000C9121BB30098EB
:10BA870096809000B512A8C29000B9121BA790002B
:10BA9700B9E0FCA3E0FDA3E0FEA3E0FF9000CA74B9
:10BAA70010F0A374E8F012C7AB9000B9E0FCA3E074
:0DBAB700FDA3E0FEA3E0FF9005B2121BA767
:01BAC400225F
:065D3A009000B1121BA74E
:105D4000E47FB07EFEFDFC900577E0F8A3E0F9A3C8
:105D5000E0FAA3E0FBC3121B246003025E597FD963
:105D60007E101292549000B9121BA79000B9E0FC6B
:105D7000A3E0FDA3E0FEA3E0FFE412161C9005E201
:105D8000E0F8A3E0F9A3E0FAA3E0FB12140912166D
:105D90005A9000B9121BA77FEB7E1012925490000C
:105DA000BD121BA7E4FFFEFDFC9000BDE0F8A3E0E0
:105DB000F9A3E0FAA3E0FBC3121B24701D12A8ABE9
:105DC0009000BD121BA79000BDE0FCA3E0FDA3E086
:105DD000FEA3E0FF9005BE121BA77FD87E10129293
:105DE000549000B9121BA7E4FFFE7D207C41900572
:105DF000DEE0F8A3E0F9A3E0FAA3E0FB121409C087
:105E000004C005C006C0079000B9E0FCA3E0FDA3F4
:105E1000E0FEA3E0FFE412161CD003D002D001D0B4
:105E20000012140912165A9000B9121BA77FEA7EBD
:105E3000101292549000BD121BA7E4FFFEFDFC90CF
:105E400000BDE0F8A3E0F9A3E0FAA3E0FBC3121B56
:105E5000246003025FA7025F6CE47FB37EFEFDFC5B
:105E6000900577E0F8A3E0F9A3E0FAA3E0FBC31202
:105E70001B246003025FA77FDA7E10129254900009
:105E8000B9121BA79000B9E0FCA3E0FDA3E0FEA3BC
:105E9000E0FFE412161C9005E6E0F8A3E0F9A3E0A9
:105EA000FAA3E0FB12140912165A9000B9121BA7AC
:105EB0007FEC7E101292549000BD121BA7E4FFFEEF
:105EC000FDFC9000BDE0F8A3E0F9A3E0FAA3E0FB3D
:105ED000C3121B24701D12A8AB9000BD121BA7900B
:105EE00000BDE0FCA3E0FDA3E0FEA3E0FF9005CE33
:105EF000121BA77FD87E101292549000B9121BA7D4
:105F0000E4FFFE7D207C419005DEE0F8A3E0F9A3EC
:105F1000E0FAA3E0FB121409C004C005C006C007E4
:105F20009000B9E0FCA3E0FDA3E0FEA3E0FFE412D3
:105F3000161CD003D002D001D00012140912165A38
:105F40009000B9121BA77FEA7E101292549000BDF8
:105F5000121BA7E4FFFEFDFC9000BDE0F8A3E0F9F2
:105F6000A3E0FAA3E0FBC3121B24703B9000B51220
:105F7000A8AE9000BD121BA79000BDE0FCA3E0FD01
:105F8000A3E0FEA3E0FF9005D2121BA79000BDE0A6
:105F9000FCA3E0FDA3E0FEA3E0FF9000CA7410F0B4
:075FA000A374EAF012C7AB85
:015FA70022D7
:069E74009000B1121BA7D3
:109E7A00E4FFFEFDFC9000B1E0F8A3E0F9A3E0FAEC
:109E8A00A3E0FB1215AFE4FFFE7DC87C429000B14F
:109E9A00E0F8A3E0F9A3E0FAA3E0FB1213187B00B1
:109EAA007A5079C3784712140912165A9000B512DB
:109EBA001BA79000C9121BB3009896809000B5E0CA
:109ECA00FCA3E0FDA3E0FEA3E0FF12A2C0E4FCFDB8
:109EDA00FE9000B9121BA7E47FB17EFEFDFC90053F
:109EEA0077E0F8A3E0F9A3E0FAA3E0FBC3121B248E
:109EFA00703F9000B9E0FCA3E0FDA3E0FEA3E0FF01
:109F0A009005B6121BA77B017A0079BD9000B9E0D3
:109F1A00FCA3E0FDA3E0FEA3E0FF12BD019000C098
:109F2A00E0FFE4FCFDFE9000CA7428F0A3747B8075
:109F3A0058E47FB47EFEFDFC900577E0F8A3E0F9D3
:109F4A00A3E0FAA3E0FBC3121B2470419000B9E01E
:109F5A00FCA3E0FDA3E0FEA3E0FF9005C6121BA749
:109F6A007B017A0079C19000B9E0FCA3E0FDA3E08F
:109F7A00FEA3E0FF12BD019000C4E0FFE4FCFDFE79
:0D9F8A009000CA7428F0A3747CF012C7ABDD
:019F970022A7
:067D3E009000B1121BA72A
:107D4400E47FB27EFEFDFC900577E0F8A3E0F9A3A2
:107D5400E0FAA3E0FBC3121B246003027E147FD667
:107D64007E101292549000BE121BA79000BEE0FC3D
:107D7400A3E0FDA3E0FEA3E0FFEC12161C9000B10B
:107D8400E0F8A3E0F9A3E0FAA3E0FB121409E4FB92
:107D9400FA79C8784212151212165A9000BA121BB8
:107DA400A7E49000B9F0FFFEFDFCA3E0F8A3E0F91E
:107DB400A3E0FAA3E0FBD3121B0E9000BAE0FCA3ED
:107DC400E0FDA3E0FEA3E04003FF800F24FFFFEEED
:107DD40034FFFEED34FFFDEC34FFFC9000B5121BC4
:107DE400A79000B5E0FCA3E0FDA3E0FEA3E0FF90B4
:107DF40000CA7410F0A374EDF012C7AB9000B5E0A4
:107E0400FCA3E0FDA3E0FEA3E0FF9005BA027EE13F
:107E1400E47FB57EFEFDFC900577E0F8A3E0F9A3CE
:107E2400E0FAA3E0FBC3121B246003027EE47FD7C5
:107E34007E101292549000BE121BA79000BEE0FC6C
:107E4400A3E0FDA3E0FEA3E0FFEC12161C9000B13A
:107E5400E0F8A3E0F9A3E0FAA3E0FB121409E4FBC1
:107E6400FA79C8784212151212165A9000BA121BE7
:107E7400A7E49000B9F0FFFEFDFCA3E0F8A3E0F94D
:107E8400A3E0FAA3E0FBD3121B0E9000BAE0FCA31C
:107E9400E0FDA3E0FEA3E04003FF800F24FFFFEE1C
:107EA40034FFFEED34FFFDEC34FFFC9000B5121BF3
:107EB400A79000B5E0FCA3E0FDA3E0FEA3E0FF90E3
:107EC40000CA7410F0A374EEF012C7AB9000B5E0D2
:107ED400FCA3E0FDA3E0FEA3E0FF9005CA121BA7EC
:017EE400227B
:03F1A60002E6B4CA
:105AC100900000EFF0BF030C9028637480F0A3E412
:105AD100F0D28422C2849000CA7428F0A3747DF0AD
:105AE1007F007E007D007C0012C7AB9000CA742845
:105AF100F0A37478F07F007E007D007C0012C7ABBC
:105B01009028637480F0A3E4F0900000E07023FF1C
:105B1100FE7D32FC12BE6C902864E04407F09000D8
:105B2100CA7410F0A374EFF07FBC7E747D937C88FF
:105B31008031900000E0FF64016004EFB402297F2E
:105B4100007E807D0C7C0012BE6C902864E04403D2
:105B5100F09000CA7410F0A374EFF07F9C7E3C7D3E
:105B61001D7C9112C7AB800312F0FB902858744939
:105B7100F09000CA7410F0A374F4F07F307EA87D19
:105B8100617C0412C7AB9000CA7410F0A374FAF0E0
:105B91007F107EC27DDE7C0612C7AB9000CA7410F6
:105BA100F0A374F5F07F017E007D007C0012C7AB8D
:105BB1009000CA7410F0A374FBF07F017E007D0099
:105BC1007C0012C7AB9000CA7428F0A37478F07FF0
:105BD100737E007D007C0012C7AB9000CA7428F070
:105BE100A37479F07F007E007D007C0012C7AB902A
:105BF10000CA7428F0A3747AF07F607E007D007C77
:105C01000012C7AB9000CA7410F0A374F0F07F00CB
:105C11007E007D007C0012C7AB9000CA7410F0A317
:105C210074F1F07F007E007D007C0012C7AB900014
:105C3100CA7410F0A374F2F07F007E007D007C0036
:105C410012C7AB9000CA7410F0A374F3F07F007E0A
:105C5100007D007C0012C7AB9000CA7410F0A374E1
:105C6100F6F07F007E007D007C0012C7AB9000CA79
:105C71007410F0A374F7F07F007E007D007C0012A9
:105C8100C7AB9000CA7410F0A374F8F07F007E00D7
:105C91007D007C0012C7AB9000CA7410F0A374F9A8
:105CA100F07F007E007D007C0012C7AB9000CA74BB
:105CB10028F0A3747DF07F7F7E007D007C0012C7F9
:105CC100AB9000CA7428F0A3747BF07F007E007D46
:105CD100007C0012C7AB9000CA7428F0A3747CF05A
:105CE1007F007E007D007C0012C7AB9000CA742843
:105CF100F0A3747EF07F007E007D007C0012C7ABB4
:105D01009000CA7410F0A374FCF07F007E007D0047
:105D11007C0012C7AB53A4DF43AD2053A4BF43ADF6
:105D21004043E803902843E04480F090284BE0444E
:095D310080F09007ED7403F022EC
:058F8A0090000CEFF067
:108F8F006401704E7FD37E1012925490000D121B0D
:108F9F00A7E4FFFEFD7C8090000DE0F8A3E0F9A3AD
:108FAF00E0FAA3E0FBC3121B24402490000DE0FC69
:108FBF00A3E0FDA3E0FEA3E0FF121AF3EF2401FFED
:108FCF00E43EFEE43DFDE43CFC90000D121BA702C5
:108FDF00907290000CE0640260030290B4FB7D017C
:108FEF007F1B7E01120000BF013478197C007D01C8
:108FFF007B017A0079007E007F0412182C7B017AA6
:10900F000079197D0412C1D8900019E0FCA3E0FD8E
:10901F00A3E0FEA3E0FF90000D121BA780079006B0
:10902F00FEE04410F0E4FFFEFD7C8090000DE0F8C0
:10903F00A3E0F9A3E0FAA3E0FBC3121B24402490A2
:10904F00000DE0FCA3E0FDA3E0FEA3E0FF121AF386
:10905F00EF2401FFE43EFEE43DFDE43CFC90000DF7
:10906F00121BA790000DE0FCA3E0FDA3E0FEA3E020
:10907F00FFE412161C9005DEE0F8A3E0F9A3E0FA76
:10908F00A3E0FB121409900015121BA7900015E026
:10909F00FCA3E0FDA3E0FEA3E0FF12165A9000111F
:1090AF00121BA7800A900011121BB300000000E4EE
:1090BF007F32FEFDFC900011E0F8A3E0F9A3E0FA87
:1090CF00A3E0FBC3121B24500A900011121BB30024
:1090DF00000000900011E0FCA3E0FDA3E0FEA3E080
:0190EF00FF81
:0190F000225D
:059C200090000CEFF0C4
:109C25006401704D7FD57E1012925490000D121B69
:109C3500A7E4FFFEFD7C8090000DE0F8A3E0F9A30A
:109C4500E0FAA3E0FBC3121B24407C90000DE0FC6E
:109C5500A3E0FDA3E0FEA3E0FF121AF3EF2401FF4A
:109C6500E43EFEE43DFDE43CFC90000D121BA780A4
:109C75005690000CE064026003029D0E7FD47E10B6
:109C850012925490000D121BA7E4FFFEFD7C8090FC
:109C9500000DE0F8A3E0F9A3E0FAA3E0FBC3121B73
:109CA50024402490000DE0FCA3E0FDA3E0FEA3E02A
:109CB500FF121AF3EF2401FFE43EFEE43DFDE43C10
:109CC500FC90000D121BA790000DE0FCA3E0FDA386
:109CD500E0FEA3E0FFE412161C9005E6E0F8A3E021
:109CE500F9A3E0FAA3E0FB121409900015121BA7D3
:109CF500900015E0FCA3E0FDA3E0FEA3E0FF121633
:109D05005A900011121BA7800A900011121BB30074
:109D1500000000E47F14FEFDFC900011E0F8A3E0D4
:109D2500F9A3E0FAA3E0FBC3121B24500A9000112B
:109D3500121BB300000000900011E0FCA3E0FDA39E
:059D4500E0FEA3E0FFB9
:019D4A0022F6
:056D0A00900715EFF0F9
:106D0F006003026D967FD17E101292549007161277
:106D1F001BA7E4FB7D017F197E01120000BF013428
:106D2F0078267C077D017B017A0079007E007F0445
:106D3F0012182C7B017A0779267D0412C1D890078F
:106D4F0026E0FCA3E0FDA3E0FEA3E0FF90071A12EC
:106D5F001BA780079006FEE04410F090071AE0FC96
:106D6F00A3E0FDA3E0FEA3E0FF900716E0F8A3E089
:106D7F00F9A3E0FAA3E02FFFEA3EFEE93DFDE83C70
:106D8F00FC90071E121BA7900715E0B4012C7FD1B2
:106D9F007E10129254900716121BA7E4FFFEFD7C83
:106DAF0080900716E0F8A3E0F9A3E0FAA3E0FBC395
:106DBF00121B245003026E66806D900715E064026B
:106DCF006003026E5CFB7D017F197E01120000BF24
:106DDF00013478267C077D017B017A0079007E00E3
:106DEF007F0412182C7B017A0779267D0412C1D8F3
:106DFF00900726E0FCA3E0FDA3E0FEA3E0FF9007D1
:106E0F0016121BA780079006FEE04410F0E4FFFE69
:106E1F00FD7C80900716E0F8A3E0F9A3E0FAA3E069
:106E2F00FBC3121B244030900716E0FCA3E0FDA328
:106E3F00E0FEA3E0FF121AF3EF2401FFE43EFEE4AD
:106E4F003DFDE43CFC900716121BA7800A90071625
:106E5F00121BB300000000E47F867E19FDFC900733
:106E6F0016E0F8A3E0F9A3E0FAA3E0FBC3121B249A
:106E7F00500C90071E121BB3000000008063900798
:106E8F0015E0B4011FA3E0FCA3E0FDA3E0FEA3E027
:106E9F00FFE412161C90BC96121B97121409900750
:106EAF0022121BA7900715E0B4021FA3E0FCA3E07A
:106EBF00FDA3E0FEA3E0FFE412161C90BC96121B8C
:106ECF0097121409900722121BA7900722E0FCA328
:106EDF00E0FDA3E0FEA3E0FF12165A90071E121B5F
:0F6EEF00A790071EE0FCA3E0FDA3E0FEA3E0FFD9
:016EFE002271
:05B1D70090000CEFF0F8
:10B1DC00BF01247FFD7E1012925490000D121BA70C
:10B1EC0090000DE0F8A3E0F9A3E0FAA3E0FBE4FF84
:10B1FC00FE7DE27C04805D90000CE064027069FBD3
:10B20C007D017F9A7E01120000EF64017051781568
:10B21C007C007D017B017A007900FE7F0412182CE2
:10B22C007B017A0079157D0412C1D8900015E0FCE1
:10B23C00A3E0FDA3E0FEA3E0FF90000D121BA7907E
:10B24C00000DE0F8A3E0F9A3E0FAA3E0FBE4FFFEB5
:10B25C007D887C13121A61900011121BA780139029
:10B26C0006FEE04410F0800A900011121BB300009F
:10B27C000000900011E0FCA3E0FDA3E0FEA3E0FFC2
:10B28C00E412161C7B9A7A997999783F1214091258
:10B29C00165A900011121BA7900011E0FCA3E0FDC0
:06B2AC00A3E0FEA3E0FF99
:01B2B2002279
:107EE500900010121BB3000000007FD17E1012928B
:107EF50054900010121BA7E4FFFEFD7C809000103B
:107F0500E0F8A3E0F9A3E0FAA3E0FBC3121B249079
:107F150007EEE0402954EFF0900010E0FCA3E0FDEF
:107F2500A3E0FEA3E0FF121AF3EF2401FFE43EFEF7
:107F3500E43DFDE43CFC900010121BA780034410B7
:107F4500F0900010E0FCA3E0FDA3E0FEA3E0FF90AD
:107F5500000C121BA7E47F867E19FDFC900010E043
:107F6500F8A3E0F9A3E0FAA3E0FBC3121B24501B1E
:107F750090000C121BB300000000900010121BB300
:107F8500000000009007EEE054EFF090000CE0FCDC
:107F9500A3E0FDA3E0FEA3E0FF9000CA7410F0A3E8
:107FA50074FCF012C7AB900010E0FCA3E0FDA3E069
:107FB500FEA3E0FFE412161C90BC96121B97121448
:107FC5000912165A900693121BA77FD27E101292A1
:107FD50054900010121BA7E4FFFEFD7C809000105A
:107FE500E0F8A3E0F9A3E0FAA3E0FBC3121B2440E9
:107FF50024900010E0FCA3E0FDA3E0FEA3E0FF1247
:108005001AF3EF2401FFE43EFEE43DFDE43CFC9061
:108015000010121BA7900010E0FCA3E0FDA3E0FEFA
:10802500A3E0FF90000C121BA7E47F867E19FDFCE0
:10803500900010E0F8A3E0F9A3E0FAA3E0FBC31277
:108045001B24501490000C121BB30000000090007C
:1080550010121BB300000000900010E0FCA3E0FD2F
:10806500A3E0FEA3E0FFE412161C90BC9A121B9736
:108075001214097B397AB479C8783F121512121691
:078085005A900697021BA7A9
:103BD8009006CC121BB3000000009006C8121BB35D
:103BE800000000009006D4121BB3000000007FD232
:103BF8007E101292549006CC121BA77FEE7E1012F4
:103C080092549006C8121BA7E4FB7D017F1A7E011F
:103C1800120000EF6401704578DC7C067D017B01B1
:103C28007A007900FE7F0412182C7B017A0679DC71
:103C38007D0412C1D89006DCE0FCA3E0FDA3E0FE01
:103C4800A3E0FFE412161C7BCB7AA179D5783F124A
:103C5800140912165A9006D4121BA780089006FE63
:103C6800E04410F022E47F867E19FDFC9006D0E047
:103C7800F8A3E0F9A3E0FAA3E0FBD3121B24401B4E
:103C88007F7A7EE67DFF7CFF9006D0E0F8A3E0F91E
:103C9800A3E0FAA3E0FB121B24400A9006D0121BF3
:103CA800B300000000E47F867E19FDFC9006D8E092
:103CB800F8A3E0F9A3E0FAA3E0FBD3121B24401B0E
:103CC8007F7A7EE67DFF7CFF9006D8E0F8A3E0F9D6
:103CD800A3E0FAA3E0FB121B24400A9006D8121BAB
:103CE800B3000000009006CC9006D49007EEE030B8
:103CF800E503023E1E30E3509006D4E0FCA3E0FD4D
:103D0800A3E0FEA3E0FF121AF3EF2401FFE43EFE56
:103D1800E43DFDE43CFC9006D4121BA79006CCE0E1
:103D2800FCA3E0FDA3E0FEA3E0FF9006D4E0F8A327
:103D3800E0F9A3E0FAA3E02FFFEA3EFEE93DFDE843
:103D48003CFC9006DC023F619006D4E0FCA3E0FD59
:103D5800A3E0FEA3E0FF9006CCE0F8A3E0F9A3E01F
:103D6800FAA3E0FBC3121B2440509006D4E0F8A34A
:103D7800E0F9A3E0FAA3E0FB9006CCE0FCA3E0FDA9
:103D8800A3E0FEA3E09BFFEE9AFEED99FDEC98FC04
:103D98009006DC121BA79006D4E0FCA3E0FDA3E08C
:103DA800FEA3E0FF121AF3EF2401FFE43EFEE43D18
:103DB800FDE43CFC9006D4023F619006CCE0F8A3F9
:103DC800E0F9A3E0FAA3E0FB9006D4E0FCA3E0FD51
:103DD800A3E0FEA3E0C39BFFEE9AFEED99FDEC98ED
:103DE800FC9006DC121BA7900709E06455600302EB
:103DF8003F649006D4E0FCA3E0FDA3E0FEA3E0FF4F
:103E0800121AF3EF2401FFE43EFEE43DFDE43CFC1E
:103E18009006D4023F619007EEE020E303023EFFE4
:103E28009006D4E0FCA3E0FDA3E0FEA3E0FF90062B
:103E3800CCE0F8A3E0F9A3E0FAA3E0FBC3121B244B
:103E480040659006D4E0F8A3E0F9A3E0FAA3E0FB0C
:103E58009006CCE0FCA3E0FDA3E0FEA3E09BFFEE10
:103E68009AFEED99FDEC98FC9006DC121BA79007D2
:103E780009E064559006D4600DE0FCA3E0FDA3E0E2
:103E8800FEA3E0FF801BE0FCA3E0FDA3E0FEA3E0AF
:103E9800FF121AF3EF2401FFE43EFEE43DFDE43C8B
:103EA800FC9006D4023F619006CCE0F8A3E0F9A3A9
:103EB800E0FAA3E0FB9006D4E0FCA3E0FDA3E0FE5B
:103EC800A3E0C39BFFEE9AFEED99FDEC98FC9006EB
:103ED800DC121BA79006D4E0FCA3E0FDA3E0FEA340
:103EE800E0FF121AF3EF2401FFE43EFEE43DFDE497
:103EF8003CFC9006D480629006D4E0FCA3E0FDA3CD
:103F0800E0FEA3E0FF9006CCE0F8A3E0F9A3E0FA16
:103F1800A3E02FFFEA3EFEE93DFDE83CFC9006DC0D
:103F2800121BA7900709E064559006D4600DE0FCC9
:103F3800A3E0FDA3E0FEA3E0FF801BE0FCA3E0FDFF
:103F4800A3E0FEA3E0FF121AF3EF2401FFE43EFE14
:103F5800E43DFDE43CFC9006D4121BA79005B2E0BA
:103F6800FCA3E0FDA3E0FEA3E02400FFE43EFEE4A2
:103F78003DFDEC3480FCE412161CA804A905AA0631
:103F8800AB07E4FFFEFD7C4F1215129006E0121BF2
:103F9800A7E4FFFEFD7C809006D4E0F8A3E0F9A337
:103FA800E0FAA3E0FBD3121B249006D4E0FC406B9C
:103FB800A3E0FDA3E0FEA3E0FF121AF3EF2401FF44
:103FC800E43EFEE43DFDE43CFC9006D4121BA790C1
:103FD80006D4E0FCA3E0FDA3E0FEA3E0FFE4121694
:103FE8001C9006E0E0F8A3E0F9A3E0FAA3E0FB12D6
:103FF800140912165A9006D4121BA79006D4E0FC96
:10400800A3E0FDA3E0FEA3E0FF121AF3EF2401FFF3
:10401800E43EFEE43DFDE43CFC8021A3E0FDA3E09A
:10402800FEA3E0FFE412161C9006E0E0F8A3E0F916
:10403800A3E0FAA3E0FB12140912165A9006D41250
:104048001BA79006D4E0FCA3E0FDA3E0FEA3E0FFDD
:104058009000CA7410F0A374EEF012C7ABE4FFFE30
:10406800FD7C809006D4E0F8A3E0F9A3E0FAA3E091
:10407800FBD3121B2440249006D4E0FCA3E0FDA34C
:10408800E0FEA3E0FF121AF3EF2401FFE43EFEE492
:104098003DFDE43CFC9006D4121BA7E4FFFEFD7C2A
:1040A800809006CCE0F8A3E0F9A3E0FAA3E0FBD304
:1040B800121B2440249006CCE0FCA3E0FDA3E0FE04
:1040C800A3E0FF121AF3EF2401FFE43EFEE43DFDF6
:1040D800E43CFC9006CC121BA7E4FFFEFD7C80901C
:1040E80006DCE0F8A3E0F9A3E0FAA3E0FBD3121B97
:1040F8002440249006DCE0FCA3E0FDA3E0FEA3E05E
:10410800FF121AF3EF2401FFE43EFEE43DFDE43C18
:10411800FC9006DC121BA79006CCE0FCA3E0FDA3F4
:10412800E0FEA3E0FFE412161C90BC9A121B971243
:10413800140912165A900697121BA79006DCE0FC89
:10414800A3E0FDA3E0FEA3E0FFE412161C90BC9AD6
:10415800121B9712140912165A9006AB121BA7903D
:1041680006D4E0FCA3E0FDA3E0FEA3E0FFE4121602
:104178001C90BC9A121B9712140912165A9006BF6B
:0D418800121BA79006D3121BB3000000000D
:014195002207
:057B8F00900764EFF017
:107B9400BF014B7FD27E10129254900765121BA72F
:107BA400E4FFFEFD7C80900765E0F8A3E0F9A3E024
:107BB400FAA3E0FBC3121B245003027CA5900765C3
:107BC400E0FCA3E0FDA3E0FEA3E0FF121AF3EF2420
:107BD40001FFE43EFEE43DFDE43CFC027C9390079F
:107BE40064E064026003027C9BFB7D017F1A7E01DA
:107BF400120000BF013478717C077D017B017A009B
:107C040079007E007F0412182C7B017A0779717D3C
:107C14000412C1D8900771E0FCA3E0FDA3E0FEA329
:107C2400E0FF900765121BA780079006FEE0441052
:107C3400F0E4FFFEFD7C80900765E0F8A3E0F9A383
:107C4400E0FAA3E0FBC3121B244024900765E0FC88
:107C5400A3E0FDA3E0FEA3E0FF121AF3EF2401FF6B
:107C6400E43EFEE43DFDE43CFC900765121BA79056
:107C74000765E0FCA3E0FDA3E0FEA3E0FFE4121629
:107C84001C7BCB7AA179D5783F12140912165A902D
:107C94000765121BA7800A900765121BB30000003A
:107CA40000E47F867E19FDFC900765E0F8A3E0F907
:107CB400A3E0FAA3E0FBC3121B24500C9007691243
:107CC4001BB3000000008063900764E0B4011FA3AD
:107CD400E0FCA3E0FDA3E0FEA3E0FFE412161C9089
:107CE400BC9A121B9712140990076D121BA79007D8
:107CF40064E0B4021FA3E0FCA3E0FDA3E0FEA3E064
:107D0400FFE412161C90BC9A121B971214099007D8
:107D14006D121BA790076DE0FCA3E0FDA3E0FEA39A
:107D2400E0FF12165A900769121BA7900769E0FC3E
:097D3400A3E0FDA3E0FEA3E0FFC3
:017D3D002223
:10E6340003E503E803EC03EF03D903DC03E003E39E
:10E6440003D303D603D903DC03C603C903CC03CF26
:10E65400041004130416041904030407040A040D23
:10E6640003FA03FD0400040303ED03F103F403F7C9
:10E76D00EFB401089028637481F0800BEF640270A0
:10E77D002A90286374A2F0902864E04408F0A3E086
:10E78D004401F07F787E28129254EF4418FF9000D8
:0BE79D00CA7428F0A37478F012C7AB18
:01E7A800224E
:10EC1300902864E054F7F09028637480F09028659E
:10EC2300E04401F07F787E28129254EF54F7FF906E
:0CEC330000CA7428F0A37478F002C7AB8C
:10E7A9007F0212E76D7F0A7E0012EFED7FCE7E10A9
:10E7B9001292547810121B35EE30E70FEFF4FFEE8A
:10E7C900F4FEEF2401FFE43EFE800F7C007D47123A
:0BE7D9001900EF24FBFFEE34FFFE00F0
:01E7E4002212
:10EB2A007F0112E76D7F0A7E0012EFED1200569008
:10EB3A00000D121BA7E4FFFE7D207C4190000DE032
:10EB4A00F8A3E0F9A3E0FAA3E0FB12140912165A9B
:01EB5A002298
:100056009000127404F0A37420F0E4900011F09064
:100066000011E0FFC394035043EF75F018A4FF900E
:100076000013E02FFD900012E035F0FC7E007F14A7
:100086007B1512E8D17B017A00791490003D743318
:10009600F07D137C0012ED5C900033EFF0900028A9
:1000A600E06F6008900011E004F080B37B017A00F5
:1000B60079147D0412C1D87B017A0079187D041267
:1000C600C1D87B017A00791C7D0412C1D87B017AE4
:1000D6000079207D0412C1D87B017A0079247D0441
:1000E60012C1D87FCE7E101292547810121B359012
:1000F6000034121BA77E007F29902862E0543E241C
:1001060034F582E434E6AD82FC7B0212E8D190003D
:1001160029E0FEA3E0FFE4FCFD900034E0F8A3E054
:10012600F9A3E0FAA3E0FB1219D6E47BE87A03F917
:10013600F8121A61900034121BA7900028E0FF9075
:100146000033E06F6032900014121BB30000466269
:10015600900018121BB30000000190001C121BB384
:100166000D5A4336900020121BB300001BB49000BA
:1001760024121BB30000000A900034E0FCA3E0FD4B
:10018600A3E0FEA3E0FF900020E0F8A3E0F9A3E0DF
:10019600FAA3E0FB1219D690001CE0F8A3E0F9A33D
:1001A600E0FAA3E02FFFEA3EFEE93DFDE83CFCE471
:1001B60012161C12C289C004C005C006C0079000F2
:1001C60018E0FCA3E0FDA3E0FEA3E0FFE412161C8A
:1001D600D003D002D001D000121409C004C005C05B
:1001E60006C007900014E0FCA3E0FDA3E0FEA3E038
:1001F600FFE412161CA804A905AA06AB07D007D06F
:1002060006D005D004121314C004C005C006C007EA
:10021600900024E0FCA3E0FDA3E0FEA3E0FFE412CF
:10022600161CA804A905AA06AB07D007D006D00558
:10023600D00412151290002F121BA79000127404FE
:10024600F0A37480F0E4900011F0900011E0FFC379
:1002560094035046EF75F004A4FF900013E02FFDC1
:10026600900012E035F0FC7E007F2B7B0412E8D173
:100276007B017A00792B90003D7433F07D027C007F
:1002860012ED5C90002DEFF0A3E0FF90002DE06FE3
:100296006008900011E004F080B090002EE0FF901E
:1002A600002DE06F6007E490002BF0A3F090002B88
:1002B600E030E75B90002BE0FEA3E0F4FFEEF4FEF7
:1002C600EF2401FFE43E90002BF0A3EFF090002F07
:1002D600E0FCA3E0FDA3E0FEA3E0FFC004C005C070
:1002E60006C00790002BE0FEA3E0FF7C007D0A120B
:1002F6001900AC06AD07E4121621A804A905AA0642
:10030600AB07D007D006D005D0041213148038905E
:10031600002FE0F8A3E0F9A3E0FAA3E0FBC000C0D9
:1003260001C002C00390002BE0FEA3E0FF7C007D2D
:100336000A121900AC06AD07E4121621D003D0024A
:10034600D001D00012131890002F121BA7E4FFFE55
:100356007DB47C4290002FE0F8A3E0F9A3E0FAA375
:10036600E0FB1215AF600E400C90002F121BB3423B
:10037600B400008024E4FFFE7D2C7CC290002FE0B8
:10038600F8A3E0F9A3E0FAA3E0FB1215AF500A9038
:10039600002F121BB3C22C000090002FE0FCA3E03C
:0703A600FDA3E0FEA3E0FF50
:0103AD00222D
:06AF3400900009121BA7AA
:10AF3A00E490000DF0C286C285902867E044C0F014
:10AF4A00A37420F0900009E0FCA3E0FDA3E0FEA3B7
:10AF5A00E0FF121C8CAF87000C8000AF8F00190035
:10AF6A0000AF9F00320000AFA700640000AFB4003A
:10AF7A00C80000AFC6019000000000AFD890286753
:10AF8A00E054FC800A902867E04401F0E054FDF0A8
:10AF9A00A3E4F0803C902867E054FE80069028677E
:10AFAA00E04401F0E04402F08027902867E0440181
:10AFBA00F0E04402F0A3E04440F08015902867E0F6
:10AFCA004401F0E04402F0A3E044C0F0800312F030
:10AFDA00FBE5A320E00F90000DE004F0E0D39432EB
:10AFEA0040EF7F0022D280E490000DF020800F9085
:10AFFA00000DE004F0E0D3943240F17F0022902863
:0EB00A005FE4F0A37403F0A3E04420F07F01A4
:01B018002215
:06BE6C00900001121BA76B
:10BE7200E4900005F0C284902867E044C0F090008E
:10BE820001E0FCA3E0FDA3E0FEA3E0FF121C8CBED8
:10BE9200AD00000000BEB2000C8000BEBF00190061
:10BEA20000BED4003200000000BEE9D2847F01222D
:10BEB200902867E054F3F0E054CFF0802D9028678B
:10BEC200E04404F0E054F7F0E04410F0E054DFF016
:10BED2008018902867E054FBF0E04408F0E054EF4B
:10BEE200F0E04420F0800312F0FBE5A320E00F9085
:10BEF2000005E004F0E0D3943240EF7F0022D287C5
:10BF0200E4900005F020870F900005E004F0E0D3F4
:09BF1200943240F17F00227F010E
:01BF1B002203
:10E14E00C286C285902864E4F0902866F09000099B
:10E15E00F0900009E004F0E0B414F6D284E5A130AA
:10E16E00E00312F0FBC2802080FDE5A130E0031237
:10E17E00F0FBE4900009F0900009E004F0E0B40335
:10E18E00F6902867E4F0902867E070FAD2817F322B
:04E19E0012F1540026
:01E1A200225A
:10D56A009028ADE054FDF09028ACE054FDF09028EE
:10D57A00AEE04402F09028ACE054FBF0A3E054FB88
:10D58A00F0A3E04404F0902820E4F0902828F090DA
:10D59A002830F0902A05F0902864F0902866E0443C
:10D5AA0020F09000CA7428F0A3747DF07F007E00FA
:10D5BA007D007C0012C7AB9000CA7428F0A374786F
:10D5CA00F07F007E007D007C0012C7ABE4FF0FEF06
:05D5DA00B414FBD28433
:01D5DF002229
:10CFEA009028A8E054F0F09028AAE054F0F075A434
:10CFFA00F275A50AE4F5A643A6049028B2E0440215
:10D00A00F09028B0E054FDF0A3E04401F09028B07D
:10D01A00E054FDF0A3E04401F09028C97402F0A3A3
:10D02A00F09028B1E04410F09028B0E04410F0905D
:10D03A0028CDE4F053ADDF53A4DF53A6DFA3F0906D
:10D04A0028B0E054DFF09028B2E04420F09028C8DD
:10D05A00E4F09028ADE04410F09028C7E4F090285E
:0CD06A00ADE04408F053ADFD43A50222E8
:10E0A2009028A874FFF0A3E4F09028AC74FFF0A3CA
:10E0B200E4F09028B074FFF0A3E4F09028B474FF69
:10E0C200F0A3E4F09028B874FFF0A3E4F09028BC29
:10E0D20074FFF0A3E4F09028C074FFF0A3E4F09082
:10E0E20028D574FFF0A3E4F09028D974FFF0A3E4DC
:07E0F200F075A4FFF5A52263
:10EF8500E4FF9028B3E020E4050FEFB40AF4EFD3D3
:09EF9500940740037F01227F0074
:01EF9E002250
:10EF9F00E4FF9028AFE020E4050FEFB40AF4EFD3BD
:09EFAF00940740037F01227F005A
:01EFB8002236
:10F01E00E4FFE5A720E1050FEFB40AF6EFD394075E
:07F02E0040037F01227F0077
:01F0350022B8
:10EFB900E4FF9028AFE020E3050FEFB40AF4EFD3A4
:09EFC900940740037F01227F0040
:01EFD200221C
:10F03600E4FFE5A730E0050FEFB40AF6EFD3940737
:07F0460040037F01227F005F
:01F04D0022A0
:0EF12100C28390285EE4F0902C1E74C2F0228F
:03F1A900D28322EC
:10EEFC00902C08E4F0A3F0A3F0A3F0A3F0A3F0A3EC
:0CEF0C00F0A3F0902C12F0A3F0A3F02270
:10ED3500EF902C00F0902C04F0A3F0A3F0A3F0903A
:10ED45002C09F0A3F0A3F0902C0FF0A3F0540FA31F
:07ED5500F0EF902C13F022F7
:10D9ED009028B4E0440FF09028B8E04403F090285C
:10D9FD00BCE074FFF09028C0E044FCF09028D5E026
