:01040000FFFC
:0300000002CFEA42
:06CFEA0075812002D02B2E
:10BBFF000075CEA575CF5A0075CEA575CF5A00C268
:10BC0F00AF12E9C4D2AF0075CEA575CF5A0075CE6D
:10BC1F00A575CF5A0012EEA3EF6401600302BCAE0C
:10BC2F0075CEA575CF5A0075CEA575CF5A00900663
:10BC3F004EE0FF30E00654FEF012EC471283769090
:10BC4F00064EE0FF30E10654FDF0129B3C90066A71
:10BC5F00E06401600790066BE0B4010312B36E90CD
:10BC6F000667E064017024F012B29775CEA575CF08
:10BC7F005A0075CEA575CF5A007D017F0112B90C00
:10BC8F007FFF12EBD290066C7403F012837612F0E2
:10BC9F004675CEA575CF5A0075CEA575CF5A001231
:05BCAF00837602BC16C3
:10DCB60000100044443031412D5633302E30331E8F
:10DCC6001E26003000111111111111FFFFFFFFFF79
:10DCD600FFFFFFFFFF1111111111110000000000DD
:10DCE60000000000000000000000005A00000000D4
:10DCF6001C0000000000000000000F0101FFFFFFF4
:10DD0600FFFFFFFFFF0012345600000065341200CB
:01DD1600000C
:10D60600E490064EF0A3F09006527403F0E4900600
:10D6160065F07B017A0679579001D8F0A304F0A350
:10D6260004F07D997C0012CC0D7B017A0679589026
:10D6360001D8E4F0A37402F0A3F07D9F7C0012CC25
:10D646000D7B017A06795A9001D8E4F0A37402F0B2
:10D65600A3F07DA17C0012CC0D7B017A0679619046
:10D6660001D8E4F0A37404F0A37402F07DC17C0039
:03D6760002CC0DD6
:10D8360000020000003E0102003E002F1402006DAF
:10D846000052150200BF00101B02011B001A19022C
:10D8560000CF0009460200D8003A150200BF0010AA
:10D8660052020135001A5302014F001E5402016D87
:10D8760000621A02011200096502080000716602C0
:10D8860008710071670208E20071680209530071AD
:0CD89600690209C400716A020A350071C1
:10B77F00900008E0FEA3E0FF90000CE0FCA3E0FDCA
:02B78F007B023B
:10B7910090018BEEF0A3EFF0A3ECF0A3EDF0A3EB9F
:01B7A100F0B7
:10B7A2009001D174A5F0A3745AF090018DE0FEA32C
:10B7B200E0FFD39400EE9400500302B83DEF9440B2
:10B7C200EE940090019040057440F08002EFF07B0F
:10B7D200017A01799190018BE0FCA3E0FD90019048
:10B7E200E0FF9001D8E4F0A3EFF090018FE0900128
:10B7F200DAF012CC0D7B017A017991900190E0FD93
:10B802007C00E49001D8F0A3F012EA269001D2E085
:10B812002FF09001D1E03EF0900190E0FF7E009089
:10B82200018CE02FF090018BE03EF0C390018EE09E
:10B832009FF090018DE09EF002B7AC9001D1E0FE46
:03B84200A3E0FF81
:01B8450022E0
:08CD2A0090018BEEF0A3EFF085
:10CD3200E4FFEF75F006A42437F582E434D8F583D6
:10CD4200E4936D7068ED640260037FFF22EF75F07B
:10CD520006A42438F582E434D8F583E493FB740105
:10CD62009390018DCBF0A3EBF0EF75F006A4243A7B
:10CD7200F582E434D8F583740193F990018DE0FAD9
:10CD8200A3E0FBC390018CE09B90018BE09A401DD5
:10CD9200E9FB90018EE02BFB90018DE03400FAC399
:10CDA20090018CE09B90018BE09A5001220FEF647E
:08CDB20012600302CD347FFF83
:01CDBA002256
:10AB8500900008E0FCA3E0FD2400FFEC3404FE90F7
:10AB9500000DE02402FB90000CE03400FA90001652
:03ABA5007422F027
:10ABA800900010EEF0A3EFF0A3ECF0A3EDF0A3EA11
:04ABB800F0A3EBF02B
:10ABBC00900014E0FEA3E0FFD39400EE9400500349
:10ABCC0002AC73D3EF9440EE9400900057400574A0
:10ABDC0040F08002EFF07B017A007917900012E0D0
:10ABEC00FCA3E0FD900057E0FF9001D8E4F0A3EF48
:10ABFC00F0900016E0FFC4540F9001DAF012CC0D67
:10AC0C0075CEA575CF5A0075CEA575CF5A007B01B0
:10AC1C007A007917900057E0FD900190E4F0A3EDD5
:10AC2C00F0900016E0540F900192F0900010E0FEAE
:10AC3C00A3E0FF12C890900057E0FFFD7C0090004D
:10AC4C0011E02DF0900010E03CF0900013E02DF09E
:10AC5C00900012E03CF0C3900015E09FF0900014BF
:07AC6C00E09400F002ABBC14
:01AC730022BE
:10C55B0090007AEEF0A3EFF0A3ECF0A3EDF0AF03B5
:10C56B007B017A007980AD0790017DE4F0A37440E4
:10C57B00F012EB0790007CE0FEA3E0FFD39400EEFB
:10C58B0094004069D3EF9440EE94009000C04005B6
:10C59B007440F08002EFF090007AE0FEA3E0FF7BA6
:10C5AB00017A0079809000C0E0FD900190E4F0A347
:10C5BB00EDF090007FE0900192F012C89075CEA53F
:10C5CB0075CF5A0075CEA575CF5A009000C0E0FF0D
:10C5DB007E0090007BE02FF090007AE03EF0C3905D
:0DC5EB00007DE09FF090007CE09EF08087D6
:01C5F8002220
:0BCC02009001D8E4F0A37402F0A3F04E
:10CC0D009001D3EBF0A3EAF0A3E9F0A3ECF0A3EDD0
:01CC1D00F026
:10CC1E009001DAE024FE604B0470699001D6E0FECC
:10CC2E00A3E0AA06F99001DB7401F0A3EAF0A3E9F0
:10CC3E00F09001DBE0F9A3E0FAA3E09001E1C9F086
:10CC4E00A3EAF0A3E9F09001D8E0FFA3E09001E49D
:10CC5E00CFF0A3EFF09001D3E0FBA3E0FAA3E0F94D
:10CC6E0002DD769001D3E0FBA3E0FAA3E0F9A3E0A6
:10CC7E00FCA3E0FDA3E0FFA3E09001E3CFF0A3EF60
:07CC8E00F002C37C12EF80ED
:01CC9500227C
:10C86F00900004EEF0A3EFF090000A7A007904E054
:10C87F00FEA3E0FF7B01900190E4F0A37402F0A30C
:01C88F00F0B8
:10C8900090018BEEF0A3EFF0A3EBF0A3EAF0A3E995
:01C8A000F0A7
:10C8A100900192E024FE603C04705A90018BE0FEFE
:10C8B100A3E0AA06F97B01C002C001A3E0F9A3E04D
:10C8C100FAA3E09001E1C9F0A3EAF0A3E9F0900135
:10C8D10090E0FFA3E09001E4CFF0A3EFF0D001D00E
:10C8E1000202DD7690018BE0FEA3E0FFA3E0FBA353
:10C8F100E0FAA3E0F9A3E0FDA3E0900198CDF0A355
:08C90100EDF002C73512EF80D2
:01C90900220B
:1098E50090017BEBF0A3EAF0A3E9F0900179EEF0AB
:0398F500A3EFF0EE
:1098F800900180E0FD12CD2A900181EFF0C394120F
:10990800400312EF80900181E0FF75F006A424382F
:10991800F582E434D8F583E493FD740193900184CF
:10992800CDF0A3EDF0EF75F006A4243AF582E43407
:10993800D8F58374019324FEFFE49334FFFE90016D
:1099480088F0A3EFF0900185E02FFF900184E03EBE
:10995800900186F0A3EFF0900181E075F006A42451
:1099680036F582E434D8F583E49390018AF09001C7
:1099780079E0FEA3E0FFA3E0FBA3E0FAA3E0F9A3EC
:10998800E0FDA3E0900190CDF0A3EDF0900180E020
:10999800900192F012C890900184E0FEA3E0FF903D
:1099A800018812B78A900182EEF0A3EFF090018649
:1099B8007A01798212C87E90018AE0C39464504883
:1099C80090017AE02400FF900179E03404FE9001D0
:1099D8007BE0FBA3E0FAA3E0F9A3E0FDA3E090019C
:1099E80090CDF0A3EDF0900180E0900192F012C8C4
:1099F80090900187E02400FF900186E03404FE7B0C
:089A0800017A01798212C88580
:019A10002233
:10A2DE00E4FEEE75F006A42436F582E434D8F58358
:10A2EE00E4936F60050EEEB412E8EEC394124003D1
:10A2FE0002A3DEEE75F006A42438F582E434D8F518
:10A30E0083E493FD740193900010CDF0A3EDF0EE75
:10A31E0075F006A4243AF582E434D8F583740193DB
:10A32E0024FEFCE49334FF900012F0A3CCF0EF2453
:10A33E00EB602224CF602E24F4603A146047146040
:10A34E005424407072900010E0FEA3E0FF7BFF7A71
:10A35E00DC79C5804E900010E0FEA3E0FF7BFF7A13
:10A36E00DB79EC803E900010E0FEA3E0FF7BFF7AED
:10A37E00BA798F802E900010E0FEA3E0FF7BFF7A6B
:10A38E00C979A4801E900010E0FEA3E0FF7BFF7A47
:10A39E00C979BE800E900010E0FEA3E0FF7BFF7A2D
:10A3AE00C979DCA3E0FDA3E0900190CDF0A3EDF020
:10A3BE00A37402F002C890900010E0FEA3E0FFA389
:10A3CE00E0FCA3E0FD90007F7402F0E4FB12C55B9D
:01A3DE00225C
:1070D300E4900003F0900003E0F9C394124003022C
:1070E30072AAE490000EF0900003E0FF75F006A48E
:1070F3002438F582E434D8F583E493FD7401939046
:107103000008CDF0A3EDF0EF75F006A4243AF58264
:10711300E434D8F58374019324FEFEE49334FF90A2
:10712300000CF0A3CEF090000CE0FAA3E0FB90007B
:1071330008E0FCA3E0FD2BFEEC3AA3F0A3CEF0E9BC
:1071430075F006A42436F582E434D8F583E49390ED
:10715300000FF075CEA575CF5A0075CEA575CF5A21
:1071630000AF05AE04AD03AC027B0212B7919000F1
:1071730004EEF0A3EFF07B017A00790690000AE0B9
:10718300FCA3E0FD12CC02900006E0FEA3E0FF901A
:107193000004E06E7003A3E06F600790000EE0440C
:1071A30001F090000FE0C39464504B900009E02479
:1071B30000FF900008E03404FE12B787900004EE4D
:1071C300F0A3EFF07B017A00790690000BE0240036
:1071D300FD90000AE03404FC12CC02900006E0FEAD
:1071E300A3E0FF900004E06E7003A3E06F600790DC
:1071F300000EE04402F075CEA575CF5A0075CEA5FA
:1072030075CF5A0090000EE0700302729324FE6063
:10721300361460412402707590000FE0C3946450EB
:1072230015900008E0FEA3E0FF2400FDEE3404FC0B
:1072330012AB9402728090000FE0FF12A2DE12B72D
:107243007F12C86F02728090000FE0C394645040B5
:1072530012AB85802890000FE0FF12A2DE12B77FE9
:1072630012C86F75CEA575CF5A0075CEA575CF5AC6
:107273000090000FE0C39464501612AB8575CEA541
:1072830075CF5A0075CEA575CF5A00800312EF80D3
:1072930075CEA575CF5A0075CEA575CF5A0090004F
:0772A30003E004F00270D8C3
:0172AA0022C1
:05B9CF00900095EFF06F
:10B9D400E4A3F0900096E0F9C39412400302BA8EF7
:10B9E400E0FE75F006A42438F582E434D8F583E447
:10B9F40093FC740193FDEE75F006A4243AF582E4F9
:10BA040034D8F58374019324FE2DFEE43C90009910
:10BA1400F0A3CEF0E975F006A42436F582E434D818
:10BA2400F583E493FF90009BF0BF4608900095E0F7
:10BA340064A5704D75CEA575CF5A0075CEA575CF8A
:10BA44005A00E4900097F0A3F0900099E0FEA3E080
:10BA5400FF7B017A00799712C88590009BE0C3941C
:10BA640064501EE4900097F0A3F090009AE0240044
:10BA7400FF900099E03404FE7B017A00799712C8A4
:0ABA840085900096E004F002B9D7A7
:01BA8E002295
:10BE180012EE22EF6401600302BEB290075DE0C338
:10BE28009403400302BEC6E004F0E0C39403500349
:10BE380002BEC6900657E0645A600302BEC6900769
:10BE48005EE06401607812D97A75CEA575CF5A0084
:10BE580075CEA575CF5A0012B29775CEA575CF5A73
:10BE68000075CEA575CF5A0012D59275CEA575CF9F
:10BE78005A0075CEA575CF5A00129FC412E47E757C
:10BE8800CEA575CF5A0075CEA575CF5A00129C66FF
:10BE980075CEA575CF5A0075CEA575CF5A007FA867
:10BEA8001203AE90075E7401F02290075DE0D39410
:0FBEB800004003E014F090075DE07002A3F02259
:10DF3D0012EED3EF6401702690075BE0C39403509B
:10DF4D0043E004F0E0C39403403AA3E0640160347D
:10DF5D007D017F0912B90C90075C7401F0229007C6
:10DF6D005BE0D39400400690075DE014F090075BF2
:10DF7D00E07011A3E0B4010C7DFF7F0912B90CE430
:05DF8D0090075CF0228A
:10EF44007B017A07795A90017DE4F0A37405F0E41B
:04EF5400FD02EB07C8
:01004A002293
:10EEA300E4FFE5A120E0050FEFB41EF6EFC39419CC
:07EEB30050037F01227F00E4
:01EEBA002235
:10DFE700900650E5A1F0E59560047F0180027F006F
:10DFF700E59460047E0180027E00EE4F601175900B
:10E0070096759757E4F594F595759096759756001C
:10E01700758F019004027486F0E4F58F75A001FFF7
:10E02700FE7D32FC12AE3F12DEE612ED5D02E6B077
:10AD5A007B017A0079009001D8E4F0A37403F0A390
:10AD6A0014F07DBA7C0012CC0D900000E0B4650BA3
:10AD7A00A3E0B43406A3E06412602D9004157401B4
:10AD8A00F012C4BC90007F7402F0E4FBFD7C10FF5B
:10AD9A007E0812C55B7FA512B9CF75CEA575CF5AAD
:10ADAA000075CEA575CF5A00900651E07011127049
:10ADBA00D375CEA575CF5A0075CEA575CF5A001298
:10ADCA00D60612EF4475CEA575CF5A0075CEA57575
:10ADDA00CF5A007B017A05791C9001D8E4F0A3745C
:10ADEA003AF0A37402F07DD87C0012CC0D12F03632
:10ADFA0012F03312D8A275CEA575CF5A0075CEA51A
:10AE0A0075CF5A0012E7D61268EF12EB5B12E928E7
:10AE1A0012EE7075CEA575CF5A0075CEA575CF5AAC
:10AE2A000012DE3075CEA575CF5A0075CEA575CF46
:05AE3A005A0002E95E70
:10E2DE00E4900000F0A3F075CEA575CF5A0075CE70
:10E2EE00A575CF5A0075CEA575CF5A0075CEA575FA
:10E2FE00CF5A0012EB5B1268EF12D7C912EB8312E2
:10E30E00DEE67D027F0112E6EB43C90112DF92E5E4
:07E31E00A130E00312EF80C3
:01E3250022D5
:10D0EB007F007E007D327C0012AE3F12CED612D76F
:10D0FB00C97FFF12EBD275CEA575CF5A0075CEA5A1
:10D10B0075CF5A0012AD5A12EFA6E4FF12D90E12C8
:10D11B00EFDDE4FF125D2F1266B87B017A067939D9
:10D12B0090017DE4F0A37405F0E4FD12EB0790068B
:10D13B00FA7404F09006F6F07DFF7F0712B90C7BB2
:10D14B00017A0679F690017DE4F0A3740CF0E4FD0E
:0AD15B0012EB0743A50143A40122D3
:10E9C40012DFE712EEA3EF70077F2C7E0112EE8AAE
:10E9D40012EEA3EF70089006517403F08005E490E2
:10E9E4000651F0900651E0B4030302E2DE12D0EBCC
:01E9F4002200
:10E0860012EE3CEF64014E700590066A04F09006AD
:10E096006AE0B4011EE4F090058CE0B40504E4F0F7
:10E0A600800690058CE004F012B51890057674068B
:10E0B600F0800C900576E0D394004003E014F090D5
:0DE0C6000576E0700790058CF012B5182269
:1083760012EEA3EF6003028500D284C2AF125F9BA8
:108386007B017A04798790017EE4F0A3743CF0A324
:108396007402F0E4FFFE1298E59006517403F07B38
:1083A600017A06797790017EE4F0A37407F0A3744E
:1083B60002F07FCF7E001298E59006FA7404F07DF5
:1083C600017F0712B90C9006FD7404F09006F9F0CF
:1083D6007DFF7F0A12B90C7B017A0779009001D8DC
:1083E600E4F0A304F0A304F07D217C0112CC0D126D
:1083F600BF7612EB8312DEE69028C8E4F09028AD33
:10840600E04410F012ED5D12E6B012EB5B43A501FD
:1084160043A401E49006F8F09006FCF0900576F08F
:10842600900415F075CEA575CF5A0075CEA575CFFB
:108436005A00E4FD7F0112E6EB43C90112EFDD129B
:10844600DF9275CEA575CF5A0075CEA575CF5A00A9
:108456007F007E007D327C0012AE3F7B017A007980
:108466000012DD179001E17401F0A37400F0A3740B
:1084760000F0A3E4F0A37407F07B017A0679771283
:10848600DD7612EED3BF01047D0180027DFF7F02FF
:10849600124A42E5A130E05912CED612ED5D12E83D
:1084A600F17B017A0379C9900190E4F0A3741EF080
:1084B600A37402F07FCF7E0112C8907B017A037904
:1084C600E8900190E4F0A3742DF0A37402F07FED20
:1084D6007E0112C8907B017A047917900190E4F02E
:1084E600A37432F0A37402F07F1AFE12C89012EF42
:0A84F60080126EF212E08602842A62
:018500002258
:10EF800075CEA575CF5A0075CEA575CF5A00000075
:03EF90000080FB03
:03000300020046B2
:040046005388FD32AC
:03000B0002DE8C86
:10DE8C00C0E0C083C082C0D0758A65758C66900670
:10DE9C004EE04401F090050DE0600E90050FE0049B
:10DEAC00F0700690050EE004F0900512E0B4011B32
:10DEBC00D3900511E09400900510E09400400CA361
:10DECC00E024FFF0900510E034FFF0900665E004CC
:0ADEDC00F0D0D0D082D083D0E03225
:0300130002004E9A
:04004E005388F732AA
:03001B0002F02BC5
:04F02B0053887F3255
:03002B0002F02FB1
:04F02F0053C87F3211
:03003B0002EEEBE7
:10EEEB00C0E0E5C030E00553C0FE8008E5C030E16E
:07EEFB000353C0FDD0E0321B
:030043000291B077
:0D91B000C0E0C0F0C083C082C0D075D010F8
:1091BD00902840E0FF902843E05F900237F0E020D8
:1091CD00E203029253902840E054FBF0902836E0E1
:1091DD0054FDF0900238E0D394004057A3E0FC24F6
:1091ED003CF582E43402F583E0900236F0900339C9
:1091FD00E0B40716900236E0FE547FFD30D006EE47
:10920D004480F08005900236EDF0900236E0902813
:10921D0037F090050EE4F0A3F0743C2CF582E434A5
:10922D0002F583E4F0900239E004F0900238E01486
:10923D00F08013900239E4F09003367404F012E3D9
:10924D00F8E4FF12C2D4900237E0FF30E3509028CB
:10925D0040E054F7F0902836E054FEF0A3E0900281
:10926D0036F0E0547FFE900239E0243CF582E43480
:10927D0002F583EEF090050EE4F0A3F0900239E0D4
:10928D0004F0E0FED3940440020000EE75F0FA8481
:10929D00AEF0900239EEF0D3941540020000EF309D
:1092AD00E407902840E054EFF0900237E030E507F6
:1092BD00902840E054DFF0900237E0FF30E6079051
:1092CD002840E054BFF0EF30E70D902840E0547F88
:0A92DD00F09004C6E004F05391EF96
:0B92E700D0D0D082D083D0F0D0E03295
:03004B0002DB864F
:0BDB8600C0E0C083C082C0D075D0108A
:10DB9100902848E0FF90284BE05FFD30E407902893
:10DBA10048E054EFF0AF15ED30E507902848E05418
:10DBB100DFF0AF15ED30E614902848E054BFF09047
:10DBC100064EE04402F09005567401F0AF15ED30B9
:10DBD100E70D902848E0547FF09004C5E004F0532D
:02DBE10091DFD2
:09DBE300D0D0D082D083D0E03212
:0300530002EA843A
:0BEA8400C0E0C083C082C0D075D0107D
:10EA8F00902850E0FF902853E05FFF30E307902875
:08EA9F0050E054F7F05391BF61
:09EAA700D0D0D082D083D0E0323F
:1092F20041066A00410668004106670041066601B0
:0C93020041066B004106690041066C004A
:10CA3E007B017A00790312DD177B017A00790312EC
:10CA4E00A8B5EF70647B017A0079039001D8F0A34A
:10CA5E007407F0A37402F07DCF7C0012CC0D7B0125
:10CA6E007A00790312A8B5EF70369000037403F0C4
:10CA7E00A37416F0A37404F0A37420F0A37412F040
:10CA8E00A37430F0A3F07B017A00790390017EE469
:10CA9E00F0A37407F0A37402F07FCF7E001298E526
:10CAAE007B017A00790312D9E49001E17401F0A3BD
:10CABE007400F0A37403F0A3E4F0A37407F07B01F9
:07CACE007A06797702DD769C
:03F0330002CA3ED0
:10DAB60012EE3CEF64014E700F900668E07009901C
:10DAC600066A04F0900668F012EE3CEF4E70049081
:10DAD6000668F012EEBBEF64014E700D900666E02C
:10DAE6007007A304F0900666F012EEBBEF4E7004CA
:10DAF600900666F012EE56EF64014E700F900669BE
:10DB0600E0700990066B04F0900669F012EE56EF8D
:08DB16004E7004900669F02234
:10EC4700E4900000F0900000E0FFC394015013121D
:10EC5700B004900000E0FF12A0D4900000E004F0A0
:05EC670080E302DAB6B3
:109B3C0012CA3E75CEA575CF5A0075CEA575CF5AF3
:109B4C000090076EE0D394004006E014F012EB5B3B
:109B5C0090076EE0703F128C3375CEA575CF5A000E
:109B6C0075CEA575CF5A00125F9B75CEA575CF5AD1
:109B7C000075CEA575CF5A0012E54012D51E75CED4
:109B8C00A575CF5A0075CEA575CF5A0012BE181206
:109B9C00F04712E92890066CE0700812B36E12B50B
:109BAC0018800690066CE014F090067DE0707A1236
:109BBC0066B875CEA575CF5A0075CEA575CF5A006F
:109BCC0012646275CEA575CF5A0075CEA575CF5AA5
:109BDC0000126EF212C4BC7B017A0079009001D89D
:109BEC00E4F0A304F0A304F07D717C0012CC0D9082
:109BFC000000E0B4301175CEA575CF5A0075CEA516
:109C0C0075CF5A0012C90A75CEA575CF5A0075CEFC
:109C1C00A575CF5A0012CC9675CEA575CF5A007586
:109C2C00CEA575CF5A0012DE3090067DE0B425111A
:109C3C0012F04575CEA575CF5A0075CEA575CF5AC5
:109C4C000090067DE0B4311112EE7075CEA575CF83
:099C5C005A0075CEA575CF5A001F
:019C650022DC
:01005200228B
:0AEFF300E4900676F0900675F02217
:0BBCB400E0FCA3E0A3FDE0900232F0F2
:10BCBF0090022DEBF0A3EAF0A3E9F0A3ECF0A3EDD3
:01BCCF00F084
:10BCD000E4900235F090023374A0F0A304F012E671
:10BCE000B0900235E004F0E0D3940A40037F0022D4
:10BCF00012E8F1900233E0FF12C7D2BF01E09002D8
:10BD000030E0FF12C7D2EF640160037F002290028F
:10BD100030A3E0FF12C7D2EF640160037F0022125C
:10BD2000E8F1900234E0FF12C7D2EF640160037FB4
:10BD30000022900232E0FF14F0EF6026E07003FF73
:10BD400080027F0112CDBB90022DE0FBA3E0FAA39D
:10BD5000E0F9EF1218BA90022EE475F00112198B77
:07BD600080D012E6B07F0164
:01BD670022B9
:10C17E009001E2EEF0A3EFF0A3EBF0A3EAF0A3E957
:01C18E00F0C0
:10C18F00E49001EAF09001E874A0F0A304F000122B
:10C19F00E6B09001EAE004F0E0D3940A40037F0098
:10C1AF002212E8F19001E8E0FF12C7D2BF01E09040
:10C1BF0001E2E0FF12C7D2EF640160037F0022901B
:10C1CF0001E2A3E0FF12C7D2EF640160037F0022F8
:10C1DF009001E4E0FBA3E0FAA3E0F9121852FF127A
:10C1EF00C7D2EF64016004007F00229001E5E4757F
:10C1FF00F00112198B9001E3E004F070069001E258
:10C20F00E004F09001E7E014F0E070C412E6B07FB4
:09C21F00057E0012EE8A007F0189
:01C2280022F3
:10D070009001E6EBF0A3EAF0A3E9F0A3ECF0A3ED56
:01D08000F0BF
:10D08100A3E0FFD394004006EFD3944040037F0018
:10D0910022E490022CF07B017A0179EC9001E912F3
:10D0A100BCB49001E6E0FBA3E0FAA3E0F9A312BC53
:10D0B100B49002307401F0A37401F0A374ECF09009
:10D0C10001EBE0900233F09001E6E0FBA3E0FAA36C
:10D0D100E0F912D165EF70037F012290022CE00488
:09D0E100F0E0C3940340AF7F00AE
:01D0EA002223
:10CE490090019BEEF0A3EFF0A3EBF0A3EAF0A3E9C6
:01CE5900F0E8
:10CE5A00A3E0FFD394004006EFD39440400312EFBF
:10CE6A0080E49001E1F090019BE0FEA3E0FFA3E0E3
:10CE7A00FBA3E0FAA3E0F9A3E09001E7F012C17E78
:10CE8A007B017A0179A190019BE0FCA3E09001A0CB
:10CE9A0012BCB99002307401F0A37401F0A374A11A
:10CEAA00F09001A0E0900233F090019DE0FBA3E036
:10CEBA00FAA3E0F912D165EF70037F01229001E134
:0BCECA00E004F0E0C39403409D7F00F3
:01CED500223A
:10C37C009001DEEBF0A3EAF0A3E9F0A3ECF0A3ED5F
:01C38C00F0C0
:10C38D009001E3E0FEA3E0FFD39400EE9400407C27
:10C39D009001E1A3E0543FFD600974409D9001E5DB
:10C3AD00F080069001E57440F09001E5E0FDC3EFEB
:10C3BD009DEE940050079001E3A3E0A3F09001DE01
:10C3CD00E0FBA3E0FAA3E0F9A3E0FCA3E0FD9001FC
:10C3DD00E5E09001EBF012D070EF7002FF229001BA
:10C3ED00E5E0FFFD7C009001DFEC8DF012198B90E4
:10C3FD0001E2E02DF09001E1E03CF0C39001E4E0BA
:0EC40D009FF09001E3E09400F002C38D7F01E8
:01C41B0022FE
:10C73500900193EEF0A3EFF0A3EBF0A3EAF0A3E9E9
:01C74500F003
:10C74600900198E0FCA3E0FDD39400EC94004079BE
:10C75600900193E0FEA3E0FF543FFB600974409B09
:10C7660090019AF0800690019A7440F090019AE048
:10C77600FBC3ED9BEC94005007900198A3E0A3F057
:10C78600900195E0FBA3E0FAA3E0F990019AE0900E
:10C7960001A0F012CE49EF7002FF2290019AE0FF4D
:10C7A600FD7C00900194E02DF0900193E03CF09028
:10C7B6000196EC8DF012198BC3900199E09FF090D1
:0BC7C6000198E09400F002C7467F01DC
:01C7D1002245
:10ED5D009028ACE04402F0A3E04402F0A3E04404A8
:0EED6D00F09028ACE054FBF0A3E054FBF02241
:10E8F1009028ACE04402F0A3E04402F0A3E0440419
:10E90100F0000000000000E054FDF09028ADE0545C
:10E91100FDF09028ACE054FDF000000000000090F4
:07E9210028AEE054FBF022D8
:10E6B0009028AEE054FDF09028ADE054FDF0902895
:10E6C000ACE054FDF00000000000009028AEE044F3
:10E6D00004F00000000000009028ACE04402F0A329
:0BE6E000E04402F000000000000022F7
:10C7D200E4F508F5089028AEE054FBF0EF30E70EE0
:10C7E2009028ACE04402F0A3E04402F080159028C7
:10C7F200AEE054FDF09028ADE054FDF09028ACE09E
:10C8020054FDF0EF25E0FF9028AEE04404F0000074
:10C81200000000000508E508B408BA9028AEE0540C
:10C82200FBF09028ACE04402F0A3E04402F075086B
:10C8320020E4F5089028AFE020E1149028AEE0440F
:10C8420004F0000000000000E054FBF07F0122052C
:10C8520008E508B420DE9028AEE04404F0000000B1
:0CC86200000000E054FBF012E6B07F0084
:01C86E0022A7
:10CDBB00E4F508F5099028ACE04402F0A3E0440246
:10CDCB00F0A3E054FBF0E4F508E50925E0F5099044
:10CDDB0028AEE04404F0000000000000A3E030E1C6
:10CDEB00034309019028AEE054FBF0000000000063
:10CDFB00000508E508B408D1EF60179028AEE054A1
:10CE0B00FDF09028ADE054FDF09028ACE054FDF01F
:10CE1B00800C9028ACE04402F0A3E04402F0902890
:10CE2B00AEE04404F0000000000000E054FBF09082
:0DCE3B0028ACE04402F0A3E04402F0AF098F
:01CE480022C7
:01F0440022A9
:10EF5800E5E820E10343E80290284BE020E704E0DD
:04EF68004480F022CF
:10EBAB007F7D7E28129065EF54C7FF9000CC7428B0
:10EBBB00F0A3747DF012C697902843E0547FF09039
:06EBCB0028AEE04408F052
:01EBD1002221
:06C5F900900754121BA77D
:10C5FF00E4FF90288474CCF0E4F0902885E0600A82
:10C60F000FEFD3940840F37F0022900754A3A3A306
:10C61F00E0FF902880EFF0900754E0FCA3E0FDA32B
:10C62F00E0FEA3E0FF7808121B35902881EFF09011
:10C63F000754E0FCA3E0FDA3E0FEA3E0FF78101297
:10C64F001B35902882EFF0900754E0FCA3E0FDA388
:10C65F00E0FEA3E0FF7818121B35902883EFF090CF
:10C66F000758E0FEA3E0F5828E83E4F0FF000FEFA2
:10C67F00B408FAE4FF902885E0600A0FEFD394081E
:07C68F0040F37F00227F0150
:01C696002281
:06BEC700900746121BA7C4
:10BECD00E4FB90288474CCF0E4F0902885E0600ABF
:10BEDD000BEBD3940840F37F0022900746A3A3A356
:10BEED00E0FF902880EFF0900746E0FCA3E0FDA373
:10BEFD00E0FEA3E0FF7808121B35902881EFF0904B
:10BF0D000746E0FCA3E0FDA3E0FEA3E0FF781012DE
:10BF1D001B35902882EFF0900746E0FCA3E0FDA3CF
:10BF2D00E0FEA3E0FF7818121B35902883EFF0D2C6
:10BF3D008720870C90074CE004F0E0D3941E40F16D
:10BF4D0090074AE0FEA3E0F5828E83E4F0FB000B40
:10BF5D00EBB408FAE4FB902885E0600A0BEBD39470
:08BF6D000840F37F00227F0170
:01BF750022A9
:06C697009000C8121BA771
:10C69D00E4FF90288474CCF0E4F0902885E0600AE3
:10C6AD000FEFD3940840F37F00229000C8A3A3A3FB
:10C6BD00E0FF902880EFF09000C8E0FCA3E0FDA320
:10C6CD00E0FEA3E0FF7808121B35902881EFF09073
:10C6DD0000C8E0FCA3E0FDA3E0FEA3E0FF7810128C
:10C6ED001B35902882EFF09000C8E0FCA3E0FDA37D
:10C6FD00E0FEA3E0FF7818121B35902883EFF09031
:10C70D0000CCE0FEA3E0F5828E83E4F0FF000FEF96
:10C71D00B408FAE4FF902885E0600A0FEFD394087F
:07C72D0040F37F00227F01B1
:01C7340022E2
:1090650090288474CCF0E4F0F508902885E0600B36
:109075000508E508D3940840F180248F828E83E0AB
:10908500F508E4F508000508E508B408F8E4F5086E
:10909500902885E0600F0508E508D3940840F1E4C1
:1090A500FFFEFDFC22902880E0FFE4FCFDFE900021
:1090B500C8121BA7902881E0FFE4FCFDFE7808128A
:1090C5001B489000CC121BA79000C8E0FCA3E0FD54
:1090D500A3E0FEA3E0FFA3E0F8A3E0F9A3E0FAA371
:1090E500E0FBEF2BFFEE3AFEED39FDEC38FC90008E
:1090F500C8121BA7902882E0FFE4FCFDFE9000CC7F
:10910500121BA79000CCE0FCA3E0FDA3E0FEA3E0CA
:10911500FF7810121B489000CC121BA79000C8E0E6
:10912500FCA3E0FDA3E0FEA3E0FFA3E0F8A3E0F9C4
:10913500A3E0FAA3E0FBEF2BFFEE3AFEED39FDECE1
:1091450038FC9000C8121BA7902883E0FFE4FCFDC3
:10915500FE9000CC121BA79000CCE0FCA3E0FDA381
:10916500E0FEA3E0FF7818121B489000CC121BA765
:109175009000C8E0FCA3E0FDA3E0FEA3E0FFA3E0B0
:10918500F8A3E0F9A3E0FAA3E0FBEF2BFFEE3AFE2C
:10919500ED39FDEC38FC9000C8121BA79000C8E023
:0A91A500FCA3E0FDA3E0FEA3E0FF41
:0191AF00229D
:10BA8F0000000000000000000000000000000000A7
:10BA9F000000000000000000000000000000000097
:10BAAF00000000003D99E1FB3DE6D2F937341C9FC1
:10BABF00392B0436392B04360000000009600000D2
:10BACF0027100461A83000927C000063B3ED3B7037
:10BADF00B76B3B70B76B01051C10E801052C10E923
:10BAEF00010520287B010530287C01052410ED017C
:10BAFF00053410EE01052810EB01053810EC010597
:10BB0F003C10EA00927C0010F500927C0010FB1DA7
:10BB1F000004C30185300000000186000000000111
:10BB2F0087811D2BA7012500000000018300000065
:09BB3F0000013200000000012C9D
:0E930E00440514000000004405180000000093
:10E810007B017A05791C9001D874A5F0A3745AF095
:10E820007D387C0012EA26900554EEF0A3EFF07BD1
:10E83000017A05791C90017EE4F0A37438F0A3748A
:09E8400002F07FD87E000298E589
:10E57F007B017A05791C9001D874A5F0A3745AF029
:10E58F007D387C0012EA26900554E06E7003A3E0FC
:10E59F006F601A7B017A05791C9001D8E4F0A3749F
:0DE5AF003AF0A37402F07DD87C0012CC0D70
:01E5BC00223C
:1066B8009000C3121BB30000000012E57F7B017A33
:1066C8000079C79001D8E4F0A304F0A304F07DB9E1
:1066D8007C0012CC0D9000C7E09000CCB43C26742E
:1066E80010F0A374F4F07F6B7E2A7D707C0012C6D4
:1066F800979000CC7410F0A374FAF07F6B7E2A7D1B
:10670800707C0080247410F0A374F4F07F307EA8AD
:106718007D617C0412C6979000CC7410F0A374FAC3
:10672800F07F307EA87D617C0412C697E49000B7A4
:10673800F09000B7E0FF75F006A42416F582E43463
:10674800BBF583E493FD7401939000C1CDF0A3EDF4
:10675800F0EF75F006A42412F582E434BBF5831239
:106768001B879000BD121BA79000B3121BB300003B
:1067780000009000C1E0FEA3E0FF1290659000B316
:10678800121BA79000BDE0FCA3E0FDA3E0FEA3E080
:10679800FF9000B3E0F8A3E0F9A3E0FAA3E0FBC39D
:1067A800121B2460349000BDE0FCA3E0FDA3E0FED2
:1067B800A3E0FF9000B3121BA79000B3E0FCA3E096
:1067C800FDA3E0FEA3E0FF9000C1E0FBA3E0900082
:1067D800CCCBF0A3EBF012C6979000B7E004F0E042
:1067E800C394025003026739E49000B7F09000B7F1
:1067F800E0FF75F005A424E8F582E434BAF583E4F3
:1068080093FD7401939000BBCDF0A3EDF0EF75F00C
:1068180005A424E5F582E434BAF583E493F9740118
:1068280093FA7402939000B8C9F0A3EAF0A3E9F0D0
:106838009000B3121BB3000000009000BBE0FEA361
:10684800E0FF1290659000B3121BA79000BBE0FE1A
:10685800A3E0FF647B7003EE6428600AEF647C7039
:1068680003EE6428701B9000B8E0FBA3E0FAA3E0F5
:10687800F9121B5B9000B6E06F605CE4FCFDFE80E3
:10688800309000B8E0FBA3E0FAA3E0F9121B5B909C
:1068980000B3E0F8A3E0F9A3E0FAA3E0FBC3121BFE
:1068A8002460349000B8E0FBA3E0FAA3E0F9121BDF
:1068B8005B9000B3121BA79000B3E0FCA3E0FDA31C
:1068C800E0FEA3E0FF9000BBE0FBA3E09000CCCB90
:1068D800F0A3EBF012C6979000B7E004F0E0C39481
:0668E8000950030267F5F0
:0168EE002287
:0887F9009006BFEFF0A3EDF0C4
:1088010075CEA575CF5A0075CEA575CF5A009006C5
:10881100CA121BB300000000E4900556F09006C593
:10882100F09006BFE0FF9006C5E0C39F40030289B8
:108831003875CEA575CF5A0075CEA575CF5A009063
:108841000556E060FAE4900556F075CEA575CF5A4D
:108851000075CEA575CF5A009006C0E070097FD291
:108861007E10129065803AE4FB7D017F0B7E011240
:108871000000BF013478CE7C067D017B017A00794E
:10888100007E007F0412182C7B017A0679CE7D04CC
:1088910012C0259006CEE0FCA3E0FDA3E0FEA3E01C
:1088A100FF9006C1121BA7800790064FE04410F00D
:1088B100E4FFFEFD7C809006C1E0F8A3E0F9A3E0AF
:1088C100FAA3E0FBC3121B2440249006C1E0FCA3E1
:1088D100E0FDA3E0FEA3E0FF121AF3EF2401FFE4A1
:1088E1003EFEE43DFDE43CFC9006C1121BA7900650
:1088F100C1E0FCA3E0FDA3E0FEA3E0FF9006C612E9
:108901001BA79006CAE0FCA3E0FDA3E0FEA3E0FFE5
:108911009006C6E0F8A3E0F9A3E0FAA3E0FBEF2B91
:10892100FFEE3AFEED39FDEC38FCA3121BA79006D1
:10893100C5E004F00288229006BFE0FBE4FAF9F8F2
:108941009006CAE0FCA3E0FDA3E0FEA3E0FF121A3B
:108951006175CEA575CF5A0075CEA575CF5A0000A9
:0189610022F3
:088962009006D2EFF0A3EDF046
:10896A0075CEA575CF5A0075CEA575CF5A0090065B
:10897A00DD121BB300000000E4900556F09006D803
:10898A00F09006D2E0FF9006D8E0C39F4003028A27
:10899A00A175CEA575CF5A0075CEA575CF5A009090
:1089AA000556E060FAE4900556F075CEA575CF5AE3
:1089BA000075CEA575CF5A009006D3E070097FD412
:1089CA007E10129065803AE4FB7D017F0E7E0112D3
:1089DA000000BF013478E17C067D017B017A0079D1
:1089EA00007E007F0412182C7B017A0679E17D044F
:1089FA0012C0259006E1E0FCA3E0FDA3E0FEA3E09F
:108A0A00FF9006D4121BA7800790064FE04410F08F
:108A1A00E4FFFEFD7C809006D4E0F8A3E0F9A3E031
:108A2A00FAA3E0FBC3121B2440249006D4E0FCA363
:108A3A00E0FDA3E0FEA3E0FF121AF3EF2401FFE436
:108A4A003EFEE43DFDE43CFC9006D4121BA79006D2
:108A5A00D4E0FCA3E0FDA3E0FEA3E0FF9006D91258
:108A6A001BA79006DDE0FCA3E0FDA3E0FEA3E0FF68
:108A7A009006D9E0F8A3E0F9A3E0FAA3E0FBEF2B14
:108A8A00FFEE3AFEED39FDEC38FCA3121BA7900667
:108A9A00D8E004F002898B9006D2E0FBE4FAF9F8F8
:108AAA009006DDE0FCA3E0FDA3E0FEA3E0FF121ABE
:108ABA006175CEA575CF5A0075CEA575CF5A00003F
:018ACA002289
:10A6D1009000B3E0FCA3E0FDA3E0FEA3E0FF900047
:10A6E100CB121BA79000BBE0FCA3E0FDA3E0FEA3FF
:02A6F100E0FF88
:10A6F300E412161C9000CF121BA79000CBE0FCA322
:10A70300E0FDA3E0FEA3E0FFE412161C9000D312C9
:10A713001BA79000CBE0FCA3E0FDA3E0FEA3E0FFBA
:10A72300E412161CA804A905AA06AB079000CFE003
:10A73300FCA3E0FDA3E0FEA3E0FF1213149000D3FB
:10A74300E0F8A3E0F9A3E0FAA3E0FB1215129000EE
:10A75300D7121BA7E4FFFE7D807C3F9000D7E0F873
:10A76300A3E0F9A3E0FAA3E0FB121318A804A905D8
:10A77300AA06AB07E4FFFE7D807C3F121512900012
:10A78300DB121BA7E4FFFE7D807CBF9000DBE0F8BB
:10A79300A3E0F9A3E0FAA3E0FB1213189000DF1281
:10A7A3001BA7E4FFFEFD7C4F9000DFE0F8A3E0F978
:0FA7B300A3E0FAA3E0FB12140912AA9512165A9A
:01A7C2002274
:06A1DB009000C8121BA752
:10A1E100E49000D2F07F32FEFDFC9000CCE0F8A3B9
:10A1F100E0F9A3E0FAA3E0FBC3121B2450037F00A4
:10A20100229000C8E0FCA3E0FDA3E0FEA3E0FFA3D1
:10A21100E0F8A3E0F9A3E0FAA3E0FBD3121B24408A
:10A221004D9000C8E0F8A3E0F9A3E0FAA3E0FBA396
:10A23100E0FCA3E0FDA3E0FEA3E09BFFEE9AFEEDB0
:10A2410099FDEC98FCE47BE87A03F9F81219D690B1
:10A2510000CCE0F8A3E0F9A3E0FAA3E0FB121A6155
:10A261009000D0EEF0A3EFF0A37401F0804A9000CB
:10A27100CCE0F8A3E0F9A3E0FAA3E0FB9000C8E08A
:10A28100FCA3E0FDA3E0FEA3E0C39BFFEE9AFEED7D
:10A2910099FDEC98FCE47BE87A03F9F81219D69061
:10A2A10000CCE0F8A3E0F9A3E0FAA3E0FB121A6105
:10A2B1009000D0EEF0A3EFF09000D0E0FEA3E0FF1D
:10A2C1007C0B7DC3121CC6E47BD07A07F9F8121A05
:0CA2D100619000D2E0B40104EF4480FF73
:01A2DD00225E
:069EB30090072B121BA713
:109EB90075CEA575CF5A0075CEA575CF5A009007F6
:109EC9002FE07040A3121BB300000000900730E0A0
:109ED900FCA3E0FDA3E0FEA3E0FF9000CC7410F02A
:109EE900A374E9F012C697900730E0FCA3E0FDA344
:109EF900E0FEA3E0FF9000CC7410F0A374EEF01222
:109F0900C6978046900730121BB3000000009007E7
:109F190030E0FCA3E0FDA3E0FEA3E0FF90000074A5
:109F290001F0A3742EF0E4A3F0120000900730E0D2
:109F3900FCA3E0FDA3E0FEA3E0FF9000007401F0A4
:109F4900A3742FF0E4A3F012000090072FE0FD7F27
:109F5900021287F9C004C005C006C00790072BE0AC
:109F6900FCA3E0FDA3E0FEA3E0FF9000CB121BA73A
:109F7900D007D006D005D00412A6F3900730121BE3
:109F8900A775CEA575CF5A0075CEA575CF5A009085
:109F9900072FE07011A3E0FCA3E0FDA3E0FEA3E01E
:109FA900FF90052C8011900730E0FCA3E0FDA3E0B1
:0A9FB900FEA3E0FF90051C121BA799
:019FC300227B
:06B44400900734121BA763
:10B44A00C20575CEA575CF5A0075CEA575CF5A001F
:10B45A00900739121BB300000000900738E0701BF8
:10B46A00A3E0FCA3E0FDA3E0FEA3E0FF9000CC7400
:10B47A0010F0A374EEF012C697801E900739E0FC14
:10B48A00A3E0FDA3E0FEA3E0FF9000007401F0A397
:10B49A00742FF0E4A3F0120000900738E0FD7F0358
:10B4AA001287F9C004C005C006C007900734E0FC43
:10B4BA00A3E0FDA3E0FEA3E0FF9000CC121BA7D0FF
:10B4CA0007D006D005D00412A1DBE4FCFDFE9007EC
:10B4DA0039121BA775CEA575CF5A0075CEA575CFA3
:10B4EA005A00900738E07011A3E0FCA3E0FDA3E046
:10B4FA00FEA3E0FF9005348011900739E0FCA3E039
:0DB50A00FDA3E0FEA3E0FF900524121BA7A7
:01B517002211
:0674830090073D121BA75B
:1074890075CEA575CF5A0075CEA575CF5A00900750
:1074990042121BB300000000900741E0701BA3E0FB
:1074A900FCA3E0FDA3E0FEA3E0FF9000CC7428F06C
:1074B900A3747CF012C69780169000007401F0A3A3
:1074C9007484F0E4A3F07FA9FE7D0BFC1200007523
:1074D900CEA575CF5A0075CEA575CF5A00E4900593
:1074E90056F0900556E060FAE4900556F090074191
:1074F900E0FD7F021287F9C004C005C006C00790ED
:10750900073DE0FCA3E0FDA3E0FEA3E0FF9000CC73
:10751900121BA7D007D006D005D00412A1DBE4FCCA
:10752900FDFE900742121BA775CEA575CF5A0075AF
:10753900CEA575CF5A00900741E0700FA3E0FCA3D8
:10754900E0FDA3E0FEA3E0FF027651900742A3A36A
:10755900A3E05480FFEF9007426066E0FCA3E0FDE2
:10756900A3E0FEA3E0547FFFEC900742121BA79013
:107579000742E0FCA3E0FDA3E0FEA3E0FFE412164E
:107589001C7BCD7ACC798C783F12140912165A904B
:107599000742121BA7900742E0FCA3E0FDA3E0FE0F
:1075A900A3E0FF7808121B48900742121BA7900717
:1075B90042E0FCA3E0FDA3E0FEA3E0FFED4404806C
:1075C9004DE0FCA3E0FDA3E0FEA3E0FFE412161CDE
:1075D9007BCD7ACC798C783F12140912165A900710
:1075E90042121BA7900742E0FCA3E0FDA3E0FEA323
:1075F900E0FF7808121B48900742121BA790074228
:10760900E0FCA3E0FDA3E0FEA3E0FFED54FBFDECED
:10761900900742121BA7900530121BB3000B00A95B
:10762900900530E0FCA3E0FDA3E0FEA3E0FF900796
:1076390042E0F8A3E0F9A3E0FAA3E0FBEF4BFFEE89
:0E7649004AFEED49FDEC48FC900530121BA7EF
:017657002210
:107EB800900684EEF0A3EFF0E024E8FF900684E05B
:107EC8003403AB07FA3395E0F9F8E4FFFEFD7C8054
:107ED800121A6190068A121BA7900685E024E8FF13
:107EE800900684E03403AB07FA3395E0F9F8E4FF31
:107EF800FEFD7C80121A61AF03900686EAF0A3EFBC
:107F0800F0900686E0FEA3E0FF7C037DE81218EE01
:107F1800900684E0FAA3E0FB24E8FDEA3403FC12AF
:107F28001900A3EEF0A3EFF0AF03AE02EE3395E035
:107F3800FDFC90068AE0F8A3E0F9A3E0FAA3E0FBD1
:107F48001219D6C004A905AA06AB07900686E0FC5C
:107F5800A3E0FD900684E0FEA3E0FF1218EE7C0388
:107F68007DE8121900E4FCFDD000EB2FFFEA3EFE8D
:107F7800ED39FDEC38FC90068E121BA7900685E0C3
:107F880024E8FF900684E03403AB07FA3395E0F960
:107F9800F8900680E0FCA3E0FDA3E0FEA3E0FF125A
:107FA800E3B4900692121BA7900685E024E8FF90A0
:107FB8000684E03403AB07FA3395E0F9F8900680BD
:107FC800E0FCA3E0FDA3E0FEA3E0FF12E3B4AE02F1
:107FD800AF03900688EEF0A3EFF07C037DE812185B
:107FE800EE900685E024E8FD900684E03403FC1258
:107FF8001900900688EEF0A3EFF0E47FE87E03FD19
:10800800FC900692E0F8A3E0F9A3E0FAA3E0FB12E3
:1080180019D6A804A905AA06AB07900688E0FEA30E
:10802800E0FFE4FCFDEB2FFFEA3EFEED39FDEC3806
:10803800FC90068EE0F8A3E0F9A3E0FAA3E0FBC306
:0C804800EF9BFFEE9AFEED99FDEC98FC1A
:018054002209
:10A4DD007FFD7E10129065A804A905AA06AB07E4BE
:10A4ED00FFFE7D7DFC121A6190077FEEF0A3EFF069
:10A4FD00E4FCFD900514E0F8A3E0F9A3E0FAA3E075
:10A50D00FBC3121B24700302A5D990077FE0FAA3A9
:10A51D00E0FBFFAE02E4FCFD900514121BA7D3EB8C
:10A52D0094F4EA9401400F900780E0240CFF90070B
:10A53D007FE034FE801F90077FE0FEA3E0FFC39411
:10A54D00F4EE94015057C374F49FFF74019EFEC343
:10A55D00E49FFFE49EFEEF25E0FFEE33FEC006C054
:10A56D000790051CE0FCA3E0FDA3E0FEA3E0FF9037
:10A57D000680121BA7D007D006127EB890052C12AC
:10A58D001BA790052CE0FCA3E0FDA3E0FEA3E0FFDC
:10A59D009000CC7410F0A374E9F002C69790051CDE
:10A5AD00E0FCA3E0FDA3E0FEA3E0FF9000CC74105F
:10A5BD00F0A374E9F012C69790051CE0FCA3E0FD32
:0CA5CD00A3E0FEA3E0FF90052C121BA7EA
:01A5D900225F
:102DF20090059F121BB30000000020AF030235CEE6
:102E02009005577455F090BAD9121B879005A312FA
:102E12001BA7E47F19FEFDFC9005A3E0F8A3E0F9EF
:102E2200A3E0FAA3E0FB1219D6E47B0AFAF9F8123E
:102E32001A619005A9121BA7E47F46FEFDFC9005CE
:102E4200A3E0F8A3E0F9A3E0FAA3E0FB1219D6E4A9
:102E52007B64FAF9F8121A619005AD121BA7E47FA0
:102E620023FEFDFC9005A3E0F8A3E0F9A3E0FAA39A
:102E7200E0FB1219D6E47B64FAF9F8121A619005A4
:102E8200B1121BA7E47F03FEFDFC9005A3E0F8A3AB
:102E9200E0F9A3E0FAA3E0FB1219D6E47B64FAF9A5
:102EA200F8121A619005B5121BA775CEA575CF5AF7
:102EB2000075CEA575CF5A00E4FD7F041287F99004
:102EC20005B9121BA79005A9E0FCA3E0FDA3E0FE53
:102ED200A3E0FF9005B9E0F8A3E0F9A3E0FAA3E0CC
:102EE200FBD3121B244008E49005A7F0022F709038
:102EF20005ADE0FCA3E0FDA3E0FEA3E0FF9005B971
:102F0200E0F8A3E0F9A3E0FAA3E0FBD3121B24400C
:102F1200089005A77401F080559005B1E0FCA3E08C
:102F2200FDA3E0FEA3E0FF9005B9E0F8A3E0F9A35A
:102F3200E0FAA3E0FBD3121B2440089005A7740219
:102F4200F0802B9005B5E0FCA3E0FDA3E0FEA3E03A
:102F5200FFA3E0F8A3E0F9A3E0FAA3E0FBD3121B7E
:102F6200249005A740057403F080037408F09005CF
:102F7200A7E0701990052C121BB300000000900509
:102F820030121BB3000000007FA01203AE9005A711
:102F9200E0640160030231BB9005A3E0FCA3E0FD05
:102FA200A3E0FEA3E0FFE490072FF0129EB390058A
:102FB2009B121BB300000000E4900596F07F1E7E7A
:102FC2000012EE8A7FD57E10129065900597121B33
:102FD200A7E4FFFEFD7C80900597E0F8A3E0F9A34B
:102FE200E0FAA3E0FBC3121B244024900597E0FC07
:102FF200A3E0FDA3E0FEA3E0FF121AF3EF2401FF1A
:10300200E43EFEE43DFDE43CFC900597121BA790D4
:10301200059BE0FCA3E0FDA3E0FEA3E0FF90059783
:10302200E0F8A3E0F9A3E0FAA3E0FBEF2BFFEE3A0E
:10303200FEED39FDEC38FCA3121BA775CEA575CFAA
:103042005A0075CEA575CF5A00900596E004F0E0BF
:10305200C394085003022FBF90059BE0FCA3E0FD40
:10306200A3E0FEA3E0FFE47B08FAF9F8121A6190EC
:10307200059B121BA790059BE0FCA3E0FDA3E0FECD
:10308200A3E0FFE412161CC004C005C006C00790EE
:10309200BACD121B87E412161CD003D002D001D085
:1030A20000121512900550121BA790059B121BB31C
:1030B20000000000E4900596F07F1E7E0012EE8A6A
:1030C2007FD37E10129065900597121BA7E4FFFE36
:1030D200FD7C80900597E0F8A3E0F9A3E0FAA3E075
:1030E200FBC3121B244024900597E0FCA3E0FDA340
:1030F200E0FEA3E0FF121AF3EF2401FFE43EFEE438
:103102003DFDE43CFC900597121BA790059BE0FC5B
:10311200A3E0FDA3E0FEA3E0FF900597E0F8A3E0A3
:10312200F9A3E0FAA3E0FBEF2BFFEE3AFEED39FD47
:10313200EC38FCA3121BA775CEA575CF5A0075CE2D
:10314200A575CF5A00900596E004F0E0C3940850AC
:10315200030230BB90059BE0FCA3E0FDA3E0FEA3CD
:10316200E0FFE47B08FAF9F8121A6190059B121B42
:10317200A790059BE0FCA3E0FDA3E0FEA3E0FFE433
:1031820012161CC004C005C006C00790BAC9121BA3
:1031920087E412161CD003D002D001D000121512FF
:1031A200900548121BA77FA11203AE75CEA575CF5D
:1031B2005A0075CEA575CF5A009005A7E0B4023823
:1031C2009005A3E0FCA3E0FDA3E0FEA3E0FFE47B07
:1031D20002FAF9F8121A619005A3121BA79005A32F
:1031E200E0FCA3E0FDA3E0FEA3E0FFE4900741F0D2
:1031F2001274837FA21203AE9005A7E0B403389045
:1032020005A3E0FCA3E0FDA3E0FEA3E0FFE47B1442
:10321200FAF9F8121A619005A3121BA79005A3E010
:10322200FCA3E0FDA3E0FEA3E0FFE4900738F01268
:10323200B4447FA31203AE9005A8E0B4041990052C
:103242002C121BB300000000900530121BB3000BC0
:1032520000A97FA41203AE9005A8E06405600302F2
:1032620034DB90072F04F07FED7EB37D637C001288
:103272009EB390059B121BB300000000E4900596DC
:10328200F0E4FB7D017F0E7E01120000BF01347865
:10329200C17C057D017B017A0079007E007F0412EA
:1032A200182C7B017A0579C17D0412C0259005C1D5
:1032B200E0FCA3E0FDA3E0FEA3E0FF900597121B54
:1032C200A7800790064FE04410F0E4FFFEFD7C80EB
:1032D200900597E0F8A3E0F9A3E0FAA3E0FBC3129C
:1032E2001B244024900597E0FCA3E0FDA3E0FEA38D
:1032F200E0FF121AF3EF2401FFE43EFEE43DFDE499
:103302003CFC900597121BA790059BE0FCA3E0FDF7
:10331200A3E0FEA3E0FF900597E0F8A3E0F9A3E0A5
:10332200FAA3E0FBEF2BFFEE3AFEED39FDEC38FCA1
:10333200A3121BA775CEA575CF5A0075CEA575CF62
:103342005A00900596E004F0E0C39408500302325C
:103352008390059BE0FCA3E0FDA3E0FEA3E0FFE475
:103362007B08FAF9F8121A6190059B121BA79005C7
:103372009BE0FCA3E0FDA3E0FEA3E0FFE412161C29
:10338200C004C005C006C00790BACD121B87E41264
:10339200161CD003D002D001D00012151290055095
:1033A200121BA790059B121BB300000000E49005BE
:1033B20096F0E4FB7D017F0D7E01120000BF013417
:1033C20078C17C057D017B017A0079007E007F0453
:1033D20012182C7B017A0579C17D0412C025900553
:1033E200C1E0FCA3E0FDA3E0FEA3E0FF900597127D
:1033F2001BA7800790064FE04410F0E4FFFEFD7C1F
:1034020080900597E0F8A3E0F9A3E0FAA3E0FBC3FC
:10341200121B244024900597E0FCA3E0FDA3E0FEEC
:10342200A3E0FF121AF3EF2401FFE43EFEE43DFDA8
:10343200E43CFC900597121BA790059BE0FCA3E0DF
:10344200FDA3E0FEA3E0FF900597E0F8A3E0F9A357
:10345200E0FAA3E0FBEF2BFFEE3AFEED39FDEC388C
:10346200FCA3121BA775CEA575CF5A0075CEA57504
:10347200CF5A00900596E004F0E0C394085003028E
:1034820033B490059BE0FCA3E0FDA3E0FEA3E0FFC4
:10349200E47B08FAF9F8121A6190059B121BA790B7
:1034A200059BE0FCA3E0FDA3E0FEA3E0FFE412160F
:1034B2001CC004C005C006C00790BAC9121B87E42D
:1034C20012161CD003D002D001D0001215129005A2
:1034D20048121BA77FA51203AE9005A8E0B40639D7
:1034E2009005A3E0FCA3E0FDA3E0FEA3E0FFE47BE4
:1034F20002FAF9F8121A619005A3121BA79005A30C
:10350200E0FCA3E0FDA3E0FEA3E0FF90074174010D
:10351200F01274837FA61203AE9005A8E0B40739B7
:103522009005A3E0FCA3E0FDA3E0FEA3E0FFE47BA3
:1035320014FAF9F8121A619005A3121BA79005A3B9
:10354200E0FCA3E0FDA3E0FEA3E0FF9007387401D6
:10355200F012B4447FA71203AE9005A8E06408708D
:10356200529005A7E06408704A12D97A75CEA57503
:10357200CF5A0075CEA575CF5A0075CEA575CF5A14
:103582000075CEA575CF5A00129FC49004CAE0758B
:10359200F00AA4240EF582E43405F583E4F0A3F0E6
:1035A20075CEA575CF5A0075CEA575CF5A007FA8E6
:1035B2001203AE12E8101266B875CEA575CF5A0086
:0C35C20075CEA575CF5A00E4900557F0B7
:0135CE0022DA
:0B556200900095EBF0A3EAF0A3E9F045
:10556D00E49000A4F0900095E0FBA3E0FAA3E0F92D
:10557D0090000D12186BFF12E73A9000A5EFF09016
:10558D000095E0FBA3E0FAA3E0F990000E12186B72
:10559D00FF12E73AEFC454F0FEC006900095E0FB11
:1055AD00A3E0FAA3E0F990000F12186BFF12E73A8F
:1055BD00D0E02F9000A6F0900095E0FBA3E0FAA3B9
:1055CD00E0F990001112186BFF12E73AEFC454F096
:1055DD00FEC006900095E0FBA3E0FAA3E0F9900071
:1055ED001212186BFF12E73AD0E02F9000A7F07B54
:1055FD00017A0079A412B6B6900098121BA7E49018
:10560D0000A4F0900095E0FBA3E0FAA3E0F9900070
:10561D001312186BFF12E73A9000A5EFF09000956A
:10562D00E0FBA3E0FAA3E0F990001412186BFF124F
:10563D00E73AEFC454F0FEC006900095E0FBA3E0FE
:10564D00FAA3E0F990001612186BFF12E73AD0E0BA
:10565D002F9000A6F0900095E0FBA3E0FAA3E0F9EF
:10566D0090001712186BFF12E73AEFC454F0FEC00A
:10567D0006900095E0FBA3E0FAA3E0F99000181264
:10568D00186BFF12E73AD0E02F9000A7F07B017A5C
:10569D000079A412B6B690009C121BA7E49000A44A
:1056AD00F0900095E0FBA3E0FAA3E0F99000191249
:1056BD00186BFF12E73A9000A5EFF0900095E0FB14
:1056CD00A3E0FAA3E0F990001A12186BFF12E73A63
:1056DD00EFC454F0FEC006900095E0FBA3E0FAA3E2
:1056ED00E0F990001B12186BFF12E73AD0E02F90F3
:1056FD0000A6F0900095E0FBA3E0FAA3E0F990007E
:10570D001C12186BFF12E73AEFC454F0FEC006905E
:10571D000095E0FBA3E0FAA3E0F990001E12186BD0
:10572D00FF12E73AD0E02F9000A7F07B017A0079C5
:10573D00A412B6B69000A0121BA7900095E0FBA393
:10574D00E0FAA3E0241FF9E43AFA9001E1EBF0A3AB
:10575D00EAF0A3E9F0A3E4F0A37406F07B017A006C
:10576D0079A812DD76E49000AEF07B017A0079A87D
:10577D0012E2959000AF121BA79004DDE0FCA3E0B0
:10578D00FDA3E0FEA3E0FF121C8C57BF0000FEB08E
:10579D0058050000FEB158180000FEB257BF0000BA
:1057AD00FEB358050000FEB458180000FEB5000009
:1057BD00583D9000AFE0FCA3E0FDA3E0FEA3E0FFA9
:1057CD0012942A75CEA575CF5A0075CEA575CF5AF0
:1057DD0000900098E0FCA3E0FDA3E0FEA3E0FF90A5
:1057ED0000B7121BA790009CE0FCA3E0FDA3E0FE18
:1057FD00A3E0FF125AC180249000AFE0FCA3E0FDAE
:10580D00A3E0FEA3E0FF129D8F80119000AFE0FC9E
:10581D00A3E0FDA3E0FEA3E0FF127B6F12E81012E0
:10582D0066B875CEA575CF5A0075CEA575CF5A0041
:01583D002248
:06942A009000B3121BA725
:1094300075CEA575CF5A0075CEA575CF5A00E4FF3D
:10944000FEFDFC9000B3E0F8A3E0F9A3E0FAA3E08E
:10945000FB1215AFE4FFFE7DC87C429000B3E0F83C
:10946000A3E0F9A3E0FAA3E0FB1213187B007A5003
:1094700079C3784712140912165A9000B8121BA724
:10948000E47FB37EFEFDFC9004DDE0F8A3E0F9A3E9
:10949000E0FAA3E0FBC3121B2470517FE87E101298
:1094A00090659000BC121BA79000CB121BB30098D4
:1094B00096809000B812A6E89000BC121BA79000FE
:1094C000BCE0FCA3E0FDA3E0FEA3E0FF9000CC74B1
:1094D00010F0A374E8F012C6979000BCE0FCA3E083
:1094E000FDA3E0FEA3E0FF90051C806AE47FB07E50
:1094F000FEFDFC9004DDE0F8A3E0F9A3E0FAA3E0B0
:10950000FBC3121B2470527FE97E101290659000FD
:10951000BC121BA79000CB121BB300989680900042
:10952000B812A6E89000BC121BA79000BCE0FCA3F8
:10953000E0FDA3E0FEA3E0FF9000CC7410F0A37464
:10954000E9F012C6979000BCE0FCA3E0FDA3E0FEAA
:09955000A3E0FF90052C121BA7FB
:0195590022EF
:065AC1009000B3121BA7C8
:105AC700E47FB07EFEFDFC9004DDE0F8A3E0F9A3DF
:105AD700E0FAA3E0FBC3121B246003025BE07FD95B
:105AE7007E101290659000BB121BA79000BBE0FCD4
:105AF700A3E0FDA3E0FEA3E0FFE412161C90054C13
:105B0700E0F8A3E0F9A3E0FAA3E0FB1214091216E8
:105B17005A9000BB121BA77FEB7E10129065900076
:105B2700BF121BA7E4FFFEFDFC9000BFE0F8A3E057
:105B3700F9A3E0FAA3E0FBC3121B24701D12A6D140
:105B47009000BF121BA79000BFE0FCA3E0FDA3E0FD
:105B5700FEA3E0FF900528121BA77FD87E101290A6
:105B6700659000BB121BA7E4FFFE7D207C419005DA
:105B770048E0F8A3E0F9A3E0FAA3E0FB121409C098
:105B870004C005C006C0079000BBE0FCA3E0FDA36E
:105B9700E0FEA3E0FFE412161CD003D002D001D030
:105BA7000012140912165A9000BB121BA77FEA7E37
:105BB700101290659000BF121BA7E4FFFEFDFC903A
:105BC70000BFE0F8A3E0F9A3E0FAA3E0FBC3121BD0
:105BD700246003025D2E025CF3E47FB37EFEFDFCCE
:105BE7009004DDE0F8A3E0F9A3E0FAA3E0FBC31219
:105BF7001B246003025D2E7FDA7E101290659000F1
:105C0700BB121BA79000BBE0FCA3E0FDA3E0FEA333
:105C1700E0FFE412161C900550E0F8A3E0F9A3E0BA
:105C2700FAA3E0FB12140912165A9000BB121BA725
:105C37007FEC7E101290659000BF121BA7E4FFFE59
:105C4700FDFC9000BFE0F8A3E0F9A3E0FAA3E0FBB6
:105C5700C3121B24701D12A6D19000BF121BA79060
:105C670000BFE0FCA3E0FDA3E0FEA3E0FF90053842
:105C7700121BA77FD87E101290659000BB121BA73E
:105C8700E4FFFE7D207C41900548E0F8A3E0F9A3FE
:105C9700E0FAA3E0FB121409C004C005C006C00760
:105CA7009000BBE0FCA3E0FDA3E0FEA3E0FFE4124D
:105CB700161CD003D002D001D00012140912165AB4
:105CC7009000BB121BA77FEA7E101290659000BF61
:105CD700121BA7E4FFFEFDFC9000BFE0F8A3E0F96C
:105CE700A3E0FAA3E0FBC3121B24703B9000B7129A
:105CF700A6D49000BF121BA79000BFE0FCA3E0FD55
:105D0700A3E0FEA3E0FF90053C121BA79000BFE0B5
:105D1700FCA3E0FDA3E0FEA3E0FF9000CC7410F02D
:075D2700A374EAF012C69715
:015D2E002252
:069D8F009000B3121BA7B7
:109D9500E4FFFEFDFC9000B3E0F8A3E0F9A3E0FAD0
:109DA500A3E0FB1215AFE4FFFE7DC87C429000B333
:109DB500E0F8A3E0F9A3E0FAA3E0FB1213187B0097
:109DC5007A5079C3784712140912165A9000B712BF
:109DD5001BA79000CC121BB3009896809000B7E0AB
:109DE500FCA3E0FDA3E0FEA3E0FF12A1DBE4FCFD84
:109DF500FE9000BB121BA7E47FB47EFEFDFC900421
:109E0500DDE0F8A3E0F9A3E0FAA3E0FBC3121B240D
:109E1500703F9000BBE0FCA3E0FDA3E0FEA3E0FFE4
:109E2500900520121BA77B017A0079C09000BBE04A
:109E3500FCA3E0FDA3E0FEA3E0FF12BB489000C336
:109E4500E0FFE4FCFDFE9000CC7428F0A3747B8059
:109E550058E47FB17EFEFDFC9004DDE0F8A3E0F957
:109E6500A3E0FAA3E0FBC3121B2470419000BBE002
:109E7500FCA3E0FDA3E0FEA3E0FF900530121BA7C5
:109E85007B017A0079C49000BBE0FCA3E0FDA3E070
:109E9500FEA3E0FF12BB489000C7E0FFE4FCFDFE17
:0D9EA5009000CC7428F0A3747CF012C697D6
:019EB200228D
:067B6F009000B3121BA7F9
:107B7500E47FB57EFEFDFC9004DDE0F8A3E0F9A30B
:107B8500E0FAA3E0FBC3121B246003027C457FD609
:107B95007E101290659000C0121BA79000C0E0FCFB
:107BA500A3E0FDA3E0FEA3E0FFEC12161C9000B3DA
:107BB500E0F8A3E0F9A3E0FAA3E0FB121409E4FB63
:107BC500FA79C8784212151212165A9000BC121B87
:107BD500A7E49000BBF0FFFEFDFCA3E0F8A3E0F9ED
:107BE500A3E0FAA3E0FBD3121B0E9000BCE0FCA3BC
:107BF500E0FDA3E0FEA3E04003FF800F24FFFFEEBE
:107C050034FFFEED34FFFDEC34FFFC9000B7121B92
:107C1500A79000B7E0FCA3E0FDA3E0FEA3E0FF9082
:107C250000CC7410F0A374EDF012C6979000B7E085
:107C3500FCA3E0FDA3E0FEA3E0FF900524027D1276
:107C4500E47FB27EFEFDFC9004DDE0F8A3E0F9A33D
:107C5500E0FAA3E0FBC3121B246003027D157FD766
:107C65007E101290659000C0121BA79000C0E0FC2A
:107C7500A3E0FDA3E0FEA3E0FFEC12161C9000B309
:107C8500E0F8A3E0F9A3E0FAA3E0FB121409E4FB92
:107C9500FA79C8784212151212165A9000BC121BB6
:107CA500A7E49000BBF0FFFEFDFCA3E0F8A3E0F91C
:107CB500A3E0FAA3E0FBD3121B0E9000BCE0FCA3EB
:107CC500E0FDA3E0FEA3E04003FF800F24FFFFEEED
:107CD50034FFFEED34FFFDEC34FFFC9000B7121BC2
:107CE500A79000B7E0FCA3E0FDA3E0FEA3E0FF90B2
:107CF50000CC7410F0A374EEF012C6979000B7E0B4
:107D0500FCA3E0FDA3E0FEA3E0FF900534121BA752
:017D1500224B
:03F0360002E57F71
:105D2F00900000EFF0BF030C9028637480F0A3E4A1
:105D3F00F0D28422C2849000CC7428F0A3747DF03A
:105D4F007F007E007D007C0012C6979000CC7428E7
:105D5F00F0A37478F07F007E007D007C0012C69760
:105D6F009028637480F0A3E4F0900000E07023FFAC
:105D7F00FE7D32FC12BD68902864E04407F090006D
:105D8F00CC7410F0A374EFF07FBC7E747D937C888D
:105D9F008031900000E0FF64016004EFB402297FBE
:105DAF00007E807D0C7C0012BD68902864E0440367
:105DBF00F09000CC7410F0A374EFF07F9C7E3C7DCC
:105DCF001D7C9112C697800312EF8090285874495A
:105DDF00F09000CC7410F0A374F4F07F307EA87DA7
:105DEF00617C0412C6979000CC7410F0A374FAF083
:105DFF007F107EC27DDE7C0612C6979000CC741099
:105E0F00F0A374F5F07F017E007D007C0012C69731
:105E1F009000CC7410F0A374FBF07F017E007D0026
:105E2F007C0012C6979000CC7428F0A37478F07F92
:105E3F00577E007D007C0012C6979000CC7428F02E
:105E4F00A37479F07F007E007D007C0012C69790CE
:105E5F0000CC7428F0A3747AF07F707E007D007CF4
:105E6F000012C6979000CC7410F0A374F0F07F006E
:105E7F007E007D007C0012C6979000CC7410F0A3BA
:105E8F0074F1F07F007E007D007C0012C6979000B9
:105E9F00CC7410F0A374F2F07F007E007D007C00C4
:105EAF0012C6979000CC7410F0A374F3F07F007EAD
:105EBF00007D007C0012C6979000CC7410F0A37484
:105ECF00F6F07F007E007D007C0012C6979000CC1C
:105EDF007410F0A374F7F07F007E007D007C001239
:105EEF00C6979000CC7410F0A374F8F07F007E007A
:105EFF007D007C0012C6979000CC7410F0A374F94B
:105F0F00F07F007E007D007C0012C6979000CC745D
:105F1F0028F0A3747DF07FDE7E007D007C0012C62A
:105F2F00979000CC7428F0A3747BF07F007E007DE7
:105F3F00007C0012C6979000CC7428F0A3747CF0FC
:105F4F007F007E007D007C0012C6979000CC7428E5
:105F5F00F0A3747EF07F017E007D007C0012C69757
:105F6F009000CC7410F0A374FCF07F017E007D00D4
:105F7F007C0012C69753A4DF43AD2043E80290285C
:0C5F8F004BE04480F090076E7403F02299
:058D9B0090000DEFF057
:108DA0006401704E7FD37E1012906590000E121BEE
:108DB000A7E4FFFEFD7C8090000EE0F8A3E0F9A39D
:108DC000E0FAA3E0FBC3121B24402490000EE0FC59
:108DD000A3E0FDA3E0FEA3E0FF121AF3EF2401FFDE
:108DE000E43EFEE43DFDE43CFC90000E121BA702B5
:108DF0008E8390000DE064026003028EC5FB7D014E
:108E00007F1B7E01120000BF0134781A7C007D01B7
:108E10007B017A0079007E007F0412182C7B017A96
:108E200000791A7D0412C02590001AE0FCA3E0FD31
:108E3000A3E0FEA3E0FF90000E121BA780079006A0
:108E40004FE04410F0E4FFFEFD7C8090000EE0F85F
:108E5000A3E0F9A3E0FAA3E0FBC3121B2440249093
:108E6000000EE0FCA3E0FDA3E0FEA3E0FF121AF376
:108E7000EF2401FFE43EFEE43DFDE43CFC90000EE7
:108E8000121BA790000EE0FCA3E0FDA3E0FEA3E010
:108E9000FFE412161C900548E0F8A3E0F9A3E0FAFD
:108EA000A3E0FB121409900016121BA7900016E015
:108EB000FCA3E0FDA3E0FEA3E0FF12165A9000120F
:108EC000121BA7800A900012121BB300000000E4DE
:108ED0007F32FEFDFC900012E0F8A3E0F9A3E0FA77
:108EE000A3E0FBC3121B24500A900012121BB30014
:108EF000000000900012E0FCA3E0FDA3E0FEA3E070
:018F0000FF71
:018F0100224D
:059A110090000DEFF0D4
:109A16006401704D7FD57E1012906590000E121B6A
:109A2600A7E4FFFEFD7C8090000EE0F8A3E0F9A31A
:109A3600E0FAA3E0FBC3121B24407C90000EE0FC7E
:109A4600A3E0FDA3E0FEA3E0FF121AF3EF2401FF5B
:109A5600E43EFEE43DFDE43CFC90000E121BA780B4
:109A66005690000DE064026003029AFF7FD47E10D8
:109A760012906590000E121BA7E4FFFEFD7C8090FD
:109A8600000EE0F8A3E0F9A3E0FAA3E0FBC3121B83
:109A960024402490000EE0FCA3E0FDA3E0FEA3E03A
:109AA600FF121AF3EF2401FFE43EFEE43DFDE43C21
:109AB600FC90000E121BA790000EE0FCA3E0FDA395
:109AC600E0FEA3E0FFE412161C900550E0F8A3E0C8
:109AD600F9A3E0FAA3E0FB121409900016121BA7E3
:109AE600900016E0FCA3E0FDA3E0FEA3E0FF121643
:109AF6005A900012121BA7800A900012121BB30084
:109B0600000000E47F14FEFDFC900012E0F8A3E0E4
:109B1600F9A3E0FAA3E0FBC3121B24500A9000123B
:109B2600121BB300000000900012E0FCA3E0FDA3AE
:059B3600E0FEA3E0FFCA
:019B3B002207
:056CFD00900696EFF087
:106D02006003026D897FD17E101290659006971202
:106D12001BA7E4FB7D017F197E01120000BF013435
:106D220078A77C067D017B017A0079007E007F04D2
:106D320012182C7B017A0679A77D0412C0259006D1
:106D4200A7E0FCA3E0FDA3E0FEA3E0FF90069B12F8
:106D52001BA7800790064FE04410F090069BE0FCD2
:106D6200A3E0FDA3E0FEA3E0FF900697E0F8A3E016
:106D7200F9A3E0FAA3E02FFFEA3EFEE93DFDE83C7D
:106D8200FC90069F121BA7900696E0B4012C7FD1BF
:106D92007E10129065900697121BA7E4FFFEFD7C01
:106DA20080900697E0F8A3E0F9A3E0FAA3E0FBC322
:106DB200121B245003026E59806D900696E0640205
:106DC2006003026E4FFB7D017F197E01120000BF3E
:106DD200013478A77C067D017B017A0079007E0070
:106DE2007F0412182C7B017A0679A77D0412C02534
:106DF2009006A7E0FCA3E0FDA3E0FEA3E0FF90065F
:106E020097121BA7800790064FE04410F0E4FFFEA4
:106E1200FD7C80900697E0F8A3E0F9A3E0FAA3E0F6
:106E2200FBC3121B244030900697E0FCA3E0FDA3B5
:106E3200E0FEA3E0FF121AF3EF2401FFE43EFEE4BA
:106E42003DFDE43CFC900697121BA7800A90069732
:106E5200121BB300000000E47F867E19FDFC900641
:106E620097E0F8A3E0F9A3E0FAA3E0FBC3121B2426
:106E7200500C90069F121BB3000000008063900626
:106E820096E0B4011FA3E0FCA3E0FDA3E0FEA3E0B3
:106E9200FFE412161C90BADD121B97121409900619
:106EA200A3121BA7900696E0B4021FA3E0FCA3E086
:106EB200FDA3E0FEA3E0FFE412161C90BADD121B54
:106EC200971214099006A3121BA79006A3E0FCA335
:106ED200E0FDA3E0FEA3E0FF12165A90069F121BEC
:0F6EE200A790069FE0FCA3E0FDA3E0FEA3E0FF66
:016EF100227E
:05B0E20090000DEFF0ED
:10B0E700BF01247FFD7E1012906590000E121BA7F2
:10B0F70090000EE0F8A3E0F9A3E0FAA3E0FBE4FF79
:10B10700FE7DE27C04805D90000DE064027069FBC7
:10B117007D017F9A7E01120000EF6401705178165D
:10B127007C007D017B017A007900FE7F0412182CD8
:10B137007B017A0079167D0412C025900016E0FC89
:10B14700A3E0FDA3E0FEA3E0FF90000E121BA79073
:10B15700000EE0F8A3E0F9A3E0FAA3E0FBE4FFFEAA
:10B167007D887C13121A61900012121BA78013901E
:10B17700064FE04410F0800A900012121BB3000043
:10B187000000900012E0FCA3E0FDA3E0FEA3E0FFB7
:10B19700E412161C7B9A7A997999783F121409124E
:10B1A700165A900012121BA7900012E0FCA3E0FDB4
:06B1B700A3E0FEA3E0FF8F
:01B1BD00226F
:108ACB00900011121BB300000000900011E0F8A3FE
:108ADB00E0F9A3E0FAA3E0FBC000C001C002C003B1
:108AEB007FD17E10129065D003D002D001D000EB65
:108AFB002FFFEA3EFEE93DFDE83CFC900011121B06
:108B0B00A7900011E0F8A3E0F9A3E0FAA3E0FBC003
:108B1B0000C001C002C0037FD27E10129065D0034B
:108B2B00D002D001D000EB2FFFEA3EFEE93DFDE87D
:108B3B003CFC900011121BA7E4FFFEFD7C80900013
:108B4B0011E0F8A3E0F9A3E0FAA3E0FBC3121B24A6
:108B5B0090076FE0402954EFF0900011E0FCA3E088
:108B6B00FDA3E0FEA3E0FF121AF3EF2401FFE43EA6
:108B7B00FEE43DFDE43CFC900011121BA780034476
:108B8B0010F0900011E0FCA3E0FDA3E0FEA3E0FFDA
:108B9B0090000D121BA7E47F867E19FDFC9000113F
:108BAB00E0F8A3E0F9A3E0FAA3E0FBC3121B245007
:108BBB001B90000D121BB300000000900011121B44
:108BCB00B30000000090076FE054EFF090000DE051
:108BDB00FCA3E0FDA3E0FEA3E0FFE47B02FAF9F8BF
:108BEB00121A6190000D121BA790000DE0FCA3E080
:108BFB00FDA3E0FEA3E0FF9000CC7410F0A374FC87
:108C0B00F012C697900011E0FCA3E0FDA3E0FEA3D9
:108C1B00E0FFE412161C90BADD121B971214091216
:088C2B00165A900601021BA776
:103BD80090061D121BB300000000900619121BB3BB
:103BE80000000000900625121BB3000000007FD2E1
:103BF8007E1012906590061D121BA77FEE7E101294
:103C08009065900619121BA7E4FB7D017F1A7E01BF
:103C1800120000EF64017045782D7C067D017B0160
:103C28007A007900FE7F0412182C7B017A06792D20
:103C38007D0412C02590062DE0FCA3E0FDA3E0FE64
:103C4800A3E0FFE412161C7BCB7AA179D5783F124A
:103C5800140912165A900625121BA7800890064FC1
:103C6800E04410F022E47F867E19FDFC900621E0F6
:103C7800F8A3E0F9A3E0FAA3E0FBD3121B24401B4E
:103C88007F7A7EE67DFF7CFF900621E0F8A3E0F9CD
:103C9800A3E0FAA3E0FB121B24400A900621121BA2
:103CA800B300000000E47F867E19FDFC900629E041
:103CB800F8A3E0F9A3E0FAA3E0FBD3121B24401B0E
:103CC8007F7A7EE67DFF7CFF900629E0F8A3E0F985
:103CD800A3E0FAA3E0FB121B24400A900629121B5A
:103CE800B30000000090061D90062590076FE03095
:103CF800E503023E1E30E350900625E0FCA3E0FDFC
:103D0800A3E0FEA3E0FF121AF3EF2401FFE43EFE56
:103D1800E43DFDE43CFC900625121BA790061DE03F
:103D2800FCA3E0FDA3E0FEA3E0FF900625E0F8A3D6
:103D3800E0F9A3E0FAA3E02FFFEA3EFEE93DFDE843
:103D48003CFC90062D023F61900625E0FCA3E0FDB7
:103D5800A3E0FEA3E0FF90061DE0F8A3E0F9A3E0CE
:103D6800FAA3E0FBC3121B244050900625E0F8A3F9
:103D7800E0F9A3E0FAA3E0FB90061DE0FCA3E0FD58
:103D8800A3E0FEA3E09BFFEE9AFEED99FDEC98FC04
:103D980090062D121BA7900625E0FCA3E0FDA3E0EA
:103DA800FEA3E0FF121AF3EF2401FFE43EFEE43D18
:103DB800FDE43CFC900625023F6190061DE0F8A357
:103DC800E0F9A3E0FAA3E0FB900625E0FCA3E0FD00
:103DD800A3E0FEA3E0C39BFFEE9AFEED99FDEC98ED
:103DE800FC90062D121BA790065AE064556003024A
:103DF8003F64900625E0FCA3E0FDA3E0FEA3E0FFFE
:103E0800121AF3EF2401FFE43EFEE43DFDE43CFC1E
:103E1800900625023F6190076FE020E303023EFF12
:103E2800900625E0FCA3E0FDA3E0FEA3E0FF9006DA
:103E38001DE0F8A3E0F9A3E0FAA3E0FBC3121B24FA
:103E48004065900625E0F8A3E0F9A3E0FAA3E0FBBB
:103E580090061DE0FCA3E0FDA3E0FEA3E09BFFEEBF
:103E68009AFEED99FDEC98FC90062D121BA7900682
:103E78005AE06455900625600DE0FCA3E0FDA3E040
:103E8800FEA3E0FF801BE0FCA3E0FDA3E0FEA3E0AF
:103E9800FF121AF3EF2401FFE43EFEE43DFDE43C8B
:103EA800FC900625023F6190061DE0F8A3E0F9A307
:103EB800E0FAA3E0FB900625E0FCA3E0FDA3E0FE0A
:103EC800A3E0C39BFFEE9AFEED99FDEC98FC9006EB
:103ED8002D121BA7900625E0FCA3E0FDA3E0FEA39E
:103EE800E0FF121AF3EF2401FFE43EFEE43DFDE497
:103EF8003CFC9006258062900625E0FCA3E0FDA32B
:103F0800E0FEA3E0FF90061DE0F8A3E0F9A3E0FAC5
:103F1800A3E02FFFEA3EFEE93DFDE83CFC90062DBC
:103F2800121BA790065AE06455900625600DE0FC28
:103F3800A3E0FDA3E0FEA3E0FF801BE0FCA3E0FDFF
:103F4800A3E0FEA3E0FF121AF3EF2401FFE43EFE14
:103F5800E43DFDE43CFC900625121BA790051CE0FF
:103F6800FCA3E0FDA3E0FEA3E02400FFE43EFEE4A2
:103F78003DFDEC3480FCE412161CA804A905AA0631
:103F8800AB07E4FFFEFD7C4F121512900631121BA1
:103F9800A7E4FFFEFD7C80900625E0F8A3E0F9A3E6
:103FA800E0FAA3E0FBD3121B24900625E0FC406B4B
:103FB800A3E0FDA3E0FEA3E0FF121AF3EF2401FF44
:103FC800E43EFEE43DFDE43CFC900625121BA79070
:103FD8000625E0FCA3E0FDA3E0FEA3E0FFE4121643
:103FE8001C900631E0F8A3E0F9A3E0FAA3E0FB1285
:103FF800140912165A900625121BA7900625E0FCF4
:10400800A3E0FDA3E0FEA3E0FF121AF3EF2401FFF3
:10401800E43EFEE43DFDE43CFC8021A3E0FDA3E09A
:10402800FEA3E0FFE412161C900631E0F8A3E0F9C5
:10403800A3E0FAA3E0FB12140912165A90062512FF
:104048001BA7900625E0FCA3E0FDA3E0FEA3E0FF8C
:104058009000CC7410F0A374EEF012C697E4FFFE43
:10406800FD7C80900625E0F8A3E0F9A3E0FAA3E040
:10407800FBD3121B244024900625E0FCA3E0FDA3FB
:10408800E0FEA3E0FF121AF3EF2401FFE43EFEE492
:104098003DFDE43CFC900625121BA7E4FFFEFD7CD9
:1040A8008090061DE0F8A3E0F9A3E0FAA3E0FBD3B3
:1040B800121B24402490061DE0FCA3E0FDA3E0FEB3
:1040C800A3E0FF121AF3EF2401FFE43EFEE43DFDF6
:1040D800E43CFC90061D121BA7E4FFFEFD7C8090CB
:1040E800062DE0F8A3E0F9A3E0FAA3E0FBD3121B46
:1040F80024402490062DE0FCA3E0FDA3E0FEA3E00D
:10410800FF121AF3EF2401FFE43EFEE43DFDE43C18
:10411800FC90062D121BA790061DE0FCA3E0FDA352
:10412800E0FEA3E0FFE412161C90BAE1121B9712FE
:10413800140912165A900605121BA790062DE0FCCA
:10414800A3E0FDA3E0FEA3E0FFE412161C90BAE191
:10415800121B9712140912165A900619121BA790CF
:104168000625E0FCA3E0FDA3E0FEA3E0FFE41216B1
:104178001C90BAE1121B9712140912165A90062DB8
:0D418800121BA7900641121BB3000000009F
:014195002207
:0579C0009006E5EFF068
:1079C500BF014B7FD27E101290659006E6121BA771
:1079D500E4FFFEFD7C809006E6E0F8A3E0F9A3E075
:1079E500FAA3E0FBC3121B245003027AD69006E6E5
:1079F500E0FCA3E0FDA3E0FEA3E0FF121AF3EF24F1
:107A050001FFE43EFEE43DFDE43CFC027AC4900641
:107A1500E5E064026003027ACCFB7D017F1A7E01FA
:107A2500120000BF013478F27C067D017B017A00EB
:107A350079007E007F0412182C7B017A0679F27D8D
:107A45000412C0259006F2E0FCA3E0FDA3E0FEA32E
:107A5500E0FF9006E6121BA7800790064FE0441052
:107A6500F0E4FFFEFD7C809006E6E0F8A3E0F9A3D4
:107A7500E0FAA3E0FBC3121B2440249006E6E0FCD9
:107A8500A3E0FDA3E0FEA3E0FF121AF3EF2401FF3C
:107A9500E43EFEE43DFDE43CFC9006E6121BA790A7
:107AA50006E6E0FCA3E0FDA3E0FEA3E0FFE412167A
:107AB5001C7BCB7AA179D5783F12140912165A90FE
:107AC50006E6121BA7800A9006E6121BB30000000B
:107AD50000E47F867E19FDFC9006E6E0F8A3E0F958
:107AE500A3E0FAA3E0FBC3121B24500C9006EA1294
:107AF5001BB30000000080639006E5E0B4011FA3FE
:107B0500E0FCA3E0FDA3E0FEA3E0FFE412161C9059
:107B1500BAE1121B971214099006EE121BA79006E4
:107B2500E5E0B4021FA3E0FCA3E0FDA3E0FEA3E0B3
:107B3500FFE412161C90BAE1121B97121409900665
:107B4500EE121BA79006EEE0FCA3E0FDA3E0FEA36A
:107B5500E0FF12165A9006EA121BA79006EAE0FC0F
:097B6500A3E0FDA3E0FEA3E0FF94
:017B6E0022F4
:10E4C00003E503E803EC03EF03D903DC03E003E314
:10E4D00003D303D603D903DC03C603C903CC03CF9C
:10E4E000041004130416041904030407040A040D99
:10E4F00003FA03FD0400040303ED03F103F403F73F
:10E63800EFB401089028637481F0800BEF640270D6
:10E648002A90286374A2F0902864E04408F0A3E0BC
:10E658004401F07F787E28129065EF4418FF9000FF
:0BE66800CC7428F0A37478F012C69761
:01E673002284
:10EAB000902864E054F7F09028637480F090286503
:10EAC000E04401F07F787E28129065EF54F7FF90C4
:0CEAD00000CC7428F0A37478F002C69704
:10E674007F0212E6387F0A7E0012EE8A7FCE7E1079
:10E684001290657810121B35EE30E70FEFF4FFEEB1
:10E69400F4FEEF2401FFE43EFE800F7C007D471270
:0BE6A4001900EF24FBFFEE34FFFE0026
:01E6AF002248
:10E9F5007F0112E6387F0A7E0012EE8A12005690D9
:10EA05000003121BA7E4FFFE7D207C41900003E07C
:10EA1500F8A3E0F9A3E0FAA3E0FB12140912165AD1
:01EA250022CE
:100056009000087404F0A37420F0E4900007F09078
:100066000007E0FFC394035043EF75F018A4FF9018
:100076000009E02FFD900008E035F0FC7E007F0AC5
:100086007B1512E79C7B017A00790A900033743362
:10009600F07D137C0012EBF9900029EFF090001E22
:1000A600E06F6008900007E004F080B37B017A00FF
:1000B600790A7D0412C0257B017A00790E7D04122F
:1000C600C0257B017A0079127D0412C0257B017A56
:1000D6000079167D0412C0257B017A00791A7D0409
:1000E60012C0257FCE7E101290657810121B3590B7
:1000F600002A121BA77E007F1F902862E0543E2430
:10010600C0F582E434E4AD82FC7B0212E79C9000E9
:100116001FE0FEA3E0FFE4FCFD90002AE0F8A3E068
:10012600F9A3E0FAA3E0FB1219D6E47BE87A03F917
:10013600F8121A6190002A121BA790001EE0FF9089
:100146000029E06F603290000A121BB3000046627D
:1001560090000E121BB300000001900012121BB398
:100166000D5A4336900016121BB300001BB49000C4
:100176001A121BB30000000A90002AE0FCA3E0FD5F
:10018600A3E0FEA3E0FF900016E0F8A3E0F9A3E0E9
:10019600FAA3E0FB1219D6900012E0F8A3E0F9A347
:1001A600E0FAA3E02FFFEA3EFEE93DFDE83CFCE471
:1001B60012161C12C0D6C004C005C006C0079000A7
:1001C6000EE0FCA3E0FDA3E0FEA3E0FFE412161C94
:1001D600D003D002D001D000121409C004C005C05B
:1001E60006C00790000AE0FCA3E0FDA3E0FEA3E042
:1001F600FFE412161CA804A905AA06AB07D007D06F
:1002060006D005D004121314C004C005C006C007EA
:1002160090001AE0FCA3E0FDA3E0FEA3E0FFE412D9
:10022600161CA804A905AA06AB07D007D006D00558
:10023600D004121512900025121BA7900008740412
:10024600F0A37480F0E4900007F0900007E0FFC38D
:1002560094035046EF75F004A4FF900009E02FFDCB
:10026600900008E035F0FC7E007F217B0412E79CBD
:100276007B017A0079219000337433F07D027C0093
:1002860012EBF9900023EFF0A3E0FF900023E06F5C
:100296006008900007E004F080B0900024E0FF9032
:1002A6000023E06F6007E4900021F0A3F0900021A6
:1002B600E030E75B900021E0FEA3E0F4FFEEF4FE01
:1002C600EF2401FFE43E900021F0A3EFF09000251B
:1002D600E0FCA3E0FDA3E0FEA3E0FFC004C005C070
:1002E60006C007900021E0FEA3E0FF7C007D0A1215
:1002F6001900AC06AD07E4121621A804A905AA0642
:10030600AB07D007D006D005D0041213148038905E
:100316000025E0F8A3E0F9A3E0FAA3E0FBC000C0E3
:1003260001C002C003900021E0FEA3E0FF7C007D37
:100336000A121900AC06AD07E4121621D003D0024A
:10034600D001D000121318900025121BA7E4FFFE5F
:100356007DB47C42900025E0F8A3E0F9A3E0FAA37F
:10036600E0FB1215AF600E400C900025121BB34245
:10037600B400008024E4FFFE7D2C7CC2900025E0C2
:10038600F8A3E0F9A3E0FAA3E0FB1215AF500A9038
:100396000025121BB3C22C0000900025E0FCA3E050
:0703A600FDA3E0FEA3E0FF50
:0103AD00222D
:06AE3F00900007121BA7A2
:10AE4500E490000BF0C286C285902867E044C0F00C
:10AE5500A37420F0900007E0FCA3E0FDA3E0FEA3AF
:10AE6500E0FF121C8CAE92000C8000AE9A00190017
:10AE750000AEAA00320000AEB200640000AEBF0012
:10AE8500C80000AED1019000000000AEE390286735
:10AE9500E054FC800A902867E04401F0E054FDF09E
:10AEA500A3E4F0803C902867E054FE800690286774
:10AEB500E04401F0E04402F08027902867E0440177
:10AEC500F0E04402F0A3E04440F08015902867E0EC
:10AED5004401F0E04402F0A3E044C0F0800312EF27
:10AEE50080E5A320E00F90000BE004F0E0D394325E
:10AEF50040EF7F0022D280E490000BF020800F907D
:10AF0500000BE004F0E0D3943240F17F002290285A
:0EAF15005FE4F0A37403F0A3E04420F07F019A
:01AF2300220B
:06BD6800900001121BA770
:10BD6E00E4900005F0C284902867E044C0F0900093
:10BD7E0001E0FCA3E0FDA3E0FEA3E0FF121C8CBDDE
:10BD8E00A900000000BDAE000C8000BDBB00190074
:10BD9E0000BDD0003200000000BDE5D2847F01223C
:10BDAE00902867E054F3F0E054CFF0802D90286790
:10BDBE00E04404F0E054F7F0E04410F0E054DFF01B
:10BDCE008018902867E054FBF0E04408F0E054EF50
:10BDDE00F0E04420F0800312EF80E5A320E00F9006
:10BDEE000005E004F0E0D3943240EF7F0022D287CA
:10BDFE00E4900005F020870F900005E004F0E0D3FA
:09BE0E00943240F17F00227F0113
:01BE17002208
:10DF9200C286C285902864E4F0902866F09000075B
:10DFA200F0900007E004F0E0B414F6D284E5A1306A
:10DFB200E00312EF80C2802080FDE5A130E0031271
:10DFC200EF80E4900007F0900007E004F0E0B40373
:10DFD200F6902867E4F0902867E070FAD2817F32E9
:04DFE20012EFE80052
:01DFE6002218
:10D346009028ADE054FDF09028ACE054FDF0902814
:10D35600AEE04402F09028ACE054FBF0A3E054FBAE
:10D36600F0A3E04404F0902820E4F0902828F09000
:10D376002830F0902A05F0902864F0902866E04462
:10D3860020F09000CC7428F0A3747DF07F007E001E
:10D396007D007C0012C6979000CC7428F0A37478A8
:10D3A600F07F007E007D007C0012C697E4FF0FEF41
:05D3B600B414FBD28459
:01D3BB00224F
:10CED6009028A8E054F0F09028AAE054F0F075A449
:10CEE600F275A50AE4F5A643A6049028B2E044022A
:10CEF600F09028B0E054FDF0A3E04401F09028B093
:10CF0600E054FDF0A3E04401F09028C97402F0A3B8
:10CF1600F09028B1E04410F09028B0E04410F09072
:10CF260028CDE4F053ADDF53A4DF53A6DFA3F09082
:10CF360028B0E054DFF09028B2E04420F09028C8F2
:10CF4600E4F09028ADE04410F09028C7E4F0902873
:0CCF5600ADE04408F053ADFD43A50222FD
:10DEE6009028A874FFF0A3E4F09028AC74FFF0A388
:10DEF600E4F09028B074FFF0A3E4F09028B474FF27
:10DF0600F0A3E4F09028B874FFF0A3E4F09028BCE6
:10DF160074FFF0A3E4F09028C074FFF0A3E4F0903F
:10DF260028D574FFF0A3E4F09028D974FFF0A3E499
:07DF3600F075A4FFF5A52220
:10EE2200E4FF9028B3E020E4050FEFB40AF4EFD337
:09EE3200940740037F01227F00D8
:01EE3B0022B4
:10EE3C00E4FF9028AFE020E4050FEFB40AF4EFD321
:09EE4C00940740037F01227F00BE
:01EE5500229A
:10EEBB00E4FFE5A720E1050FEFB40AF6EFD39407C3
:07EECB0040037F01227F00DC
:01EED200221D
:10EE5600E4FF9028AFE020E3050FEFB40AF4EFD308
:09EE6600940740037F01227F00A4
:01EE6F002280
:10EED300E4FFE5A730E0050FEFB40AF6EFD394079C
:07EEE30040037F01227F00C4
:01EEEA002205
:0EEFB500C28390285EE4F0902C1E74C2F022FD
:03F03900D283225D
:10ED9900902C08E4F0A3F0A3F0A3F0A3F0A3F0A350
:0CEDA900F0A3F0902C12F0A3F0A3F022D5
:10EBD200EF902C00F0902C04F0A3F0A3F0A3F0909F
:10EBE2002C09F0A3F0A3F0902C0FF0A3F0540FA384
:07EBF200F0EF902C13F0225C
:10D7C9009028B4E0440FF09028B8E04403F0902882
:10D7D900BCE074FFF09028C0E044FCF09028D5E04C
:10D7E90044C0F09028D9E04407F09028B5E054F0FF
:10D7F900F09028B9E054FCF09028BDE0E4F09028BE
:10D80900C1E05403F09028D6E0543FF09028DAE0C4
:10D8190054F8F012EFB5902C1F7403F0A374FFF0C5
:0DD82900A374FCF0A374C0F0A374C7F02238
:10AF240090000612186BFFC4540FFE12185254F00E
:10AF34004E902C00F090000112186BFE54F0FD129C
:10AF44001852540F4D902C04F090000212186B54B8
:10AF5400F0FDEE540F4D902C05F090000312186B89
:10AF6400FE54F0FD90000212186B540F4D902C0605
:10AF7400F090000412186B54F0FDEE540F4D902C19
:10AF840007F090000512186BFE54F0FD90000412B7
:10AF9400186B540F4D902C09F090000912186B5443
:10AFA400F0FDEE540F4D902C0AF090000A12186B2D
:10AFB400FE54F0FD90000912186B540F4D902C0BA9
:10AFC400F090000712186B54F0FDEF540F4D902CC5
:10AFD4000FF090000812186BFF54F0FD9000071258
:10AFE400186B540F4D902C10F0EF540FA3F09000F9
:10AFF4000B12186B54F0FFEE540F4F902C13F022E9
:10EF93009028C77406F09028ACE054F7F0A3E0542F
:03EFA300F7F02262
:0BEFDD0043E80290284BE04440F02283
:10E6EB00900007EFF0A3EDF07590967597577F327A
:10E6FB0012EFE8900008E0FFF596EFB4070D75DF19
:10E70B0040900007E0543F25DFF5DF7F3212EFE842
:0BE71B007590967597567F3202EFE86C
