:01040000FFFC
:0300000002CFCD5F
:06CFCD0075812002D00E68
:10BBE2000075CEA575CF5A0075CEA575CF5A00C285
:10BBF200AF12E9A7D2AF0075CEA575CF5A0075CEA8
:10BC0200A575CF5A0012EE86EF6401600302BC9163
:10BC120075CEA575CF5A0075CEA575CF5A00900680
:10BC22004EE0FF30E00654FEF012EC2A12852A9014
:10BC3200064EE0FF30E10654FDF01296D490066AFB
:10BC4200E06401600790066BE0B4010312B28D90CC
:10BC52000667E064017024F012B1B675CEA575CF07
:10BC62005A0075CEA575CF5A007D017F0112B8EF3B
:10BC72007FFF12EBB590066C7403F012852A12F066
:10BC82002975CEA575CF5A0075CEA575CF5A00126B
:05BC9200852A02BBF948
:10DC990000100044443031412D5632302E30331EAD
:10DCA9001E26003000111111111111FFFFFFFFFF96
:10DCB900FFFFFFFFFF1111111111110000000000FA
:10DCC90000000000000000000000005A00000000F1
:10DCD9001C0000000000000000000F0101FFFFFF11
:10DCE900FFFFFFFFFF0012345600000065341200E9
:01DCF900002A
:10D5E900E490064EF0A3F09006527403F0E490061E
:10D5F90065F07B017A0679579001D8F0A304F0A36E
:10D6090004F07D997C0012CBF07B017A0679589061
:10D6190001D8E4F0A37402F0A3F07D9F7C0012CB43
:10D62900F07B017A06795A9001D8E4F0A37402F0EC
:10D63900A3F07DA17C0012CBF07B017A0679619081
:10D6490001D8E4F0A37404F0A37402F07DC17C0056
:03D6590002CBF011
:10D8190000020000003E0102003E002F1402006DCC
:10D829000052150200BF00101B02011B001A190249
:10D8390000CF0009460200D8003A150200BF0010C7
:10D8490052020135001A5302014F001E5402016DA4
:10D8590000621A02011200096502080000716602DD
:10D8690008710071670208E20071680209530071CA
:0CD87900690209C400716A020A350071DE
:10B69E00900008E0FEA3E0FF90000CE0FCA3E0FDAC
:02B6AE007B021D
:10B6B00090018BEEF0A3EFF0A3ECF0A3EDF0A3EB81
:01B6C000F099
:10B6C1009001D174A5F0A3745AF090018DE0FEA30E
:10B6D100E0FFD39400EE9400500302B75CEF944076
:10B6E100EE940090019040057440F08002EFF07BF1
:10B6F100017A01799190018BE0FCA3E0FD9001902A
:10B70100E0FF9001D8E4F0A3EFF090018FE0900109
:10B71100DAF012CBF07B017A017991900190E0FD92
:10B721007C00E49001D8F0A3F012EA099001D2E084
:10B731002FF09001D1E03EF0900190E0FF7E00906B
:10B74100018CE02FF090018BE03EF0C390018EE080
:10B751009FF090018DE09EF002B6CB9001D1E0FE0A
:03B76100A3E0FF63
:01B7640022C2
:08CD0D0090018BEEF0A3EFF0A2
:10CD1500E4FFEF75F006A4241AF582E434D8F58310
:10CD2500E4936D7068ED640260037FFF22EF75F098
:10CD350006A4241BF582E434D8F583E493FB74013F
:10CD45009390018DCBF0A3EBF0EF75F006A4241DB5
:10CD5500F582E434D8F583740193F990018DE0FAF6
:10CD6500A3E0FBC390018CE09B90018BE09A401DF2
:10CD7500E9FB90018EE02BFB90018DE03400FAC3B6
:10CD850090018CE09B90018BE09A5001220FEF649B
:08CD950012600302CD177FFFBD
:01CD9D002273
:10AAA400900008E0FCA3E0FD2400FFEC3404FE90D9
:10AAB400000DE02402FB90000CE03400FA90001634
:03AAC4007422F009
:10AAC700900010EEF0A3EFF0A3ECF0A3EDF0A3EAF3
:04AAD700F0A3EBF00D
:10AADB00900014E0FEA3E0FFD39400EE940050032B
:10AAEB0002AB92D3EF9440EE940090005740057464
:10AAFB0040F08002EFF07B017A007917900012E0B2
:10AB0B00FCA3E0FD900057E0FF9001D8E4F0A3EF29
:10AB1B00F0900016E0FFC4540F9001DAF012CBF066
:10AB2B0075CEA575CF5A0075CEA575CF5A007B0192
:10AB3B007A007917900057E0FD900190E4F0A3EDB7
:10AB4B00F0900016E0540F900192F0900010E0FE90
:10AB5B00A3E0FF12C873900057E0FFFD7C0090004C
:10AB6B0011E02DF0900010E03CF0900013E02DF080
:10AB7B00900012E03CF0C3900015E09FF0900014A1
:07AB8B00E09400F002AADBD8
:01AB920022A0
:10C53E0090007AEEF0A3EFF0A3ECF0A3EDF0AF03D2
:10C54E007B017A007980AD0790017DE4F0A3744001
:10C55E00F012EAEA90007CE0FEA3E0FFD39400EE36
:10C56E0094004069D3EF9440EE94009000C04005D3
:10C57E007440F08002EFF090007AE0FEA3E0FF7BC3
:10C58E00017A0079809000C0E0FD900190E4F0A364
:10C59E00EDF090007FE0900192F012C87375CEA579
:10C5AE0075CF5A0075CEA575CF5A009000C0E0FF2A
:10C5BE007E0090007BE02FF090007AE03EF0C3907A
:0DC5CE00007DE09FF090007CE09EF08087F3
:01C5DB00223D
:0BCBE5009001D8E4F0A37402F0A3F06C
:10CBF0009001D3EBF0A3EAF0A3E9F0A3ECF0A3EDEE
:01CC0000F043
:10CC01009001DAE024FE604B0470699001D6E0FEE9
:10CC1100A3E0AA06F99001DB7401F0A3EAF0A3E90D
:10CC2100F09001DBE0F9A3E0FAA3E09001E1C9F0A3
:10CC3100A3EAF0A3E9F09001D8E0FFA3E09001E4BA
:10CC4100CFF0A3EFF09001D3E0FBA3E0FAA3E0F96A
:10CC510002DD599001D3E0FBA3E0FAA3E0F9A3E0E0
:10CC6100FCA3E0FDA3E0FFA3E09001E3CFF0A3EF7D
:07CC7100F002C35F12EF6344
:01CC78002299
:10C85200900004EEF0A3EFF090000A7A007904E071
:10C86200FEA3E0FF7B01900190E4F0A37402F0A329
:01C87200F0D5
:10C8730090018BEEF0A3EFF0A3EBF0A3EAF0A3E9B2
:01C88300F0C4
:10C88400900192E024FE603C04705A90018BE0FE1B
:10C89400A3E0AA06F97B01C002C001A3E0F9A3E06A
:10C8A400FAA3E09001E1C9F0A3EAF0A3E9F0900152
:10C8B40090E0FFA3E09001E4CFF0A3EFF0D001D02B
:10C8C4000202DD5990018BE0FEA3E0FFA3E0FBA38D
:10C8D400E0FAA3E0F9A3E0FDA3E0900198CDF0A372
:08C8E400EDF002C71812EF632A
:01C8EC002229
:10992E0090017BEBF0A3EAF0A3E9F0900179EEF061
:03993E00A3EFF0A4
:10994100900180E0FD12CD0D900181EFF0C39412E2
:10995100400312EF63900181E0FF75F006A4241B20
:10996100F582E434D8F583E493FD74019390018486
:10997100CDF0A3EDF0EF75F006A4241DF582E434DB
:10998100D8F58374019324FEFFE49334FFFE900124
:1099910088F0A3EFF0900185E02FFF900184E03E75
:1099A100900186F0A3EFF0900181E075F006A42408
:1099B10019F582E434D8F583E49390018AF090019B
:1099C10079E0FEA3E0FFA3E0FBA3E0FAA3E0F9A3A3
:1099D100E0FDA3E0900190CDF0A3EDF0900180E0D7
:1099E100900192F012C873900184E0FEA3E0FF9011
:1099F100018812B6A9900182EEF0A3EFF0900186E2
:109A01007A01798212C86190018AE0C39464504856
:109A110090017AE02400FF900179E03404FE900186
:109A21007BE0FBA3E0FAA3E0F9A3E0FDA3E0900152
:109A310090CDF0A3EDF0900180E0900192F012C87A
:109A410073900187E02400FF900186E03404FE7BDF
:089A5100017A01798212C86854
:019A590022EA
:10A1FD00E4FEEE75F006A42419F582E434D8F58357
:10A20D00E4936F60050EEEB412E8EEC394124003B2
:10A21D0002A2FDEE75F006A4241BF582E434D8F5F8
:10A22D0083E493FD740193900010CDF0A3EDF0EE57
:10A23D0075F006A4241DF582E434D8F583740193DA
:10A24D0024FEFCE49334FF900012F0A3CCF0EF2435
:10A25D00EB602224CF602E24F4603A146047146022
:10A26D005424407072900010E0FEA3E0FF7BFF7A53
:10A27D00DC79A8804E900010E0FEA3E0FF7BFF7A12
:10A28D00DB79CF803E900010E0FEA3E0FF7BFF7AEC
:10A29D00BA7972802E900010E0FEA3E0FF7BFF7A6A
:10A2AD00C97987801E900010E0FEA3E0FF7BFF7A46
:10A2BD00C979A1800E900010E0FEA3E0FF7BFF7A2C
:10A2CD00C979BFA3E0FDA3E0900190CDF0A3EDF01F
:10A2DD00A37402F002C873900010E0FEA3E0FFA388
:10A2ED00E0FCA3E0FD90007F7402F0E4FB12C53E9C
:01A2FD00223E
:1070E000E4900003F0900003E0F9C394124003021F
:1070F00072B7E490000EF0900003E0FF75F006A474
:10710000241BF582E434D8F583E493FD7401939055
:107110000008CDF0A3EDF0EF75F006A4241DF58274
:10712000E434D8F58374019324FEFEE49334FF9095
:10713000000CF0A3CEF090000CE0FAA3E0FB90006E
:1071400008E0FCA3E0FD2BFEEC3AA3F0A3CEF0E9AF
:1071500075F006A42419F582E434D8F583E49390FD
:10716000000FF075CEA575CF5A0075CEA575CF5A14
:1071700000AF05AE04AD03AC027B0212B6B09000C6
:1071800004EEF0A3EFF07B017A00790690000AE0AC
:10719000FCA3E0FD12CBE5900006E0FEA3E0FF902B
:1071A0000004E06E7003A3E06F600790000EE044FF
:1071B00001F090000FE0C39464504B900009E0246C
:1071C00000FF900008E03404FE12B6A6900004EE22
:1071D000F0A3EFF07B017A00790690000BE0240029
:1071E000FD90000AE03404FC12CBE5900006E0FEBE
:1071F000A3E0FF900004E06E7003A3E06F600790CF
:10720000000EE04402F075CEA575CF5A0075CEA5EC
:1072100075CF5A0090000EE070030272A024FE6049
:10722000361460412402707590000FE0C3946450DE
:1072300015900008E0FEA3E0FF2400FDEE3404FCFE
:1072400012AAB302728D90000FE0FF12A1FD12B6D8
:107250009E12C85202728D90000FE0C39464504099
:1072600012AAA4802890000FE0FF12A1FD12B69E82
:1072700012C85275CEA575CF5A0075CEA575CF5AD6
:107280000090000FE0C39464501612AAA475CEA516
:1072900075CF5A0075CEA575CF5A00800312EF63E3
:1072A00075CEA575CF5A0075CEA575CF5A00900042
:0772B00003E004F00270E5A9
:0172B70022B4
:05B9B200900095EFF08C
:10B9B700E4A3F0900096E0F9C39412400302BA7131
:10B9C700E0FE75F006A4241BF582E434D8F583E481
:10B9D70093FC740193FDEE75F006A4241DF582E433
:10B9E70034D8F58374019324FE2DFEE43C9000992E
:10B9F700F0A3CEF0E975F006A42419F582E434D853
:10BA0700F583E493FF90009BF0BF4608900095E014
:10BA170064A5704D75CEA575CF5A0075CEA575CFA7
:10BA27005A00E4900097F0A3F0900099E0FEA3E09D
:10BA3700FF7B017A00799712C86890009BE0C39456
:10BA470064501EE4900097F0A3F090009AE0240061
:10BA5700FF900099E03404FE7B017A00799712C8C1
:0ABA670068900096E004F002B9BAFE
:01BA710022B2
:10BDFB0012EE05EF6401600302BE95900745E0C3A8
:10BE0B009403400302BEA9E004F0E0C39403500383
:10BE1B0002BEA9900657E0645A600302BEA99007C0
:10BE2B0046E06401607812D95D75CEA575CF5A00D6
:10BE3B0075CEA575CF5A0012B1B675CEA575CF5A72
:10BE4B000075CEA575CF5A0012D57575CEA575CFD9
:10BE5B005A0075CEA575CF5A00129EE312E4617598
:10BE6B00CEA575CF5A0075CEA575CF5A00129B85FE
:10BE7B0075CEA575CF5A0075CEA575CF5A007FA884
:10BE8B001203AE9007467401F022900745E0D3945D
:0FBE9B00004003E014F0900745E07002A3F0228E
:10DF200012EEB6EF64017026900743E0C3940350ED
:10DF300043E004F0E0C39403403AA3E0640160349A
:10DF40007D017F0912B8EF9007447401F022900719
:10DF500043E0D394004006900745E014F090074357
:10DF6000E07011A3E0B4010C7DFF7F0912B8EFE46B
:05DF7000900744F022BF
:10EF27007B017A07794290017DE4F0A37405F0E450
:04EF3700FD02EAEA03
:01004A002293
:10EE8600E4FFE5A120E0050FEFB41EF6EFC39419E9
:07EE960050037F01227F0001
:01EE9D002252
:10DFCA00900650E5A1F0E59560047F0180027F008C
:10DFDA00E59460047E0180027E00EE4F6011759028
:10DFEA0096759757E4F594F595759096759756003A
:10DFFA00758F019004027486F0E4F58F75A001FF15
:10E00A00FE7D32FC12AD5E12DEC912ED4002E693CD
:10AC79007B017A0079009001D8E4F0A37403F0A372
:10AC890014F07DBA7C0012CBF0900000E0B4650BA3
:10AC9900A3E0B43406A3E06412602D900415740196
:10ACA900F012C49F90007F7402F0E4FBFD7C10FF5A
:10ACB9007E0812C53E7FA512B9B275CEA575CF5AC9
:10ACC9000075CEA575CF5A00900651E0701112702B
:10ACD900E075CEA575CF5A0075CEA575CF5A00126D
:10ACE900D5E912EF2775CEA575CF5A0075CEA57592
:10ACF900CF5A007B017A05791C9001D8E4F0A3743E
:10AD09003AF0A37402F07DD87C0012CBF012F0194E
:10AD190012F01612D88575CEA575CF5A0075CEA535
:10AD290075CF5A0012E7B91268FC12EB3E12E90B13
:10AD390012EE5375CEA575CF5A0075CEA575CF5AAB
:10AD49000012DE1375CEA575CF5A0075CEA575CF45
:05AD59005A0002E9416F
:10E2C100E4900000F0A3F075CEA575CF5A0075CE8D
:10E2D100A575CF5A0075CEA575CF5A0075CEA57517
:10E2E100CF5A0012EB3E1268FC12D7AC12EB661249
:10E2F100DEC97D027F0112E6CE43C90112DF75E559
:07E30100A130E00312EF63FD
:01E3080022F2
:10D0CE007F007E007D327C0012AD5E12CEB912D78B
:10D0DE00AC7FFF12EBB575CEA575CF5A0075CEA5F8
:10D0EE0075CF5A0012AC7912EF89E4FF12D8F11203
:10D0FE00EFC0E4FF125AC11266C57B017A06793978
:10D10E0090017DE4F0A37405F0E4FD12EAEA9006C6
:10D11E00E27404F09006DEF07DFF7F0712B8EF7B1D
:10D12E00017A0679DE90017DE4F0A3740CF0E4FD43
:0AD13E0012EAEA43A50143A401220E
:10E9A70012DFCA12EE86EF70077F2C7E0112EE6D22
:10E9B70012EE86EF70089006517403F08005E4901C
:10E9C7000651F0900651E0B4030302E2C112D0CE23
:01E9D700221D
:10E0690012EE1FEF64014E700590066A04F09006E7
:10E079006AE0B4011EE4F090058CE0B40504E4F014
:10E08900800690058CE004F012B43790057674068A
:10E09900F0800C900576E0D394004003E014F090F2
:0DE0A9000576E0700790058CF012B4372268
:10852A0012EE86EF60030286B4D284C2AF125FA84D
:10853A007B017A04798790017EE4F0A3743CF0A36E
:10854A007402F0E4FFFE12992E9006517403F07B38
:10855A00017A06797790017EE4F0A37407F0A37498
:10856A0002F07FCF7E0012992E9006E27404F07D0D
:10857A00017F0712B8EF9006E57404F09006E1F067
:10858A007DFF7F0A12B8EF7B017A0679E89001D85D
:10859A00E4F0A304F0A304F07D217C0112CBF012D5
:1085AA00BF5912EB6612DEC99028C8E4F09028ADD4
:1085BA00E04410F012ED4012E69312EB3E43A5019F
:1085CA0043A401E49006E0F09006E4F0900576F00A
:1085DA00900415F075CEA575CF5A0075CEA575CF46
:1085EA005A00E4FD7F0112E6CE43C90112EFC01220
:1085FA00DF7575CEA575CF5A0075CEA575CF5A0011
:10860A007F007E007D327C0012AD5E7B017A0079AC
:10861A000012DCFA9001E17401F0A37400F0A37473
:10862A0000F0A3E4F0A37407F07B017A06797712CD
:10863A00DD5912EEB6BF01047D0180027DFF7F0283
:10864A00124A42E5A130E05912CEB912ED4012E8C1
:10865A00D47B017A0379C9900190E4F0A3741EF0E7
:10866A00A37402F07FCF7E0112C8737B017A03796B
:10867A00E8900190E4F0A3742DF0A37402F07FED6A
:10868A007E0112C8737B017A047917900190E4F095
:10869A00A37432F0A37402F07F1AFE12C87312EFA9
:0A86AA0063126EFF12E0690285DE24
:0186B40022A3
:10EF630075CEA575CF5A0075CEA575CF5A00000092
:03EF73000080FB20
:03000300020046B2
:040046005388FD32AC
:03000B0002DE6FA3
:10DE6F00C0E0C083C082C0D0758A65758C6690068D
:10DE7F004EE04401F090050DE0600E90050FE004B8
:10DE8F00F0700690050EE004F0900512E0B4011B4F
:10DE9F00D3900511E09400900510E09400400CA37E
:10DEAF00E024FFF0900510E034FFF0900665E004E9
:0ADEBF00F0D0D0D082D083D0E03242
:0300130002004E9A
:04004E005388F732AA
:03001B0002F00EE2
:04F00E0053887F3272
:03002B0002F012CE
:04F0120053C87F322E
:03003B0002EECE04
:10EECE00C0E0E5C030E00553C0FE8008E5C030E18B
:07EEDE000353C0FDD0E03238
:030043000291FC2B
:0D91FC00C0E0C0F0C083C082C0D075D010AC
:10920900902840E0FF902843E05F900237F0E0208B
:10921900E20302929F902840E054FBF0902836E048
:1092290054FDF0900238E0D394004057A3E0FC24A9
:109239003CF582E43402F583E0900236F09003397C
:10924900E0B40716900236E0FE547FFD30D006EEFA
:109259004480F08005900236EDF0900236E09028C7
:1092690037F090050EE4F0A3F0743C2CF582E43459
:1092790002F583E4F0900239E004F0900238E0143A
:10928900F08013900239E4F09003367404F012E38D
:10929900DBE4FF12C2B7900237E0FF30E3509028B9
:1092A90040E054F7F0902836E054FEF0A3E0900235
:1092B90036F0E0547FFE900239E0243CF582E43434
:1092C90002F583EEF090050EE4F0A3F0900239E088
:1092D90004F0E0FED3940440020000EE75F0FA8435
:1092E900AEF0900239EEF0D3941540020000EF3051
:1092F900E407902840E054EFF0900237E030E507AA
:10930900902840E054DFF0900237E0FF30E6079004
:109319002840E054BFF0EF30E70D902840E0547F3B
:0A932900F09004C6E004F05391EF49
:0B933300D0D0D082D083D0F0D0E03248
:03004B0002DB696C
:0BDB6900C0E0C083C082C0D075D010A7
:10DB7400902848E0FF90284BE05FFD30E4079028B0
:10DB840048E054EFF0AF15ED30E507902848E05435
:10DB9400DFF0AF15ED30E614902848E054BFF09064
:10DBA400064EE04402F09005567401F0AF15ED30D6
:10DBB400E70D902848E0547FF09004C5E004F0534A
:02DBC40091DFEF
:09DBC600D0D0D082D083D0E0322F
:0300530002EA6757
:0BEA6700C0E0C083C082C0D075D0109A
:10EA7200902850E0FF902853E05FFF30E307902892
:08EA820050E054F7F05391BF7E
:09EA8A00D0D0D082D083D0E0325C
:10933E0041066A0041066800410667004106660163
:0C934E0041066B004106690041066C00FE
:10CA21007B017A00790312DCFA7B017A0079031227
:10CA3100A7D4EF70647B017A0079039001D8F0A349
:10CA41007407F0A37402F07DCF7C0012CBF07B0160
:10CA51007A00790312A7D4EF70369000037403F0C3
:10CA6100A37416F0A37404F0A37420F0A37412F05D
:10CA7100A37430F0A3F07B017A00790390017EE486
:10CA8100F0A37407F0A37402F07FCF7E0012992EF9
:10CA91007B017A00790312D9C79001E17401F0A3F7
:10CAA1007400F0A37403F0A3E4F0A37407F07B0116
:07CAB1007A06797702DD59D6
:03F0160002CA210A
:10DA990012EE1FEF64014E700F900668E070099056
:10DAA900066A04F0900668F012EE1FEF4E700490BB
:10DAB9000668F012EE9EEF64014E700D900666E066
:10DAC9007007A304F0900666F012EE9EEF4E700404
:10DAD900900666F012EE39EF64014E700F900669F8
:10DAE900E0700990066B04F0900669F012EE39EFC8
:08DAF9004E7004900669F02252
:10EC2A00E4900000F0900000E0FFC394015013123A
:10EC3A00AF23900000E0FF129FF3900000E004F081
:05EC4A0080E302DA99ED
:1096D40012CA2175CEA575CF5A0075CEA575CF5A7D
:1096E40000900756E0D394004006E014F012EB3EDD
:1096F400900756E0703F128C7F75CEA575CF5A0047
:1097040075CEA575CF5A00125FA875CEA575CF5A30
:109714000075CEA575CF5A0012E52312D50175CE7A
:10972400A575CF5A0075CEA575CF5A0012BDFB1290
:10973400F02A12E90B90066CE0700812B28D12B494
:1097440037800690066CE014F012A3FC90067DE0CE
:10975400707A1266C575CEA575CF5A0075CEA575FB
:10976400CF5A0012646F75CEA575CF5A0075CEA579
:1097740075CF5A00126EFF12C49F7B017A007900E4
:109784009001D8E4F0A304F0A304F07D717C0012EE
:10979400CBF0900000E0B4301175CEA575CF5A001F
:1097A40075CEA575CF5A0012C8ED75CEA575CF5AE2
:1097B4000075CEA575CF5A0012CC7975CEA575CF9C
:1097C4005A0075CEA575CF5A0012DE1390067DE0BF
:1097D400B4251112F02875CEA575CF5A0075CEA503
:1097E40075CF5A0090067DE0B4311112EE5375CE58
:0C97F400A575CF5A0075CEA575CF5A00A0
:019800002245
:01005200228B
:0AEFD600E4900676F0900675F02234
:0BBC9700E0FCA3E0A3FDE0900232F00F
:10BCA20090022DEBF0A3EAF0A3E9F0A3ECF0A3EDF0
:01BCB200F0A1
:10BCB300E4900235F090023374A0F0A304F012E68E
:10BCC30093900235E004F0E0D3940A40037F00220E
:10BCD30012E8D4900233E0FF12C7B5BF01E090022F
:10BCE30030E0FF12C7B5EF640160037F00229002CA
:10BCF30030A3E0FF12C7B5EF640160037F00221297
:10BD0300E8D4900234E0FF12C7B5EF640160037F0B
:10BD13000022900232E0FF14F0EF6026E07003FF90
:10BD230080027F0112CD9E90022DE0FBA3E0FAA3D7
:10BD3300E0F9EF1218BA90022EE475F00112198B94
:07BD430080D012E6937F019E
:01BD4A0022D6
:10C161009001E2EEF0A3EFF0A3EBF0A3EAF0A3E974
:01C17100F0DD
:10C17200E49001EAF09001E874A0F0A304F0001248
:10C18200E6939001EAE004F0E0D3940A40037F00D2
:10C192002212E8D49001E8E0FF12C7B5BF01E09097
:10C1A20001E2E0FF12C7B5EF640160037F00229055
:10C1B20001E2A3E0FF12C7B5EF640160037F002232
:10C1C2009001E4E0FBA3E0FAA3E0F9121852FF1297
:10C1D200C7B5EF64016004007F00229001E5E475B9
:10C1E200F00112198B9001E3E004F070069001E275
:10C1F200E004F09001E7E014F0E070C412E6937FEF
:09C20200057E0012EE6D007F01C3
:01C20B002210
:10D053009001E6EBF0A3EAF0A3E9F0A3ECF0A3ED73
:01D06300F0DC
:10D06400A3E0FFD394004006EFD3944040037F0035
:10D0740022E490022CF07B017A0179EC9001E91210
:10D08400BC979001E6E0FBA3E0FAA3E0F9A312BC8D
:10D09400979002307401F0A37401F0A374ECF09043
:10D0A40001EBE0900233F09001E6E0FBA3E0FAA389
:10D0B400E0F912D148EF70037F012290022CE004C2
:09D0C400F0E0C3940340AF7F00CB
:01D0CD002240
:10CE2C0090019BEEF0A3EFF0A3EBF0A3EAF0A3E9E3
:01CE3C00F005
:10CE3D00A3E0FFD394004006EFD39440400312EFDC
:10CE4D0063E49001E1F090019BE0FEA3E0FFA3E01D
:10CE5D00FBA3E0FAA3E0F9A3E09001E7F012C161B2
:10CE6D007B017A0179A190019BE0FCA3E09001A0E8
:10CE7D0012BC9C9002307401F0A37401F0A374A154
:10CE8D00F09001A0E0900233F090019DE0FBA3E053
:10CE9D00FAA3E0F912D148EF70037F01229001E16E
:0BCEAD00E004F0E0C39403409D7F0010
:01CEB8002257
:10C35F009001DEEBF0A3EAF0A3E9F0A3ECF0A3ED7C
:01C36F00F0DD
:10C370009001E3E0FEA3E0FFD39400EE9400407C44
:10C380009001E1A3E0543FFD600974409D9001E5F8
:10C39000F080069001E57440F09001E5E0FDC3EF08
:10C3A0009DEE940050079001E3A3E0A3F09001DE1E
:10C3B000E0FBA3E0FAA3E0F9A3E0FCA3E0FD900119
:10C3C000E5E09001EBF012D053EF7002FF229001F4
:10C3D000E5E0FFFD7C009001DFEC8DF012198B9001
:10C3E00001E2E02DF09001E1E03CF0C39001E4E0D7
:0EC3F0009FF09001E3E09400F002C3707F0123
:01C3FE00221C
:10C71800900193EEF0A3EFF0A3EBF0A3EAF0A3E906
:01C72800F020
:10C72900900198E0FCA3E0FDD39400EC94004079DB
:10C73900900193E0FEA3E0FF543FFB600974409B26
:10C7490090019AF0800690019A7440F090019AE065
:10C75900FBC3ED9BEC94005007900198A3E0A3F074
:10C76900900195E0FBA3E0FAA3E0F990019AE0902B
:10C7790001A0F012CE2CEF7002FF2290019AE0FF87
:10C78900FD7C00900194E02DF0900193E03CF09045
:10C799000196EC8DF012198BC3900199E09FF090EE
:0BC7A9000198E09400F002C7297F0116
:01C7B4002262
:10ED40009028ACE04402F0A3E04402F0A3E04404C5
:0EED5000F09028ACE054FBF0A3E054FBF0225E
:10E8D4009028ACE04402F0A3E04402F0A3E0440436
:10E8E400F0000000000000E054FDF09028ADE0547A
:10E8F400FDF09028ACE054FDF00000000000009012
:07E9040028AEE054FBF022F5
:10E693009028AEE054FDF09028ADE054FDF09028B2
:10E6A300ACE054FDF00000000000009028AEE04410
:10E6B30004F00000000000009028ACE04402F0A346
:0BE6C300E04402F00000000000002214
:10C7B500E4F508F5089028AEE054FBF0EF30E70EFD
:10C7C5009028ACE04402F0A3E04402F080159028E4
:10C7D500AEE054FDF09028ADE054FDF09028ACE0BB
:10C7E50054FDF0EF25E0FF9028AEE04404F0000092
:10C7F500000000000508E508B408BA9028AEE0542A
:10C80500FBF09028ACE04402F0A3E04402F0750888
:10C8150020E4F5089028AFE020E1149028AEE0442C
:10C8250004F0000000000000E054FBF07F01220549
:10C8350008E508B420DE9028AEE04404F0000000CE
:0CC84500000000E054FBF012E6937F00BE
:01C8510022C4
:10CD9E00E4F508F5099028ACE04402F0A3E0440263
:10CDAE00F0A3E054FBF0E4F508E50925E0F5099061
:10CDBE0028AEE04404F0000000000000A3E030E1E3
:10CDCE00034309019028AEE054FBF0000000000080
:10CDDE00000508E508B408D1EF60179028AEE054BE
:10CDEE00FDF09028ADE054FDF09028ACE054FDF03D
:10CDFE00800C9028ACE04402F0A3E04402F09028AE
:10CE0E00AEE04404F0000000000000E054FBF0909F
:0DCE1E0028ACE04402F0A3E04402F0AF09AC
:01CE2B0022E4
:01F0270022C6
:10EF3B00E5E820E10343E80290284BE020E704E0FA
:04EF4B004480F022EC
:10EB8E007F7D7E281290B1EF54C7FF9000CC742881
:10EB9E00F0A3747DF012C67A902843E0547FF09073
:06EBAE0028AEE04408F06F
:01EBB400223E
:06C5DC0090073C121BA7B2
:10C5E200E4FF90288474CCF0E4F0902885E0600A9F
:10C5F2000FEFD3940840F37F002290073CA3A3A33C
:10C60200E0FF902880EFF090073CE0FCA3E0FDA360
:10C61200E0FEA3E0FF7808121B35902881EFF0902E
:10C62200073CE0FCA3E0FDA3E0FEA3E0FF781012CC
:10C632001B35902882EFF090073CE0FCA3E0FDA3BD
:10C64200E0FEA3E0FF7818121B35902883EFF090EC
:10C652000740E0FEA3E0F5828E83E4F0FF000FEFD7
:10C66200B408FAE4FF902885E0600A0FEFD394083B
:07C6720040F37F00227F016D
:01C67900229E
:06BEAA0090072E121BA7F9
:10BEB000E4FB90288474CCF0E4F0902885E0600ADC
:10BEC0000BEBD3940840F37F002290072EA3A3A38B
:10BED000E0FF902880EFF090072EE0FCA3E0FDA3A8
:10BEE000E0FEA3E0FF7808121B35902881EFF09068
:10BEF000072EE0FCA3E0FDA3E0FEA3E0FF78101214
:10BF00001B35902882EFF090072EE0FCA3E0FDA304
:10BF1000E0FEA3E0FF7818121B35902883EFF0D2E3
:10BF20008720870C900734E004F0E0D3941E40F1A2
:10BF3000900732E0FEA3E0F5828E83E4F0FB000B75
:10BF4000EBB408FAE4FB902885E0600A0BEBD3948D
:08BF50000840F37F00227F018D
:01BF580022C6
:06C67A009000C8121BA78E
:10C68000E4FF90288474CCF0E4F0902885E0600A00
:10C690000FEFD3940840F37F00229000C8A3A3A318
:10C6A000E0FF902880EFF09000C8E0FCA3E0FDA33D
:10C6B000E0FEA3E0FF7808121B35902881EFF09090
:10C6C00000C8E0FCA3E0FDA3E0FEA3E0FF781012A9
:10C6D0001B35902882EFF09000C8E0FCA3E0FDA39A
:10C6E000E0FEA3E0FF7818121B35902883EFF0904E
:10C6F00000CCE0FEA3E0F5828E83E4F0FF000FEFB4
:10C70000B408FAE4FF902885E0600A0FEFD394089C
:07C7100040F37F00227F01CE
:01C7170022FF
:1090B10090288474CCF0E4F0F508902885E0600BEA
:1090C1000508E508D3940840F180248F828E83E05F
:1090D100F508E4F508000508E508B408F8E4F50822
:1090E100902885E0600F0508E508D3940840F1E475
:1090F100FFFEFDFC22902880E0FFE4FCFDFE9000D5
:10910100C8121BA7902881E0FFE4FCFDFE7808123D
:109111001B489000CC121BA79000C8E0FCA3E0FD07
:10912100A3E0FEA3E0FFA3E0F8A3E0F9A3E0FAA324
:10913100E0FBEF2BFFEE3AFEED39FDEC38FC900041
:10914100C8121BA7902882E0FFE4FCFDFE9000CC32
:10915100121BA79000CCE0FCA3E0FDA3E0FEA3E07E
:10916100FF7810121B489000CC121BA79000C8E09A
:10917100FCA3E0FDA3E0FEA3E0FFA3E0F8A3E0F978
:10918100A3E0FAA3E0FBEF2BFFEE3AFEED39FDEC95
:1091910038FC9000C8121BA7902883E0FFE4FCFD77
:1091A100FE9000CC121BA79000CCE0FCA3E0FDA335
:1091B100E0FEA3E0FF7818121B489000CC121BA719
:1091C1009000C8E0FCA3E0FDA3E0FEA3E0FFA3E064
:1091D100F8A3E0F9A3E0FAA3E0FBEF2BFFEE3AFEE0
:1091E100ED39FDEC38FC9000C8121BA79000C8E0D7
:0A91F100FCA3E0FDA3E0FEA3E0FFF5
:0191FB002251
:10BA720000000000000000000000000000000000C4
:10BA820000000000000000000000000000000000B4
:10BA9200000000003D99E1FB3DE6D2F937341C9FDE
:10BAA200392B0436392B04360000000009600000EF
:10BAB20027100461A83000927C000063B3ED3B7054
:10BAC200B76B3B70B76B01051C10E801052C10E940
:10BAD200010520287B010530287C01052410ED0199
:10BAE200053410EE01052810EB01053810EC0105B4
:10BAF2003C10EA00927C0010F500927C0010FB1DC5
:10BB02000004C3018530000000018600000000012E
:10BB120087811D2BA7012500000000018300000082
:09BB220000013200000000012CBA
:0E935A00440514000000004405180000000047
:10E7F3007B017A05791C9001D874A5F0A3745AF0B3
:10E803007D387C0012EA09900554EEF0A3EFF07B0B
:10E81300017A05791C90017EE4F0A37438F0A374A7
:09E8230002F07FD87E0002992E5C
:10E562007B017A05791C9001D874A5F0A3745AF046
:10E572007D387C0012EA09900554E06E7003A3E036
:10E582006F601A7B017A05791C9001D8E4F0A374BC
:0DE592003AF0A37402F07DD87C0012CBF0AB
:01E59F002259
:1066C5009000C3121BB30000000012E5627B017A43
:1066D5000079C79001D8E4F0A304F0A304F07DB9D4
:1066E5007C0012CBF09000C7E09000CCB43C26743F
:1066F50010F0A374F4F07F6B7E2A7D707C0012C6C7
:106705007A9000CC7410F0A374FAF07F6B7E2A7D2A
:10671500707C0080247410F0A374F4F07F307EA8A0
:106725007D617C0412C67A9000CC7410F0A374FAD3
:10673500F07F307EA87D617C0412C67AE49000B7B4
:10674500F09000B7E0FF75F006A424F9F582E43473
:10675500BAF583E493FD7401939000C1CDF0A3EDE8
:10676500F0EF75F006A424F5F582E434BAF583124A
:106775001B879000BD121BA79000B3121BB300002E
:1067850000009000C1E0FEA3E0FF1290B19000B3BD
:10679500121BA79000BDE0FCA3E0FDA3E0FEA3E073
:1067A500FF9000B3E0F8A3E0F9A3E0FAA3E0FBC390
:1067B500121B2460349000BDE0FCA3E0FDA3E0FEC5
:1067C500A3E0FF9000B3121BA79000B3E0FCA3E089
:1067D500FDA3E0FEA3E0FF9000C1E0FBA3E0900075
:1067E500CCCBF0A3EBF012C67A9000B7E004F0E052
:1067F500C394025003026746E49000B7F09000B7D7
:10680500E0FF75F005A424CBF582E434BAF583E402
:1068150093FD7401939000BBCDF0A3EDF0EF75F0FF
:1068250005A424C8F582E434BAF583E493F9740128
:1068350093FA7402939000B8C9F0A3EAF0A3E9F0C3
:106845009000B3121BB3000000009000BBE0FEA354
:10685500E0FF1290B19000B3121BA79000BBE0FEC1
:10686500A3E0FF647B7003EE6428600AEF647C702C
:1068750003EE6428701B9000B8E0FBA3E0FAA3E0E8
:10688500F9121B5B9000B6E06F605CE4FCFDFE80D6
:10689500309000B8E0FBA3E0FAA3E0F9121B5B908F
:1068A50000B3E0F8A3E0F9A3E0FAA3E0FBC3121BF1
:1068B5002460349000B8E0FBA3E0FAA3E0F9121BD2
:1068C5005B9000B3121BA79000B3E0FCA3E0FDA30F
:1068D500E0FEA3E0FF9000BBE0FBA3E09000CCCB83
:1068E500F0A3EBF012C67A9000B7E004F0E0C39491
:0668F500095003026802D5
:0168FB00227A
:0889AD009006A7EFF0A3EDF026
:1089B50075CEA575CF5A0075CEA575CF5A00900610
:1089C500B2121BB300000000E4900556F09006AD0E
:1089D500F09006A7E0FF9006ADE0C39F4003028A32
:1089E500EC75CEA575CF5A0075CEA575CF5A0090FA
:1089F5000556E060FAE4900556F075CEA575CF5A98
:108A05000075CEA575CF5A009006A8E070097FD2F3
:108A15007E101290B1803AE4FB7D017F0B7E01123E
:108A25000000BF013478B67C067D017B017A0079B0
:108A3500007E007F0412182C7B017A0679B67D042E
:108A450012C0089006B6E0FCA3E0FDA3E0FEA3E09B
:108A5500FF9006A9121BA7800790064FE04410F06F
:108A6500E4FFFEFD7C809006A9E0F8A3E0F9A3E011
:108A7500FAA3E0FBC3121B2440249006A9E0FCA343
:108A8500E0FDA3E0FEA3E0FF121AF3EF2401FFE4EB
:108A95003EFEE43DFDE43CFC9006A9121BA79006B2
:108AA500A9E0FCA3E0FDA3E0FEA3E0FF9006AE1263
:108AB5001BA79006B2E0FCA3E0FDA3E0FEA3E0FF48
:108AC5009006AEE0F8A3E0F9A3E0FAA3E0FBEF2BF4
:108AD500FFEE3AFEED39FDEC38FCA3121BA790061C
:108AE500ADE004F00289D69006A7E0FBE4FAF9F8B8
:108AF5009006B2E0FCA3E0FDA3E0FEA3E0FF121A9E
:108B05006175CEA575CF5A0075CEA575CF5A0000F3
:018B1500223D
:088B16009006BAEFF0A3EDF0A8
:108B1E0075CEA575CF5A0075CEA575CF5A009006A5
:108B2E00C5121BB300000000E4900556F09006C07D
:108B3E00F09006BAE0FF9006C0E0C39F4003028C9F
:108B4E005575CEA575CF5A0075CEA575CF5A009026
:108B5E000556E060FAE4900556F075CEA575CF5A2D
:108B6E000075CEA575CF5A009006BBE070097FD474
:108B7E007E101290B1803AE4FB7D017F0E7E0112D1
:108B8E000000BF013478C97C067D017B017A007933
:108B9E00007E007F0412182C7B017A0679C97D04B1
:108BAE0012C0089006C9E0FCA3E0FDA3E0FEA3E01E
:108BBE00FF9006BC121BA7800790064FE04410F0F2
:108BCE00E4FFFEFD7C809006BCE0F8A3E0F9A3E094
:108BDE00FAA3E0FBC3121B2440249006BCE0FCA3C6
:108BEE00E0FDA3E0FEA3E0FF121AF3EF2401FFE481
:108BFE003EFEE43DFDE43CFC9006BC121BA7900635
:108C0E00BCE0FCA3E0FDA3E0FEA3E0FF9006C112D2
:108C1E001BA79006C5E0FCA3E0FDA3E0FEA3E0FFCA
:108C2E009006C1E0F8A3E0F9A3E0FAA3E0FBEF2B76
:108C3E00FFEE3AFEED39FDEC38FCA3121BA79006B1
:108C4E00C0E004F0028B3F9006BAE0FBE4FAF9F8BC
:108C5E009006C5E0FCA3E0FDA3E0FEA3E0FF121A20
:108C6E006175CEA575CF5A0075CEA575CF5A000089
:018C7E0022D3
:10A5F0009000B3E0FCA3E0FDA3E0FEA3E0FF900029
:10A60000CB121BA79000BBE0FCA3E0FDA3E0FEA3E0
:02A61000E0FF69
:10A61200E412161C9000CF121BA79000CBE0FCA303
:10A62200E0FDA3E0FEA3E0FFE412161C9000D312AB
:10A632001BA79000CBE0FCA3E0FDA3E0FEA3E0FF9C
:10A64200E412161CA804A905AA06AB079000CFE0E5
:10A65200FCA3E0FDA3E0FEA3E0FF1213149000D3DD
:10A66200E0F8A3E0F9A3E0FAA3E0FB1215129000D0
:10A67200D7121BA7E4FFFE7D807C3F9000D7E0F855
:10A68200A3E0F9A3E0FAA3E0FB121318A804A905BA
:10A69200AA06AB07E4FFFE7D807C3F1215129000F4
:10A6A200DB121BA7E4FFFE7D807CBF9000DBE0F89D
:10A6B200A3E0F9A3E0FAA3E0FB1213189000DF1263
:10A6C2001BA7E4FFFEFD7C4F9000DFE0F8A3E0F95A
:0FA6D200A3E0FAA3E0FB12140912A9B412165A5E
:01A6E1002256
:06A0FA009000C8121BA734
:10A10000E49000D2F07F32FEFDFC9000CCE0F8A39A
:10A11000E0F9A3E0FAA3E0FBC3121B2450037F0085
:10A12000229000C8E0FCA3E0FDA3E0FEA3E0FFA3B3
:10A13000E0F8A3E0F9A3E0FAA3E0FBD3121B24406C
:10A140004D9000C8E0F8A3E0F9A3E0FAA3E0FBA378
:10A15000E0FCA3E0FDA3E0FEA3E09BFFEE9AFEED92
:10A1600099FDEC98FCE47BE87A03F9F81219D69093
:10A1700000CCE0F8A3E0F9A3E0FAA3E0FB121A6137
:10A180009000D0EEF0A3EFF0A37401F0804A9000AD
:10A19000CCE0F8A3E0F9A3E0FAA3E0FB9000C8E06C
:10A1A000FCA3E0FDA3E0FEA3E0C39BFFEE9AFEED5F
:10A1B00099FDEC98FCE47BE87A03F9F81219D69043
:10A1C00000CCE0F8A3E0F9A3E0FAA3E0FB121A61E7
:10A1D0009000D0EEF0A3EFF09000D0E0FEA3E0FFFF
:10A1E0007C0B7DC3121CC6E47BD07A07F9F8121AE7
:0CA1F000619000D2E0B40104EF4480FF55
:01A1FC002240
:069DD200900713121BA70D
:109DD80075CEA575CF5A0075CEA575CF5A009007D8
:109DE80017E07040A3121BB300000000900718E0B2
:109DF800FCA3E0FDA3E0FEA3E0FF9000CC7410F00C
:109E0800A374E9F012C67A900718E0FCA3E0FDA35A
:109E1800E0FEA3E0FF9000CC7410F0A374EEF01203
:109E2800C67A8046900718121BB3000000009007FE
:109E380018E0FCA3E0FDA3E0FEA3E0FF900000749F
:109E480001F0A3742EF0E4A3F0120000900718E0CC
:109E5800FCA3E0FDA3E0FEA3E0FF9000007401F086
:109E6800A3742FF0E4A3F0120000900717E0FD7F21
:109E7800021289ADC004C005C006C007900713E0F0
:109E8800FCA3E0FDA3E0FEA3E0FF9000CB121BA71C
:109E9800D007D006D005D00412A612900718121BBE
:109EA800A775CEA575CF5A0075CEA575CF5A009067
:109EB8000717E07011A3E0FCA3E0FDA3E0FEA3E018
:109EC800FF90052C8011900718E0FCA3E0FDA3E0AB
:0A9ED800FEA3E0FF90051C121BA77B
:019EE200225D
:06B3630090071C121BA75D
:10B36900C20575CEA575CF5A0075CEA575CF5A0001
:10B37900900721121BB300000000900720E0701B0A
:10B38900A3E0FCA3E0FDA3E0FEA3E0FF9000CC74E2
:10B3990010F0A374EEF012C67A801E900721E0FC2B
:10B3A900A3E0FDA3E0FEA3E0FF9000007401F0A379
:10B3B900742FF0E4A3F0120000900720E0FD7F0352
:10B3C9001289ADC004C005C006C00790071CE0FC87
:10B3D900A3E0FDA3E0FEA3E0FF9000CC121BA7D0E1
:10B3E90007D006D005D00412A0FAE4FCFDFE9007B0
:10B3F90021121BA775CEA575CF5A0075CEA575CF9D
:10B409005A00900720E07011A3E0FCA3E0FDA3E03F
:10B41900FEA3E0FF9005348011900721E0FCA3E032
:0DB42900FDA3E0FEA3E0FF900524121BA789
:01B4360022F3
:06749000900725121BA766
:1074960075CEA575CF5A0075CEA575CF5A00900743
:1074A6002A121BB300000000900729E0701BA3E01E
:1074B600FCA3E0FDA3E0FEA3E0FF9000CC7428F05F
:1074C600A3747CF012C67A80169000007401F0A3B3
:1074D6007484F0E4A3F07FA9FE7D0BFC1200007516
:1074E600CEA575CF5A0075CEA575CF5A00E4900586
:1074F60056F0900556E060FAE4900556F09007299C
:10750600E0FD7F021289ADC004C005C006C0079029
:107516000725E0FCA3E0FDA3E0FEA3E0FF9000CC7E
:10752600121BA7D007D006D005D00412A0FAE4FC9F
:10753600FDFE90072A121BA775CEA575CF5A0075BA
:10754600CEA575CF5A00900729E0700FA3E0FCA3E3
:10755600E0FDA3E0FEA3E0FF02765E90072AA3A368
:10756600A3E05480FFEF90072A6066E0FCA3E0FDED
:10757600A3E0FEA3E0547FFFEC90072A121BA7901E
:10758600072AE0FCA3E0FDA3E0FEA3E0FFE4121659
:107596001C7BCD7ACC798C783F12140912165A903E
:1075A600072A121BA790072AE0FCA3E0FDA3E0FE32
:1075B600A3E0FF7808121B4890072A121BA7900722
:1075C6002AE0FCA3E0FDA3E0FEA3E0FFED44048077
:1075D6004DE0FCA3E0FDA3E0FEA3E0FFE412161CD1
:1075E6007BCD7ACC798C783F12140912165A900703
:1075F6002A121BA790072AE0FCA3E0FDA3E0FEA346
:10760600E0FF7808121B4890072A121BA790072A4A
:10761600E0FCA3E0FDA3E0FEA3E0FFED54FBFDECE0
:1076260090072A121BA7900530121BB3000B00A966
:10763600900530E0FCA3E0FDA3E0FEA3E0FF900789
:107646002AE0F8A3E0F9A3E0FAA3E0FBEF4BFFEE94
:0E7656004AFEED49FDEC48FC900530121BA7E2
:017664002203
:10806C00900009EEF0A3EFF0E024E8FF900009E0A7
:10807C003403AB07FA3395E0F9F8E4FFFEFD7C809E
:10808C00121A6190000F121BA790000AE024E8FF5F
:10809C00900009E03403AB07FA3395E0F9F8E4FFFC
:1080AC00FEFD7C80121A61AF0390000BEAF0A3EF87
:1080BC00F090000BE0FEA3E0FF7C037DE81218EECD
:1080CC00900009E0FAA3E0FB24E8FDEA3403FC127B
:1080DC001900A3EEF0A3EFF0AF03AE02EE3395E080
:1080EC00FDFC90000FE0F8A3E0F9A3E0FAA3E0FB9D
:1080FC001219D6C004A905AA06AB0790000BE0FC28
:10810C00A3E0FD900009E0FEA3E0FF1218EE7C0353
:10811C007DE8121900E4FCFDD000EB2FFFEA3EFED7
:10812C00ED39FDEC38FC900013121BA790000AE00F
:10813C0024E8FF900009E03403AB07FA3395E0F92B
:10814C00F8900005E0FCA3E0FDA3E0FEA3E0FF1225
:10815C00E397900017121BA790000AE024E8FF9009
:10816C000009E03403AB07FA3395E0F9F890000509
:10817C00E0FCA3E0FDA3E0FEA3E0FF12E397AE0258
:10818C00AF0390000DEEF0A3EFF07C037DE8121826
:10819C00EE90000AE024E8FD900009E03403FC12A4
:1081AC00190090000DEEF0A3EFF0E47FE87E03FDE4
:1081BC00FC900017E0F8A3E0F9A3E0FAA3E0FB12AF
:1081CC0019D6A804A905AA06AB0790000DE0FEA3DA
:1081DC00E0FFE4FCFDEB2FFFEA3EFEED39FDEC3851
:1081EC00FC900013E0F8A3E0F9A3E0FAA3E0FBC3D2
:0C81FC00EF9BFFEE9AFEED99FDEC98FC65
:018208002253
:10A3FC007FFD7E101290B1A804A905AA06AB07E454
:10A40C00FFFE7D7DFC121A61900001EEF0A3EFF0CF
:10A41C00E4FCFD900514E0F8A3E0F9A3E0FAA3E056
:10A42C00FBC3121B24700302A4F8900001E0FAA3F2
:10A43C00E0FBFFAE02E4FCFD900514121BA7D3EB6E
:10A44C0094F4EA9401400F900002E0240CFF900079
:10A45C0001E034FE801F900001E0FEA3E0FFC394F6
:10A46C00F4EE94015057C374F49FFF74019EFEC325
:10A47C00E49FFFE49EFEEF25E0FFEE33FEC006C036
:10A48C000790051CE0FCA3E0FDA3E0FEA3E0FF9019
:10A49C000005121BA7D007D00612806C90052C1259
:10A4AC001BA790052CE0FCA3E0FDA3E0FEA3E0FFBE
:10A4BC009000CC7410F0A374E9F002C67A90051CDD
:10A4CC00E0FCA3E0FDA3E0FEA3E0FF9000CC741041
:10A4DC00F0A374E9F012C67A90051CE0FCA3E0FD31
:0CA4EC00A3E0FEA3E0FF90052C121BA7CC
:01A4F8002241
:102DF20090059F121BB30000000020AF030235CEE6
:102E02009005577455F090BABC121B879005A31217
:102E12001BA7E47F19FEFDFC9005A3E0F8A3E0F9EF
:102E2200A3E0FAA3E0FB1219D6E47B0AFAF9F8123E
:102E32001A619005A9121BA7E47F46FEFDFC9005CE
:102E4200A3E0F8A3E0F9A3E0FAA3E0FB1219D6E4A9
:102E52007B64FAF9F8121A619005AD121BA7E47FA0
:102E620023FEFDFC9005A3E0F8A3E0F9A3E0FAA39A
:102E7200E0FB1219D6E47B64FAF9F8121A619005A4
:102E8200B1121BA7E47F03FEFDFC9005A3E0F8A3AB
:102E9200E0F9A3E0FAA3E0FB1219D6E47B64FAF9A5
:102EA200F8121A619005B5121BA775CEA575CF5AF7
:102EB2000075CEA575CF5A00E4FD7F041289AD904E
:102EC20005B9121BA79005A9E0FCA3E0FDA3E0FE53
:102ED200A3E0FF9005B9E0F8A3E0F9A3E0FAA3E0CC
:102EE200FBD3121B244008E49005A7F0022F709038
:102EF20005ADE0FCA3E0FDA3E0FEA3E0FF9005B971
:102F0200E0F8A3E0F9A3E0FAA3E0FBD3121B24400C
:102F1200089005A77401F080559005B1E0FCA3E08C
:102F2200FDA3E0FEA3E0FF9005B9E0F8A3E0F9A35A
:102F3200E0FAA3E0FBD3121B2440089005A7740219
:102F4200F0802B9005B5E0FCA3E0FDA3E0FEA3E03A
:102F5200FFA3E0F8A3E0F9A3E0FAA3E0FBD3121B7E
:102F6200249005A740057403F080037408F09005CF
:102F7200A7E0701990052C121BB300000000900509
:102F820030121BB3000000007FA01203AE9005A711
:102F9200E0640160030231BB9005A3E0FCA3E0FD05
:102FA200A3E0FEA3E0FFE4900717F0129DD2900584
:102FB2009B121BB300000000E4900596F07F1E7E7A
:102FC2000012EE6D7FD57E101290B1900597121B04
:102FD200A7E4FFFEFD7C80900597E0F8A3E0F9A34B
:102FE200E0FAA3E0FBC3121B244024900597E0FC07
:102FF200A3E0FDA3E0FEA3E0FF121AF3EF2401FF1A
:10300200E43EFEE43DFDE43CFC900597121BA790D4
:10301200059BE0FCA3E0FDA3E0FEA3E0FF90059783
:10302200E0F8A3E0F9A3E0FAA3E0FBEF2BFFEE3A0E
:10303200FEED39FDEC38FCA3121BA775CEA575CFAA
:103042005A0075CEA575CF5A00900596E004F0E0BF
:10305200C394085003022FBF90059BE0FCA3E0FD40
:10306200A3E0FEA3E0FFE47B08FAF9F8121A6190EC
:10307200059B121BA790059BE0FCA3E0FDA3E0FECD
:10308200A3E0FFE412161CC004C005C006C00790EE
:10309200BAB0121B87E412161CD003D002D001D0A2
:1030A20000121512900550121BA790059B121BB31C
:1030B20000000000E4900596F07F1E7E0012EE6D87
:1030C2007FD37E101290B1900597121BA7E4FFFEEA
:1030D200FD7C80900597E0F8A3E0F9A3E0FAA3E075
:1030E200FBC3121B244024900597E0FCA3E0FDA340
:1030F200E0FEA3E0FF121AF3EF2401FFE43EFEE438
:103102003DFDE43CFC900597121BA790059BE0FC5B
:10311200A3E0FDA3E0FEA3E0FF900597E0F8A3E0A3
:10312200F9A3E0FAA3E0FBEF2BFFEE3AFEED39FD47
:10313200EC38FCA3121BA775CEA575CF5A0075CE2D
:10314200A575CF5A00900596E004F0E0C3940850AC
:10315200030230BB90059BE0FCA3E0FDA3E0FEA3CD
:10316200E0FFE47B08FAF9F8121A6190059B121B42
:10317200A790059BE0FCA3E0FDA3E0FEA3E0FFE433
:1031820012161CC004C005C006C00790BAAC121BC0
:1031920087E412161CD003D002D001D000121512FF
:1031A200900548121BA77FA11203AE75CEA575CF5D
:1031B2005A0075CEA575CF5A009005A7E0B4023823
:1031C2009005A3E0FCA3E0FDA3E0FEA3E0FFE47B07
:1031D20002FAF9F8121A619005A3121BA79005A32F
:1031E200E0FCA3E0FDA3E0FEA3E0FFE4900729F0EA
:1031F2001274907FA21203AE9005A7E0B403389038
:1032020005A3E0FCA3E0FDA3E0FEA3E0FFE47B1442
:10321200FAF9F8121A619005A3121BA79005A3E010
:10322200FCA3E0FDA3E0FEA3E0FFE4900720F01280
:10323200B3637FA31203AE9005A8E0B4041990050E
:103242002C121BB300000000900530121BB3000BC0
:1032520000A97FA41203AE9005A8E06405600302F2
:1032620034DB90071704F07FED7EB37D637C0012A0
:103272009DD290059B121BB300000000E4900596BE
:10328200F0E4FB7D017F0E7E01120000BF01347865
:10329200C17C057D017B017A0079007E007F0412EA
:1032A200182C7B017A0579C17D0412C0089005C1F2
:1032B200E0FCA3E0FDA3E0FEA3E0FF900597121B54
:1032C200A7800790064FE04410F0E4FFFEFD7C80EB
:1032D200900597E0F8A3E0F9A3E0FAA3E0FBC3129C
:1032E2001B244024900597E0FCA3E0FDA3E0FEA38D
:1032F200E0FF121AF3EF2401FFE43EFEE43DFDE499
:103302003CFC900597121BA790059BE0FCA3E0FDF7
:10331200A3E0FEA3E0FF900597E0F8A3E0F9A3E0A5
:10332200FAA3E0FBEF2BFFEE3AFEED39FDEC38FCA1
:10333200A3121BA775CEA575CF5A0075CEA575CF62
:103342005A00900596E004F0E0C39408500302325C
:103352008390059BE0FCA3E0FDA3E0FEA3E0FFE475
:103362007B08FAF9F8121A6190059B121BA79005C7
:103372009BE0FCA3E0FDA3E0FEA3E0FFE412161C29
:10338200C004C005C006C00790BAB0121B87E41281
:10339200161CD003D002D001D00012151290055095
:1033A200121BA790059B121BB300000000E49005BE
:1033B20096F0E4FB7D017F0D7E01120000BF013417
:1033C20078C17C057D017B017A0079007E007F0453
:1033D20012182C7B017A0579C17D0412C008900570
:1033E200C1E0FCA3E0FDA3E0FEA3E0FF900597127D
:1033F2001BA7800790064FE04410F0E4FFFEFD7C1F
:1034020080900597E0F8A3E0F9A3E0FAA3E0FBC3FC
:10341200121B244024900597E0FCA3E0FDA3E0FEEC
:10342200A3E0FF121AF3EF2401FFE43EFEE43DFDA8
:10343200E43CFC900597121BA790059BE0FCA3E0DF
:10344200FDA3E0FEA3E0FF900597E0F8A3E0F9A357
:10345200E0FAA3E0FBEF2BFFEE3AFEED39FDEC388C
:10346200FCA3121BA775CEA575CF5A0075CEA57504
:10347200CF5A00900596E004F0E0C394085003028E
:1034820033B490059BE0FCA3E0FDA3E0FEA3E0FFC4
:10349200E47B08FAF9F8121A6190059B121BA790B7
:1034A200059BE0FCA3E0FDA3E0FEA3E0FFE412160F
:1034B2001CC004C005C006C00790BAAC121B87E44A
:1034C20012161CD003D002D001D0001215129005A2
:1034D20048121BA77FA51203AE9005A8E0B40639D7
:1034E2009005A3E0FCA3E0FDA3E0FEA3E0FFE47BE4
:1034F20002FAF9F8121A619005A3121BA79005A30C
:10350200E0FCA3E0FDA3E0FEA3E0FF900729740125
:10351200F01274907FA61203AE9005A8E0B40739AA
:103522009005A3E0FCA3E0FDA3E0FEA3E0FFE47BA3
:1035320014FAF9F8121A619005A3121BA79005A3B9
:10354200E0FCA3E0FDA3E0FEA3E0FF9007207401EE
:10355200F012B3637FA71203AE9005A8E06408706F
:10356200529005A7E06408704A12D95D75CEA57520
:10357200CF5A0075CEA575CF5A0075CEA575CF5A14
:103582000075CEA575CF5A00129EE39004CAE0756D
:10359200F00AA4240EF582E43405F583E4F0A3F0E6
:1035A20075CEA575CF5A0075CEA575CF5A007FA8E6
:1035B2001203AE12E7F31266C575CEA575CF5A0097
:0C35C20075CEA575CF5A00E4900557F0B7
:0135CE0022DA
:0B556200900095EBF0A3EAF0A3E9F045
:10556D00E49000A4F0900095E0FBA3E0FAA3E0F92D
:10557D0090000D12186BFF12E71D9000A5EFF09033
:10558D000095E0FBA3E0FAA3E0F990000E12186B72
:10559D00FF12E71DEFC454F0FEC006900095E0FB2E
:1055AD00A3E0FAA3E0F990000F12186BFF12E71DAC
:1055BD00D0E02F9000A6F0900095E0FBA3E0FAA3B9
:1055CD00E0F990001112186BFF12E71DEFC454F0B3
:1055DD00FEC006900095E0FBA3E0FAA3E0F9900071
:1055ED001212186BFF12E71DD0E02F9000A7F07B71
:1055FD00017A0079A412B5D5900098121BA7E490FA
:10560D0000A4F0900095E0FBA3E0FAA3E0F9900070
:10561D001312186BFF12E71D9000A5EFF090009587
:10562D00E0FBA3E0FAA3E0F990001412186BFF124F
:10563D00E71DEFC454F0FEC006900095E0FBA3E01B
:10564D00FAA3E0F990001612186BFF12E71DD0E0D7
:10565D002F9000A6F0900095E0FBA3E0FAA3E0F9EF
:10566D0090001712186BFF12E71DEFC454F0FEC027
:10567D0006900095E0FBA3E0FAA3E0F99000181264
:10568D00186BFF12E71DD0E02F9000A7F07B017A79
:10569D000079A412B5D590009C121BA7E49000A42C
:1056AD00F0900095E0FBA3E0FAA3E0F99000191249
:1056BD00186BFF12E71D9000A5EFF0900095E0FB31
:1056CD00A3E0FAA3E0F990001A12186BFF12E71D80
:1056DD00EFC454F0FEC006900095E0FBA3E0FAA3E2
:1056ED00E0F990001B12186BFF12E71DD0E02F9010
:1056FD0000A6F0900095E0FBA3E0FAA3E0F990007E
:10570D001C12186BFF12E71DEFC454F0FEC006907B
:10571D000095E0FBA3E0FAA3E0F990001E12186BD0
:10572D00FF12E71DD0E02F9000A7F07B017A0079E2
:10573D00A412B5D59000A0121BA7900095E0FBA375
:10574D00E0FAA3E0241FF9E43AFA9001E1EBF0A3AB
:10575D00EAF0A3E9F0A3E4F0A37406F07B017A006C
:10576D0079A812DD59E49000AEF07B017A0079A89A
:10577D0012E2789000AF121BA79004DDE0FCA3E0CD
:10578D00FDA3E0FEA3E0FF121C8C57BF0000FEB08E
:10579D0058050000FEB158180000FEB257BF0000BA
:1057AD00FEB358050000FEB458180000FEB5000009
:1057BD00583D9000AFE0FCA3E0FDA3E0FEA3E0FFA9
:1057CD0012B82B75CEA575CF5A0075CEA575CF5ACB
:1057DD0000900098E0FCA3E0FDA3E0FEA3E0FF90A5
:1057ED0000B7121BA790009CE0FCA3E0FDA3E0FE18
:1057FD00A3E0FF125D3A80249000AFE0FCA3E0FD32
:10580D00A3E0FEA3E0FF129CAE80119000AFE0FC80
:10581D00A3E0FDA3E0FEA3E0FF127B7C12E7F312F1
:10582D0066C575CEA575CF5A0075CEA575CF5A0034
:01583D002248
:06B82B009000B3121BA700
:10B8310075CEA575CF5A0075CEA575CF5A00E4FF18
:10B84100FEFDFC9000B3E0F8A3E0F9A3E0FAA3E069
:10B85100FB1215AFE4FFFE7DC87C429000B3E0F817
:10B86100A3E0F9A3E0FAA3E0FB1213187B007A50DE
:10B8710079C3784712140912165A9000B8121BA7FF
:10B88100E47FB07EFEFDFC9004DDE0F8A3E0F9A3C7
:10B89100E0FAA3E0FBC3121B2470527FE87E101272
:10B8A10090B19000BC121BA79000CB121BB3009863
:10B8B10096809000B812A6079000BC121BA79000BA
:10B8C100BCE0FCA3E0FDA3E0FEA3E0FF9000CC748C
:10B8D10010F0A374E8F012C67A9000BCE0FCA3E07B
:0DB8E100FDA3E0FEA3E0FF90051C121BA7D5
:01B8EE002237
:065D3A009000B3121BA74C
:105D4000E47FB07EFEFDFC9004DDE0F8A3E0F9A363
:105D5000E0FAA3E0FBC3121B246003025E597FD963
:105D60007E101290B19000BB121BA79000BBE0FC0C
:105D7000A3E0FDA3E0FEA3E0FFE412161C90054C97
:105D8000E0F8A3E0F9A3E0FAA3E0FB12140912166D
:105D90005A9000BB121BA77FEB7E101290B19000AF
:105DA000BF121BA7E4FFFEFDFC9000BFE0F8A3E0DC
:105DB000F9A3E0FAA3E0FBC3121B24701D12A5F0A7
:105DC0009000BF121BA79000BFE0FCA3E0FDA3E082
:105DD000FEA3E0FF900528121BA77FD87E1012902B
:105DE000B19000BB121BA7E4FFFE7D207C41900513
:105DF00048E0F8A3E0F9A3E0FAA3E0FB121409C01D
:105E000004C005C006C0079000BBE0FCA3E0FDA3F2
:105E1000E0FEA3E0FFE412161CD003D002D001D0B4
:105E20000012140912165A9000BB121BA77FEA7EBB
:105E3000101290B19000BF121BA7E4FFFEFDFC9072
:105E400000BFE0F8A3E0F9A3E0FAA3E0FBC3121B54
:105E5000246003025FA7025F6CE47FB37EFEFDFC5B
:105E60009004DDE0F8A3E0F9A3E0FAA3E0FBC3129D
:105E70001B246003025FA77FDA7E101290B19000AE
:105E8000BB121BA79000BBE0FCA3E0FDA3E0FEA3B8
:105E9000E0FFE412161C900550E0F8A3E0F9A3E03F
:105EA000FAA3E0FB12140912165A9000BB121BA7AA
:105EB0007FEC7E101290B19000BF121BA7E4FFFE92
:105EC000FDFC9000BFE0F8A3E0F9A3E0FAA3E0FB3B
:105ED000C3121B24701D12A5F09000BF121BA790C7
:105EE00000BFE0FCA3E0FDA3E0FEA3E0FF900538C7
:105EF000121BA77FD87E101290B19000BB121BA777
:105F0000E4FFFE7D207C41900548E0F8A3E0F9A382
:105F1000E0FAA3E0FB121409C004C005C006C007E4
:105F20009000BBE0FCA3E0FDA3E0FEA3E0FFE412D1
:105F3000161CD003D002D001D00012140912165A38
:105F40009000BB121BA77FEA7E101290B19000BF99
:105F5000121BA7E4FFFEFDFC9000BFE0F8A3E0F9F0
:105F6000A3E0FAA3E0FBC3121B24703B9000B7121E
:105F7000A5F39000BF121BA79000BFE0FCA3E0FDBB
:105F8000A3E0FEA3E0FF90053C121BA79000BFE03A
:105F9000FCA3E0FDA3E0FEA3E0FF9000CC7410F0B2
:075FA000A374EAF012C67AB7
:015FA70022D7
:069CAE009000B3121BA799
:109CB400E4FFFEFDFC9000B3E0F8A3E0F9A3E0FAB2
:109CC400A3E0FB1215AFE4FFFE7DC87C429000B315
:109CD400E0F8A3E0F9A3E0FAA3E0FB1213187B0079
:109CE4007A5079C3784712140912165A9000B712A1
:109CF4001BA79000CC121BB3009896809000B7E08D
:109D0400FCA3E0FDA3E0FEA3E0FF12A0FAE4FCFD47
:109D1400FE9000BB121BA7E47FB17EFEFDFC900405
:109D2400DDE0F8A3E0F9A3E0FAA3E0FBC3121B24EF
:109D3400703F9000BBE0FCA3E0FDA3E0FEA3E0FFC6
:109D4400900520121BA77B017A0079C09000BBE02C
:109D5400FCA3E0FDA3E0FEA3E0FF12BB2B9000C335
:109D6400E0FFE4FCFDFE9000CC7428F0A3747B803B
:109D740058E47FB47EFEFDFC9004DDE0F8A3E0F936
:109D8400A3E0FAA3E0FBC3121B2470419000BBE0E4
:109D9400FCA3E0FDA3E0FEA3E0FF900530121BA7A7
:109DA4007B017A0079C49000BBE0FCA3E0FDA3E052
:109DB400FEA3E0FF12BB2B9000C7E0FFE4FCFDFE16
:0D9DC4009000CC7428F0A3747CF012C67AD5
:019DD100226F
:067B7C009000B3121BA7EC
:107B8200E47FB27EFEFDFC9004DDE0F8A3E0F9A301
:107B9200E0FAA3E0FBC3121B246003027C527FD6EF
:107BA2007E101290B19000C0121BA79000C0E0FCA2
:107BB200A3E0FDA3E0FEA3E0FFEC12161C9000B3CD
:107BC200E0F8A3E0F9A3E0FAA3E0FB121409E4FB56
:107BD200FA79C8784212151212165A9000BC121B7A
:107BE200A7E49000BBF0FFFEFDFCA3E0F8A3E0F9E0
:107BF200A3E0FAA3E0FBD3121B0E9000BCE0FCA3AF
:107C0200E0FDA3E0FEA3E04003FF800F24FFFFEEB0
:107C120034FFFEED34FFFDEC34FFFC9000B7121B85
:107C2200A79000B7E0FCA3E0FDA3E0FEA3E0FF9075
:107C320000CC7410F0A374EDF012C67A9000B7E095
:107C4200FCA3E0FDA3E0FEA3E0FF900524027D1F5C
:107C5200E47FB57EFEFDFC9004DDE0F8A3E0F9A32D
:107C6200E0FAA3E0FBC3121B246003027D227FD74C
:107C72007E101290B19000C0121BA79000C0E0FCD1
:107C8200A3E0FDA3E0FEA3E0FFEC12161C9000B3FC
:107C9200E0F8A3E0F9A3E0FAA3E0FB121409E4FB85
:107CA200FA79C8784212151212165A9000BC121BA9
:107CB200A7E49000BBF0FFFEFDFCA3E0F8A3E0F90F
:107CC200A3E0FAA3E0FBD3121B0E9000BCE0FCA3DE
:107CD200E0FDA3E0FEA3E04003FF800F24FFFFEEE0
:107CE20034FFFEED34FFFDEC34FFFC9000B7121BB5
:107CF200A79000B7E0FCA3E0FDA3E0FEA3E0FF90A5
:107D020000CC7410F0A374EEF012C67A9000B7E0C3
:107D1200FCA3E0FDA3E0FEA3E0FF900534121BA745
:017D2200223E
:03F0190002E562AB
:105AC100900000EFF0BF030C9028637480F0A3E412
:105AD100F0D28422C2849000CC7428F0A3747DF0AB
:105AE1007F007E007D007C0012C67A9000CC742875
:105AF100F0A37478F07F007E007D007C0012C67AEE
:105B01009028637480F0A3E4F0900000E07023FF1C
:105B1100FE7D32FC12BD4B902864E04407F09000FA
:105B2100CC7410F0A374EFF07FBC7E747D937C88FD
:105B31008031900000E0FF64016004EFB402297F2E
:105B4100007E807D0C7C0012BD4B902864E04403F4
:105B5100F09000CC7410F0A374EFF07F9C7E3C7D3C
:105B61001D7C9112C67A800312EF63902858744904
:105B7100F09000CC7410F0A374F4F07F307EA87D17
:105B8100617C0412C67A9000CC7410F0A374FAF010
:105B91007F107EC27DDE7C0612C67A9000CC741026
:105BA100F0A374F5F07F017E007D007C0012C67ABF
:105BB1009000CC7410F0A374FBF07F017E007D0097
:105BC1007C0012C67A9000CC7428F0A37478F07F20
:105BD100737E007D007C0012C67A9000CC7428F0A0
:105BE100A37479F07F007E007D007C0012C67A905C
:105BF10000CC7428F0A3747AF07F607E007D007C75
:105C01000012C67A9000CC7410F0A374F0F07F00FB
:105C11007E007D007C0012C67A9000CC7410F0A347
:105C210074F1F07F007E007D007C0012C67A900046
:105C3100CC7410F0A374F2F07F007E007D007C0034
:105C410012C67A9000CC7410F0A374F3F07F007E3A
:105C5100007D007C0012C67A9000CC7410F0A37411
:105C6100F6F07F007E007D007C0012C67A9000CCA9
:105C71007410F0A374F7F07F007E007D007C0012A9
:105C8100C67A9000CC7410F0A374F8F07F007E0007
:105C91007D007C0012C67A9000CC7410F0A374F9D8
:105CA100F07F007E007D007C0012C67A9000CC74EB
:105CB10028F0A3747DF07F7F7E007D007C0012C6FA
:105CC1007A9000CC7428F0A3747BF07F007E007D75
:105CD100007C0012C67A9000CC7428F0A3747CF08A
:105CE1007F007E007D007C0012C67A9000CC742873
:105CF100F0A3747EF07F007E007D007C0012C67AE6
:105D01009000CC7410F0A374FCF07F007E007D0045
:105D11007C0012C67A53A4DF43AD2053A4BF43AD28
:105D21004043E803902843E04480F090284BE0444E
:095D310080F09007567403F02283
:058DE70090000DEFF00B
:108DEC006401704E7FD37E101290B190000E121B56
:108DFC00A7E4FFFEFD7C8090000EE0F8A3E0F9A351
:108E0C00E0FAA3E0FBC3121B24402490000EE0FC0C
:108E1C00A3E0FDA3E0FEA3E0FF121AF3EF2401FF91
:108E2C00E43EFEE43DFDE43CFC90000E121BA70268
:108E3C008ECF90000DE064026003028F11FB7D0168
:108E4C007F1B7E01120000BF0134781A7C007D016B
:108E5C007B017A0079007E007F0412182C7B017A4A
:108E6C0000791A7D0412C00890001AE0FCA3E0FD02
:108E7C00A3E0FEA3E0FF90000E121BA78007900654
:108E8C004FE04410F0E4FFFEFD7C8090000EE0F813
:108E9C00A3E0F9A3E0FAA3E0FBC3121B2440249047
:108EAC00000EE0FCA3E0FDA3E0FEA3E0FF121AF32A
:108EBC00EF2401FFE43EFEE43DFDE43CFC90000E9B
:108ECC00121BA790000EE0FCA3E0FDA3E0FEA3E0C4
:108EDC00FFE412161C900548E0F8A3E0F9A3E0FAB1
:108EEC00A3E0FB121409900016121BA7900016E0C9
:108EFC00FCA3E0FDA3E0FEA3E0FF12165A900012C3
:108F0C00121BA7800A900012121BB300000000E491
:108F1C007F32FEFDFC900012E0F8A3E0F9A3E0FA2A
:108F2C00A3E0FBC3121B24500A900012121BB300C7
:108F3C00000000900012E0FCA3E0FDA3E0FEA3E023
:018F4C00FF25
:018F4D002201
:059A5A0090000DEFF08B
:109A5F006401704D7FD57E101290B190000E121BD5
:109A6F00A7E4FFFEFD7C8090000EE0F8A3E0F9A3D1
:109A7F00E0FAA3E0FBC3121B24407C90000EE0FC35
:109A8F00A3E0FDA3E0FEA3E0FF121AF3EF2401FF12
:109A9F00E43EFEE43DFDE43CFC90000E121BA7806B
:109AAF005690000DE064026003029B487FD47E1045
:109ABF001290B190000E121BA7E4FFFEFD7C809068
:109ACF00000EE0F8A3E0F9A3E0FAA3E0FBC3121B3A
:109ADF0024402490000EE0FCA3E0FDA3E0FEA3E0F1
:109AEF00FF121AF3EF2401FFE43EFEE43DFDE43CD8
:109AFF00FC90000E121BA790000EE0FCA3E0FDA34C
:109B0F00E0FEA3E0FFE412161C900550E0F8A3E07E
:109B1F00F9A3E0FAA3E0FB121409900016121BA799
:109B2F00900016E0FCA3E0FDA3E0FEA3E0FF1216F9
:109B3F005A900012121BA7800A900012121BB3003A
:109B4F00000000E47F14FEFDFC900012E0F8A3E09B
:109B5F00F9A3E0FAA3E0FBC3121B24500A900012F2
:109B6F00121BB300000000900012E0FCA3E0FDA365
:059B7F00E0FEA3E0FF81
:019B840022BE
:056D0A0090067EEFF091
:106D0F006003026D967FD17E101290B190067F12B4
:106D1F001BA7E4FB7D017F197E01120000BF013428
:106D2F00788F7C067D017B017A0079007E007F04DD
:106D3F0012182C7B017A06798F7D0412C0089006F9
:106D4F008FE0FCA3E0FDA3E0FEA3E0FF900683121B
:106D5F001BA7800790064FE04410F0900683E0FCDD
:106D6F00A3E0FDA3E0FEA3E0FF90067FE0F8A3E021
:106D7F00F9A3E0FAA3E02FFFEA3EFEE93DFDE83C70
:106D8F00FC900687121BA790067EE0B4012C7FD1E2
:106D9F007E101290B190067F121BA7E4FFFEFD7CC0
:106DAF008090067FE0F8A3E0F9A3E0FAA3E0FBC32D
:106DBF00121B245003026E66806D90067EE0640203
:106DCF006003026E5CFB7D017F197E01120000BF24
:106DDF000134788F7C067D017B017A0079007E007B
:106DEF007F0412182C7B017A06798F7D0412C0085C
:106DFF0090068FE0FCA3E0FDA3E0FEA3E0FF90066A
:106E0F007F121BA7800790064FE04410F0E4FFFEAF
:106E1F00FD7C8090067FE0F8A3E0F9A3E0FAA3E001
:106E2F00FBC3121B24403090067FE0FCA3E0FDA3C0
:106E3F00E0FEA3E0FF121AF3EF2401FFE43EFEE4AD
:106E4F003DFDE43CFC90067F121BA7800A90067F55
:106E5F00121BB300000000E47F867E19FDFC900634
:106E6F007FE0F8A3E0F9A3E0FAA3E0FBC3121B2431
:106E7F00500C900687121BB3000000008063900631
:106E8F007EE0B4011FA3E0FCA3E0FDA3E0FEA3E0BE
:106E9F00FFE412161C90BAC0121B97121409900629
:106EAF008B121BA790067EE0B4021FA3E0FCA3E0A9
:106EBF00FDA3E0FEA3E0FFE412161C90BAC0121B64
:106ECF009712140990068B121BA790068BE0FCA358
:106EDF00E0FDA3E0FEA3E0FF12165A900687121BF7
:0F6EEF00A7900687E0FCA3E0FDA3E0FEA3E0FF71
:016EFE002271
:05B0010090000DEFF0CE
:10B00600BF01247FFD7E101290B190000E121BA787
:10B0160090000EE0F8A3E0F9A3E0FAA3E0FBE4FF5A
:10B02600FE7DE27C04805D90000DE064027069FBA9
:10B036007D017F9A7E01120000EF6401705178163F
:10B046007C007D017B017A007900FE7F0412182CBA
:10B056007B017A0079167D0412C008900016E0FC88
:10B06600A3E0FDA3E0FEA3E0FF90000E121BA79055
:10B07600000EE0F8A3E0F9A3E0FAA3E0FBE4FFFE8C
:10B086007D887C13121A61900012121BA780139000
:10B09600064FE04410F0800A900012121BB3000025
:10B0A6000000900012E0FCA3E0FDA3E0FEA3E0FF99
:10B0B600E412161C7B9A7A997999783F1214091230
:10B0C600165A900012121BA7900012E0FCA3E0FD96
:06B0D600A3E0FEA3E0FF71
:01B0DC002251
:107D2300900011121BB3000000007FD17E1012904F
:107D3300B1900011121BA7E4FFFEFD7C809000119F
:107D4300E0F8A3E0F9A3E0FAA3E0FBC3121B24903D
:107D53000757E0402954EFF0900011E0FCA3E0FD49
:107D6300A3E0FEA3E0FF121AF3EF2401FFE43EFEBB
:107D7300E43DFDE43CFC900011121BA7800344107A
:107D8300F0900011E0FCA3E0FDA3E0FEA3E0FF9070
:107D9300000D121BA7E47F867E19FDFC900011E005
:107DA300F8A3E0F9A3E0FAA3E0FBC3121B24501BE2
:107DB30090000D121BB300000000900011121BB3C2
:107DC30000000000900757E054EFF090000DE0FC36
:107DD300A3E0FDA3E0FEA3E0FF9000CC7410F0A3AA
:107DE30074FCF012C67A900011E0FCA3E0FDA3E05E
:107DF300FEA3E0FFE412161C90BAC0121B971214E4
:107E03000912165A900601121BA77FD27E101290F8
:107E1300B1900011121BA7E4FFFEFD7C80900011BE
:107E2300E0F8A3E0F9A3E0FAA3E0FBC3121B2440AC
:107E330024900011E0FCA3E0FDA3E0FEA3E0FF1209
:107E43001AF3EF2401FFE43EFEE43DFDE43CFC9025
:107E53000011121BA7900011E0FCA3E0FDA3E0FEBC
:107E6300A3E0FF90000D121BA7E47F867E19FDFCA3
:107E7300900011E0F8A3E0F9A3E0FAA3E0FBC3123A
:107E83001B24501490000D121BB30000000090003F
:107E930011121BB300000000900011E0FCA3E0FDF1
:107EA300A3E0FEA3E0FFE412161C90BAC4121B97D2
:107EB3001214097B397AB479C8783F121512121655
:077EC3005A900605021BA7FF
:103BD80090061D121BB300000000900619121BB3BB
:103BE80000000000900625121BB3000000007FD2E1
:103BF8007E101290B190061D121BA77FEE7E101248
:103C080090B1900619121BA7E4FB7D017F1A7E0173
:103C1800120000EF64017045782D7C067D017B0160
:103C28007A007900FE7F0412182C7B017A06792D20
:103C38007D0412C00890062DE0FCA3E0FDA3E0FE81
:103C4800A3E0FFE412161C7BCB7AA179D5783F124A
:103C5800140912165A900625121BA7800890064FC1
:103C6800E04410F022E47F867E19FDFC900621E0F6
:103C7800F8A3E0F9A3E0FAA3E0FBD3121B24401B4E
:103C88007F7A7EE67DFF7CFF900621E0F8A3E0F9CD
:103C9800A3E0FAA3E0FB121B24400A900621121BA2
:103CA800B300000000E47F867E19FDFC900629E041
:103CB800F8A3E0F9A3E0FAA3E0FBD3121B24401B0E
:103CC8007F7A7EE67DFF7CFF900629E0F8A3E0F985
:103CD800A3E0FAA3E0FB121B24400A900629121B5A
:103CE800B30000000090061D900625900757E030AD
:103CF800E503023E1E30E350900625E0FCA3E0FDFC
:103D0800A3E0FEA3E0FF121AF3EF2401FFE43EFE56
:103D1800E43DFDE43CFC900625121BA790061DE03F
:103D2800FCA3E0FDA3E0FEA3E0FF900625E0F8A3D6
:103D3800E0F9A3E0FAA3E02FFFEA3EFEE93DFDE843
:103D48003CFC90062D023F61900625E0FCA3E0FDB7
:103D5800A3E0FEA3E0FF90061DE0F8A3E0F9A3E0CE
:103D6800FAA3E0FBC3121B244050900625E0F8A3F9
:103D7800E0F9A3E0FAA3E0FB90061DE0FCA3E0FD58
:103D8800A3E0FEA3E09BFFEE9AFEED99FDEC98FC04
:103D980090062D121BA7900625E0FCA3E0FDA3E0EA
:103DA800FEA3E0FF121AF3EF2401FFE43EFEE43D18
:103DB800FDE43CFC900625023F6190061DE0F8A357
:103DC800E0F9A3E0FAA3E0FB900625E0FCA3E0FD00
:103DD800A3E0FEA3E0C39BFFEE9AFEED99FDEC98ED
:103DE800FC90062D121BA790065AE064556003024A
:103DF8003F64900625E0FCA3E0FDA3E0FEA3E0FFFE
:103E0800121AF3EF2401FFE43EFEE43DFDE43CFC1E
:103E1800900625023F61900757E020E303023EFF2A
:103E2800900625E0FCA3E0FDA3E0FEA3E0FF9006DA
:103E38001DE0F8A3E0F9A3E0FAA3E0FBC3121B24FA
:103E48004065900625E0F8A3E0F9A3E0FAA3E0FBBB
:103E580090061DE0FCA3E0FDA3E0FEA3E09BFFEEBF
:103E68009AFEED99FDEC98FC90062D121BA7900682
:103E78005AE06455900625600DE0FCA3E0FDA3E040
:103E8800FEA3E0FF801BE0FCA3E0FDA3E0FEA3E0AF
:103E9800FF121AF3EF2401FFE43EFEE43DFDE43C8B
:103EA800FC900625023F6190061DE0F8A3E0F9A307
:103EB800E0FAA3E0FB900625E0FCA3E0FDA3E0FE0A
:103EC800A3E0C39BFFEE9AFEED99FDEC98FC9006EB
:103ED8002D121BA7900625E0FCA3E0FDA3E0FEA39E
:103EE800E0FF121AF3EF2401FFE43EFEE43DFDE497
:103EF8003CFC9006258062900625E0FCA3E0FDA32B
:103F0800E0FEA3E0FF90061DE0F8A3E0F9A3E0FAC5
:103F1800A3E02FFFEA3EFEE93DFDE83CFC90062DBC
:103F2800121BA790065AE06455900625600DE0FC28
:103F3800A3E0FDA3E0FEA3E0FF801BE0FCA3E0FDFF
:103F4800A3E0FEA3E0FF121AF3EF2401FFE43EFE14
:103F5800E43DFDE43CFC900625121BA790051CE0FF
:103F6800FCA3E0FDA3E0FEA3E02400FFE43EFEE4A2
:103F78003DFDEC3480FCE412161CA804A905AA0631
:103F8800AB07E4FFFEFD7C4F121512900631121BA1
:103F9800A7E4FFFEFD7C80900625E0F8A3E0F9A3E6
:103FA800E0FAA3E0FBD3121B24900625E0FC406B4B
:103FB800A3E0FDA3E0FEA3E0FF121AF3EF2401FF44
:103FC800E43EFEE43DFDE43CFC900625121BA79070
:103FD8000625E0FCA3E0FDA3E0FEA3E0FFE4121643
:103FE8001C900631E0F8A3E0F9A3E0FAA3E0FB1285
:103FF800140912165A900625121BA7900625E0FCF4
:10400800A3E0FDA3E0FEA3E0FF121AF3EF2401FFF3
:10401800E43EFEE43DFDE43CFC8021A3E0FDA3E09A
:10402800FEA3E0FFE412161C900631E0F8A3E0F9C5
:10403800A3E0FAA3E0FB12140912165A90062512FF
:104048001BA7900625E0FCA3E0FDA3E0FEA3E0FF8C
:104058009000CC7410F0A374EEF012C67AE4FFFE60
:10406800FD7C80900625E0F8A3E0F9A3E0FAA3E040
:10407800FBD3121B244024900625E0FCA3E0FDA3FB
:10408800E0FEA3E0FF121AF3EF2401FFE43EFEE492
:104098003DFDE43CFC900625121BA7E4FFFEFD7CD9
:1040A8008090061DE0F8A3E0F9A3E0FAA3E0FBD3B3
:1040B800121B24402490061DE0FCA3E0FDA3E0FEB3
:1040C800A3E0FF121AF3EF2401FFE43EFEE43DFDF6
:1040D800E43CFC90061D121BA7E4FFFEFD7C8090CB
:1040E800062DE0F8A3E0F9A3E0FAA3E0FBD3121B46
:1040F80024402490062DE0FCA3E0FDA3E0FEA3E00D
:10410800FF121AF3EF2401FFE43EFEE43DFDE43C18
:10411800FC90062D121BA790061DE0FCA3E0FDA352
:10412800E0FEA3E0FFE412161C90BAC4121B97121B
:10413800140912165A900605121BA790062DE0FCCA
:10414800A3E0FDA3E0FEA3E0FFE412161C90BAC4AE
:10415800121B9712140912165A900619121BA790CF
:104168000625E0FCA3E0FDA3E0FEA3E0FFE41216B1
:104178001C90BAC4121B9712140912165A90062DD5
:0D418800121BA7900641121BB3000000009F
:014195002207
:0579CD009006CDEFF073
:1079D200BF014B7FD27E101290B19006CE121BA730
:1079E200E4FFFEFD7C809006CEE0F8A3E0F9A3E080
:1079F200FAA3E0FBC3121B245003027AE39006CEE3
:107A0200E0FCA3E0FDA3E0FEA3E0FF121AF3EF24E3
:107A120001FFE43EFEE43DFDE43CFC027AD1900627
:107A2200CDE064026003027AD9FB7D017F1A7E01F8
:107A3200120000BF013478DA7C067D017B017A00F6
:107A420079007E007F0412182C7B017A0679DA7D98
:107A52000412C0089006DAE0FCA3E0FDA3E0FEA356
:107A6200E0FF9006CE121BA7800790064FE044105D
:107A7200F0E4FFFEFD7C809006CEE0F8A3E0F9A3DF
:107A8200E0FAA3E0FBC3121B2440249006CEE0FCE4
:107A9200A3E0FDA3E0FEA3E0FF121AF3EF2401FF2F
:107AA200E43EFEE43DFDE43CFC9006CE121BA790B2
:107AB20006CEE0FCA3E0FDA3E0FEA3E0FFE4121685
:107AC2001C7BCB7AA179D5783F12140912165A90F1
:107AD20006CE121BA7800A9006CE121BB30000002E
:107AE20000E47F867E19FDFC9006CEE0F8A3E0F963
:107AF200A3E0FAA3E0FBC3121B24500C9006D2129F
:107B02001BB30000000080639006CDE0B4011FA308
:107B1200E0FCA3E0FDA3E0FEA3E0FFE412161C904C
:107B2200BAC4121B971214099006D6121BA790060C
:107B3200CDE0B4021FA3E0FCA3E0FDA3E0FEA3E0BE
:107B4200FFE412161C90BAC4121B97121409900675
:107B5200D6121BA79006D6E0FCA3E0FDA3E0FEA38D
:107B6200E0FF12165A9006D2121BA79006D2E0FC32
:097B7200A3E0FDA3E0FEA3E0FF87
:017B7B0022E7
:10E4A30003E503E803EC03EF03D903DC03E003E331
:10E4B30003D303D603D903DC03C603C903CC03CFB9
:10E4C300041004130416041904030407040A040DB6
:10E4D30003FA03FD0400040303ED03F103F403F75C
:10E61B00EFB401089028637481F0800BEF640270F3
:10E62B002A90286374A2F0902864E04408F0A3E0D9
:10E63B004401F07F787E281290B1EF4418FF9000D0
:0BE64B00CC7428F0A37478F012C67A9B
:01E6560022A1
:10EA9300902864E054F7F09028637480F090286520
:10EAA300E04401F07F787E281290B1EF54F7FF9095
:0CEAB30000CC7428F0A37478F002C67A3E
:10E657007F0212E61B7F0A7E0012EE6D7FCE7E10D0
:10E667001290B17810121B35EE30E70FEFF4FFEE82
:10E67700F4FEEF2401FFE43EFE800F7C007D47128D
:0BE687001900EF24FBFFEE34FFFE0043
:01E692002265
:10E9D8007F0112E61B7F0A7E0012EE6D1200569030
:10E9E8000003121BA7E4FFFE7D207C41900003E09A
:10E9F800F8A3E0F9A3E0FAA3E0FB12140912165AEF
:01EA080022EB
:100056009000087404F0A37420F0E4900007F09078
:100066000007E0FFC394035043EF75F018A4FF9018
:100076000009E02FFD900008E035F0FC7E007F0AC5
:100086007B1512E77F7B017A00790A90003374337F
:10009600F07D137C0012EBDC900029EFF090001E3F
:1000A600E06F6008900007E004F080B37B017A00FF
:1000B600790A7D0412C0087B017A00790E7D04124C
:1000C600C0087B017A0079127D0412C0087B017A90
:1000D6000079167D0412C0087B017A00791A7D0426
:1000E60012C0087FCE7E101290B17810121B359088
:1000F600002A121BA77E007F1F902862E0543E2430
:10010600A3F582E434E4AD82FC7B0212E77F900023
:100116001FE0FEA3E0FFE4FCFD90002AE0F8A3E068
:10012600F9A3E0FAA3E0FB1219D6E47BE87A03F917
:10013600F8121A6190002A121BA790001EE0FF9089
:100146000029E06F603290000A121BB3000046627D
:1001560090000E121BB300000001900012121BB398
:100166000D5A4336900016121BB300001BB49000C4
:100176001A121BB30000000A90002AE0FCA3E0FD5F
:10018600A3E0FEA3E0FF900016E0F8A3E0F9A3E0E9
:10019600FAA3E0FB1219D6900012E0F8A3E0F9A347
:1001A600E0FAA3E02FFFEA3EFEE93DFDE83CFCE471
:1001B60012161C12C0B9C004C005C006C0079000C4
:1001C6000EE0FCA3E0FDA3E0FEA3E0FFE412161C94
:1001D600D003D002D001D000121409C004C005C05B
:1001E60006C00790000AE0FCA3E0FDA3E0FEA3E042
:1001F600FFE412161CA804A905AA06AB07D007D06F
:1002060006D005D004121314C004C005C006C007EA
:1002160090001AE0FCA3E0FDA3E0FEA3E0FFE412D9
:10022600161CA804A905AA06AB07D007D006D00558
:10023600D004121512900025121BA7900008740412
:10024600F0A37480F0E4900007F0900007E0FFC38D
:1002560094035046EF75F004A4FF900009E02FFDCB
:10026600900008E035F0FC7E007F217B0412E77FDA
:100276007B017A0079219000337433F07D027C0093
:1002860012EBDC900023EFF0A3E0FF900023E06F79
:100296006008900007E004F080B0900024E0FF9032
:1002A6000023E06F6007E4900021F0A3F0900021A6
:1002B600E030E75B900021E0FEA3E0F4FFEEF4FE01
:1002C600EF2401FFE43E900021F0A3EFF09000251B
:1002D600E0FCA3E0FDA3E0FEA3E0FFC004C005C070
:1002E60006C007900021E0FEA3E0FF7C007D0A1215
:1002F6001900AC06AD07E4121621A804A905AA0642
:10030600AB07D007D006D005D0041213148038905E
:100316000025E0F8A3E0F9A3E0FAA3E0FBC000C0E3
:1003260001C002C003900021E0FEA3E0FF7C007D37
:100336000A121900AC06AD07E4121621D003D0024A
:10034600D001D000121318900025121BA7E4FFFE5F
:100356007DB47C42900025E0F8A3E0F9A3E0FAA37F
:10036600E0FB1215AF600E400C900025121BB34245
:10037600B400008024E4FFFE7D2C7CC2900025E0C2
:10038600F8A3E0F9A3E0FAA3E0FB1215AF500A9038
:100396000025121BB3C22C0000900025E0FCA3E050
:0703A600FDA3E0FEA3E0FF50
:0103AD00222D
:06AD5E00900007121BA784
:10AD6400E490000BF0C286C285902867E044C0F0EE
:10AD7400A37420F0900007E0FCA3E0FDA3E0FEA391
:10AD8400E0FF121C8CADB1000C8000ADB9001900BD
:10AD940000ADC900320000ADD100640000ADDE009A
:10ADA400C80000ADF0019000000000AE02902867DA
:10ADB400E054FC800A902867E04401F0E054FDF080
:10ADC400A3E4F0803C902867E054FE800690286756
:10ADD400E04401F0E04402F08027902867E0440159
:10ADE400F0E04402F0A3E04440F08015902867E0CE
:10ADF4004401F0E04402F0A3E044C0F0800312EF09
:10AE040063E5A320E00F90000BE004F0E0D394325C
:10AE140040EF7F0022D280E490000BF020800F905E
:10AE2400000BE004F0E0D3943240F17F002290283C
:0EAE34005FE4F0A37403F0A3E04420F07F017C
:01AE420022ED
:06BD4B00900001121BA78D
:10BD5100E4900005F0C284902867E044C0F09000B0
:10BD610001E0FCA3E0FDA3E0FEA3E0FF121C8CBDFB
:10BD71008C00000000BD91000C8000BD9E001900E8
:10BD810000BDB3003200000000BDC8D2847F012293
:10BD9100902867E054F3F0E054CFF0802D902867AD
:10BDA100E04404F0E054F7F0E04410F0E054DFF038
:10BDB1008018902867E054FBF0E04408F0E054EF6D
:10BDC100F0E04420F0800312EF63E5A320E00F9040
:10BDD1000005E004F0E0D3943240EF7F0022D287E7
:10BDE100E4900005F020870F900005E004F0E0D317
:09BDF100943240F17F00227F0131
:01BDFA002226
:10DF7500C286C285902864E4F0902866F090000778
:10DF8500F0900007E004F0E0B414F6D284E5A13087
:10DF9500E00312EF63C2802080FDE5A130E00312AB
:10DFA500EF63E4900007F0900007E004F0E0B403AD
:10DFB500F6902867E4F0902867E070FAD2817F3206
:04DFC50012EFCB008C
:01DFC9002235
:10D329009028ADE054FDF09028ACE054FDF0902831
:10D33900AEE04402F09028ACE054FBF0A3E054FBCB
:10D34900F0A3E04404F0902820E4F0902828F0901D
:10D359002830F0902A05F0902864F0902866E0447F
:10D3690020F09000CC7428F0A3747DF07F007E003B
:10D379007D007C0012C67A9000CC7428F0A37478E2
:10D38900F07F007E007D007C0012C67AE4FF0FEF7B
:05D39900B414FBD28476
:01D39E00226C
:10CEB9009028A8E054F0F09028AAE054F0F075A466
:10CEC900F275A50AE4F5A643A6049028B2E0440247
:10CED900F09028B0E054FDF0A3E04401F09028B0B0
:10CEE900E054FDF0A3E04401F09028C97402F0A3D6
:10CEF900F09028B1E04410F09028B0E04410F09090
:10CF090028CDE4F053ADDF53A4DF53A6DFA3F0909F
:10CF190028B0E054DFF09028B2E04420F09028C80F
:10CF2900E4F09028ADE04410F09028C7E4F0902890
:0CCF3900ADE04408F053ADFD43A502221A
:10DEC9009028A874FFF0A3E4F09028AC74FFF0A3A5
:10DED900E4F09028B074FFF0A3E4F09028B474FF44
:10DEE900F0A3E4F09028B874FFF0A3E4F09028BC04
:10DEF90074FFF0A3E4F09028C074FFF0A3E4F0905D
:10DF090028D574FFF0A3E4F09028D974FFF0A3E4B6
:07DF1900F075A4FFF5A5223D
:10EE0500E4FF9028B3E020E4050FEFB40AF4EFD354
:09EE1500940740037F01227F00F5
:01EE1E0022D1
:10EE1F00E4FF9028AFE020E4050FEFB40AF4EFD33E
:09EE2F00940740037F01227F00DB
:01EE380022B7
:10EE9E00E4FFE5A720E1050FEFB40AF6EFD39407E0
:07EEAE0040037F01227F00F9
:01EEB500223A
:10EE3900E4FF9028AFE020E3050FEFB40AF4EFD325
:09EE4900940740037F01227F00C1
:01EE5200229D
:10EEB600E4FFE5A730E0050FEFB40AF6EFD39407B9
:07EEC60040037F01227F00E1
:01EECD002222
:0EEF9800C28390285EE4F0902C1E74C2F0221A
:03F01C00D283227A
:10ED7C00902C08E4F0A3F0A3F0A3F0A3F0A3F0A36D
:0CED8C00F0A3F0902C12F0A3F0A3F022F2
:10EBB500EF902C00F0902C04F0A3F0A3F0A3F090BC
:10EBC5002C09F0A3F0A3F0902C0FF0A3F0540FA3A1
:07EBD500F0EF902C13F02279
:10D7AC009028B4E0440FF09028B8E04403F090289F
:10D7BC00BCE074FFF09028C0E044FCF09028D5E069
:10D7CC0044C0F09028D9E04407F09028B5E054F01C
:10D7DC00F09028B9E054FCF09028BDE0E4F09028DB
:10D7EC00C1E05403F09028D6E0543FF09028DAE0E2
:10D7FC0054F8F012EF98902C1F7403F0A374FFF000
:0DD80C00A374FCF0A374C0F0A374C7F02255
:10AE430090000612186BFFC4540FFE12185254F0F0
:10AE53004E902C00F090000112186BFE54F0FD127E
:10AE63001852540F4D902C04F090000212186B549A
:10AE7300F0FDEE540F4D902C05F090000312186B6B
:10AE8300FE54F0FD90000212186B540F4D902C06E7
:10AE9300F090000412186B54F0FDEE540F4D902CFB
:10AEA30007F090000512186BFE54F0FD9000041299
:10AEB300186B540F4D902C09F090000912186B5425
:10AEC300F0FDEE540F4D902C0AF090000A12186B0F
:10AED300FE54F0FD90000912186B540F4D902C0B8B
:10AEE300F090000712186B54F0FDEF540F4D902CA7
:10AEF3000FF090000812186BFF54F0FD900007123A
:10AF0300186B540F4D902C10F0EF540FA3F09000DA
:10AF13000B12186B54F0FFEE540F4F902C13F022CA
:10EF76009028C77406F09028ACE054F7F0A3E0544C
:03EF8600F7F0227F
:0BEFC00043E80290284BE04440F022A0
:10E6CE00900007EFF0A3EDF07590967597577F3297
:10E6DE0012EFCB900008E0FFF596EFB4070D75DF53
:10E6EE0040900007E0543F25DFF5DF7F3212EFCB7D
:0BE6FE007590967597567F3202EFCBA7
:0BDCFA00900021EBF0A3EAF0A3E9F09A
:10DD0500A3E5DAF07F6412EFCB900021E0FBA3E0FE
