:01040000FFFC
:0300000002CFCE5E
:06CFCE0075812002D00F66
:10BDEC000075CEA575CF5A0075CEA575CF5A00C279
:10BDFC00AF12E9EED2AF0075CEA575CF5A0075CE55
:10BE0C00A575CF5A0012EEFBEF6401707C75CEA5C0
:10BE1C0075CF5A0075CEA575CF5A00900703E0FF79
:10BE2C0030E00654FEF012EC9F1289E4900703E018
:10BE3C00FF30E10654FDF0129E489006D5E06401F7
:10BE4C0060079006D6E0B4010312B3339006D2E03B
:10BE5C0064017024F012B25C75CEA575CF5A0075D2
:10BE6C00CEA575CF5A007D017F0112B9957FFF12C7
:10BE7C00EC2A9006D77403F01289E475CEA575CF21
:0FBE8C005A0075CEA575CF5A001289E402BE0385
:10DD1F0000100044443031412D5632302E30331E26
:10DD2F001E26002000111111111111FFFFFFFFFF1F
:10DD3F00FFFFFFFFFF111111111111000000000073
:10DD4F0000000000000000000000005A000000006A
:10DD5F001C0000000000000000000F0101FFFFFF8A
:10DD6F00FFFFFFFFFF001234560000006534120062
:01DD7F0000A3
:10D66F00E4900703F0A3F09007077403F0E490072A
:10D67F001AF07B017A07790C9001D8F0A304F0A37C
:10D68F0004F07D997C0012CBF17B017A07790D9024
:10D69F0001D8E4F0A37402F0A3F07D9F7C0012CBBD
:10D6AF00F17B017A07790F9001D8E4F0A37402F0AF
:10D6BF00A3F07DA17C0012CBF17B017A0779169044
:10D6CF0001D8E4F0A37404F0A37402F07DC17C00D0
:03D6DF0002CBF18A
:10D89F0000020000003E0102003E002F1402006D46
:10D8AF000052150200BF00101B02011B001A1902C3
:10D8BF0000CF0009460200D8003A150200BF001041
:10D8CF0052020135001A5302014F001E5402016D1E
:10D8DF0000621A0201120009650208000071660257
:10D8EF0008710071670208E2007168020953007144
:0CD8FF00690209C400716A020A35007158
:10B74400900012E0FEA3E0FF900016E0FCA3E0FDF1
:02B754007B0276
:10B7560090018BEEF0A3EFF0A3ECF0A3EDF0A3EBDA
:01B76600F0F2
:10B767009001D174A5F0A3745AF090018DE0FEA367
:10B77700E0FFD39400EE9400500302B802EF944028
:10B78700EE940090019040057440F08002EFF07B4A
:10B79700017A01799190018BE0FCA3E0FD90019083
:10B7A700E0FF9001D8E4F0A3EFF090018FE0900163
:10B7B700DAF012CBF17B017A017991900190E0FDEB
:10B7C7007C00E49001D8F0A3F012EA509001D2E097
:10B7D7002FF09001D1E03EF0900190E0FF7E0090C5
:10B7E700018CE02FF090018BE03EF0C390018EE0DA
:10B7F7009FF090018DE09EF002B7719001D1E0FEBD
:03B80700A3E0FFBC
:01B80A00221B
:08CD0E0090018BEEF0A3EFF0A1
:10CD1600E4FFEF75F006A424A0F582E434D8F58389
:10CD2600E4936D7068ED640260037FFF22EF75F097
:10CD360006A424A1F582E434D8F583E493FB7401B8
:10CD46009390018DCBF0A3EBF0EF75F006A424A32E
:10CD5600F582E434D8F583740193F990018DE0FAF5
:10CD6600A3E0FBC390018CE09B90018BE09A401DF1
:10CD7600E9FB90018EE02BFB90018DE03400FAC3B5
:10CD860090018CE09B90018BE09A5001220FEF649A
:08CD960012600302CD187FFFBB
:01CD9E002272
:10AC2F00900012E0FCA3E0FD2400FFEC3404FE9042
:10AC3F000017E02402FB900016E03400FA90002089
:03AC4F007422F07C
:10AC520090001AEEF0A3EFF0A3ECF0A3EDF0A3EA5C
:04AC6200F0A3EBF080
:10AC660090001EE0FEA3E0FFD39400EE9400500394
:10AC760002AD1DD3EF9440EE940090006140057440
:10AC860040F08002EFF07B017A00792190001CE011
:10AC9600FCA3E0FD900061E0FF9001D8E4F0A3EF93
:10ACA600F0900020E0FFC4540F9001DAF012CBF1CF
:10ACB60075CEA575CF5A0075CEA575CF5A007B0106
:10ACC6007A007921900061E0FD900190E4F0A3ED17
:10ACD600F0900020E0540F900192F090001AE0FEF0
:10ACE600A3E0FF12C874900061E0FFFD7C009000B5
:10ACF6001BE02DF090001AE03CF090001DE02DF0D6
:10AD060090001CE03CF0C390001FE09FF090001EF6
:07AD1600E09400F002AC66BE
:01AD1D002213
:10C53F0090007AEEF0A3EFF0A3ECF0A3EDF0AF03D1
:10C54F007B017A007980AD0790017DE4F0A3744000
:10C55F00F012EB5F90007CE0FEA3E0FFD39400EEBF
:10C56F0094004069D3EF9440EE94009000C04005D2
:10C57F007440F08002EFF090007AE0FEA3E0FF7BC2
:10C58F00017A0079809000C0E0FD900190E4F0A363
:10C59F00EDF090007FE0900192F012C87475CEA577
:10C5AF0075CF5A0075CEA575CF5A009000C0E0FF29
:10C5BF007E0090007BE02FF090007AE03EF0C39079
:0DC5CF00007DE09FF090007CE09EF08087F2
:01C5DC00223C
:0BCBE6009001D8E4F0A37402F0A3F06B
:10CBF1009001D3EBF0A3EAF0A3E9F0A3ECF0A3EDED
:01CC0100F042
:10CC02009001DAE024FE604B0470699001D6E0FEE8
:10CC1200A3E0AA06F99001DB7401F0A3EAF0A3E90C
:10CC2200F09001DBE0F9A3E0FAA3E09001E1C9F0A2
:10CC3200A3EAF0A3E9F09001D8E0FFA3E09001E4B9
:10CC4200CFF0A3EFF09001D3E0FBA3E0FAA3E0F969
:10CC520002DDDF9001D3E0FBA3E0FAA3E0F9A3E059
:10CC6200FCA3E0FDA3E0FFA3E09001E3CFF0A3EF7C
:07CC7200F002C3FF12EFD82E
:01CC79002298
:10C8530090000EEEF0A3EFF09000147A00790EE052
:10C86300FEA3E0FF7B01900190E4F0A37402F0A328
:01C87300F0D4
:10C8740090018BEEF0A3EFF0A3EBF0A3EAF0A3E9B1
:01C88400F0C3
:10C88500900192E024FE603C04705A90018BE0FE1A
:10C89500A3E0AA06F97B01C002C001A3E0F9A3E069
:10C8A500FAA3E09001E1C9F0A3EAF0A3E9F0900151
:10C8B50090E0FFA3E09001E4CFF0A3EFF0D001D02A
:10C8C5000202DDDF90018BE0FEA3E0FFA3E0FBA306
:10C8D500E0FAA3E0F9A3E0FDA3E0900198CDF0A371
:08C8E500EDF002C71912EFD8B3
:01C8ED002228
:1099A40090017BEBF0A3EAF0A3E9F0900179EEF0EB
:0399B400A3EFF02E
:1099B700900180E0FD12CD0E900181EFF0C394126B
:1099C700400312EFD8900181E0FF75F006A424A1AF
:1099D700F582E434D8F583E493FD74019390018410
:1099E700CDF0A3EDF0EF75F006A424A3F582E434DF
:1099F700D8F58374019324FEFFE49334FFFE9001AE
:109A070088F0A3EFF0900185E02FFF900184E03EFE
:109A1700900186F0A3EFF0900181E075F006A42491
:109A27009FF582E434D8F583E49390018AF090019E
:109A370079E0FEA3E0FFA3E0FBA3E0FAA3E0F9A32C
:109A4700E0FDA3E0900190CDF0A3EDF0900180E060
:109A5700900192F012C874900184E0FEA3E0FF9099
:109A6700018812B74F900182EEF0A3EFF0900186C4
:109A77007A01798212C86290018AE0C394645048DF
:109A870090017AE02400FF900179E03404FE900110
:109A97007BE0FBA3E0FAA3E0F9A3E0FDA3E09001DC
:109AA70090CDF0A3EDF0900180E0900192F012C804
:109AB70074900187E02400FF900186E03404FE7B68
:089AC700017A01798212C869DD
:019ACF002274
:10A38800E4FEEE75F006A4249FF582E434D8F58344
:10A39800E4936F60050EEEB412E8EEC39412400326
:10A3A80002A488EE75F006A424A1F582E434D8F559
:10A3B80083E493FD74019390001ACDF0A3EDF0EEC1
:10A3C80075F006A424A3F582E434D8F583740193C8
:10A3D80024FEFCE49334FF90001CF0A3CCF0EF249F
:10A3E800EB602224CF602E24F4603A146047146096
:10A3F800542440707290001AE0FEA3E0FF7BFF7ABD
:10A40800DD792E804E90001AE0FEA3E0FF7BFF7AF4
:10A41800DC7955803E90001AE0FEA3E0FF7BFF7ACE
:10A42800BB7918802E90001AE0FEA3E0FF7BFF7A2C
:10A43800C97988801E90001AE0FEA3E0FF7BFF7AAE
:10A44800C979A2800E90001AE0FEA3E0FF7BFF7A94
:10A45800C979C0A3E0FDA3E0900190CDF0A3EDF091
:10A46800A37402F002C87490001AE0FEA3E0FFA3F0
:10A47800E0FCA3E0FD90007F7402F0E4FB12C53F0E
:01A4880022B1
:1070E000E490000DF090000DE0F9C394124003020B
:1070F00072B7E4900018F090000DE0FF75F006A460
:1071000024A1F582E434D8F583E493FD74019390CF
:107110000012CDF0A3EDF0EF75F006A424A3F582E4
:10712000E434D8F58374019324FEFEE49334FF9095
:107130000016F0A3CEF0900016E0FAA3E0FB90005A
:1071400012E0FCA3E0FD2BFEEC3AA3F0A3CEF0E9A5
:1071500075F006A4249FF582E434D8F583E4939077
:107160000019F075CEA575CF5A0075CEA575CF5A0A
:1071700000AF05AE04AD03AC027B0212B75690001F
:107180000EEEF0A3EFF07B017A007910900014E08E
:10719000FCA3E0FD12CBE6900010E0FEA3E0FF9020
:1071A000000EE06E7003A3E06F6007900018E044EB
:1071B00001F0900019E0C39464504B900013E02458
:1071C00000FF900012E03404FE12B74C90000EEE67
:1071D000F0A3EFF07B017A007910900015E0240015
:1071E000FD900014E03404FC12CBE6900010E0FEA9
:1071F000A3E0FF90000EE06E7003A3E06F600790C5
:107200000018E04402F075CEA575CF5A0075CEA5E2
:1072100075CF5A00900018E070030272A024FE603F
:107220003614604124027075900019E0C3946450D4
:1072300015900012E0FEA3E0FF2400FDEE3404FCF4
:1072400012AC3E02728D900019E0FF12A38812B7B3
:107250004412C85302728D900019E0C394645040E8
:1072600012AC2F8028900019E0FF12A38812B744B7
:1072700012C85375CEA575CF5A0075CEA575CF5AD5
:1072800000900019E0C39464501612AC2F75CEA57F
:1072900075CF5A0075CEA575CF5A00800312EFD86E
:1072A00075CEA575CF5A0075CEA575CF5A00900042
:0772B0000DE004F00270E59F
:0172B70022B4
:05BA5800900095EFF0E5
:10BA5D00E4A3F0900096E0F9C39412400302BB17E3
:10BA6D00E0FE75F006A424A1F582E434D8F583E454
:10BA7D0093FC740193FDEE75F006A424A3F582E406
:10BA8D0034D8F58374019324FE2DFEE43C90009987
:10BA9D00F0A3CEF0E975F006A4249FF582E434D826
:10BAAD00F583E493FF90009BF0BF4608900095E06E
:10BABD0064A5704D75CEA575CF5A0075CEA575CF01
:10BACD005A00E4900097F0A3F0900099E0FEA3E0F7
:10BADD00FF7B017A00799712C86990009BE0C394AF
:10BAED0064501EE4900097F0A3F090009AE02400BB
:10BAFD00FF900099E03404FE7B017A00799712C81B
:0ABB0D0069900096E004F002BA60AF
:01BB1700220B
:10BE9B0012EE7AEF6401600302BF359007E2E0C354
:10BEAB009403400302BF49E004F0E0C39403500342
:10BEBB0002BF4990070CE0645A600302BF49900728
:10BECB00E3E06401607812D9E375CEA575CF5A0013
:10BEDB0075CEA575CF5A0012B25C75CEA575CF5A2B
:10BEEB000075CEA575CF5A0012D5FB75CEA575CFB3
:10BEFB005A0075CEA575CF5A0012A06E12E4E775E5
:10BF0B00CEA575CF5A0075CEA575CF5A00129BFBE7
:10BF1B0075CEA575CF5A0075CEA575CF5A007FA8E3
:10BF2B001203AE9007E37401F0229007E2E0D39482
:0FBF3B00004003E014F09007E2E07002A3F02250
:10DFA60012EF2BEF640170269007E0E0C394035054
:10DFB60043E004F0E0C39403403AA3E06401603414
:10DFC6007D017F0912B9959007E17401F02290074F
:10DFD600E0E0D3940040069007E2E014F09007E0FA
:10DFE600E07011A3E0B4010C7DFF7F0912B995E43E
:05DFF6009007E1F0229C
:10EF9C007B017A0779DF90017DE4F0A37405F0E43E
:04EFAC00FD02EB5F18
:01004A002293
:10EEFB00E4FFE5A120E0050FEFB41EF6EFC3941974
:07EF0B0050037F01227F008B
:01EF120022DC
:10E05000900705E5A1F0E59560047F0180027F004F
:10E06000E59460047E0180027E00EE4F60117590A1
:10E0700096759757E4F594F59575909675975600B3
:10E08000758F019004027486F0E4F58F75A001FF8E
:10E09000FE7D32FC12AE0412DF4F12EDB502E6DA5D
:107665007B017A00790A9001D8E4F0A37403F0A3B2
:1076750014F07DBA7C0012CBF190000AE0B4650BE2
:10768500A3E0B43406A3E06412602D9004B1740144
:10769500F012D05490007F7402F0E4FBFD7C10FFE3
:1076A5007E0812C53F7FA512BA5875CEA575CF5A6B
:1076B5000075CEA575CF5A00900706E070111270BF
:1076C500E075CEA575CF5A0075CEA575CF5A0012B7
:1076D500D66F12EF9C75CEA575CF5A0075CEA575E0
:1076E500CF5A007B017A0579B89001D8E4F0A374EC
:1076F5003AF0A37402F07DD87C0012CBF112F08E23
:1077050012F08B12D90B75CEA575CF5A0075CEA583
:1077150075CF5A0012E8001268FC12EBB312E95259
:1077250012EEC875CEA575CF5A0075CEA575CF5A80
:107735000012DE9975CEA575CF5A0075CEA575CF09
:107745005A009006E2E06430600302782475CEA505
:1077550075CF5A0075CEA575CF5A00900000F07B05
:10776500017A0079029001D8F0A37405F0A37402A0
:10777500F07D6C7C0C12CBF17B017A0079089001CD
:10778500D8E4F0A37402F0A3F07D6F7C0012CBF176
:10779500900008E0FB900004E0C39B5008900000B7
:1077A5007401F08005E4900000F09006E5E0FE909D
:1077B5000000E02EFD900003E0FCC3ED9C9000006E
:1077C500F0EEC39B5005E014F08005900000E0F05A
:1077D500900000E0D3940640037406F0900000E0AA
:1077E500D39400403AE4A3F0900000E0FFA3E0C387
:1077F5009F501BE4FF1283CB75CEA575CF5A00753C
:10780500CEA575CF5A00900001E004F080DA75CE60
:10781500A575CF5A0075CEA575CF5A0012B25C0278
:02782500E988F0
:10E34700E4900000F0A3F075CEA575CF5A0075CE06
:10E35700A575CF5A0075CEA575CF5A0075CEA57590
:10E36700CF5A0012EBB31268FC12D83212EBDB1251
:10E37700DF4F7D027F0112E71543C90112DFFBE57D
:07E38700A130E00312EFD802
:01E38E00226C
:10D154007F007E007D327C0012AE0412CEBA12D85B
:10D16400327FFF12EC2A75CEA575CF5A0075CEA575
:10D1740075CF5A0012766512EFFEE4FF12D97712CA
:10D18400F035E4FF125AC11266C57B017A0679EEC6
:10D1940090017DE4F0A37405F0E4FD12EB5F9007C9
:10D1A4007F7404F090077BF07DFF7F0712B9957BB5
:10D1B400017A07797B90017DE4F0A3740CF0E4FD1F
:0AD1C40012EB5F43A50143A4012212
:10E9EE0012E05012EEFBEF70077F2C7E0112EEE26A
:10E9FE0012EEFBEF70089007067403F08005E490AA
:10EA0E000706F0900706E0B4030302E34712D15461
:01EA1E0022D5
:10E0EF0012EE94EF64014E70059006D504F0900681
:10E0FF00D5E0B4011EE4F0900628E0B40504E4F086
:10E10F008006900628E004F012B4DD900612740623
:10E11F00F0800C900612E0D394004003E014F090CE
:0DE12F000612E07007900628F012B4DD2201
:1089E40012EEFBEF6003028B4FD284C2AF125FA87A
:1089F4007B017A05792390017EE4F0A3743CF0A313
:108A04007402F0E4FFFE1299A49007067403F07B4D
:108A1400017A0679E390017EE4F0A37407F0A3746D
:108A240002F07FCF7E001299A490077F7404F07D3A
:108A3400017F0712B9959007827404F090077EF0C5
:108A44007DFF7F0A12B9957B017A0779859001D859
:108A5400E4F0A304F0A304F07D217C0112CBF11215
:108A6400BFF912EBDB12DF4F9028C8E4F09028AD79
:108A7400E04410F012EDB512E6DA12EBB3E490061E
:108A840012F09004B1F075CEA575CF5A0075CEA53D
:108A940075CF5A00E4FD7F0112E71543C90112F0B6
:108AA4003512DFFB75CEA575CF5A0075CEA575CFEF
:108AB4005A007F007E007D327C0012AE047B017A76
:108AC40000790012DD809001E17401F0A37400F0DC
:108AD400A37400F0A3E4F0A37407F07B017A067991
:108AE400E312DDDFE5A130E05912CEBA12EDB51282
:108AF400E91B7B017A047965900190E4F0A3741E6C
:108B0400F0A37402F07FCF7E0112C8747B017A0453
:108B14007984900190E4F0A3742DF0A37402F07FA3
:108B2400ED7E0112C8747B017A0479B3900190E45C
:108B3400F0A37432F0A37402F07F1AFE12C8741208
:0B8B4400EFD8126EFF12E0EF028A8AE9
:018B4F002203
:10EFD80075CEA575CF5A0075CEA575CF5A0000001D
:03EFE8000080FBAB
:03000300020046B2
:040046005388FD32AC
:03000B0002DEF51D
:10DEF500C0E0C083C082C0D0758A65758C66900706
:10DF050003E04401F09005A9E0600E9005ABE00444
:10DF1500F070069005AAE004F09005AEE0B4011B90
:10DF2500D39005ADE094009005ACE09400400CA3BF
:10DF3500E024FFF09005ACE034FFF090071AE00410
:0ADF4500F0D0D0D082D083D0E032BB
:0300130002004E9A
:04004E005388F732AA
:03001B0002F0836D
:04F0830053887F32FD
:03002B0002F08759
:04F0870053C87F32B9
:03003B0002EF438E
:10EF4300C0E0E5C030E00553C0FE8008E5C030E115
:07EF53000353C0FDD0E032C2
:0300430002939F86
:0D939F00C0E0C0F0C083C082C0D075D01007
:1093AC00902840E0FF902843E05F900237F0E020E7
:1093BC00E203029442902840E054FBF0902836E0FF
:1093CC0054FDF0900238E0D394004057A3E0FC2405
:1093DC003CF582E43402F583E0900236F0900339D8
:1093EC00E0B40716900236E0FE547FFD30D006EE56
:1093FC004480F08005900236EDF0900236E0902823
:10940C0037F09005AAE4F0A3F0743C2CF582E43418
:10941C0002F583E4F0900239E004F0900238E01495
:10942C00F08013900239E4F09003367404F012E4E7
:10943C0061E4FF12C357900237E0FF30E3509028ED
:10944C0040E054F7F0902836E054FEF0A3E0900290
:10945C0036F0E0547FFE900239E0243CF582E4348F
:10946C0002F583EEF09005AAE4F0A3F0900239E047
:10947C0004F0E0FED3940440020000EE75F0FA8490
:10948C00AEF0900239EEF0D3941540020000EF30AC
:10949C00E407902840E054EFF0900237E030E50705
:1094AC00902840E054DFF0900237E0FF30E6079060
:1094BC002840E054BFF0EF30E70D902840E0547F97
:0A94CC00F0900562E004F05391EF08
:0B94D600D0D0D082D083D0F0D0E032A4
:03004B0002DBEFE6
:0BDBEF00C0E0C083C082C0D075D01021
:10DBFA00902848E0FF90284BE05FFD30E40790282A
:10DC0A0048E054EFF0AF15ED30E507902848E054AE
:10DC1A00DFF0AF15ED30E614902848E054BFF090DD
:10DC2A000703E04402F09005F27401F0AF15ED30FD
:10DC3A00E70D902848E0547FF0900561E004F05326
:02DC4A0091DF68
:09DC4C00D0D0D082D083D0E032A8
:0300530002EADCE2
:0BEADC00C0E0C083C082C0D075D01025
:10EAE700902850E0FF902853E05FFF30E30790281D
:08EAF70050E054F7F05391BF09
:09EAFF00D0D0D082D083D0E032E7
:1094E1004106D5004106D3004106D2004106D10113
:0C94F1004106D6004106D4004106D70019
:10CA22007B017A00790D12DD807B017A00790D128B
:10CA3200A95FEF70647B017A00790D9001D8F0A3B1
:10CA42007407F0A37402F07DCF7C0012CBF17B015E
:10CA52007A00790D12A95FEF703690000D7403F021
:10CA6200A37416F0A37404F0A37420F0A37412F05C
:10CA7200A37430F0A3F07B017A00790D90017EE47B
:10CA8200F0A37407F0A37402F07FCF7E001299A482
:10CA92007B017A00790D12DA4D9001E17401F0A365
:10CAA2007400F0A3740DF0A3E4F0A37407F07B010B
:07CAB2007A0679E302DDDFE3
:03F08B0002CA2294
:10DB1F0012EE94EF64014E700F9006D3E0700990EF
:10DB2F0006D504F09006D3F012EE94EF4E700490E9
:10DB3F0006D3F012EF13EF64014E700D9006D1E093
:10DB4F007007A304F09006D1F012EF13EF4E70049C
:10DB5F009006D1F012EEAEEF64014E700F9006D426
:10DB6F00E070099006D604F09006D4F012EEAEEFF6
:08DB7F004E70049006D4F02260
:10EC9F00E4900000F0900000E0FFC39401501312C5
:10ECAF00AFC9900000E0FF12A17E900000E004F0D9
:05ECBF0080E302DB1FF1
:109E480012CA2275CEA575CF5A0075CEA575CF5A00
:109E5800009007F3E0D394004006E014F012EBB34F
:109E68009007F3E0703F128E2275CEA575CF5A0089
:109E780075CEA575CF5A00125FA875CEA575CF5AB5
:109E88000075CEA575CF5A0012EA8112D58775CE16
:109E9800A575CF5A0075CEA575CF5A0012BE9B1274
:109EA800F09F12E9529006D7E0700812B33312B44B
:109EB800DD80069006D7E014F012A5879006E9E049
:109EC80070621266C575CEA575CF5A0075CEA57598
:109ED800CF5A0012646F75CEA575CF5A0075CEA5FE
:109EE80075CF5A00126EFF12D0549006E2E0B430DB
:109EF8001175CEA575CF5A0075CEA575CF5A00122B
:109F0800C8EE75CEA575CF5A0075CEA575CF5A0087
:109F180012CC7A75CEA575CF5A0075CEA575CF5AD5
:109F28000012DE999006E9E0B4251112F09D75CE75
:109F3800A575CF5A0075CEA575CF5A009006E9E0F1
:109F4800B4311112EEC875CEA575CF5A0075CEA5DD
:059F580075CF5A002244
:01005200228B
:0AF04B00E49006E1F09006E0F022E8
:0BBC8800E0FCA3E0A3FDE0900232F01E
:10BC930090022DEBF0A3EAF0A3E9F0A3ECF0A3EDFF
:01BCA300F0B0
:10BCA400E4900235F090023374A0F0A304F012E69D
:10BCB400DA900235E004F0E0D3940A40037F0022D6
:10BCC40012E91B900233E0FF12C7B6BF01E09002F5
:10BCD40030E0FF12C7B6EF640160037F00229002D8
:10BCE40030A3E0FF12C7B6EF640160037F002212A5
:10BCF400E91B900234E0FF12C7B6EF640160037FD2
:10BD04000022900232E0FF14F0EF6026E07003FF9F
:10BD140080027F0112CD9F90022DE0FBA3E0FAA3E5
:10BD2400E0F9EF1218BA90022EE475F00112198BA3
:07BD340080D012E6DA7F0166
:01BD3B0022E5
:10C201009001E2EEF0A3EFF0A3EBF0A3EAF0A3E9D3
:01C21100F03C
:10C21200E49001EAF09001E874A0F0A304F00012A7
:10C22200E6DA9001EAE004F0E0D3940A40037F00EA
:10C232002212E91B9001E8E0FF12C7B6BF01E090AD
:10C2420001E2E0FF12C7B6EF640160037F002290B3
:10C2520001E2A3E0FF12C7B6EF640160037F002290
:10C262009001E4E0FBA3E0FAA3E0F9121852FF12F6
:10C27200C7B6EF64016004007F00229001E5E47517
:10C28200F00112198B9001E3E004F070069001E2D4
:10C29200E004F09001E7E014F0E070C412E6DA7F07
:09C2A200057E0012EEE2007F01AE
:01C2AB002270
:10D0D9009001E6EBF0A3EAF0A3E9F0A3ECF0A3EDED
:01D0E900F056
:10D0EA00A3E0FFD394004006EFD3944040037F00AF
:10D0FA0022E490022CF07B017A0179EC9001E9128A
:10D10A00BC889001E6E0FBA3E0FAA3E0F9A312BC15
:10D11A00889002307401F0A37401F0A374ECF090CB
:10D12A0001EBE0900233F09001E6E0FBA3E0FAA302
:10D13A00E0F912D1CEEF70037F012290022CE004B5
:09D14A00F0E0C3940340AF7F0044
:01D1530022B9
:10CE2D0090019BEEF0A3EFF0A3EBF0A3EAF0A3E9E2
:01CE3D00F004
:10CE3E00A3E0FFD394004006EFD39440400312EFDB
:10CE4E00D8E49001E1F090019BE0FEA3E0FFA3E0A7
:10CE5E00FBA3E0FAA3E0F9A3E09001E7F012C20110
:10CE6E007B017A0179A190019BE0FCA3E09001A0E7
:10CE7E0012BC8D9002307401F0A37401F0A374A162
:10CE8E00F09001A0E0900233F090019DE0FBA3E052
:10CE9E00FAA3E0F912D1CEEF70037F01229001E1E7
:0BCEAE00E004F0E0C39403409D7F000F
:01CEB9002256
:10C3FF009001DEEBF0A3EAF0A3E9F0A3ECF0A3EDDC
:01C40F00F03C
:10C410009001E3E0FEA3E0FFD39400EE9400407CA3
:10C420009001E1A3E0543FFD600974409D9001E557
:10C43000F080069001E57440F09001E5E0FDC3EF67
:10C440009DEE940050079001E3A3E0A3F09001DE7D
:10C45000E0FBA3E0FAA3E0F9A3E0FCA3E0FD900178
:10C46000E5E09001EBF012D0D9EF7002FF229001CD
:10C47000E5E0FFFD7C009001DFEC8DF012198B9060
:10C4800001E2E02DF09001E1E03CF0C39001E4E036
:0EC490009FF09001E3E09400F002C4107F01E1
:01C49E00227B
:10C71900900193EEF0A3EFF0A3EBF0A3EAF0A3E905
:01C72900F01F
:10C72A00900198E0FCA3E0FDD39400EC94004079DA
:10C73A00900193E0FEA3E0FF543FFB600974409B25
:10C74A0090019AF0800690019A7440F090019AE064
:10C75A00FBC3ED9BEC94005007900198A3E0A3F073
:10C76A00900195E0FBA3E0FAA3E0F990019AE0902A
:10C77A0001A0F012CE2DEF7002FF2290019AE0FF85
:10C78A00FD7C00900194E02DF0900193E03CF09044
:10C79A000196EC8DF012198BC3900199E09FF090ED
:0BC7AA000198E09400F002C72A7F0114
:01C7B5002261
:10EDB5009028ACE04402F0A3E04402F0A3E0440450
:0EEDC500F09028ACE054FBF0A3E054FBF022E9
:10E91B009028ACE04402F0A3E04402F0A3E04404EE
:10E92B00F0000000000000E054FDF09028ADE05432
:10E93B00FDF09028ACE054FDF000000000000090CA
:07E94B0028AEE054FBF022AE
:10E6DA009028AEE054FDF09028ADE054FDF090286B
:10E6EA00ACE054FDF00000000000009028AEE044C9
:10E6FA0004F00000000000009028ACE04402F0A3FF
:0BE70A00E04402F000000000000022CC
:10C7B600E4F508F5089028AEE054FBF0EF30E70EFC
:10C7C6009028ACE04402F0A3E04402F080159028E3
:10C7D600AEE054FDF09028ADE054FDF09028ACE0BA
:10C7E60054FDF0EF25E0FF9028AEE04404F0000091
:10C7F600000000000508E508B408BA9028AEE05429
:10C80600FBF09028ACE04402F0A3E04402F0750887
:10C8160020E4F5089028AFE020E1149028AEE0442B
:10C8260004F0000000000000E054FBF07F01220548
:10C8360008E508B420DE9028AEE04404F0000000CD
:0CC84600000000E054FBF012E6DA7F0076
:01C8520022C3
:10CD9F00E4F508F5099028ACE04402F0A3E0440262
:10CDAF00F0A3E054FBF0E4F508E50925E0F5099060
:10CDBF0028AEE04404F0000000000000A3E030E1E2
:10CDCF00034309019028AEE054FBF000000000007F
:10CDDF00000508E508B408D1EF60179028AEE054BD
:10CDEF00FDF09028ADE054FDF09028ACE054FDF03C
:10CDFF00800C9028ACE04402F0A3E04402F09028AD
:10CE0F00AEE04404F0000000000000E054FBF0909E
:0DCE1F0028ACE04402F0A3E04402F0AF09AB
:01CE2C0022E3
:01F09C002251
:10EFB000E5E820E10343E80290284BE020E704E085
:04EFC0004480F02277
:10EC03007F7D7E28129254EF54C7FF9000CC742866
:10EC1300F0A3747DF012C67B902843E0547FF090FC
:06EC230028AEE04408F0F9
:01EC290022C8
:06C5DD009007D9121BA714
:10C5E300E4FF90288474CCF0E4F0902885E0600A9E
:10C5F3000FEFD3940840F37F00229007D9A3A3A39E
:10C60300E0FF902880EFF09007D9E0FCA3E0FDA3C2
:10C61300E0FEA3E0FF7808121B35902881EFF0902D
:10C6230007D9E0FCA3E0FDA3E0FEA3E0FF7810122E
:10C633001B35902882EFF09007D9E0FCA3E0FDA31F
:10C64300E0FEA3E0FF7818121B35902883EFF090EB
:10C6530007DDE0FEA3E0F5828E83E4F0FF000FEF39
:10C66300B408FAE4FF902885E0600A0FEFD394083A
:07C6730040F37F00227F016C
:01C67A00229D
:06BF4A009007CB121BA7BB
:10BF5000E4FB90288474CCF0E4F0902885E0600A3B
:10BF60000BEBD3940840F37F00229007CBA3A3A34D
:10BF7000E0FF902880EFF09007CBE0FCA3E0FDA36A
:10BF8000E0FEA3E0FF7808121B35902881EFF090C7
:10BF900007CBE0FCA3E0FDA3E0FEA3E0FF781012D6
:10BFA0001B35902882EFF09007CBE0FCA3E0FDA3C7
:10BFB000E0FEA3E0FF7818121B35902883EFF0D243
:10BFC0008720870C9007D1E004F0E0D3941E40F165
:10BFD0009007CFE0FEA3E0F5828E83E4F0FB000B38
:10BFE000EBB408FAE4FB902885E0600A0BEBD394ED
:08BFF0000840F37F00227F01ED
:01BFF8002226
:06C67B009000C8121BA78D
:10C68100E4FF90288474CCF0E4F0902885E0600AFF
:10C691000FEFD3940840F37F00229000C8A3A3A317
:10C6A100E0FF902880EFF09000C8E0FCA3E0FDA33C
:10C6B100E0FEA3E0FF7808121B35902881EFF0908F
:10C6C10000C8E0FCA3E0FDA3E0FEA3E0FF781012A8
:10C6D1001B35902882EFF09000C8E0FCA3E0FDA399
:10C6E100E0FEA3E0FF7818121B35902883EFF0904D
:10C6F10000CCE0FEA3E0F5828E83E4F0FF000FEFB3
:10C70100B408FAE4FF902885E0600A0FEFD394089B
:07C7110040F37F00227F01CD
:01C7180022FE
:1092540090288474CCF0E4F0F508902885E0600B45
:109264000508E508D3940840F180248F828E83E0BA
:10927400F508E4F508000508E508B408F8E4F5087D
:10928400902885E0600F0508E508D3940840F1E4D0
:10929400FFFEFDFC22902880E0FFE4FCFDFE900030
:1092A400C8121BA7902881E0FFE4FCFDFE78081299
:1092B4001B489000CC121BA79000C8E0FCA3E0FD63
:1092C400A3E0FEA3E0FFA3E0F8A3E0F9A3E0FAA380
:1092D400E0FBEF2BFFEE3AFEED39FDEC38FC90009D
:1092E400C8121BA7902882E0FFE4FCFDFE9000CC8E
:1092F400121BA79000CCE0FCA3E0FDA3E0FEA3E0DA
:10930400FF7810121B489000CC121BA79000C8E0F5
:10931400FCA3E0FDA3E0FEA3E0FFA3E0F8A3E0F9D3
:10932400A3E0FAA3E0FBEF2BFFEE3AFEED39FDECF0
:1093340038FC9000C8121BA7902883E0FFE4FCFDD2
:10934400FE9000CC121BA79000CCE0FCA3E0FDA390
:10935400E0FEA3E0FF7818121B489000CC121BA774
:109364009000C8E0FCA3E0FDA3E0FEA3E0FFA3E0BF
:10937400F8A3E0F9A3E0FAA3E0FBEF2BFFEE3AFE3B
:10938400ED39FDEC38FC9000C8121BA79000C8E032
:0A939400FCA3E0FDA3E0FEA3E0FF50
:01939E0022AC
:10BB1800000000000000000000000000000000001D
:10BB2800000000000000000000000000000000000D
:10BB3800000000003D99E1FB3DE6D2F937341C9F37
:10BB4800392B0436392B0436000000000960000048
:10BB580027100461A83000927C000063B3ED3B70AD
:10BB6800B76B3B70B76B0105B810E80105C810E961
:10BB78000105BC287B0105CC287C0105C010ED011E
:10BB880005D010EE0105C410EB0105D410EC010539
:10BB9800D810EA00927C0010F500927C0010FB1D82
:10BBA8000004C30185300000000186000000000188
:10BBB80087811D2BA70125000000000183000000DC
:09BBC80000013200000000012C14
:0E94FD004405B0000000004405B4000000006B
:10E83A007B017A0579B89001D874A5F0A3745AF0CF
:10E84A007D387C0012EA509005F0EEF0A3EFF07BE1
:10E85A00017A0579B890017EE4F0A37438F0A374C4
:09E86A0002F07FD87E000299A49F
:10E5A9007B017A0579B89001D874A5F0A3745AF063
:10E5B9007D387C0012EA509005F0E06E7003A3E00C
:10E5C9006F601A7B017A0579B89001D8E4F0A374D9
:0DE5D9003AF0A37402F07DD87C0012CBF163
:01E5E6002212
:1066C5009000C3121BB30000000012E5A97B017AFC
:1066D5000079C79001D8E4F0A304F0A304F07DB9D4
:1066E5007C0012CBF19000C7E09000CCB43C26743E
:1066F50010F0A374F4F07F6B7E2A7D707C0012C6C7
:106705007B9000CC7410F0A374FAF07F6B7E2A7D29
:10671500707C0080247410F0A374F4F07F307EA8A0
:106725007D617C0412C67B9000CC7410F0A374FAD2
:10673500F07F307EA87D617C0412C67BE49000B7B3
:10674500F09000B7E0FF75F006A4249FF582E434CD
:10675500BBF583E493FD7401939000C1CDF0A3EDE7
:10676500F0EF75F006A4249BF582E434BBF58312A3
:106775001B879000BD121BA79000B3121BB300002E
:1067850000009000C1E0FEA3E0FF1292549000B318
:10679500121BA79000BDE0FCA3E0FDA3E0FEA3E073
:1067A500FF9000B3E0F8A3E0F9A3E0FAA3E0FBC390
:1067B500121B2460349000BDE0FCA3E0FDA3E0FEC5
:1067C500A3E0FF9000B3121BA79000B3E0FCA3E089
:1067D500FDA3E0FEA3E0FF9000C1E0FBA3E0900075
:1067E500CCCBF0A3EBF012C67B9000B7E004F0E051
:1067F500C394025003026746E49000B7F09000B7D7
:10680500E0FF75F005A42471F582E434BBF583E45B
:1068150093FD7401939000BBCDF0A3EDF0EF75F0FF
:1068250005A4246EF582E434BBF583E493F9740181
:1068350093FA7402939000B8C9F0A3EAF0A3E9F0C3
:106845009000B3121BB3000000009000BBE0FEA354
:10685500E0FF1292549000B3121BA79000BBE0FE1C
:10686500A3E0FF647B7003EE6428600AEF647C702C
:1068750003EE6428701B9000B8E0FBA3E0FAA3E0E8
:10688500F9121B5B9000B6E06F605CE4FCFDFE80D6
:10689500309000B8E0FBA3E0FAA3E0F9121B5B908F
:1068A50000B3E0F8A3E0F9A3E0FAA3E0FBC3121BF1
:1068B5002460349000B8E0FBA3E0FAA3E0F9121BD2
:1068C5005B9000B3121BA79000B3E0FCA3E0FDA30F
:1068D500E0FEA3E0FF9000BBE0FBA3E09000CCCB83
:1068E500F0A3EBF012C67B9000B7E004F0E0C39490
:0668F500095003026802D5
:0168FB00227A
:088B5000900744EFF0A3EDF0E3
:108B580075CEA575CF5A0075CEA575CF5A0090076A
:108B68004F121BB300000000E49005F2F090074A92
:108B7800F0900744E0FF90074AE0C39F4003028C4F
:108B88008F75CEA575CF5A0075CEA575CF5A0090B2
:108B980005F2E060FAE49005F2F075CEA575CF5ABB
:108BA8000075CEA575CF5A00900745E070097FD2B1
:108BB8007E10129254803AE4FB7D017F0B7E0112F5
:108BC8000000BF013478537C077D017B017A00796E
:108BD800007E007F0412182C7B017A0779537D04EC
:108BE80012C0A8900753E0FCA3E0FDA3E0FEA3E0B9
:108BF800FF900746121BA78007900704E04410F077
:108C0800E4FFFEFD7C80900746E0F8A3E0F9A3E0CE
:108C1800FAA3E0FBC3121B244024900746E0FCA300
:108C2800E0FDA3E0FEA3E0FF121AF3EF2401FFE446
:108C38003EFEE43DFDE43CFC900746121BA790076E
:108C480046E0FCA3E0FDA3E0FEA3E0FF90074B1283
:108C58001BA790074FE0FCA3E0FDA3E0FEA3E0FF05
:108C680090074BE0F8A3E0F9A3E0FAA3E0FBEF2BB1
:108C7800FFEE3AFEED39FDEC38FCA3121BA7900776
:108C88004AE004F0028B79900744E0FBE4FAF9F833
:108C980090074FE0FCA3E0FDA3E0FEA3E0FF121A5B
:108CA8006175CEA575CF5A0075CEA575CF5A00004F
:018CB8002299
:088CB900900757EFF0A3EDF066
:108CC10075CEA575CF5A0075CEA575CF5A00900700
:108CD10062121BB300000000E49005F2F090075D02
:108CE100F0900757E0FF90075DE0C39F4003028DBE
:108CF100F875CEA575CF5A0075CEA575CF5A0090DF
:108D010005F2E060FAE49005F2F075CEA575CF5A50
:108D11000075CEA575CF5A00900758E070097FD431
:108D21007E10129254803AE4FB7D017F0E7E011287
:108D31000000BF013478667C077D017B017A0079F0
:108D4100007E007F0412182C7B017A0779667D046E
:108D510012C0A8900766E0FCA3E0FDA3E0FEA3E03B
:108D6100FF900759121BA78007900704E04410F0F9
:108D7100E4FFFEFD7C80900759E0F8A3E0F9A3E051
:108D8100FAA3E0FBC3121B244024900759E0FCA383
:108D9100E0FDA3E0FEA3E0FF121AF3EF2401FFE4DC
:108DA1003EFEE43DFDE43CFC900759121BA79007F1
:108DB10059E0FCA3E0FDA3E0FEA3E0FF90075E12F3
:108DC1001BA7900762E0FCA3E0FDA3E0FEA3E0FF88
:108DD10090075EE0F8A3E0F9A3E0FAA3E0FBEF2B34
:108DE100FFEE3AFEED39FDEC38FCA3121BA790070C
:108DF1005DE004F0028CE2900757E0FBE4FAF9F839
:108E0100900762E0FCA3E0FDA3E0FEA3E0FF121ADD
:108E11006175CEA575CF5A0075CEA575CF5A0000E4
:018E2100222E
:10A77B009000B3E0FCA3E0FDA3E0FEA3E0FF90009C
:10A78B00CB121BA79000BBE0FCA3E0FDA3E0FEA354
:02A79B00E0FFDD
:10A79D00E412161C9000CF121BA79000CBE0FCA377
:10A7AD00E0FDA3E0FEA3E0FFE412161C9000D3121F
:10A7BD001BA79000CBE0FCA3E0FDA3E0FEA3E0FF10
:10A7CD00E412161CA804A905AA06AB079000CFE059
:10A7DD00FCA3E0FDA3E0FEA3E0FF1213149000D351
:10A7ED00E0F8A3E0F9A3E0FAA3E0FB121512900044
:10A7FD00D7121BA7E4FFFE7D807C3F9000D7E0F8C9
:10A80D00A3E0F9A3E0FAA3E0FB121318A804A9052D
:10A81D00AA06AB07E4FFFE7D807C3F121512900067
:10A82D00DB121BA7E4FFFE7D807CBF9000DBE0F810
:10A83D00A3E0F9A3E0FAA3E0FB1213189000DF12D6
:10A84D001BA7E4FFFEFD7C4F9000DFE0F8A3E0F9CD
:0FA85D00A3E0FAA3E0FB12140912AB3F12165A44
:01A86C0022C9
:06A285009000C8121BA7A7
:10A28B00E49000D2F07F32FEFDFC9000CCE0F8A30E
:10A29B00E0F9A3E0FAA3E0FBC3121B2450037F00F9
:10A2AB00229000C8E0FCA3E0FDA3E0FEA3E0FFA327
:10A2BB00E0F8A3E0F9A3E0FAA3E0FBD3121B2440E0
:10A2CB004D9000C8E0F8A3E0F9A3E0FAA3E0FBA3EC
:10A2DB00E0FCA3E0FDA3E0FEA3E09BFFEE9AFEED06
:10A2EB0099FDEC98FCE47BE87A03F9F81219D69007
:10A2FB0000CCE0F8A3E0F9A3E0FAA3E0FB121A61AB
:10A30B009000D0EEF0A3EFF0A37401F0804A900020
:10A31B00CCE0F8A3E0F9A3E0FAA3E0FB9000C8E0DF
:10A32B00FCA3E0FDA3E0FEA3E0C39BFFEE9AFEEDD2
:10A33B0099FDEC98FCE47BE87A03F9F81219D690B6
:10A34B0000CCE0F8A3E0F9A3E0FAA3E0FB121A615A
:10A35B009000D0EEF0A3EFF09000D0E0FEA3E0FF72
:10A36B007C0B7DC3121CC6E47BD07A07F9F8121A5A
:0CA37B00619000D2E0B40104EF4480FFC8
:01A3870022B3
:069F5D009007B0121BA7E3
:109F630075CEA575CF5A0075CEA575CF5A0090074B
:109F7300B4E07040A3121BB3000000009007B5E0EB
:109F8300FCA3E0FDA3E0FEA3E0FF9000CC7410F07F
:109F9300A374E9F012C67B9007B5E0FCA3E0FDA330
:109FA300E0FEA3E0FF9000CC7410F0A374EEF01277
:109FB300C67B80469007B5121BB3000000009007D4
:109FC300B5E0FCA3E0FDA3E0FEA3E0FF9000007476
:109FD30001F0A3742EF0E4A3F01200009007B5E0A3
:109FE300FCA3E0FDA3E0FEA3E0FF9000007401F0FA
:109FF300A3742FF0E4A3F01200009007B4E0FD7FF8
:10A0030002128B50C004C005C006C0079007B0E021
:10A01300FCA3E0FDA3E0FEA3E0FF9000CB121BA78F
:10A02300D007D006D005D00412A79D9007B5121B08
:10A03300A775CEA575CF5A0075CEA575CF5A0090DA
:10A0430007B4E07011A3E0FCA3E0FDA3E0FEA3E0EE
:10A05300FF9005C880119007B5E0FCA3E0FDA3E0E5
:0AA06300FEA3E0FF9005B8121BA752
:01A06D0022D0
:06B409009007B9121BA719
:10B40F00C20575CEA575CF5A0075CEA575CF5A005A
:10B41F009007BE121BB3000000009007BDE0701B29
:10B42F00A3E0FCA3E0FDA3E0FEA3E0FF9000CC743B
:10B43F0010F0A374EEF012C67B801E9007BEE0FCE6
:10B44F00A3E0FDA3E0FEA3E0FF9000007401F0A3D2
:10B45F00742FF0E4A3F01200009007BDE0FD7F030E
:10B46F00128B50C004C005C006C0079007B9E0FC9E
:10B47F00A3E0FDA3E0FEA3E0FF9000CC121BA7D03A
:10B48F0007D006D005D00412A285E4FCFDFE90077C
:10B49F00BE121BA775CEA575CF5A0075CEA575CF59
:10B4AF005A009007BDE07011A3E0FCA3E0FDA3E0FC
:10B4BF00FEA3E0FF9005D080119007BEE0FCA3E053
:0DB4CF00FDA3E0FEA3E0FF9005C0121BA747
:01B4DC00224D
:067490009007C2121BA7C9
:1074960075CEA575CF5A0075CEA575CF5A00900743
:1074A600C7121BB3000000009007C6E0701BA3E0E4
:1074B600FCA3E0FDA3E0FEA3E0FF9000CC7428F05F
:1074C600A3747CF012C67B80169000007401F0A3B2
:1074D6007484F0E4A3F07FA9FE7D0BFC1200007516
:1074E600CEA575CF5A0075CEA575CF5A00E4900586
:1074F600F2F09005F2E060FAE49005F2F09007C62B
:10750600E0FD7F02128B50C004C005C006C0079084
:1075160007C2E0FCA3E0FDA3E0FEA3E0FF9000CCE1
:10752600121BA7D007D006D005D00412A285E4FC12
:10753600FDFE9007C7121BA775CEA575CF5A00751D
:10754600CEA575CF5A009007C6E0700FA3E0FCA346
:10755600E0FDA3E0FEA3E0FF02765E9007C7A3A3CB
:10756600A3E05480FFEF9007C76066E0FCA3E0FD50
:10757600A3E0FEA3E0547FFFEC9007C7121BA79081
:1075860007C7E0FCA3E0FDA3E0FEA3E0FFE41216BC
:107596001C7BCD7ACC798C783F12140912165A903E
:1075A60007C7121BA79007C7E0FCA3E0FDA3E0FEF8
:1075B600A3E0FF7808121B489007C7121BA7900785
:1075C600C7E0FCA3E0FDA3E0FEA3E0FFED440480DA
:1075D6004DE0FCA3E0FDA3E0FEA3E0FFE412161CD1
:1075E6007BCD7ACC798C783F12140912165A900703
:1075F600C7121BA79007C7E0FCA3E0FDA3E0FEA30C
:10760600E0FF7808121B489007C7121BA79007C710
:10761600E0FCA3E0FDA3E0FEA3E0FFED54FBFDECE0
:107626009007C7121BA79005CC121BB3000B00A92D
:107636009005CCE0FCA3E0FDA3E0FEA3E0FF9007ED
:10764600C7E0F8A3E0F9A3E0FAA3E0FBEF4BFFEEF7
:0E7656004AFEED49FDEC48FC9005CC121BA746
:017664002203
:10822E00900008EEF0A3EFF0E024E8FF900008E0E5
:10823E003403AB07FA3395E0F9F8E4FFFEFD7C80DA
:10824E00121A6190000E121BA7900009E024E8FF9D
:10825E00900008E03403AB07FA3395E0F9F8E4FF39
:10826E00FEFD7C80121A61AF0390000AEAF0A3EFC4
:10827E00F090000AE0FEA3E0FF7C037DE81218EE0A
:10828E00900008E0FAA3E0FB24E8FDEA3403FC12B8
:10829E001900A3EEF0A3EFF0AF03AE02EE3395E0BC
:1082AE00FDFC90000EE0F8A3E0F9A3E0FAA3E0FBDA
:1082BE001219D6C004A905AA06AB0790000AE0FC65
:1082CE00A3E0FD900008E0FEA3E0FF1218EE7C0391
:1082DE007DE8121900E4FCFDD000EB2FFFEA3EFE14
:1082EE00ED39FDEC38FC900012121BA7900009E04E
:1082FE0024E8FF900008E03403AB07FA3395E0F969
:10830E00F8900004E0FCA3E0FDA3E0FEA3E0FF1262
:10831E00E41D900016121BA7900009E024E8FF90C0
:10832E000008E03403AB07FA3395E0F9F890000447
:10833E00E0FCA3E0FDA3E0FEA3E0FF12E41DAE020D
:10834E00AF0390000CEEF0A3EFF07C037DE8121863
:10835E00EE900009E024E8FD900008E03403FC12E2
:10836E00190090000CEEF0A3EFF0E47FE87E03FD21
:10837E00FC900016E0F8A3E0F9A3E0FAA3E0FB12EC
:10838E0019D6A804A905AA06AB0790000CE0FEA317
:10839E00E0FFE4FCFDEB2FFFEA3EFEED39FDEC388D
:1083AE00FC900012E0F8A3E0F9A3E0FAA3E0FBC30F
:0C83BE00EF9BFFEE9AFEED99FDEC98FCA1
:0183CA002290
:10A587007FFD7E10129254A804A905AA06AB07E422
:10A59700FFFE7D7DFC121A61900000EEF0A3EFF044
:10A5A700E4FCFD9005B0E0F8A3E0F9A3E0FAA3E02E
:10A5B700FBC3121B24700302A683900000E0FAA3DA
:10A5C700E0FBFFAE02E4FCFD9005B0121BA7D3EB46
:10A5D70094F4EA9401400F900001E0240CFF9000EE
:10A5E70000E034FE801F900000E0FEA3E0FFC3946C
:10A5F700F4EE94015057C374F49FFF74019EFEC399
:10A60700E49FFFE49EFEEF25E0FFEE33FEC006C0A9
:10A61700079005B8E0FCA3E0FDA3E0FEA3E0FF90F0
:10A627000004121BA7D007D00612822E9005C8126D
:10A637001BA79005C8E0FCA3E0FDA3E0FEA3E0FF95
:10A647009000CC7410F0A374E9F002C67B9005B8B3
:10A65700E0FCA3E0FDA3E0FEA3E0FF9000CC7410B4
:10A66700F0A374E9F012C67B9005B8E0FCA3E0FD07
:0CA67700A3E0FEA3E0FF9005C8121BA7A3
:01A6830022B4
:102DF20090063B121BB30000000020AF030235CE49
:102E02009005F37455F090BB62121B8790063F1237
:102E12001BA7E47F19FEFDFC90063FE0F8A3E0F952
:102E2200A3E0FAA3E0FB1219D6E47B0AFAF9F8123E
:102E32001A61900645121BA7E47F46FEFDFC900630
:102E42003FE0F8A3E0F9A3E0FAA3E0FB1219D6E40D
:102E52007B64FAF9F8121A61900649121BA7E47F03
:102E620023FEFDFC90063FE0F8A3E0F9A3E0FAA3FD
:102E7200E0FB1219D6E47B64FAF9F8121A619006A3
:102E82004D121BA7E47F03FEFDFC90063FE0F8A372
:102E9200E0F9A3E0FAA3E0FB1219D6E47B64FAF9A5
:102EA200F8121A61900651121BA775CEA575CF5A5A
:102EB2000075CEA575CF5A00E4FD7F04128B5090A9
:102EC2000655121BA7900645E0FCA3E0FDA3E0FE19
:102ED200A3E0FF900655E0F8A3E0F9A3E0FAA3E02F
:102EE200FBD3121B244008E4900643F0022F70909B
:102EF2000649E0FCA3E0FDA3E0FEA3E0FF90065537
:102F0200E0F8A3E0F9A3E0FAA3E0FBD3121B24400C
:102F1200089006437401F0805590064DE0FCA3E052
:102F2200FDA3E0FEA3E0FF900655E0F8A3E0F9A3BD
:102F3200E0FAA3E0FBD3121B24400890064374027C
:102F4200F0802B900651E0FCA3E0FDA3E0FEA3E09D
:102F5200FFA3E0F8A3E0F9A3E0FAA3E0FBD3121B7E
:102F62002490064340057403F080037408F0900631
:102F720043E070199005C8121BB3000000009005D1
:102F8200CC121BB3000000007FA01203AE900643D8
:102F9200E0640160030231BB90063FE0FCA3E0FD68
:102FA200A3E0FEA3E0FFE49007B4F0129F5D900659
:102FB20037121BB300000000E4900632F07F1E7E41
:102FC2000012EEE27FD57E10129254900633121B4D
:102FD200A7E4FFFEFD7C80900633E0F8A3E0F9A3AE
:102FE200E0FAA3E0FBC3121B244024900633E0FC6A
:102FF200A3E0FDA3E0FEA3E0FF121AF3EF2401FF1A
:10300200E43EFEE43DFDE43CFC900633121BA79037
:103012000637E0FCA3E0FDA3E0FEA3E0FF90063349
:10302200E0F8A3E0F9A3E0FAA3E0FBEF2BFFEE3A0E
:10303200FEED39FDEC38FCA3121BA775CEA575CFAA
:103042005A0075CEA575CF5A00900632E004F0E022
:10305200C394085003022FBF900637E0FCA3E0FDA3
:10306200A3E0FEA3E0FFE47B08FAF9F8121A6190EC
:103072000637121BA7900637E0FCA3E0FDA3E0FE93
:10308200A3E0FFE412161CC004C005C006C00790EE
:10309200BB56121B87E412161CD003D002D001D0FB
:1030A200001215129005EC121BA7900637121BB3E3
:1030B20000000000E4900632F07F1E7E0012EEE275
:1030C2007FD37E10129254900633121BA7E4FFFEA8
:1030D200FD7C80900633E0F8A3E0F9A3E0FAA3E0D8
:1030E200FBC3121B244024900633E0FCA3E0FDA3A3
:1030F200E0FEA3E0FF121AF3EF2401FFE43EFEE438
:103102003DFDE43CFC900633121BA7900637E0FC21
:10311200A3E0FDA3E0FEA3E0FF900633E0F8A3E006
:10312200F9A3E0FAA3E0FBEF2BFFEE3AFEED39FD47
:10313200EC38FCA3121BA775CEA575CF5A0075CE2D
:10314200A575CF5A00900632E004F0E0C39408500F
:10315200030230BB900637E0FCA3E0FDA3E0FEA330
:10316200E0FFE47B08FAF9F8121A61900637121BA5
:10317200A7900637E0FCA3E0FDA3E0FEA3E0FFE496
:1031820012161CC004C005C006C00790BB52121B19
:1031920087E412161CD003D002D001D000121512FF
:1031A2009005E4121BA77FA11203AE75CEA575CFC1
:1031B2005A0075CEA575CF5A00900643E0B4023886
:1031C20090063FE0FCA3E0FDA3E0FEA3E0FFE47B6A
:1031D20002FAF9F8121A6190063F121BA790063FF5
:1031E200E0FCA3E0FDA3E0FEA3E0FFE49007C6F04D
:1031F2001274907FA21203AE900643E0B40338909B
:10320200063FE0FCA3E0FDA3E0FEA3E0FFE47B14A5
:10321200FAF9F8121A6190063F121BA790063FE0D6
:10322200FCA3E0FDA3E0FEA3E0FFE49007BDF012E3
:10323200B4097FA31203AE900644E0B404199005CA
:10324200C8121BB3000000009005CC121BB3000B88
:1032520000A97FA41203AE900644E0640560030255
:1032620034DB9007B404F07FED7EB37D637C001203
:103272009F5D900637121BB300000000E4900632F7
:10328200F0E4FB7D017F0E7E01120000BF01347865
:103292005D7C067D017B017A0079007E007F04124D
:1032A200182C7B017A06795D7D0412C0A890065D18
:1032B200E0FCA3E0FDA3E0FEA3E0FF900633121BB7
:1032C200A78007900704E04410F0E4FFFEFD7C8035
:1032D200900633E0F8A3E0F9A3E0FAA3E0FBC312FF
:1032E2001B244024900633E0FCA3E0FDA3E0FEA3F0
:1032F200E0FF121AF3EF2401FFE43EFEE43DFDE499
:103302003CFC900633121BA7900637E0FCA3E0FDBD
:10331200A3E0FEA3E0FF900633E0F8A3E0F9A3E008
:10332200FAA3E0FBEF2BFFEE3AFEED39FDEC38FCA1
:10333200A3121BA775CEA575CF5A0075CEA575CF62
:103342005A00900632E004F0E0C3940850030232BF
:1033520083900637E0FCA3E0FDA3E0FEA3E0FFE4D8
:103362007B08FAF9F8121A61900637121BA7900629
:1033720037E0FCA3E0FDA3E0FEA3E0FFE412161C8D
:10338200C004C005C006C00790BB56121B87E412DA
:10339200161CD003D002D001D0001215129005ECF9
:1033A200121BA7900637121BB300000000E4900620
:1033B20032F0E4FB7D017F0D7E01120000BF01347B
:1033C200785D7C067D017B017A0079007E007F04B6
:1033D20012182C7B017A06795D7D0412C0A8900632
:1033E2005DE0FCA3E0FDA3E0FEA3E0FF9006331244
:1033F2001BA78007900704E04410F0E4FFFEFD7C69
:1034020080900633E0F8A3E0F9A3E0FAA3E0FBC35F
:10341200121B244024900633E0FCA3E0FDA3E0FE4F
:10342200A3E0FF121AF3EF2401FFE43EFEE43DFDA8
:10343200E43CFC900633121BA7900637E0FCA3E0A5
:10344200FDA3E0FEA3E0FF900633E0F8A3E0F9A3BA
:10345200E0FAA3E0FBEF2BFFEE3AFEED39FDEC388C
:10346200FCA3121BA775CEA575CF5A0075CEA57504
:10347200CF5A00900632E004F0E0C39408500302F1
:1034820033B4900637E0FCA3E0FDA3E0FEA3E0FF27
:10349200E47B08FAF9F8121A61900637121BA7901A
:1034A2000637E0FCA3E0FDA3E0FEA3E0FFE4121672
:1034B2001CC004C005C006C00790BB52121B87E4A3
:1034C20012161CD003D002D001D0001215129005A2
:1034D200E4121BA77FA51203AE900644E0B406399E
:1034E20090063FE0FCA3E0FDA3E0FEA3E0FFE47B47
:1034F20002FAF9F8121A6190063F121BA790063FD2
:10350200E0FCA3E0FDA3E0FEA3E0FF9007C6740188
:10351200F01274907FA61203AE900644E0B407390D
:1035220090063FE0FCA3E0FDA3E0FEA3E0FFE47B06
:1035320014FAF9F8121A6190063F121BA790063F7F
:10354200E0FCA3E0FDA3E0FEA3E0FF9007BD740151
:10355200F012B4097FA71203AE900644E06408702B
:1035620052900643E06408704A12D9E375CEA575FD
:10357200CF5A0075CEA575CF5A0075CEA575CF5A14
:103582000075CEA575CF5A0012A06E900566E07543
:10359200F00AA424AAF582E43405F583E4F0A3F04A
:1035A20075CEA575CF5A0075CEA575CF5A007FA8E6
:1035B2001203AE12E83A1266C575CEA575CF5A004F
:0C35C20075CEA575CF5A00E49005F3F01B
:0135CE0022DA
:0B556200900095EBF0A3EAF0A3E9F045
:10556D00E49000A4F0900095E0FBA3E0FAA3E0F92D
:10557D0090000D12186BFF12E7649000A5EFF090EC
:10558D000095E0FBA3E0FAA3E0F990000E12186B72
:10559D00FF12E764EFC454F0FEC006900095E0FBE7
:1055AD00A3E0FAA3E0F990000F12186BFF12E76465
:1055BD00D0E02F9000A6F0900095E0FBA3E0FAA3B9
:1055CD00E0F990001112186BFF12E764EFC454F06C
:1055DD00FEC006900095E0FBA3E0FAA3E0F9900071
:1055ED001212186BFF12E764D0E02F9000A7F07B2A
:1055FD00017A0079A412B67B900098121BA7E49053
:10560D0000A4F0900095E0FBA3E0FAA3E0F9900070
:10561D001312186BFF12E7649000A5EFF090009540
:10562D00E0FBA3E0FAA3E0F990001412186BFF124F
:10563D00E764EFC454F0FEC006900095E0FBA3E0D4
:10564D00FAA3E0F990001612186BFF12E764D0E090
:10565D002F9000A6F0900095E0FBA3E0FAA3E0F9EF
:10566D0090001712186BFF12E764EFC454F0FEC0E0
:10567D0006900095E0FBA3E0FAA3E0F99000181264
:10568D00186BFF12E764D0E02F9000A7F07B017A32
:10569D000079A412B67B90009C121BA7E49000A485
:1056AD00F0900095E0FBA3E0FAA3E0F99000191249
:1056BD00186BFF12E7649000A5EFF0900095E0FBEA
:1056CD00A3E0FAA3E0F990001A12186BFF12E76439
:1056DD00EFC454F0FEC006900095E0FBA3E0FAA3E2
:1056ED00E0F990001B12186BFF12E764D0E02F90C9
:1056FD0000A6F0900095E0FBA3E0FAA3E0F990007E
:10570D001C12186BFF12E764EFC454F0FEC0069034
:10571D000095E0FBA3E0FAA3E0F990001E12186BD0
:10572D00FF12E764D0E02F9000A7F07B017A00799B
:10573D00A412B67B9000A0121BA7900095E0FBA3CE
:10574D00E0FAA3E0241FF9E43AFA9001E1EBF0A3AB
:10575D00EAF0A3E9F0A3E4F0A37406F07B017A006C
:10576D0079A812DDDFE49000AEF07B017A0079A814
:10577D0012E2FE9000AF121BA7900579E0FCA3E0AA
:10578D00FDA3E0FEA3E0FF121C8C57BF0000FEB08E
:10579D0058050000FEB158180000FEB257BF0000BA
:1057AD00FEB358050000FEB458180000FEB5000009
:1057BD00583D9000AFE0FCA3E0FDA3E0FEA3E0FFA9
:1057CD0012B8D175CEA575CF5A0075CEA575CF5A25
:1057DD0000900098E0FCA3E0FDA3E0FEA3E0FF90A5
:1057ED0000B7121BA790009CE0FCA3E0FDA3E0FE18
:1057FD00A3E0FF125D3A80249000AFE0FCA3E0FD32
:10580D00A3E0FEA3E0FF129D2480119000AFE0FC09
:10581D00A3E0FDA3E0FEA3E0FF127D3E12E83A12E5
:10582D0066C575CEA575CF5A0075CEA575CF5A0034
:01583D002248
:06B8D1009000B3121BA75A
:10B8D70075CEA575CF5A0075CEA575CF5A00E4FF72
:10B8E700FEFDFC9000B3E0F8A3E0F9A3E0FAA3E0C3
:10B8F700FB1215AFE4FFFE7DC87C429000B3E0F871
:10B90700A3E0F9A3E0FAA3E0FB1213187B007A5037
:10B9170079C3784712140912165A9000B8121BA758
:10B92700E47FB07EFEFDFC900579E0F8A3E0F9A383
:10B93700E0FAA3E0FBC3121B2470527FE87E1012CB
:10B9470092549000BC121BA79000CB121BB3009817
:10B9570096809000B812A7929000BC121BA7900087
:10B96700BCE0FCA3E0FDA3E0FEA3E0FF9000CC74E5
:10B9770010F0A374E8F012C67B9000BCE0FCA3E0D3
:0DB98700FDA3E0FEA3E0FF9005B8121BA792
:01B994002290
:065D3A009000B3121BA74C
:105D4000E47FB07EFEFDFC900579E0F8A3E0F9A3C6
:105D5000E0FAA3E0FBC3121B246003025E597FD963
:105D60007E101292549000BB121BA79000BBE0FC67
:105D7000A3E0FDA3E0FEA3E0FFE412161C9005E8FB
:105D8000E0F8A3E0F9A3E0FAA3E0FB12140912166D
:105D90005A9000BB121BA77FEB7E1012925490000A
:105DA000BF121BA7E4FFFEFDFC9000BFE0F8A3E0DC
:105DB000F9A3E0FAA3E0FBC3121B24701D12A77B1A
:105DC0009000BF121BA79000BFE0FCA3E0FDA3E082
:105DD000FEA3E0FF9005C4121BA77FD87E1012928D
:105DE000549000BB121BA7E4FFFE7D207C41900570
:105DF000E4E0F8A3E0F9A3E0FAA3E0FB121409C081
:105E000004C005C006C0079000BBE0FCA3E0FDA3F2
:105E1000E0FEA3E0FFE412161CD003D002D001D0B4
:105E20000012140912165A9000BB121BA77FEA7EBB
:105E3000101292549000BF121BA7E4FFFEFDFC90CD
:105E400000BFE0F8A3E0F9A3E0FAA3E0FBC3121B54
:105E5000246003025FA7025F6CE47FB37EFEFDFC5B
:105E6000900579E0F8A3E0F9A3E0FAA3E0FBC31200
:105E70001B246003025FA77FDA7E10129254900009
:105E8000BB121BA79000BBE0FCA3E0FDA3E0FEA3B8
:105E9000E0FFE412161C9005ECE0F8A3E0F9A3E0A3
:105EA000FAA3E0FB12140912165A9000BB121BA7AA
:105EB0007FEC7E101292549000BF121BA7E4FFFEED
:105EC000FDFC9000BFE0F8A3E0F9A3E0FAA3E0FB3B
:105ED000C3121B24701D12A77B9000BF121BA7903A
:105EE00000BFE0FCA3E0FDA3E0FEA3E0FF9005D42B
:105EF000121BA77FD87E101292549000BB121BA7D2
:105F0000E4FFFE7D207C419005E4E0F8A3E0F9A3E6
:105F1000E0FAA3E0FB121409C004C005C006C007E4
:105F20009000BBE0FCA3E0FDA3E0FEA3E0FFE412D1
:105F3000161CD003D002D001D00012140912165A38
:105F40009000BB121BA77FEA7E101292549000BFF4
:105F5000121BA7E4FFFEFDFC9000BFE0F8A3E0F9F0
:105F6000A3E0FAA3E0FBC3121B24703B9000B7121E
:105F7000A77E9000BF121BA79000BFE0FCA3E0FD2E
:105F8000A3E0FEA3E0FF9005D8121BA79000BFE09E
:105F9000FCA3E0FDA3E0FEA3E0FF9000CC7410F0B2
:075FA000A374EAF012C67BB6
:015FA70022D7
:069D24009000B3121BA722
:109D2A00E4FFFEFDFC9000B3E0F8A3E0F9A3E0FA3B
:109D3A00A3E0FB1215AFE4FFFE7DC87C429000B39E
:109D4A00E0F8A3E0F9A3E0FAA3E0FB1213187B0002
:109D5A007A5079C3784712140912165A9000B7122A
:109D6A001BA79000CC121BB3009896809000B7E016
:109D7A00FCA3E0FDA3E0FEA3E0FF12A285E4FCFD44
:109D8A00FE9000BB121BA7E47FB17EFEFDFC90058E
:109D9A0079E0F8A3E0F9A3E0FAA3E0FBC3121B24DD
:109DAA00703F9000BBE0FCA3E0FDA3E0FEA3E0FF50
:109DBA009005BC121BA77B017A0079C09000BBE01A
:109DCA00FCA3E0FDA3E0FEA3E0FF12BBD19000C319
:109DDA00E0FFE4FCFDFE9000CC7428F0A3747B80C5
:109DEA0058E47FB47EFEFDFC900579E0F8A3E0F923
:109DFA00A3E0FAA3E0FBC3121B2470419000BBE06E
:109E0A00FCA3E0FDA3E0FEA3E0FF9005CC121BA794
:109E1A007B017A0079C49000BBE0FCA3E0FDA3E0DB
:109E2A00FEA3E0FF12BBD19000C7E0FFE4FCFDFEF9
:0D9E3A009000CC7428F0A3747CF012C67B5D
:019E470022F8
:067D3E009000B3121BA728
:107D4400E47FB27EFEFDFC900579E0F8A3E0F9A3A0
:107D5400E0FAA3E0FBC3121B246003027E147FD667
:107D64007E101292549000C0121BA79000C0E0FC39
:107D7400A3E0FDA3E0FEA3E0FFEC12161C9000B309
:107D8400E0F8A3E0F9A3E0FAA3E0FB121409E4FB92
:107D9400FA79C8784212151212165A9000BC121BB6
:107DA400A7E49000BBF0FFFEFDFCA3E0F8A3E0F91C
:107DB400A3E0FAA3E0FBD3121B0E9000BCE0FCA3EB
:107DC400E0FDA3E0FEA3E04003FF800F24FFFFEEED
:107DD40034FFFEED34FFFDEC34FFFC9000B7121BC2
:107DE400A79000B7E0FCA3E0FDA3E0FEA3E0FF90B2
:107DF40000CC7410F0A374EDF012C67B9000B7E0D1
:107E0400FCA3E0FDA3E0FEA3E0FF9005C0027EE139
:107E1400E47FB57EFEFDFC900579E0F8A3E0F9A3CC
:107E2400E0FAA3E0FBC3121B246003027EE47FD7C5
:107E34007E101292549000C0121BA79000C0E0FC68
:107E4400A3E0FDA3E0FEA3E0FFEC12161C9000B338
:107E5400E0F8A3E0F9A3E0FAA3E0FB121409E4FBC1
:107E6400FA79C8784212151212165A9000BC121BE5
:107E7400A7E49000BBF0FFFEFDFCA3E0F8A3E0F94B
:107E8400A3E0FAA3E0FBD3121B0E9000BCE0FCA31A
:107E9400E0FDA3E0FEA3E04003FF800F24FFFFEE1C
:107EA40034FFFEED34FFFDEC34FFFC9000B7121BF1
:107EB400A79000B7E0FCA3E0FDA3E0FEA3E0FF90E1
:107EC40000CC7410F0A374EEF012C67B9000B7E0FF
:107ED400FCA3E0FDA3E0FEA3E0FF9005D0121BA7E6
:017EE400227B
:03F08E0002E5A9EF
:105AC100900000EFF0BF030C9028637480F0A3E412
:105AD100F0D28422C2849000CC7428F0A3747DF0AB
:105AE1007F007E007D007C0012C67B9000CC742874
:105AF100F0A37478F07F007E007D007C0012C67BED
:105B01009028637480F0A3E4F0900000E07023FF1C
:105B1100FE7D32FC12BD3C902864E04407F0900009
:105B2100CC7410F0A374EFF07FBC7E747D937C88FD
:105B31008031900000E0FF64016004EFB402297F2E
:105B4100007E807D0C7C0012BD3C902864E0440303
:105B5100F09000CC7410F0A374EFF07F9C7E3C7D3C
:105B61001D7C9112C67B800312EFD890285874498E
:105B7100F09000CC7410F0A374F4F07F307EA87D17
:105B8100617C0412C67B9000CC7410F0A374FAF00F
:105B91007F107EC27DDE7C0612C67B9000CC741025
:105BA100F0A374F5F07F017E007D007C0012C67BBE
:105BB1009000CC7410F0A374FBF07F017E007D0097
:105BC1007C0012C67B9000CC7428F0A37478F07F1F
:105BD100737E007D007C0012C67B9000CC7428F09F
:105BE100A37479F07F007E007D007C0012C67B905B
:105BF10000CC7428F0A3747AF07F607E007D007C75
:105C01000012C67B9000CC7410F0A374F0F07F00FA
:105C11007E007D007C0012C67B9000CC7410F0A346
:105C210074F1F07F007E007D007C0012C67B900045
:105C3100CC7410F0A374F2F07F007E007D007C0034
:105C410012C67B9000CC7410F0A374F3F07F007E39
:105C5100007D007C0012C67B9000CC7410F0A37410
:105C6100F6F07F007E007D007C0012C67B9000CCA8
:105C71007410F0A374F7F07F007E007D007C0012A9
:105C8100C67B9000CC7410F0A374F8F07F007E0006
:105C91007D007C0012C67B9000CC7410F0A374F9D7
:105CA100F07F007E007D007C0012C67B9000CC74EA
:105CB10028F0A3747DF07F7F7E007D007C0012C6FA
:105CC1007B9000CC7428F0A3747BF07F007E007D74
:105CD100007C0012C67B9000CC7428F0A3747CF089
:105CE1007F007E007D007C0012C67B9000CC742872
:105CF100F0A3747EF07F007E007D007C0012C67BE5
:105D01009000CC7410F0A374FCF07F007E007D0045
:105D11007C0012C67B53A4DF43AD2053A4BF43AD27
:105D21004043E803902843E04480F090284BE0444E
:095D310080F09007F37403F022E6
:058F8A0090000CEFF067
:108F8F006401704E7FD37E1012925490000D121B0D
:108F9F00A7E4FFFEFD7C8090000DE0F8A3E0F9A3AD
:108FAF00E0FAA3E0FBC3121B24402490000DE0FC69
:108FBF00A3E0FDA3E0FEA3E0FF121AF3EF2401FFED
:108FCF00E43EFEE43DFDE43CFC90000D121BA702C5
:108FDF00907290000CE0640260030290B4FB7D017C
:108FEF007F1B7E01120000BF013478197C007D01C8
:108FFF007B017A0079007E007F0412182C7B017AA6
:10900F000079197D0412C0A8900019E0FCA3E0FDBF
:10901F00A3E0FEA3E0FF90000D121BA780079007AF
:10902F0004E04410F0E4FFFEFD7C8090000DE0F8BA
:10903F00A3E0F9A3E0FAA3E0FBC3121B24402490A2
:10904F00000DE0FCA3E0FDA3E0FEA3E0FF121AF386
:10905F00EF2401FFE43EFEE43DFDE43CFC90000DF7
:10906F00121BA790000DE0FCA3E0FDA3E0FEA3E020
:10907F00FFE412161C9005E4E0F8A3E0F9A3E0FA70
:10908F00A3E0FB121409900015121BA7900015E026
:10909F00FCA3E0FDA3E0FEA3E0FF12165A9000111F
:1090AF00121BA7800A900011121BB300000000E4EE
:1090BF007F32FEFDFC900011E0F8A3E0F9A3E0FA87
:1090CF00A3E0FBC3121B24500A900011121BB30024
:1090DF00000000900011E0FCA3E0FDA3E0FEA3E080
:0190EF00FF81
:0190F000225D
:059AD00090000CEFF016
:109AD5006401704D7FD57E1012925490000D121BBB
:109AE500A7E4FFFEFD7C8090000DE0F8A3E0F9A35C
:109AF500E0FAA3E0FBC3121B24407C90000DE0FCC0
:109B0500A3E0FDA3E0FEA3E0FF121AF3EF2401FF9B
:109B1500E43EFEE43DFDE43CFC90000D121BA780F5
:109B25005690000CE064026003029BBE7FD47E1059
:109B350012925490000D121BA7E4FFFEFD7C80904D
:109B4500000DE0F8A3E0F9A3E0FAA3E0FBC3121BC4
:109B550024402490000DE0FCA3E0FDA3E0FEA3E07B
:109B6500FF121AF3EF2401FFE43EFEE43DFDE43C61
:109B7500FC90000D121BA790000DE0FCA3E0FDA3D7
:109B8500E0FEA3E0FFE412161C9005ECE0F8A3E06C
:109B9500F9A3E0FAA3E0FB121409900015121BA724
:109BA500900015E0FCA3E0FDA3E0FEA3E0FF121684
:109BB5005A900011121BA7800A900011121BB300C6
:109BC500000000E47F14FEFDFC900011E0F8A3E026
:109BD500F9A3E0FAA3E0FBC3121B24500A9000117D
:109BE500121BB300000000900011E0FCA3E0FDA3F0
:059BF500E0FEA3E0FF0B
:019BFA002248
:056D0A0090071BEFF0F3
:106D0F006003026D967FD17E1012925490071C1271
:106D1F001BA7E4FB7D017F197E01120000BF013428
:106D2F00782C7C077D017B017A0079007E007F043F
:106D3F0012182C7B017A07792C7D0412C0A89007BA
:106D4F002CE0FCA3E0FDA3E0FEA3E0FF90072012E0
:106D5F001BA78007900704E04410F0900720E0FC89
:106D6F00A3E0FDA3E0FEA3E0FF90071CE0F8A3E083
:106D7F00F9A3E0FAA3E02FFFEA3EFEE93DFDE83C70
:106D8F00FC900724121BA790071BE0B4012C7FD1A6
:106D9F007E1012925490071C121BA7E4FFFEFD7C7D
:106DAF008090071CE0F8A3E0F9A3E0FAA3E0FBC38F
:106DBF00121B245003026E66806D90071BE0640265
:106DCF006003026E5CFB7D017F197E01120000BF24
:106DDF000134782C7C077D017B017A0079007E00DD
:106DEF007F0412182C7B017A07792C7D0412C0A81E
:106DFF0090072CE0FCA3E0FDA3E0FEA3E0FF9007CB
:106E0F001C121BA78007900704E04410F0E4FFFE5C
:106E1F00FD7C8090071CE0F8A3E0F9A3E0FAA3E063
:106E2F00FBC3121B24403090071CE0FCA3E0FDA322
:106E3F00E0FEA3E0FF121AF3EF2401FFE43EFEE4AD
:106E4F003DFDE43CFC90071C121BA7800A90071C19
:106E5F00121BB300000000E47F867E19FDFC900733
:106E6F001CE0F8A3E0F9A3E0FAA3E0FBC3121B2494
:106E7F00500C900724121BB3000000008063900792
:106E8F001BE0B4011FA3E0FCA3E0FDA3E0FEA3E021
:106E9F00FFE412161C90BB66121B97121409900781
:106EAF0028121BA790071BE0B4021FA3E0FCA3E06E
:106EBF00FDA3E0FEA3E0FFE412161C90BB66121BBD
:106ECF0097121409900728121BA7900728E0FCA31C
:106EDF00E0FDA3E0FEA3E0FF12165A900724121B59
:0F6EEF00A7900724E0FCA3E0FDA3E0FEA3E0FFD3
:016EFE002271
:05B0A70090000CEFF029
:10B0AC00BF01247FFD7E1012925490000D121BA73D
:10B0BC0090000DE0F8A3E0F9A3E0FAA3E0FBE4FFB5
:10B0CC00FE7DE27C04805D90000CE064027069FB04
:10B0DC007D017F9A7E01120000EF6401705178159A
:10B0EC007C007D017B017A007900FE7F0412182C14
:10B0FC007B017A0079157D0412C0A8900015E0FC44
:10B10C00A3E0FDA3E0FEA3E0FF90000D121BA790AF
:10B11C00000DE0F8A3E0F9A3E0FAA3E0FBE4FFFEE6
:10B12C007D887C13121A61900011121BA78013905A
:10B13C000704E04410F0800A900011121BB30000C9
:10B14C000000900011E0FCA3E0FDA3E0FEA3E0FFF3
:10B15C00E412161C7B9A7A997999783F1214091289
:10B16C00165A900011121BA7900011E0FCA3E0FDF1
:06B17C00A3E0FEA3E0FFCA
:01B1820022AA
:107EE500900010121BB3000000007FD17E1012928B
:107EF50054900010121BA7E4FFFEFD7C809000103B
:107F0500E0F8A3E0F9A3E0FAA3E0FBC3121B249079
:107F150007F4E0402954EFF0900010E0FCA3E0FDE9
:107F2500A3E0FEA3E0FF121AF3EF2401FFE43EFEF7
:107F3500E43DFDE43CFC900010121BA780034410B7
:107F4500F0900010E0FCA3E0FDA3E0FEA3E0FF90AD
:107F5500000C121BA7E47F867E19FDFC900010E043
:107F6500F8A3E0F9A3E0FAA3E0FBC3121B24501B1E
:107F750090000C121BB300000000900010121BB300
:107F8500000000009007F4E054EFF090000CE0FCD6
:107F9500A3E0FDA3E0FEA3E0FF9000CC7410F0A3E6
:107FA50074FCF012C67B900010E0FCA3E0FDA3E09A
:107FB500FEA3E0FFE412161C90BB66121B97121479
:107FC5000912165A90069D121BA77FD27E10129297
:107FD50054900010121BA7E4FFFEFD7C809000105A
:107FE500E0F8A3E0F9A3E0FAA3E0FBC3121B2440E9
:107FF50024900010E0FCA3E0FDA3E0FEA3E0FF1247
:108005001AF3EF2401FFE43EFEE43DFDE43CFC9061
:108015000010121BA7900010E0FCA3E0FDA3E0FEFA
:10802500A3E0FF90000C121BA7E47F867E19FDFCE0
:10803500900010E0F8A3E0F9A3E0FAA3E0FBC31277
:108045001B24501490000C121BB30000000090007C
:1080550010121BB300000000900010E0FCA3E0FD2F
:10806500A3E0FEA3E0FFE412161C90BB6A121B9767
:108075001214097B397AB479C8783F121512121691
:078085005A9006A1021BA79F
:103BD8009006B9121BB3000000009006B5121BB383
:103BE800000000009006C1121BB3000000007FD245
:103BF8007E101292549006B9121BA77FEE7E101207
:103C080092549006B5121BA7E4FB7D017F1A7E0132
:103C1800120000EF6401704578C97C067D017B01C4
:103C28007A007900FE7F0412182C7B017A0679C984
:103C38007D0412C0A89006C9E0FCA3E0FDA3E0FE45
:103C4800A3E0FFE412161C7BCB7AA179D5783F124A
:103C5800140912165A9006C1121BA780089007046F
:103C6800E04410F022E47F867E19FDFC9006BDE05A
:103C7800F8A3E0F9A3E0FAA3E0FBD3121B24401B4E
:103C88007F7A7EE67DFF7CFF9006BDE0F8A3E0F931
:103C9800A3E0FAA3E0FB121B24400A9006BD121B06
:103CA800B300000000E47F867E19FDFC9006C5E0A5
:103CB800F8A3E0F9A3E0FAA3E0FBD3121B24401B0E
:103CC8007F7A7EE67DFF7CFF9006C5E0F8A3E0F9E9
:103CD800A3E0FAA3E0FB121B24400A9006C5121BBE
:103CE800B3000000009006B99006C19007F4E030D8
:103CF800E503023E1E30E3509006C1E0FCA3E0FD60
:103D0800A3E0FEA3E0FF121AF3EF2401FFE43EFE56
:103D1800E43DFDE43CFC9006C1121BA79006B9E007
:103D2800FCA3E0FDA3E0FEA3E0FF9006C1E0F8A33A
:103D3800E0F9A3E0FAA3E02FFFEA3EFEE93DFDE843
:103D48003CFC9006C9023F619006C1E0FCA3E0FD7F
:103D5800A3E0FEA3E0FF9006B9E0F8A3E0F9A3E032
:103D6800FAA3E0FBC3121B2440509006C1E0F8A35D
:103D7800E0F9A3E0FAA3E0FB9006B9E0FCA3E0FDBC
:103D8800A3E0FEA3E09BFFEE9AFEED99FDEC98FC04
:103D98009006C9121BA79006C1E0FCA3E0FDA3E0B2
:103DA800FEA3E0FF121AF3EF2401FFE43EFEE43D18
:103DB800FDE43CFC9006C1023F619006B9E0F8A31F
:103DC800E0F9A3E0FAA3E0FB9006C1E0FCA3E0FD64
:103DD800A3E0FEA3E0C39BFFEE9AFEED99FDEC98ED
:103DE800FC9006C9121BA790070FE06455600302F8
:103DF8003F649006C1E0FCA3E0FDA3E0FEA3E0FF62
:103E0800121AF3EF2401FFE43EFEE43DFDE43CFC1E
:103E18009006C1023F619007F4E020E303023EFFF1
:103E28009006C1E0FCA3E0FDA3E0FEA3E0FF90063E
:103E3800B9E0F8A3E0F9A3E0FAA3E0FBC3121B245E
:103E480040659006C1E0F8A3E0F9A3E0FAA3E0FB1F
:103E58009006B9E0FCA3E0FDA3E0FEA3E09BFFEE23
:103E68009AFEED99FDEC98FC9006C9121BA79007E5
:103E78000FE064559006C1600DE0FCA3E0FDA3E0EF
:103E8800FEA3E0FF801BE0FCA3E0FDA3E0FEA3E0AF
:103E9800FF121AF3EF2401FFE43EFEE43DFDE43C8B
:103EA800FC9006C1023F619006B9E0F8A3E0F9A3CF
:103EB800E0FAA3E0FB9006C1E0FCA3E0FDA3E0FE6E
:103EC800A3E0C39BFFEE9AFEED99FDEC98FC9006EB
:103ED800C9121BA79006C1E0FCA3E0FDA3E0FEA366
:103EE800E0FF121AF3EF2401FFE43EFEE43DFDE497
:103EF8003CFC9006C180629006C1E0FCA3E0FDA3F3
:103F0800E0FEA3E0FF9006B9E0F8A3E0F9A3E0FA29
:103F1800A3E02FFFEA3EFEE93DFDE83CFC9006C920
:103F2800121BA790070FE064559006C1600DE0FCD6
:103F3800A3E0FDA3E0FEA3E0FF801BE0FCA3E0FDFF
:103F4800A3E0FEA3E0FF121AF3EF2401FFE43EFE14
:103F5800E43DFDE43CFC9006C1121BA79005B8E0C7
:103F6800FCA3E0FDA3E0FEA3E02400FFE43EFEE4A2
:103F78003DFDEC3480FCE412161CA804A905AA0631
:103F8800AB07E4FFFEFD7C4F1215129006CD121B05
:103F9800A7E4FFFEFD7C809006C1E0F8A3E0F9A34A
:103FA800E0FAA3E0FBD3121B249006C1E0FC406BAF
:103FB800A3E0FDA3E0FEA3E0FF121AF3EF2401FF44
:103FC800E43EFEE43DFDE43CFC9006C1121BA790D4
:103FD80006C1E0FCA3E0FDA3E0FEA3E0FFE41216A7
:103FE8001C9006CDE0F8A3E0F9A3E0FAA3E0FB12E9
:103FF800140912165A9006C1121BA79006C1E0FCBC
:10400800A3E0FDA3E0FEA3E0FF121AF3EF2401FFF3
:10401800E43EFEE43DFDE43CFC8021A3E0FDA3E09A
:10402800FEA3E0FFE412161C9006CDE0F8A3E0F929
:10403800A3E0FAA3E0FB12140912165A9006C11263
:104048001BA79006C1E0FCA3E0FDA3E0FEA3E0FFF0
:104058009000CC7410F0A374EEF012C67BE4FFFE5F
:10406800FD7C809006C1E0F8A3E0F9A3E0FAA3E0A4
:10407800FBD3121B2440249006C1E0FCA3E0FDA35F
:10408800E0FEA3E0FF121AF3EF2401FFE43EFEE492
:104098003DFDE43CFC9006C1121BA7E4FFFEFD7C3D
:1040A800809006B9E0F8A3E0F9A3E0FAA3E0FBD317
:1040B800121B2440249006B9E0FCA3E0FDA3E0FE17
:1040C800A3E0FF121AF3EF2401FFE43EFEE43DFDF6
:1040D800E43CFC9006B9121BA7E4FFFEFD7C80902F
:1040E80006C9E0F8A3E0F9A3E0FAA3E0FBD3121BAA
:1040F8002440249006C9E0FCA3E0FDA3E0FEA3E071
:10410800FF121AF3EF2401FFE43EFEE43DFDE43C18
:10411800FC9006C9121BA79006B9E0FCA3E0FDA31A
:10412800E0FEA3E0FFE412161C90BB6A121B971274
:10413800140912165A9006A1121BA79006C9E0FC92
:10414800A3E0FDA3E0FEA3E0FFE412161C90BB6A07
:10415800121B9712140912165A9006B5121BA79033
:1041680006C1E0FCA3E0FDA3E0FEA3E0FFE4121615
:104178001C90BB6A121B9712140912165A9006C992
:0D418800121BA79006DD121BB30000000003
:014195002207
:057B8F0090076AEFF011
:107B9400BF014B7FD27E1012925490076B121BA729
:107BA400E4FFFEFD7C8090076BE0F8A3E0F9A3E01E
:107BB400FAA3E0FBC3121B245003027CA590076BBD
:107BC400E0FCA3E0FDA3E0FEA3E0FF121AF3EF2420
:107BD40001FFE43EFEE43DFDE43CFC027C9390079F
:107BE4006AE064026003027C9BFB7D017F1A7E01D4
:107BF400120000BF013478777C077D017B017A0095
:107C040079007E007F0412182C7B017A0779777D36
:107C14000412C0A8900777E0FCA3E0FDA3E0FEA354
:107C2400E0FF90076B121BA78007900704E0441045
:107C3400F0E4FFFEFD7C8090076BE0F8A3E0F9A37D
:107C4400E0FAA3E0FBC3121B24402490076BE0FC82
:107C5400A3E0FDA3E0FEA3E0FF121AF3EF2401FF6B
:107C6400E43EFEE43DFDE43CFC90076B121BA79050
:107C7400076BE0FCA3E0FDA3E0FEA3E0FFE4121623
:107C84001C7BCB7AA179D5783F12140912165A902D
:107C9400076B121BA7800A90076B121BB30000002E
:107CA40000E47F867E19FDFC90076BE0F8A3E0F901
:107CB400A3E0FAA3E0FBC3121B24500C90076F123D
:107CC4001BB300000000806390076AE0B4011FA3A7
:107CD400E0FCA3E0FDA3E0FEA3E0FFE412161C9089
:107CE400BB6A121B97121409900773121BA7900703
:107CF4006AE0B4021FA3E0FCA3E0FDA3E0FEA3E05E
:107D0400FFE412161C90BB6A121B97121409900709
:107D140073121BA7900773E0FCA3E0FDA3E0FEA38E
:107D2400E0FF12165A90076F121BA790076FE0FC32
:097D3400A3E0FDA3E0FEA3E0FFC3
:017D3D002223
:10E5290003E503E803EC03EF03D903DC03E003E3AA
:10E5390003D303D603D903DC03C603C903CC03CF32
:10E54900041004130416041904030407040A040D2F
:10E5590003FA03FD0400040303ED03F103F403F7D5
:10E66200EFB401089028637481F0800BEF640270AC
:10E672002A90286374A2F0902864E04408F0A3E092
:10E682004401F07F787E28129254EF4418FF9000E4
:0BE69200CC7428F0A37478F012C67B53
:01E69D00225A
:10EB0800902864E054F7F09028637480F0902865AA
:10EB1800E04401F07F787E28129254EF54F7FF907A
:0CEB280000CC7428F0A37478F002C67BC7
:10E69E007F0212E6627F0A7E0012EEE27FCE7E10CD
:10E6AE001292547810121B35EE30E70FEFF4FFEE96
:10E6BE00F4FEEF2401FFE43EFE800F7C007D471246
:0BE6CE001900EF24FBFFEE34FFFE00FC
:01E6D900221E
:10EA1F007F0112E6627F0A7E0012EEE2120056902C
:10EA2F00000D121BA7E4FFFE7D207C4190000DE03E
:10EA3F00F8A3E0F9A3E0FAA3E0FB12140912165AA7
:01EA4F0022A4
:100056009000127404F0A37420F0E4900011F09064
:100066000011E0FFC394035043EF75F018A4FF900E
:100076000013E02FFD900012E035F0FC7E007F14A7
:100086007B1512E7C67B017A00791490003D743324
:10009600F07D137C0012EC51900033EFF0900028B5
:1000A600E06F6008900011E004F080B37B017A00F5
:1000B60079147D0412C0A87B017A0079187D041298
:1000C600C0A87B017A00791C7D0412C0A87B017A46
:1000D6000079207D0412C0A87B017A0079247D0472
:1000E60012C0A87FCE7E101292547810121B359043
:1000F6000034121BA77E007F29902862E0543E241C
:1001060029F582E434E5AD82FC7B0212E7C6900055
:1001160029E0FEA3E0FFE4FCFD900034E0F8A3E054
:10012600F9A3E0FAA3E0FB1219D6E47BE87A03F917
:10013600F8121A61900034121BA7900028E0FF9075
:100146000033E06F6032900014121BB30000466269
:10015600900018121BB30000000190001C121BB384
:100166000D5A4336900020121BB300001BB49000BA
:1001760024121BB30000000A900034E0FCA3E0FD4B
:10018600A3E0FEA3E0FF900020E0F8A3E0F9A3E0DF
:10019600FAA3E0FB1219D690001CE0F8A3E0F9A33D
:1001A600E0FAA3E02FFFEA3EFEE93DFDE83CFCE471
:1001B60012161C12C159C004C005C006C007900023
:1001C60018E0FCA3E0FDA3E0FEA3E0FFE412161C8A
:1001D600D003D002D001D000121409C004C005C05B
:1001E60006C007900014E0FCA3E0FDA3E0FEA3E038
:1001F600FFE412161CA804A905AA06AB07D007D06F
:1002060006D005D004121314C004C005C006C007EA
:10021600900024E0FCA3E0FDA3E0FEA3E0FFE412CF
:10022600161CA804A905AA06AB07D007D006D00558
:10023600D00412151290002F121BA79000127404FE
:10024600F0A37480F0E4900011F0900011E0FFC379
:1002560094035046EF75F004A4FF900013E02FFDC1
:10026600900012E035F0FC7E007F2B7B0412E7C67F
:100276007B017A00792B90003D7433F07D027C007F
:1002860012EC5190002DEFF0A3E0FF90002DE06FEF
:100296006008900011E004F080B090002EE0FF901E
:1002A600002DE06F6007E490002BF0A3F090002B88
:1002B600E030E75B90002BE0FEA3E0F4FFEEF4FEF7
:1002C600EF2401FFE43E90002BF0A3EFF090002F07
:1002D600E0FCA3E0FDA3E0FEA3E0FFC004C005C070
:1002E60006C00790002BE0FEA3E0FF7C007D0A120B
:1002F6001900AC06AD07E4121621A804A905AA0642
:10030600AB07D007D006D005D0041213148038905E
:10031600002FE0F8A3E0F9A3E0FAA3E0FBC000C0D9
:1003260001C002C00390002BE0FEA3E0FF7C007D2D
:100336000A121900AC06AD07E4121621D003D0024A
:10034600D001D00012131890002F121BA7E4FFFE55
:100356007DB47C4290002FE0F8A3E0F9A3E0FAA375
:10036600E0FB1215AF600E400C90002F121BB3423B
:10037600B400008024E4FFFE7D2C7CC290002FE0B8
:10038600F8A3E0F9A3E0FAA3E0FB1215AF500A9038
:10039600002F121BB3C22C000090002FE0FCA3E03C
:0703A600FDA3E0FEA3E0FF50
:0103AD00222D
:06AE0400900007121BA7DD
:10AE0A00E490000BF0C286C285902867E044C0F047
:10AE1A00A37420F0900007E0FCA3E0FDA3E0FEA3EA
:10AE2A00E0FF121C8CAE57000C8000AE5F001900C8
:10AE3A0000AE6F00320000AE7700640000AE8400FE
:10AE4A00C80000AE96019000000000AEA8902867E6
:10AE5A00E054FC800A902867E04401F0E054FDF0D9
:10AE6A00A3E4F0803C902867E054FE8006902867AF
:10AE7A00E04401F0E04402F08027902867E04401B2
:10AE8A00F0E04402F0A3E04440F08015902867E027
:10AE9A004401F0E04402F0A3E044C0F0800312EF62
:10AEAA00D8E5A320E00F90000BE004F0E0D3943241
:10AEBA0040EF7F0022D280E490000BF020800F90B8
:10AECA00000BE004F0E0D3943240F17F0022902896
:0EAEDA005FE4F0A37403F0A3E04420F07F01D6
:01AEE8002247
:06BD3C00900001121BA79C
:10BD4200E4900005F0C284902867E044C0F09000BF
:10BD520001E0FCA3E0FDA3E0FEA3E0FF121C8CBD0A
:10BD62007D00000000BD82000C8000BD8F00190024
:10BD720000BDA4003200000000BDB9D2847F0122C0
:10BD8200902867E054F3F0E054CFF0802D902867BC
:10BD9200E04404F0E054F7F0E04410F0E054DFF047
:10BDA2008018902867E054FBF0E04408F0E054EF7C
:10BDB200F0E04420F0800312EFD8E5A320E00F90DA
:10BDC2000005E004F0E0D3943240EF7F0022D287F6
:10BDD200E4900005F020870F900005E004F0E0D326
:09BDE200943240F17F00227F0140
:01BDEB002235
:10DFFB00C286C285902864E4F0902866F0900007F2
:10E00B00F0900007E004F0E0B414F6D284E5A13000
:10E01B00E00312EFD8C2802080FDE5A130E00312AF
:10E02B00EFD8E4900007F0900007E004F0E0B403B1
:10E03B00F6902867E4F0902867E070FAD2817F327F
:04E04B0012F040008F
:01E04F0022AE
:10D3AF009028ADE054FDF09028ACE054FDF09028AB
:10D3BF00AEE04402F09028ACE054FBF0A3E054FB45
:10D3CF00F0A3E04404F0902820E4F0902828F09097
:10D3DF002830F0902A05F0902864F0902866E044F9
:10D3EF0020F09000CC7428F0A3747DF07F007E00B5
:10D3FF007D007C0012C67B9000CC7428F0A374785B
:10D40F00F07F007E007D007C0012C67BE4FF0FEFF3
:05D41F00B414FBD284EF
:01D4240022E5
:10CEBA009028A8E054F0F09028AAE054F0F075A465
:10CECA00F275A50AE4F5A643A6049028B2E0440246
:10CEDA00F09028B0E054FDF0A3E04401F09028B0AF
:10CEEA00E054FDF0A3E04401F09028C97402F0A3D5
:10CEFA00F09028B1E04410F09028B0E04410F0908F
:10CF0A0028CDE4F053ADDF53A4DF53A6DFA3F0909E
:10CF1A0028B0E054DFF09028B2E04420F09028C80E
:10CF2A00E4F09028ADE04410F09028C7E4F090288F
:0CCF3A00ADE04408F053ADFD43A5022219
:10DF4F009028A874FFF0A3E4F09028AC74FFF0A31E
:10DF5F00E4F09028B074FFF0A3E4F09028B474FFBD
:10DF6F00F0A3E4F09028B874FFF0A3E4F09028BC7D
:10DF7F0074FFF0A3E4F09028C074FFF0A3E4F090D6
:10DF8F0028D574FFF0A3E4F09028D974FFF0A3E430
:07DF9F00F075A4FFF5A522B7
:10EE7A00E4FF9028B3E020E4050FEFB40AF4EFD3DF
:09EE8A00940740037F01227F0080
:01EE9300225C
:10EE9400E4FF9028AFE020E4050FEFB40AF4EFD3C9
:09EEA400940740037F01227F0066
:01EEAD002242
:10EF1300E4FFE5A720E1050FEFB40AF6EFD394076A
:07EF230040037F01227F0083
:01EF2A0022C4
:10EEAE00E4FF9028AFE020E3050FEFB40AF4EFD3B0
:09EEBE00940740037F01227F004C
:01EEC7002228
:10EF2B00E4FFE5A730E0050FEFB40AF6EFD3940743
:07EF3B0040037F01227F006B
:01EF420022AC
:0EF00D00C28390285EE4F0902C1E74C2F022A4
:03F09100D2832205
:10EDF100902C08E4F0A3F0A3F0A3F0A3F0A3F0A3F8
:0CEE0100F0A3F0902C12F0A3F0A3F0227C
:10EC2A00EF902C00F0902C04F0A3F0A3F0A3F09046
:10EC3A002C09F0A3F0A3F0902C0FF0A3F0540FA32B
:07EC4A00F0EF902C13F02203
:10D832009028B4E0440FF09028B8E04403F0902818
:10D84200BCE074FFF09028C0E044FCF09028D5E0E2
:10D8520044C0F09028D9E04407F09028B5E054F095
:10D86200F09028B9E054FCF09028BDE0E4F0902854
:10D87200C1E05403F09028D6E0543FF09028DAE05B
:10D8820054F8F012F00D902C1F7403F0A374FFF003
:0DD89200A374FCF0A374C0F0A374C7F022CF
:10AEE90090000612186BFFC4540FFE12185254F04A
:10AEF9004E902C00F090000112186BFE54F0FD12D8
:10AF09001852540F4D902C04F090000212186B54F3
:10AF1900F0FDEE540F4D902C05F090000312186BC4
:10AF2900FE54F0FD90000212186B540F4D902C0640
:10AF3900F090000412186B54F0FDEE540F4D902C54
:10AF490007F090000512186BFE54F0FD90000412F2
:10AF5900186B540F4D902C09F090000912186B547E
:10AF6900F0FDEE540F4D902C0AF090000A12186B68
:10AF7900FE54F0FD90000912186B540F4D902C0BE4
:10AF8900F090000712186B54F0FDEF540F4D902C00
:10AF99000FF090000812186BFF54F0FD9000071293
