:01040000FFFC
:0300000002D09497
:06D0940075812002D0D5D9
:10BE27000075CEA575CF5A0075CEA575CF5A00C23D
:10BE3700AF12EA4CD2AF0075CEA575CF5A0075CEBA
:10BE4700A575CF5A0012EF59EF6401707C75CEA526
:10BE570075CF5A0075CEA575CF5A009006FDE0FF45
:10BE670030E00654FEF012ECFD1289E49006FDE086
:10BE7700FF30E10654FDF012939F9006B0E0640195
:10BE870060079006B1E0B4010312B36E9006ACE010
:10BE970064017024F012B29775CEA575CF5A00755C
:10BEA700CEA575CF5A007D017F0112B9D07FFF1251
:10BEB700EC889006B27403F01289E475CEA575CFAD
:0FBEC7005A0075CEA575CF5A001289E402BE3E0F
:10DD7D0000100044443031412D5632302E30331EC8
:10DD8D001E26002000111111111111FFFFFFFFFFC1
:10DD9D00FFFFFFFFFF111111111111000000000015
:10DDAD0000000000000000000000005A000000000C
:10DDBD001C0000000000000000000F0101FFFFFF2C
:10DDCD00FFFFFFFFFF001234560000006534120004
:01DDDD000045
:10D73500E49006FDF0A3F09007017403F0E4900770
:10D7450014F07B017A0779069001D6F0A304F0A3C3
:10D7550004F07D997C0012CC2C7B017A0779079027
:10D7650001D6E4F0A37402F0A3F07D9F7C0012CCF7
:10D775002C7B017A0779099001D6E4F0A37402F0B5
:10D78500A3F07DA17C0012CC2C7B017A0779109047
:10D7950001D6E4F0A37404F0A37402F07DC17C000B
:03D7A50002CC2C87
:10D9650000020000003E0102003E002F1402006D7F
:10D975000052150200BF00101B02011B001A1902FC
:10D9850000CF0009460200D8003A150200BF00107A
:10D9950052020135001A5302014F001E5402016D57
:10D9A50000621A0201120009650208000071660290
:10D9B50008710071670208E200716802095300717D
:0CD9C500690209C400716A020A35007191
:10B77F00900012E0FEA3E0FF900016E0FCA3E0FDB6
:02B78F007B023B
:10B79100900189EEF0A3EFF0A3ECF0A3EDF0A3EBA1
:01B7A100F0B7
:10B7A2009001CF74A5F0A3745AF090018BE0FEA330
:10B7B200E0FFD39400EE9400500302B83DEF9440B2
:10B7C200EE940090018E40057440F08002EFF07B11
:10B7D200017A01798F900189E0FCA3E0FD90018E4E
:10B7E200E0FF9001D6E4F0A3EFF090018DE090012C
:10B7F200D8F012CC2C7B017A01798F90018EE0FD7A
:10B802007C00E49001D6F0A3F012EAAE9001D0E001
:10B812002FF09001CFE03EF090018EE0FF7E00908D
:10B82200018AE02FF0900189E03EF0C390018CE0A4
:10B832009FF090018BE09EF002B7AC9001CFE0FE4A
:03B84200A3E0FF81
:01B8450022E0
:08CD4900900189EEF0A3EFF068
:10CD5100E4FFEF75F006A42466F582E434D9F58387
:10CD6100E4936D7068ED640260037FFF22EF75F05C
:10CD710006A42467F582E434D9F583E493FB7401B6
:10CD81009390018BCBF0A3EBF0EF75F006A424692F
:10CD9100F582E434D9F583740193F990018BE0FABB
:10CDA100A3E0FBC390018AE09B900189E09A401DBA
:10CDB100E9FB90018CE02BFB90018BE03400FAC37E
:10CDC10090018AE09B900189E09A5001220FEF6463
:08CDD10012600302CD537FFF45
:01CDD9002237
:10AC6A00900012E0FCA3E0FD2400FFEC3404FE9007
:10AC7A000017E02402FB900016E03400FA9000204E
:03AC8A007422F041
:10AC8D0090001AEEF0A3EFF0A3ECF0A3EDF0A3EA21
:04AC9D00F0A3EBF045
:10ACA10090001EE0FEA3E0FFD39400EE9400500359
:10ACB10002AD58D3EF9440EE9400900061400574CA
:10ACC10040F08002EFF07B017A00792190001CE0D6
:10ACD100FCA3E0FD900061E0FF9001D6E4F0A3EF5A
:10ACE100F0900020E0FFC4540F9001D8F012CC2C5A
:10ACF10075CEA575CF5A0075CEA575CF5A007B01CB
:10AD01007A007921900061E0FD90018EE4F0A3EDDD
:10AD1100F0900020E0540F900190F090001AE0FEB6
:10AD2100A3E0FF12C8AF900061E0FFFD7C0090003E
:10AD31001BE02DF090001AE03CF090001DE02DF09A
:10AD410090001CE03CF0C390001FE09FF090001EBB
:07AD5100E09400F002ACA148
:01AD580022D8
:10C57A0090007AEEF0A3EFF0A3ECF0A3EDF0AF0396
:10C58A007B017A007980AD0790017BE4F0A37440C7
:10C59A00F012EBBD90007CE0FEA3E0FFD39400EE26
:10C5AA0094004069D3EF9440EE94009000C0400597
:10C5BA007440F08002EFF090007AE0FEA3E0FF7B87
:10C5CA00017A0079809000C0E0FD90018EE4F0A32A
:10C5DA00EDF090007FE0900190F012C8AF75CEA503
:10C5EA0075CF5A0075CEA575CF5A009000C0E0FFEE
:10C5FA007E0090007BE02FF090007AE03EF0C3903E
:0DC60A00007DE09FF090007CE09EF08087B6
:01C617002200
:0BCC21009001D6E4F0A37402F0A3F031
:10CC2C009001D1EBF0A3EAF0A3E9F0A3ECF0A3EDB3
:01CC3C00F007
:10CC3D009001D8E024FE604B0470699001D4E0FEB1
:10CC4D00A3E0AA06F99001D97401F0A3EAF0A3E9D3
:10CC5D00F09001D9E0F9A3E0FAA3E09001DFC9F06B
:10CC6D00A3EAF0A3E9F09001D6E0FFA3E09001E282
:10CC7D00CFF0A3EFF09001D1E0FBA3E0FAA3E0F930
:10CC8D0002DE3D9001D1E0FBA3E0FAA3E0F9A3E0C1
:10CC9D00FCA3E0FDA3E0FFA3E09001E1CFF0A3EF43
:07CCAD00F002C43A12F04E40
:01CCB400225D
:10C88E0090000EEEF0A3EFF09000147A00790EE017
:10C89E00FEA3E0FF7B0190018EE4F0A37402F0A3EF
:01C8AE00F099
:10C8AF00900189EEF0A3EFF0A3EBF0A3EAF0A3E978
:01C8BF00F088
:10C8C000900190E024FE603C04705A900189E0FEE3
:10C8D000A3E0AA06F97B01C002C001A3E0F9A3E02E
:10C8E000FAA3E09001DFC9F0A3EAF0A3E9F0900118
:10C8F0008EE0FFA3E09001E2CFF0A3EFF0D001D0F3
:10C900000202DE3D900189E0FEA3E0FFA3E0FBA36D
:10C91000E0FAA3E0F9A3E0FDA3E0900196CDF0A337
:08C92000EDF002C75412F04EC5
:01C9280022EC
:109AF400900179EBF0A3EAF0A3E9F0900177EEF09E
:039B0400A3EFF0DC
:109B070090017EE0FD12CD4990017FEFF0C39412E2
:109B1700400312F04E90017FE0FF75F006A4246722
:109B2700F582E434D9F583E493FD740193900182BF
:109B3700CDF0A3EDF0EF75F006A42469F582E434C7
:109B4700D9F58374019324FEFFE49334FFFE90015B
:109B570086F0A3EFF0900183E02FFF900182E03EB3
:109B6700900184F0A3EFF090017FE075F006A42444
:109B770065F582E434D9F583E493900188F0900188
:109B870077E0FEA3E0FFA3E0FBA3E0FAA3E0F9A3DD
:109B9700E0FDA3E090018ECDF0A3EDF090017EE013
:109BA700900190F012C8AF900182E0FEA3E0FF9011
:109BB700018612B78A900180EEF0A3EFF09001843E
:109BC7007A01798012C89D900188E0C39464504857
:109BD700900178E02400FF900177E03404FE9001C3
:109BE70079E0FBA3E0FAA3E0F9A3E0FDA3E090018D
:109BF7008ECDF0A3EDF090017EE0900190F012C8B9
:109C0700AF900185E02400FF900184E03404FE7BDF
:089C1700017A01798012C8A452
:019C1F002222
:10A3C300E4FEEE75F006A42465F582E434D9F58342
:10A3D300E4936F60050EEEB412E8EEC394124003EB
:10A3E30002A4C3EE75F006A42467F582E434D9F51C
:10A3F30083E493FD74019390001ACDF0A3EDF0EE86
:10A4030075F006A42469F582E434D9F583740193C5
:10A4130024FEFCE49334FF90001CF0A3CCF0EF2463
:10A42300EB602224CF602E24F4603A14604714605A
:10A43300542440707290001AE0FEA3E0FF7BFF7A81
:10A44300DD798C804E90001AE0FEA3E0FF7BFF7A5B
:10A45300DC79B3803E90001AE0FEA3E0FF7BFF7A35
:10A46300BB7953802E90001AE0FEA3E0FF7BFF7AB6
:10A47300C979C3801E90001AE0FEA3E0FF7BFF7A38
:10A48300C979DD800E90001AE0FEA3E0FF7BFF7A1E
:10A49300C979FBA3E0FDA3E090018ECDF0A3EDF01D
:10A4A300A37402F002C8AF90001AE0FEA3E0FFA37A
:10A4B300E0FCA3E0FD90007F7402F0E4FB12C57A98
:01A4C3002276
:1070E000E490000DF090000DE0F9C394124003020B
:1070F00072B7E4900018F090000DE0FF75F006A460
:107100002467F582E434D9F583E493FD7401939008
:107110000012CDF0A3EDF0EF75F006A42469F5821E
:10712000E434D9F58374019324FEFEE49334FF9094
:107130000016F0A3CEF0900016E0FAA3E0FB90005A
:1071400012E0FCA3E0FD2BFEEC3AA3F0A3CEF0E9A5
:1071500075F006A42465F582E434D9F583E49390B0
:107160000019F075CEA575CF5A0075CEA575CF5A0A
:1071700000AF05AE04AD03AC027B0212B7919000E4
:107180000EEEF0A3EFF07B017A007910900014E08E
:10719000FCA3E0FD12CC21900010E0FEA3E0FF90E4
:1071A000000EE06E7003A3E06F6007900018E044EB
:1071B00001F0900019E0C39464504B900013E02458
:1071C00000FF900012E03404FE12B78790000EEE2C
:1071D000F0A3EFF07B017A007910900015E0240015
:1071E000FD900014E03404FC12CC21900010E0FE6D
:1071F000A3E0FF90000EE06E7003A3E06F600790C5
:107200000018E04402F075CEA575CF5A0075CEA5E2
:1072100075CF5A00900018E070030272A024FE603F
:107220003614604124027075900019E0C3946450D4
:1072300015900012E0FEA3E0FF2400FDEE3404FCF4
:1072400012AC7902728D900019E0FF12A3C312B73D
:107250007F12C88E02728D900019E0C39464504072
:1072600012AC6A8028900019E0FF12A3C312B77F06
:1072700012C88E75CEA575CF5A0075CEA575CF5A9A
:1072800000900019E0C39464501612AC6A75CEA544
:1072900075CF5A0075CEA575CF5A00800312F04EF7
:1072A00075CEA575CF5A0075CEA575CF5A00900042
:0772B0000DE004F00270E59F
:0172B70022B4
:05BA9300900093EFF0AC
:10BA9800E4A3F0900094E0F9C39412400302BB526F
:10BAA800E0FE75F006A42467F582E434D9F583E452
:10BAB80093FC740193FDEE75F006A42469F582E405
:10BAC80034D9F58374019324FE2DFEE43C9000974D
:10BAD800F0A3CEF0E975F006A42465F582E434D924
:10BAE800F583E493FF900099F0BF4608900093E037
:10BAF80064A5704D75CEA575CF5A0075CEA575CFC6
:10BB08005A00E4900095F0A3F0900097E0FEA3E0BF
:10BB1800FF7B017A00799512C8A4900099E0C3943C
:10BB280064501EE4900095F0A3F0900098E0240083
:10BB3800FF900097E03404FE7B017A00799512C8E3
:0ABB4800A4900094E004F002BA9B00
:01BB520022D0
:10BED60012EED8EF6401600302BF709007DCE0C386
:10BEE6009403400302BF84E004F0E0C394035003CC
:10BEF60002BF84900706E0645A600302BF8490077D
:10BF0600DDE06401607812DAA975CEA575CF5A0016
:10BF160075CEA575CF5A0012B29775CEA575CF5AB4
:10BF26000075CEA575CF5A0012D6C175CEA575CFB0
:10BF36005A0075CEA575CF5A0012A0A912E545750F
:10BF4600CEA575CF5A0075CEA575CF5A00129D4B5A
:10BF560075CEA575CF5A0075CEA575CF5A007FA8A8
:10BF66001203AE9007DD7401F0229007DCE0D39453
:0FBF7600004003E014F09007DCE07002A3F0221B
:10E0040012EF89EF640170269007DAE0C39403509D
:10E0140043E004F0E0C39403403AA3E064016034B5
:10E024007D017F0912B9D09007DB7401F0229007BB
:10E03400DAE0D3940040069007DCE014F09007DAAD
:10E04400E07011A3E0B4010C7DFF7F0912B9D0E4A4
:05E054009007DBF02243
:10F012007B017A0779D990017BE4F0A37405F0E4CF
:04F02200FD02EBBD43
:01005200228B
:10EF5900E4FFE5A120E0050FEFB41EF6EFC3941915
:07EF690050037F01227F002D
:01EF7000227E
:10E0AE009006FFE5A1F0E59560047F0180027F00F8
:10E0BE00E59460047E0180027E00EE4F6011759043
:10E0CE0096759757E4F594F5957590967597560055
:10E0DE00758F019004027486F0E4F58F75A001FF30
:10E0EE00FE7D32FC12AE3F12DFAD12EE1302E738A8
:107665007B017A00790A9001D6E4F0A37403F0A3B4
:1076750014F07DBA7C0012CC2C90000AE0B4650BA6
:10768500A3E0B43406A3E06412602D9004AF740146
:10769500F012D11A90007F7402F0E4FBFD7C10FF1C
:1076A5007E0812C57A7FA512BA9375CEA575CF5AF5
:1076B5000075CEA575CF5A00900700E070111270C5
:1076C500E075CEA575CF5A0075CEA575CF5A0012B7
:1076D500D73512F01275CEA575CF5A0075CEA575A2
:1076E500CF5A007B017A0579B29001D6E4F0A374F4
:1076F5003AF0A37402F07DD87C0012CC2C12F0F97C
:1077050012F0F612D9D175CEA575CF5A0075CEA552
:1077150075CF5A0012E85E1268FC12EC1112E9B03E
:1077250012EF2675CEA575CF5A0075CEA575CF5A21
:107735000012DEF775CEA575CF5A0075CEA575CFAB
:107745005A009006BEE06430600302782475CEA529
:1077550075CF5A0075CEA575CF5A00900000F07B05
:10776500017A0079029001D6F0A37405F0A37402A2
:10777500F07D6C7C0C12CC2C7B017A007908900191
:10778500D6E4F0A37402F0A3F07D6F7C0012CC2C3C
:10779500900008E0FB900004E0C39B5008900000B7
:1077A5007401F08005E4900000F09006C3E0FE90BF
:1077B5000000E02EFD900003E0FCC3ED9C9000006E
:1077C500F0EEC39B5005E014F08005900000E0F05A
:1077D500900000E0D3940640037406F0900000E0AA
:1077E500D39400403AE4A3F0900000E0FFA3E0C387
:1077F5009F501BE4FF1283CB75CEA575CF5A00753C
:10780500CEA575CF5A00900001E004F080DA75CE60
:10781500A575CF5A0075CEA575CF5A0012B297023D
:02782500E9E692
:10E3A500E4900000F0A3F075CEA575CF5A0075CEA8
:10E3B500A575CF5A0075CEA575CF5A0075CEA57532
:10E3C500CF5A0012EC111268FC12D8F812EC39126F
:10E3D500DFAD7D027F0112E77343C90112E059E504
:07E3E500A130E00312F04E2D
:01E3EC00220E
:10D21A007F007E007D327C0012AE3F12CEF512D81E
:10D22A00F87FFF12EC8875CEA575CF5A0075CEA58A
:10D23A0075CF5A0012766512EFA1E4FF12DA3D1299
:10D24A00F09CE4FF125AC11266C57B017A0679E89E
:10D25A0090017BE4F0A37405F0E4FD12EBBD9007A6
:10D26A00797404F0900775F07DFF7F0712B9D07BBF
:10D27A00017A07797590017BE4F0A3740CF0E4FD60
:0AD28A0012EBBD43A50143A40122ED
:10EA4C0012E0AE12EF59EF70077F2C7E0112EF40EF
:10EA5C0012EF59EF70089007007403F08005E490F2
:10EA6C000700F0900700E0B4030302E3A512D21AEA
:01EA7C002277
:10E14D0012EEF2EF64014E70059006B004F09006E9
:10E15D00B0E0B4011EE4F0900622E0B40504E4F052
:10E16D008006900622E004F012B51890060C740695
:10E17D00F0800C90060CE0D394004003E014F09076
:0DE18D00060CE07007900622F012B5182273
:1089E40012EF59EF6003028B4FD284C2AF125FA81B
:1089F4007B017A05792190017CE4F0A3743CF0A317
:108A04007402F0E4FFFE129AF49007007403F07B02
:108A1400017A0679C190017CE4F0A37407F0A37491
:108A240002F07FCF7E00129AF49007797404F07DEF
:108A3400017F0712B9D090077C7404F0900778F096
:108A44007DFF7F0A12B9D07B017A07797F9001D626
:108A5400E4F0A304F0A304F07D217C0112CC2C12D9
:108A6400C03412EC3912DFAD9028C8E4F09028AD80
:108A7400E04410F012EE1312E73812EC11E4900601
:108A84000CF09004AFF075CEA575CF5A0075CEA545
:108A940075CF5A00E4FD7F0112E77343C90112F058
:108AA4009C12E05975CEA575CF5A0075CEA575CF29
:108AB4005A007F007E007D327C0012AE3F7B017A3B
:108AC40000790012DDDE9001DF7401F0A37400F080
:108AD400A37400F0A3E4F0A37407F07B017A067991
:108AE400C112DE3DE5A130E05912CEF512EE1312AB
:108AF400E9797B017A04796390018EE4F0A3741E12
:108B0400F0A37402F07FCF7E0112C8AF7B017A0418
:108B1400798290018EE4F0A3742DF0A37402F07FA7
:108B2400ED7E0112C8AF7B017A0479B190018EE425
:108B3400F0A37432F0A37402F07F1AFE12C8AF12CD
:0B8B4400F04E126EFF12E14D028A8A13
:018B4F002203
:10F04E0075CEA575CF5A0075CEA575CF5A000000A6
:03F05E000080FB34
:0300030002004EAA
:04004E005388FD32A4
:03000B0002DF53BE
:10DF5300C0E0C083C082C0D0758A65758C669006A8
:10DF6300FDE04401F09005A7E0600E9005A9E004F0
:10DF7300F070069005A8E004F09005ACE0B4011B36
:10DF8300D39005ABE094009005AAE09400400CA365
:10DF9300E024FFF09005AAE034FFF0900714E004BA
:0ADFA300F0D0D0D082D083D0E0325D
:0300130002F0EA0E
:04F0EA005388F7321E
:03001B0002F0EE02
:04F0EE0053887F3292
:03002B0002F0F2EE
:04F0F20053C87F324E
:03003B0002EFB918
:10EFB900C0E0E5C030E00553C0FE8008E5C030E19F
:07EFC9000353C0FDD0E0324C
:030043000294E63E
:0D94E600C0E0C0F0C083C082C0D075D010BF
:1094F300902840E0FF902843E05F900235F0E020A1
:10950300E203029589902840E054FBF0902836E06E
:1095130054FDF0900236E0D394004057A3E0FC24BE
:109523003AF582E43402F583E0900234F090033795
:10953300E0B40716900234E0FE547FFD30D006EE0F
:109543004480F08005900234EDF0900234E09028DE
:1095530037F09005A8E4F0A3F0743A2CF582E434D4
:1095630002F583E4F0900237E004F0900236E01451
:10957300F08013900237E4F09003347404F012E4A3
:10958300BFE4FF12C392900235E0FF30E35090280E
:1095930040E054F7F0902836E054FEF0A3E0900248
:1095A30034F0E0547FFE900237E0243AF582E4344D
:1095B30002F583EEF09005A8E4F0A3F0900237E003
:1095C30004F0E0FED3940440020000EE75F0FA8448
:1095D300AEF0900237EEF0D3941540020000EF3066
:1095E300E407902840E054EFF0900235E030E507BF
:1095F300902840E054DFF0900235E0FF30E607901A
:109603002840E054BFF0EF30E70D902840E0547F4E
:0A961300F0900560E004F05391EFC1
:0B961D00D0D0D082D083D0F0D0E0325B
:03004B0002DC4D87
:0BDC4D00C0E0C083C082C0D075D010C2
:10DC5800902848E0FF90284BE05FFD30E4079028CB
:10DC680048E054EFF0AF15ED30E507902848E05450
:10DC7800DFF0AF15ED30E614902848E054BFF0907F
:10DC880006FDE04402F09005EC7401F0AF15ED30AC
:10DC9800E70D902848E0547FF090055FE004F053CA
:02DCA80091DF0A
:09DCAA00D0D0D082D083D0E0324A
:0300530002EB3A83
:0BEB3A00C0E0C083C082C0D075D010C6
:10EB4500902850E0FF902853E05FFF30E3079028BE
:08EB550050E054F7F05391BFAA
:09EB5D00D0D0D082D083D0E03288
:109628004106B0004106AD004106AC004106AB0161
:109638004106B1004106AF004106B2004106BF0035
:0C9648004106B3004106C0004106AE0020
:10CA5D007B017A00790D12DDDE7B017A00790D12F2
:10CA6D00A99AEF70647B017A00790D9001D6F0A33D
:10CA7D007407F0A37402F07DCF7C0012CC2C7B01E7
:10CA8D007A00790D12A99AEF703690000D7403F0AB
:10CA9D00A37416F0A37404F0A37420F0A37412F021
:10CAAD00A37430F0A3F07B017A00790D90017CE442
:10CABD00F0A37407F0A37402F07FCF7E00129AF4F6
:10CACD007B017A00790D12DB139001DF7401F0A365
:10CADD007400F0A3740DF0A3E4F0A37407F07B01D0
:07CAED007A0679C102DE3D6B
:03F0F60002CA5DEE
:10CF810012EF89EF700E9006BFE0700804F0900672
:10CF9100B37403F012EF89BF0109E49006BFF0906A
:10CFA10006B3F012EEF2EF64014E700F9006ADE0A1
:10CFB10070099006B004F09006ADF012EEF2EF4E5B
:10CFC10070049006ADF012EF71EF64014E700D9098
:10CFD10006ABE07007A304F09006ABF012EF71EF1F
:10CFE1004E70049006ABF012EF0CEF64014E700F1F
:10CFF1009006AFE070099006B104F09006AFF01210
:0BD00100EF0CEF4E70049006AFF02221
:10ECFD00E4900000F0900000E0FFC3940150131267
:10ED0D00B004900000E0FF12A1B9900000E004F003
:05ED1D0080E302CF813C
:10939F0012CA5D75CEA575CF5A0075CEA575CF5A79
:1093AF00009007EDE0D394004006E014F012EC11AA
:1093BF009007EDE0703F128E2275CEA575CF5A0043
:1093CF0075CEA575CF5A00125FA875CEA575CF5A69
:1093DF000075CEA575CF5A0012EADF12D64D75CEA5
:1093EF00A575CF5A0075CEA575CF5A0012BED612ED
:1093FF00F10B12E9B012EF89EF70199006B3E0D3B9
:10940F009400400280179006C07401F09006AE746D
:10941F0058F080139006AEE0D394004005E014F0AE
:10942F008005E49006C0F09006B2E0700812B36EAB
:10943F0012B51880069006B2E014F012A5C290067D
:10944F00C7E070621266C575CEA575CF5A0075CE8E
:10945F00A575CF5A0012646F75CEA575CF5A0075DA
:10946F00CEA575CF5A00126EFF12D11A9006BEE02C
:10947F00B4301175CEA575CF5A0075CEA575CF5ADC
:10948F000012C92975CEA575CF5A0075CEA575CF17
:10949F005A0012CCB575CEA575CF5A0075CEA575ED
:1094AF00CF5A0012DEF79006C7E0B4251112F1096A
:1094BF0075CEA575CF5A0075CEA575CF5A009006FB
:1094CF00C7E0B4311112EF2675CEA575CF5A0075CE
:0794DF00CEA575CF5A002253
:01F1070022E5
:0AF0B200E49006BDF09006BCF022C9
:0BBCC300E0FCA3E0A3FDE0900230F0E5
:10BCCE0090022BEBF0A3EAF0A3E9F0A3ECF0A3EDC6
:01BCDE00F075
:10BCDF00E4900233F090023174A0F0A304F012E765
:10BCEF0038900233E004F0E0D3940A40037F00223F
:10BCFF0012E979900231E0FF12C7F1BF01E0900223
:10BD0F002EE0FF12C7F1EF640160037F0022900263
:10BD1F002EA3E0FF12C7F1EF640160037F00221230
:10BD2F00E979900232E0FF12C7F1EF640160037FFF
:10BD3F000022900230E0FF14F0EF6026E07003FF66
:10BD4F0080027F0112CDDA90022BE0FBA3E0FAA371
:10BD5F00E0F9EF1218BA90022CE475F00112198B6A
:07BD6F0080D012E7387F01CC
:01BD760022AA
:10C23C009001E0EEF0A3EFF0A3EBF0A3EAF0A3E99A
:01C24C00F001
:10C24D00E49001E8F09001E674A0F0A304F0001270
:10C25D00E7389001E8E004F0E0D3940A40037F0052
:10C26D002212E9799001E6E0FF12C7F1BF01E090DB
:10C27D0001E0E0FF12C7F1EF640160037F0022903F
:10C28D0001E0A3E0FF12C7F1EF640160037F00221C
:10C29D009001E2E0FBA3E0FAA3E0F9121852FF12BD
:10C2AD00C7F1EF64016004007F00229001E3E475A3
:10C2BD00F00112198B9001E1E004F070069001E09D
:10C2CD00E004F09001E5E014F0E070C412E7387F6F
:09C2DD00057E0012EF40007F0114
:01C2E6002235
:10D19F009001E4EBF0A3EAF0A3E9F0A3ECF0A3ED28
:01D1AF00F08F
:10D1B000A3E0FFD394004006EFD3944040037F00E8
:10D1C00022E490022AF07B017A0179EA9001E712C9
:10D1D000BCC39001E4E0FBA3E0FAA3E0F9A312BC16
:10D1E000C390022E7401F0A37401F0A374EAF090CE
:10D1F00001E9E0900231F09001E4E0FBA3E0FAA342
:10D20000E0F912D294EF70037F012290022AE00429
:09D21000F0E0C3940340AF7F007D
:01D2190022F2
:10CE6800900199EEF0A3EFF0A3EBF0A3EAF0A3E9A9
:01CE7800F0C9
:10CE7900A3E0FFD394004006EFD39440400312F09F
:10CE89004EE49001DFF0900199E0FEA3E0FFA3E0FA
:10CE9900FBA3E0FAA3E0F9A3E09001E5F012C23C9C
:10CEA9007B017A01799F900199E0FCA3E090019EB2
:10CEB90012BCC890022E7401F0A37401F0A3749FF0
:10CEC900F090019EE0900231F090019BE0FBA3E01D
:10CED900FAA3E0F912D294EF70037F01229001DFE7
:0BCEE900E004F0E0C39403409D7F00D4
:01CEF400221B
:10C43A009001DCEBF0A3EAF0A3E9F0A3ECF0A3EDA2
:01C44A00F001
:10C44B009001E1E0FEA3E0FFD39400EE9400407C6A
:10C45B009001DFA3E0543FFD600974409D9001E320
:10C46B00F080069001E37440F09001E3E0FDC3EF30
:10C47B009DEE940050079001E1A3E0A3F09001DC46
:10C48B00E0FBA3E0FAA3E0F9A3E0FCA3E0FD90013D
:10C49B00E3E09001E9F012D19FEF7002FF229001CF
:10C4AB00E3E0FFFD7C009001DDEC8DF012198B9029
:10C4BB0001E0E02DF09001DFE03CF0C39001E2E001
:0EC4CB009FF09001E1E09400F002C44B7F016D
:01C4D9002240
:10C75400900191EEF0A3EFF0A3EBF0A3EAF0A3E9CC
:01C76400F0E4
:10C76500900196E0FCA3E0FDD39400EC94004079A1
:10C77500900191E0FEA3E0FF543FFB600974409BEC
:10C78500900198F080069001987440F0900198E02F
:10C79500FBC3ED9BEC94005007900196A3E0A3F03A
:10C7A500900193E0FBA3E0FAA3E0F9900198E090F3
:10C7B500019EF012CE68EF7002FF22900198E0FF13
:10C7C500FD7C00900192E02DF0900191E03CF0900D
:10C7D5000194EC8DF012198BC3900197E09FF090B6
:0BC7E5000196E09400F002C7657F01A0
:01C7F0002226
:10EE13009028ACE04402F0A3E04402F0A3E04404F1
:0EEE2300F09028ACE054FBF0A3E054FBF0228A
:10E979009028ACE04402F0A3E04402F0A3E0440490
:10E98900F0000000000000E054FDF09028ADE054D4
:10E99900FDF09028ACE054FDF0000000000000906C
:07E9A90028AEE054FBF02250
:10E738009028AEE054FDF09028ADE054FDF090280C
:10E74800ACE054FDF00000000000009028AEE0446A
:10E7580004F00000000000009028ACE04402F0A3A0
:0BE76800E04402F0000000000000226E
:10C7F100E4F508F5089028AEE054FBF0EF30E70EC1
:10C801009028ACE04402F0A3E04402F080159028A7
:10C81100AEE054FDF09028ADE054FDF09028ACE07E
:10C8210054FDF0EF25E0FF9028AEE04404F0000055
:10C83100000000000508E508B408BA9028AEE054ED
:10C84100FBF09028ACE04402F0A3E04402F075084C
:10C8510020E4F5089028AFE020E1149028AEE044F0
:10C8610004F0000000000000E054FBF07F0122050D
:10C8710008E508B420DE9028AEE04404F000000092
:0CC88100000000E054FBF012E7387F00DC
:01C88D002288
:10CDDA00E4F508F5099028ACE04402F0A3E0440227
:10CDEA00F0A3E054FBF0E4F508E50925E0F5099025
:10CDFA0028AEE04404F0000000000000A3E030E1A7
:10CE0A00034309019028AEE054FBF0000000000043
:10CE1A00000508E508B408D1EF60179028AEE05481
:10CE2A00FDF09028ADE054FDF09028ACE054FDF000
:10CE3A00800C9028ACE04402F0A3E04402F0902871
:10CE4A00AEE04404F0000000000000E054FBF09063
:0DCE5A0028ACE04402F0A3E04402F0AF0970
:01CE670022A8
:01F1080022E4
:10F02600E5E820E10343E80290284BE020E704E00E
:04F036004480F02200
:10EC61007F7D7E28129254EF54C7FF9000CA74280A
:10EC7100F0A3747DF012C6B6902843E0547FF09063
:06EC810028AEE04408F09B
:01EC8700226A
:06C618009007D3121BA7DE
:10C61E00E4FF90288474CCF0E4F0902885E0600A62
:10C62E000FEFD3940840F37F00229007D3A3A3A368
:10C63E00E0FF902880EFF09007D3E0FCA3E0FDA38D
:10C64E00E0FEA3E0FF7808121B35902881EFF090F2
:10C65E0007D3E0FCA3E0FDA3E0FEA3E0FF781012F9
:10C66E001B35902882EFF09007D3E0FCA3E0FDA3EA
:10C67E00E0FEA3E0FF7818121B35902883EFF090B0
:10C68E0007D7E0FEA3E0F5828E83E4F0FF000FEF04
:10C69E00B408FAE4FF902885E0600A0FEFD39408FF
:07C6AE0040F37F00227F0131
:01C6B5002262
:06BF85009007C5121BA786
:10BF8B00E4FB90288474CCF0E4F0902885E0600A00
:10BF9B000BEBD3940840F37F00229007C5A3A3A318
:10BFAB00E0FF902880EFF09007C5E0FCA3E0FDA335
:10BFBB00E0FEA3E0FF7808121B35902881EFF0908C
:10BFCB0007C5E0FCA3E0FDA3E0FEA3E0FF781012A1
:10BFDB001B35902882EFF09007C5E0FCA3E0FDA392
:10BFEB00E0FEA3E0FF7818121B35902883EFF0D208
:10BFFB008720870C9007CBE004F0E0D3941E40F130
:10C00B009007C9E0FEA3E0F5828E83E4F0FB000B02
:10C01B00EBB408FAE4FB902885E0600A0BEBD394B1
:08C02B000840F37F00227F01B1
:01C0330022EA
:06C6B6009000C6121BA754
:10C6BC00E4FF90288474CCF0E4F0902885E0600AC4
:10C6CC000FEFD3940840F37F00229000C6A3A3A3DE
:10C6DC00E0FF902880EFF09000C6E0FCA3E0FDA303
:10C6EC00E0FEA3E0FF7808121B35902881EFF09054
:10C6FC0000C6E0FCA3E0FDA3E0FEA3E0FF7810126F
:10C70C001B35902882EFF09000C6E0FCA3E0FDA35F
:10C71C00E0FEA3E0FF7818121B35902883EFF09011
:10C72C0000CAE0FEA3E0F5828E83E4F0FF000FEF79
:10C73C00B408FAE4FF902885E0600A0FEFD3940860
:07C74C0040F37F00227F0192
:01C7530022C3
:1092540090288474CCF0E4F0F508902885E0600B45
:109264000508E508D3940840F180248F828E83E0BA
:10927400F508E4F508000508E508B408F8E4F5087D
:10928400902885E0600F0508E508D3940840F1E4D0
:10929400FFFEFDFC22902880E0FFE4FCFDFE900030
:1092A400C6121BA7902881E0FFE4FCFDFE7808129B
:1092B4001B489000CA121BA79000C6E0FCA3E0FD67
:1092C400A3E0FEA3E0FFA3E0F8A3E0F9A3E0FAA380
:1092D400E0FBEF2BFFEE3AFEED39FDEC38FC90009D
:1092E400C6121BA7902882E0FFE4FCFDFE9000CA92
:1092F400121BA79000CAE0FCA3E0FDA3E0FEA3E0DC
:10930400FF7810121B489000CA121BA79000C6E0F9
:10931400FCA3E0FDA3E0FEA3E0FFA3E0F8A3E0F9D3
:10932400A3E0FAA3E0FBEF2BFFEE3AFEED39FDECF0
:1093340038FC9000C6121BA7902883E0FFE4FCFDD4
:10934400FE9000CA121BA79000CAE0FCA3E0FDA394
:10935400E0FEA3E0FF7818121B489000CA121BA776
:109364009000C6E0FCA3E0FDA3E0FEA3E0FFA3E0C1
:10937400F8A3E0F9A3E0FAA3E0FBEF2BFFEE3AFE3B
:10938400ED39FDEC38FC9000C6121BA79000C6E036
:0A939400FCA3E0FDA3E0FEA3E0FF50
:01939E0022AC
:10BB530000000000000000000000000000000000E2
:10BB630000000000000000000000000000000000D2
:10BB7300000000003D99E1FB3DE6D2F937341C9FFC
:10BB8300392B0436392B043600000000096000000D
:10BB930027100461A83000927C000063B3ED3B7072
:10BBA300B76B3B70B76B0105B210E80105C210E932
:10BBB3000105B6287B0105C6287C0105BA10ED01F5
:10BBC30005CA10EE0105BE10EB0105CE10EC010510
:10BBD300D210EA00927C0010F500927C0010FB1D4D
:10BBE3000004C3018530000000018600000000014D
:10BBF30087811D2BA70125000000000183000000A1
:09BC030000013200000000012CD8
:079654004405AE0000000018
:10E898007B017A0579B29001D674A5F0A3745AF079
:10E8A8007D387C0012EAAE9005EAEEF0A3EFF07B2B
:10E8B800017A0579B290017CE4F0A37438F0A3746E
:09E8C80002F07FD87E00029AF4F0
:10E607007B017A0579B29001D674A5F0A3745AF00C
:10E617007D387C0012EAAE9005EAE06E7003A3E055
:10E627006F601A7B017A0579B29001D6E4F0A37482
:0DE637003AF0A37402F07DD87C0012CC2CC8
:01E6440022B3
:1066C5009000C1121BB30000000012E6077B017A9F
:1066D5000079C59001D6E4F0A304F0A304F07DB9D8
:1066E5007C0012CC2C9000C5E09000CAB43C267406
:1066F50010F0A374F4F07F6B7E2A7D707C0012C6C7
:10670500B69000CA7410F0A374FAF07F6B7E2A7DF0
:10671500707C0080247410F0A374F4F07F307EA8A0
:106725007D617C0412C6B69000CA7410F0A374FA99
:10673500F07F307EA87D617C0412C6B6E49000B57A
:10674500F09000B5E0FF75F006A424DAF582E43494
:10675500BBF583E493FD7401939000BFCDF0A3EDE9
:10676500F0EF75F006A424D6F582E434BBF5831268
:106775001B879000BB121BA79000B1121BB3000032
:1067850000009000BFE0FEA3E0FF1292549000B11C
:10679500121BA79000BBE0FCA3E0FDA3E0FEA3E075
:1067A500FF9000B1E0F8A3E0F9A3E0FAA3E0FBC392
:1067B500121B2460349000BBE0FCA3E0FDA3E0FEC7
:1067C500A3E0FF9000B1121BA79000B1E0FCA3E08D
:1067D500FDA3E0FEA3E0FF9000BFE0FBA3E0900077
:1067E500CACBF0A3EBF012C6B69000B5E004F0E01A
:1067F500C394025003026746E49000B5F09000B5DB
:10680500E0FF75F005A424ACF582E434BBF583E420
:1068150093FD7401939000B9CDF0A3EDF0EF75F001
:1068250005A424A9F582E434BBF583E493F9740146
:1068350093FA7402939000B6C9F0A3EAF0A3E9F0C5
:106845009000B1121BB3000000009000B9E0FEA358
:10685500E0FF1292549000B1121BA79000B9E0FE20
:10686500A3E0FF647B7003EE6428600AEF647C702C
:1068750003EE6428701B9000B6E0FBA3E0FAA3E0EA
:10688500F9121B5B9000B4E06F605CE4FCFDFE80D8
:10689500309000B6E0FBA3E0FAA3E0F9121B5B9091
:1068A50000B1E0F8A3E0F9A3E0FAA3E0FBC3121BF3
:1068B5002460349000B6E0FBA3E0FAA3E0F9121BD4
:1068C5005B9000B1121BA79000B1E0FCA3E0FDA313
:1068D500E0FEA3E0FF9000B9E0FBA3E09000CACB87
:1068E500F0A3EBF012C6B69000B5E004F0E0C39457
:0668F500095003026802D5
:0168FB00227A
:088B500090073EEFF0A3EDF0E9
:108B580075CEA575CF5A0075CEA575CF5A0090076A
:108B680049121BB300000000E49005ECF0900744A4
:108B7800F090073EE0FF900744E0C39F4003028C5B
:108B88008F75CEA575CF5A0075CEA575CF5A0090B2
:108B980005ECE060FAE49005ECF075CEA575CF5AC7
:108BA8000075CEA575CF5A0090073FE070097FD2B7
:108BB8007E10129254803AE4FB7D017F0B7E0112F5
:108BC8000000BF0134784D7C077D017B017A007974
:108BD800007E007F0412182C7B017A07794D7D04F2
:108BE80012C0E390074DE0FCA3E0FDA3E0FEA3E084
:108BF800FF900740121BA780079006FEE04410F084
:108C0800E4FFFEFD7C80900740E0F8A3E0F9A3E0D4
:108C1800FAA3E0FBC3121B244024900740E0FCA306
:108C2800E0FDA3E0FEA3E0FF121AF3EF2401FFE446
:108C38003EFEE43DFDE43CFC900740121BA7900774
:108C480040E0FCA3E0FDA3E0FEA3E0FF900745128F
:108C58001BA7900749E0FCA3E0FDA3E0FEA3E0FF0B
:108C6800900745E0F8A3E0F9A3E0FAA3E0FBEF2BB7
:108C7800FFEE3AFEED39FDEC38FCA3121BA7900776
:108C880044E004F0028B7990073EE0FBE4FAF9F83F
:108C9800900749E0FCA3E0FDA3E0FEA3E0FF121A61
:108CA8006175CEA575CF5A0075CEA575CF5A00004F
:018CB8002299
:088CB900900751EFF0A3EDF06C
:108CC10075CEA575CF5A0075CEA575CF5A00900700
:108CD1005C121BB300000000E49005ECF090075714
:108CE100F0900751E0FF900757E0C39F4003028DCA
:108CF100F875CEA575CF5A0075CEA575CF5A0090DF
:108D010005ECE060FAE49005ECF075CEA575CF5A5C
:108D11000075CEA575CF5A00900752E070097FD437
:108D21007E10129254803AE4FB7D017F0E7E011287
:108D31000000BF013478607C077D017B017A0079F6
:108D4100007E007F0412182C7B017A0779607D0474
:108D510012C0E3900760E0FCA3E0FDA3E0FEA3E006
:108D6100FF900753121BA780079006FEE04410F006
:108D7100E4FFFEFD7C80900753E0F8A3E0F9A3E057
:108D8100FAA3E0FBC3121B244024900753E0FCA389
:108D9100E0FDA3E0FEA3E0FF121AF3EF2401FFE4DC
:108DA1003EFEE43DFDE43CFC900753121BA79007F7
:108DB10053E0FCA3E0FDA3E0FEA3E0FF90075812FF
:108DC1001BA790075CE0FCA3E0FDA3E0FEA3E0FF8E
:108DD100900758E0F8A3E0F9A3E0FAA3E0FBEF2B3A
:108DE100FFEE3AFEED39FDEC38FCA3121BA790070C
:108DF10057E004F0028CE2900751E0FBE4FAF9F845
:108E010090075CE0FCA3E0FDA3E0FEA3E0FF121AE3
:108E11006175CEA575CF5A0075CEA575CF5A0000E4
:018E2100222E
:10A7B6009000B1E0FCA3E0FDA3E0FEA3E0FF900063
:10A7C600C9121BA79000B9E0FCA3E0FDA3E0FEA31D
:02A7D600E0FFA2
:10A7D800E412161C9000CD121BA79000C9E0FCA340
:10A7E800E0FDA3E0FEA3E0FFE412161C9000D112E6
:10A7F8001BA79000C9E0FCA3E0FDA3E0FEA3E0FFD7
:10A80800E412161CA804A905AA06AB079000CDE01F
:10A81800FCA3E0FDA3E0FEA3E0FF1213149000D117
:10A82800E0F8A3E0F9A3E0FAA3E0FB121512900008
:10A83800D5121BA7E4FFFE7D807C3F9000D5E0F891
:10A84800A3E0F9A3E0FAA3E0FB121318A804A905F2
:10A85800AA06AB07E4FFFE7D807C3F12151290002C
:10A86800D9121BA7E4FFFE7D807CBF9000D9E0F8D9
:10A87800A3E0F9A3E0FAA3E0FB1213189000DD129D
:10A888001BA7E4FFFEFD7C4F9000DDE0F8A3E0F994
:0FA89800A3E0FAA3E0FB12140912AB7A12165ACE
:01A8A700228E
:06A2C0009000C5121BA76F
:10A2C600E49000CFF07F32FEFDFC9000C9E0F8A3D9
:10A2D600E0F9A3E0FAA3E0FBC3121B2450037F00BE
:10A2E600229000C5E0FCA3E0FDA3E0FEA3E0FFA3EF
:10A2F600E0F8A3E0F9A3E0FAA3E0FBD3121B2440A5
:10A306004D9000C5E0F8A3E0F9A3E0FAA3E0FBA3B3
:10A31600E0FCA3E0FDA3E0FEA3E09BFFEE9AFEEDCA
:10A3260099FDEC98FCE47BE87A03F9F81219D690CB
:10A3360000C9E0F8A3E0F9A3E0FAA3E0FB121A6172
:10A346009000CDEEF0A3EFF0A37401F0804A9000E8
:10A35600C9E0F8A3E0F9A3E0FAA3E0FB9000C5E0AA
:10A36600FCA3E0FDA3E0FEA3E0C39BFFEE9AFEED97
:10A3760099FDEC98FCE47BE87A03F9F81219D6907B
:10A3860000C9E0F8A3E0F9A3E0FAA3E0FB121A6122
:10A396009000CDEEF0A3EFF09000CDE0FEA3E0FF3D
:10A3A6007C0B7DC3121CC6E47BD07A07F9F8121A1F
:0CA3B600619000CFE0B40104EF4480FF90
:01A3C2002278
:069F98009007AA121BA7AE
:109F9E0075CEA575CF5A0075CEA575CF5A00900710
:109FAE00AEE07040A3121BB3000000009007AFE0BC
:109FBE00FCA3E0FDA3E0FEA3E0FF9000CA7410F046
:109FCE00A374E9F012C6B69007AFE0FCA3E0FDA3C0
:109FDE00E0FEA3E0FF9000CA7410F0A374EEF0123E
:109FEE00C6B680469007AF121BB300000000900764
:109FFE00AFE0FCA3E0FDA3E0FEA3E0FF9000007441
:10A00E0001F0A3742EF0E4A3F01200009007AFE06D
:10A01E00FCA3E0FDA3E0FEA3E0FF9000007401F0BE
:10A02E00A3742FF0E4A3F01200009007AEE0FD7FC2
:10A03E0002128B50C004C005C006C0079007AAE0EC
:10A04E00FCA3E0FDA3E0FEA3E0FF9000C9121BA756
:10A05E00D007D006D005D00412A7D89007AF121B98
:10A06E00A775CEA575CF5A0075CEA575CF5A00909F
:10A07E0007AEE07011A3E0FCA3E0FDA3E0FEA3E0B9
:10A08E00FF9005C280119007AFE0FCA3E0FDA3E0B6
:0AA09E00FEA3E0FF9005B2121BA71D
:01A0A8002295
:06B444009007B3121BA7E4
:10B44A00C20575CEA575CF5A0075CEA575CF5A001F
:10B45A009007B8121BB3000000009007B7E0701BFA
:10B46A00A3E0FCA3E0FDA3E0FEA3E0FF9000CA7402
:10B47A0010F0A374EEF012C6B6801E9007B8E0FC76
:10B48A00A3E0FDA3E0FEA3E0FF9000007401F0A397
:10B49A00742FF0E4A3F01200009007B7E0FD7F03D9
:10B4AA00128B50C004C005C006C0079007B3E0FC69
:10B4BA00A3E0FDA3E0FEA3E0FF9000C9121BA7D002
:10B4CA0007D006D005D00412A2C0E4FCFDFE900706
:10B4DA00B8121BA775CEA575CF5A0075CEA575CF24
:10B4EA005A009007B7E07011A3E0FCA3E0FDA3E0C7
:10B4FA00FEA3E0FF9005CA80119007B8E0FCA3E024
:0DB50A00FDA3E0FEA3E0FF9005BA121BA711
:01B517002211
:067490009007BC121BA7CF
:1074960075CEA575CF5A0075CEA575CF5A00900743
:1074A600C1121BB3000000009007C0E0701BA3E0F0
:1074B600FCA3E0FDA3E0FEA3E0FF9000CA7428F061
:1074C600A3747CF012C6B680169000007401F0A377
:1074D6007484F0E4A3F07FA9FE7D0BFC1200007516
:1074E600CEA575CF5A0075CEA575CF5A00E4900586
:1074F600ECF09005ECE060FAE49005ECF09007C043
:10750600E0FD7F02128B50C004C005C006C0079084
:1075160007BCE0FCA3E0FDA3E0FEA3E0FF9000C9EA
:10752600121BA7D007D006D005D00412A2C0E4FCD7
:10753600FDFE9007C1121BA775CEA575CF5A007523
:10754600CEA575CF5A009007C0E0700FA3E0FCA34C
:10755600E0FDA3E0FEA3E0FF02765E9007C1A3A3D1
:10756600A3E05480FFEF9007C16066E0FCA3E0FD56
:10757600A3E0FEA3E0547FFFEC9007C1121BA79087
:1075860007C1E0FCA3E0FDA3E0FEA3E0FFE41216C2
:107596001C7BCD7ACC798C783F12140912165A903E
:1075A60007C1121BA79007C1E0FCA3E0FDA3E0FE04
:1075B600A3E0FF7808121B489007C1121BA790078B
:1075C600C1E0FCA3E0FDA3E0FEA3E0FFED440480E0
:1075D6004DE0FCA3E0FDA3E0FEA3E0FFE412161CD1
:1075E6007BCD7ACC798C783F12140912165A900703
:1075F600C1121BA79007C1E0FCA3E0FDA3E0FEA318
:10760600E0FF7808121B489007C1121BA79007C11C
:10761600E0FCA3E0FDA3E0FEA3E0FFED54FBFDECE0
:107626009007C1121BA79005C6121BB3000B00A939
:107636009005C6E0FCA3E0FDA3E0FEA3E0FF9007F3
:10764600C1E0F8A3E0F9A3E0FAA3E0FBEF4BFFEEFD
:0E7656004AFEED49FDEC48FC9005C6121BA74C
:017664002203
:10822E00900008EEF0A3EFF0E024E8FF900008E0E5
:10823E003403AB07FA3395E0F9F8E4FFFEFD7C80DA
:10824E00121A6190000E121BA7900009E024E8FF9D
:10825E00900008E03403AB07FA3395E0F9F8E4FF39
:10826E00FEFD7C80121A61AF0390000AEAF0A3EFC4
:10827E00F090000AE0FEA3E0FF7C037DE81218EE0A
:10828E00900008E0FAA3E0FB24E8FDEA3403FC12B8
:10829E001900A3EEF0A3EFF0AF03AE02EE3395E0BC
:1082AE00FDFC90000EE0F8A3E0F9A3E0FAA3E0FBDA
:1082BE001219D6C004A905AA06AB0790000AE0FC65
:1082CE00A3E0FD900008E0FEA3E0FF1218EE7C0391
:1082DE007DE8121900E4FCFDD000EB2FFFEA3EFE14
:1082EE00ED39FDEC38FC900012121BA7900009E04E
:1082FE0024E8FF900008E03403AB07FA3395E0F969
:10830E00F8900004E0FCA3E0FDA3E0FEA3E0FF1262
:10831E00E47B900016121BA7900009E024E8FF9062
:10832E000008E03403AB07FA3395E0F9F890000447
:10833E00E0FCA3E0FDA3E0FEA3E0FF12E47BAE02AF
:10834E00AF0390000CEEF0A3EFF07C037DE8121863
:10835E00EE900009E024E8FD900008E03403FC12E2
:10836E00190090000CEEF0A3EFF0E47FE87E03FD21
:10837E00FC900016E0F8A3E0F9A3E0FAA3E0FB12EC
:10838E0019D6A804A905AA06AB0790000CE0FEA317
:10839E00E0FFE4FCFDEB2FFFEA3EFEED39FDEC388D
:1083AE00FC900012E0F8A3E0F9A3E0FAA3E0FBC30F
:0C83BE00EF9BFFEE9AFEED99FDEC98FCA1
:0183CA002290
:10A5C2007FFD7E10129254A804A905AA06AB07E4E7
:10A5D200FFFE7D7DFC121A61900000EEF0A3EFF009
:10A5E200E4FCFD9005AEE0F8A3E0F9A3E0FAA3E0F5
:10A5F200FBC3121B24700302A6BE900000E0FAA364
:10A60200E0FBFFAE02E4FCFD9005AE121BA7D3EB0C
:10A6120094F4EA9401400F900001E0240CFF9000B2
:10A6220000E034FE801F900000E0FEA3E0FFC39430
:10A63200F4EE94015057C374F49FFF74019EFEC35D
:10A64200E49FFFE49EFEEF25E0FFEE33FEC006C06E
:10A65200079005B2E0FCA3E0FDA3E0FEA3E0FF90BB
:10A662000004121BA7D007D00612822E9005C21238
:10A672001BA79005C2E0FCA3E0FDA3E0FEA3E0FF60
:10A682009000CA7410F0A374E9F002C6B69005B245
:10A69200E0FCA3E0FDA3E0FEA3E0FF9000CA74107B
:10A6A200F0A374E9F012C6B69005B2E0FCA3E0FD97
:0CA6B200A3E0FEA3E0FF9005C2121BA76E
:01A6BE002279
:102DF200900663121BB30000000020AF030235CE21
:102E02009005ED7455F090BB9D121B8790066712DA
:102E12001BA7E47F19FEFDFC900667E0F8A3E0F92A
:102E2200A3E0FAA3E0FB1219D6E47B0AFAF9F8123E
:102E32001A6190066D121BA7E47F46FEFDFC900608
:102E420067E0F8A3E0F9A3E0FAA3E0FB1219D6E4E5
:102E52007B64FAF9F8121A61900671121BA7E47FDB
:102E620023FEFDFC900667E0F8A3E0F9A3E0FAA3D5
:102E7200E0FB1219D6E47B64FAF9F8121A619006A3
:102E820075121BA7E47F03FEFDFC900667E0F8A322
:102E9200E0F9A3E0FAA3E0FB1219D6E47B64FAF9A5
:102EA200F8121A61900679121BA775CEA575CF5A32
:102EB2000075CEA575CF5A00E4FD7F04128B5090A9
:102EC200067D121BA790066DE0FCA3E0FDA3E0FEC9
:102ED200A3E0FF90067DE0F8A3E0F9A3E0FAA3E007
:102EE200FBD3121B244008E490066BF0022F709073
:102EF2000671E0FCA3E0FDA3E0FEA3E0FF90067DE7
:102F0200E0F8A3E0F9A3E0FAA3E0FBD3121B24400C
:102F12000890066B7401F08055900675E0FCA3E002
:102F2200FDA3E0FEA3E0FF90067DE0F8A3E0F9A395
:102F3200E0FAA3E0FBD3121B24400890066B740254
:102F4200F0802B900679E0FCA3E0FDA3E0FEA3E075
:102F5200FFA3E0F8A3E0F9A3E0FAA3E0FBD3121B7E
:102F62002490066B40057403F080037408F0900609
:102F72006BE070199005C2121BB3000000009005AF
:102F8200C6121BB3000000007FA01203AE90066BB6
:102F9200E0640160030231BB900667E0FCA3E0FD40
:102FA200A3E0FEA3E0FFE49007AEF0129F98900624
:102FB2005F121BB300000000E490065AF07F1E7EF1
:102FC2000012EF407FD57E1012925490065B121BC6
:102FD200A7E4FFFEFD7C8090065BE0F8A3E0F9A386
:102FE200E0FAA3E0FBC3121B24402490065BE0FC42
:102FF200A3E0FDA3E0FEA3E0FF121AF3EF2401FF1A
:10300200E43EFEE43DFDE43CFC90065B121BA7900F
:10301200065FE0FCA3E0FDA3E0FEA3E0FF90065BF9
:10302200E0F8A3E0F9A3E0FAA3E0FBEF2BFFEE3A0E
:10303200FEED39FDEC38FCA3121BA775CEA575CFAA
:103042005A0075CEA575CF5A0090065AE004F0E0FA
:10305200C394085003022FBF90065FE0FCA3E0FD7B
:10306200A3E0FEA3E0FFE47B08FAF9F8121A6190EC
:10307200065F121BA790065FE0FCA3E0FDA3E0FE43
:10308200A3E0FFE412161CC004C005C006C00790EE
:10309200BB91121B87E412161CD003D002D001D0C0
:1030A200001215129005E6121BA790065F121BB3C1
:1030B20000000000E490065AF07F1E7E0012EF40EE
:1030C2007FD37E1012925490065B121BA7E4FFFE80
:1030D200FD7C8090065BE0F8A3E0F9A3E0FAA3E0B0
:1030E200FBC3121B24402490065BE0FCA3E0FDA37B
:1030F200E0FEA3E0FF121AF3EF2401FFE43EFEE438
:103102003DFDE43CFC90065B121BA790065FE0FCD1
:10311200A3E0FDA3E0FEA3E0FF90065BE0F8A3E0DE
:10312200F9A3E0FAA3E0FBEF2BFFEE3AFEED39FD47
:10313200EC38FCA3121BA775CEA575CF5A0075CE2D
:10314200A575CF5A0090065AE004F0E0C3940850E7
:10315200030230BB90065FE0FCA3E0FDA3E0FEA308
:10316200E0FFE47B08FAF9F8121A6190065F121B7D
:10317200A790065FE0FCA3E0FDA3E0FEA3E0FFE46E
:1031820012161CC004C005C006C00790BB8D121BDE
:1031920087E412161CD003D002D001D000121512FF
:1031A2009005DE121BA77FA11203AE75CEA575CFC7
:1031B2005A0075CEA575CF5A0090066BE0B402385E
:1031C200900667E0FCA3E0FDA3E0FEA3E0FFE47B42
:1031D20002FAF9F8121A61900667121BA7900667A5
:1031E200E0FCA3E0FDA3E0FEA3E0FFE49007C0F053
:1031F2001274907FA21203AE90066BE0B403389073
:103202000667E0FCA3E0FDA3E0FEA3E0FFE47B147D
:10321200FAF9F8121A61900667121BA7900667E086
:10322200FCA3E0FDA3E0FEA3E0FFE49007B7F012E9
:10323200B4447FA31203AE90066CE0B40419900567
:10324200C2121BB3000000009005C6121BB3000B94
:1032520000A97FA41203AE90066CE064056003022D
:1032620034DB9007AE04F07FED7EB37D637C001209
:103272009F9890065F121BB300000000E490065A6C
:10328200F0E4FB7D017F0E7E01120000BF01347865
:10329200817C067D017B017A0079007E007F041229
:1032A200182C7B017A0679817D0412C0E390068195
:1032B200E0FCA3E0FDA3E0FEA3E0FF90065B121B8F
:1032C200A780079006FEE04410F0E4FFFEFD7C803C
:1032D20090065BE0F8A3E0F9A3E0FAA3E0FBC312D7
:1032E2001B24402490065BE0FCA3E0FDA3E0FEA3C8
:1032F200E0FF121AF3EF2401FFE43EFEE43DFDE499
:103302003CFC90065B121BA790065FE0FCA3E0FD6D
:10331200A3E0FEA3E0FF90065BE0F8A3E0F9A3E0E0
:10332200FAA3E0FBEF2BFFEE3AFEED39FDEC38FCA1
:10333200A3121BA775CEA575CF5A0075CEA575CF62
:103342005A0090065AE004F0E0C394085003023297
:103352008390065FE0FCA3E0FDA3E0FEA3E0FFE4B0
:103362007B08FAF9F8121A6190065F121BA7900601
:103372005FE0FCA3E0FDA3E0FEA3E0FFE412161C65
:10338200C004C005C006C00790BB91121B87E4129F
:10339200161CD003D002D001D0001215129005E6FF
:1033A200121BA790065F121BB300000000E49006F8
:1033B2005AF0E4FB7D017F0D7E01120000BF013453
:1033C20078817C067D017B017A0079007E007F0492
:1033D20012182C7B017A0679817D0412C0E39006D3
:1033E20081E0FCA3E0FDA3E0FEA3E0FF90065B12F8
:1033F2001BA780079006FEE04410F0E4FFFEFD7C70
:103402008090065BE0F8A3E0F9A3E0FAA3E0FBC337
:10341200121B24402490065BE0FCA3E0FDA3E0FE27
:10342200A3E0FF121AF3EF2401FFE43EFEE43DFDA8
:10343200E43CFC90065B121BA790065FE0FCA3E055
:10344200FDA3E0FEA3E0FF90065BE0F8A3E0F9A392
:10345200E0FAA3E0FBEF2BFFEE3AFEED39FDEC388C
:10346200FCA3121BA775CEA575CF5A0075CEA57504
:10347200CF5A0090065AE004F0E0C39408500302C9
:1034820033B490065FE0FCA3E0FDA3E0FEA3E0FFFF
:10349200E47B08FAF9F8121A6190065F121BA790F2
:1034A200065FE0FCA3E0FDA3E0FEA3E0FFE412164A
:1034B2001CC004C005C006C00790BB8D121B87E468
:1034C20012161CD003D002D001D0001215129005A2
:1034D200DE121BA77FA51203AE90066CE0B406397C
:1034E200900667E0FCA3E0FDA3E0FEA3E0FFE47B1F
:1034F20002FAF9F8121A61900667121BA790066782
:10350200E0FCA3E0FDA3E0FEA3E0FF9007C074018E
:10351200F01274907FA61203AE90066CE0B40739E5
:10352200900667E0FCA3E0FDA3E0FEA3E0FFE47BDE
:1035320014FAF9F8121A61900667121BA79006672F
:10354200E0FCA3E0FDA3E0FEA3E0FF9007B7740157
:10355200F012B4447FA71203AE90066CE0640870C8
:103562005290066BE06408704A12DAA975CEA5750E
:10357200CF5A0075CEA575CF5A0075CEA575CF5A14
:103582000075CEA575CF5A0012A0A9900564E0750A
:10359200F00AA424A8F582E43405F583E4F0A3F04C
:1035A20075CEA575CF5A0075CEA575CF5A007FA8E6
:1035B2001203AE12E8981266C575CEA575CF5A00F1
:0C35C20075CEA575CF5A00E49005EDF021
:0135CE0022DA
:0B556200900093EBF0A3EAF0A3E9F047
:10556D00E49000A2F0900093E0FBA3E0FAA3E0F931
:10557D0090000D12186BFF12E7C29000A3EFF09090
:10558D000093E0FBA3E0FAA3E0F990000E12186B74
:10559D00FF12E7C2EFC454F0FEC006900093E0FB8B
:1055AD00A3E0FAA3E0F990000F12186BFF12E7C207
:1055BD00D0E02F9000A4F0900093E0FBA3E0FAA3BD
:1055CD00E0F990001112186BFF12E7C2EFC454F00E
:1055DD00FEC006900093E0FBA3E0FAA3E0F9900073
:1055ED001212186BFF12E7C2D0E02F9000A5F07BCE
:1055FD00017A0079A212B6B6900096121BA7E4901C
:10560D0000A2F0900093E0FBA3E0FAA3E0F9900074
:10561D001312186BFF12E7C29000A3EFF0900093E6
:10562D00E0FBA3E0FAA3E0F990001412186BFF124F
:10563D00E7C2EFC454F0FEC006900093E0FBA3E078
:10564D00FAA3E0F990001612186BFF12E7C2D0E032
:10565D002F9000A4F0900093E0FBA3E0FAA3E0F9F3
:10566D0090001712186BFF12E7C2EFC454F0FEC082
:10567D0006900093E0FBA3E0FAA3E0F99000181266
:10568D00186BFF12E7C2D0E02F9000A5F07B017AD6
:10569D000079A212B6B690009A121BA7E49000A250
:1056AD00F0900093E0FBA3E0FAA3E0F9900019124B
:1056BD00186BFF12E7C29000A3EFF0900093E0FB90
:1056CD00A3E0FAA3E0F990001A12186BFF12E7C2DB
:1056DD00EFC454F0FEC006900093E0FBA3E0FAA3E4
:1056ED00E0F990001B12186BFF12E7C2D0E02F906B
:1056FD0000A4F0900093E0FBA3E0FAA3E0F9900082
:10570D001C12186BFF12E7C2EFC454F0FEC00690D6
:10571D000093E0FBA3E0FAA3E0F990001E12186BD2
:10572D00FF12E7C2D0E02F9000A5F07B017A00793F
:10573D00A212B6B690009E121BA7900093E0FBA399
:10574D00E0FAA3E0241FF9E43AFA9001DFEBF0A3AD
:10575D00EAF0A3E9F0A3E4F0A37406F07B017A006C
:10576D0079A612DE3DE49000ACF07B017A0079A6BB
:10577D0012E35C9000AD121BA7900577E0FCA3E04F
:10578D00FDA3E0FEA3E0FF121C8C57BF0000FEB08E
:10579D0058050000FEB158180000FEB257BF0000BA
:1057AD00FEB358050000FEB458180000FEB5000009
:1057BD00583D9000ADE0FCA3E0FDA3E0FEA3E0FFAB
:1057CD0012B90C75CEA575CF5A0075CEA575CF5AE9
:1057DD0000900096E0FCA3E0FDA3E0FEA3E0FF90A7
:1057ED0000B5121BA790009AE0FCA3E0FDA3E0FE1C
:1057FD00A3E0FF125D3A80249000ADE0FCA3E0FD34
:10580D00A3E0FEA3E0FF129E7480119000ADE0FCBA
:10581D00A3E0FDA3E0FEA3E0FF127D3E12E8981287
:10582D0066C575CEA575CF5A0075CEA575CF5A0034
:01583D002248
:06B90C009000B1121BA720
:10B9120075CEA575CF5A0075CEA575CF5A00E4FF36
:10B92200FEFDFC9000B1E0F8A3E0F9A3E0FAA3E089
:10B93200FB1215AFE4FFFE7DC87C429000B1E0F837
:10B94200A3E0F9A3E0FAA3E0FB1213187B007A50FC
:10B9520079C3784712140912165A9000B5121BA720
:10B96200E47FB07EFEFDFC900577E0F8A3E0F9A34A
:10B97200E0FAA3E0FBC3121B2470527FE87E101290
:10B9820092549000B9121BA79000C9121BB30098E1
:10B9920096809000B512A7CD9000B9121BA7900017
:10B9A200B9E0FCA3E0FDA3E0FEA3E0FF9000CA74AF
:10B9B20010F0A374E8F012C6B69000B9E0FCA3E060
:0DB9C200FDA3E0FEA3E0FF9005B2121BA75D
:01B9CF002255
:065D3A009000B1121BA74E
:105D4000E47FB07EFEFDFC900577E0F8A3E0F9A3C8
:105D5000E0FAA3E0FBC3121B246003025E597FD963
:105D60007E101292549000B9121BA79000B9E0FC6B
:105D7000A3E0FDA3E0FEA3E0FFE412161C9005E201
:105D8000E0F8A3E0F9A3E0FAA3E0FB12140912166D
:105D90005A9000B9121BA77FEB7E1012925490000C
:105DA000BD121BA7E4FFFEFDFC9000BDE0F8A3E0E0
:105DB000F9A3E0FAA3E0FBC3121B24701D12A7B6DF
:105DC0009000BD121BA79000BDE0FCA3E0FDA3E086
:105DD000FEA3E0FF9005BE121BA77FD87E10129293
:105DE000549000B9121BA7E4FFFE7D207C41900572
:105DF000DEE0F8A3E0F9A3E0FAA3E0FB121409C087
:105E000004C005C006C0079000B9E0FCA3E0FDA3F4
:105E1000E0FEA3E0FFE412161CD003D002D001D0B4
:105E20000012140912165A9000B9121BA77FEA7EBD
:105E3000101292549000BD121BA7E4FFFEFDFC90CF
:105E400000BDE0F8A3E0F9A3E0FAA3E0FBC3121B56
:105E5000246003025FA7025F6CE47FB37EFEFDFC5B
:105E6000900577E0F8A3E0F9A3E0FAA3E0FBC31202
:105E70001B246003025FA77FDA7E10129254900009
:105E8000B9121BA79000B9E0FCA3E0FDA3E0FEA3BC
:105E9000E0FFE412161C9005E6E0F8A3E0F9A3E0A9
:105EA000FAA3E0FB12140912165A9000B9121BA7AC
:105EB0007FEC7E101292549000BD121BA7E4FFFEEF
:105EC000FDFC9000BDE0F8A3E0F9A3E0FAA3E0FB3D
:105ED000C3121B24701D12A7B69000BD121BA79001
:105EE00000BDE0FCA3E0FDA3E0FEA3E0FF9005CE33
:105EF000121BA77FD87E101292549000B9121BA7D4
:105F0000E4FFFE7D207C419005DEE0F8A3E0F9A3EC
:105F1000E0FAA3E0FB121409C004C005C006C007E4
:105F20009000B9E0FCA3E0FDA3E0FEA3E0FFE412D3
:105F3000161CD003D002D001D00012140912165A38
:105F40009000B9121BA77FEA7E101292549000BDF8
:105F5000121BA7E4FFFEFDFC9000BDE0F8A3E0F9F2
:105F6000A3E0FAA3E0FBC3121B24703B9000B51220
:105F7000A7B99000BD121BA79000BDE0FCA3E0FDF7
:105F8000A3E0FEA3E0FF9005D2121BA79000BDE0A6
:105F9000FCA3E0FDA3E0FEA3E0FF9000CA7410F0B4
:075FA000A374EAF012C6B67B
:015FA70022D7
:069E74009000B1121BA7D3
:109E7A00E4FFFEFDFC9000B1E0F8A3E0F9A3E0FAEC
:109E8A00A3E0FB1215AFE4FFFE7DC87C429000B14F
:109E9A00E0F8A3E0F9A3E0FAA3E0FB1213187B00B1
:109EAA007A5079C3784712140912165A9000B512DB
:109EBA001BA79000C9121BB3009896809000B5E0CA
:109ECA00FCA3E0FDA3E0FEA3E0FF12A2C0E4FCFDB8
:109EDA00FE9000B9121BA7E47FB17EFEFDFC90053F
:109EEA0077E0F8A3E0F9A3E0FAA3E0FBC3121B248E
:109EFA00703F9000B9E0FCA3E0FDA3E0FEA3E0FF01
:109F0A009005B6121BA77B017A0079BD9000B9E0D3
:109F1A00FCA3E0FDA3E0FEA3E0FF12BC0C9000C08E
:109F2A00E0FFE4FCFDFE9000CA7428F0A3747B8075
:109F3A0058E47FB47EFEFDFC900577E0F8A3E0F9D3
:109F4A00A3E0FAA3E0FBC3121B2470419000B9E01E
:109F5A00FCA3E0FDA3E0FEA3E0FF9005C6121BA749
:109F6A007B017A0079C19000B9E0FCA3E0FDA3E08F
:109F7A00FEA3E0FF12BC0C9000C4E0FFE4FCFDFE6F
:0D9F8A009000CA7428F0A3747CF012C6B6D3
:019F970022A7
:067D3E009000B1121BA72A
:107D4400E47FB27EFEFDFC900577E0F8A3E0F9A3A2
:107D5400E0FAA3E0FBC3121B246003027E147FD667
:107D64007E101292549000BE121BA79000BEE0FC3D
:107D7400A3E0FDA3E0FEA3E0FFEC12161C9000B10B
:107D8400E0F8A3E0F9A3E0FAA3E0FB121409E4FB92
:107D9400FA79C8784212151212165A9000BA121BB8
:107DA400A7E49000B9F0FFFEFDFCA3E0F8A3E0F91E
:107DB400A3E0FAA3E0FBD3121B0E9000BAE0FCA3ED
:107DC400E0FDA3E0FEA3E04003FF800F24FFFFEEED
:107DD40034FFFEED34FFFDEC34FFFC9000B5121BC4
:107DE400A79000B5E0FCA3E0FDA3E0FEA3E0FF90B4
:107DF40000CA7410F0A374EDF012C6B69000B5E09A
:107E0400FCA3E0FDA3E0FEA3E0FF9005BA027EE13F
:107E1400E47FB57EFEFDFC900577E0F8A3E0F9A3CE
:107E2400E0FAA3E0FBC3121B246003027EE47FD7C5
:107E34007E101292549000BE121BA79000BEE0FC6C
:107E4400A3E0FDA3E0FEA3E0FFEC12161C9000B13A
:107E5400E0F8A3E0F9A3E0FAA3E0FB121409E4FBC1
:107E6400FA79C8784212151212165A9000BA121BE7
:107E7400A7E49000B9F0FFFEFDFCA3E0F8A3E0F94D
:107E8400A3E0FAA3E0FBD3121B0E9000BAE0FCA31C
:107E9400E0FDA3E0FEA3E04003FF800F24FFFFEE1C
:107EA40034FFFEED34FFFDEC34FFFC9000B5121BF3
:107EB400A79000B5E0FCA3E0FDA3E0FEA3E0FF90E3
:107EC40000CA7410F0A374EEF012C6B69000B5E0C8
:107ED400FCA3E0FDA3E0FEA3E0FF9005CA121BA7EC
:017EE400227B
:03F0F90002E60725
:105AC100900000EFF0BF030C9028637480F0A3E412
:105AD100F0D28422C2849000CA7428F0A3747DF0AD
:105AE1007F007E007D007C0012C6B69000CA74283B
:105AF100F0A37478F07F007E007D007C0012C6B6B2
:105B01009028637480F0A3E4F0900000E07023FF1C
:105B1100FE7D32FC12BD77902864E04407F09000CE
:105B2100CA7410F0A374EFF07FBC7E747D937C88FF
:105B31008031900000E0FF64016004EFB402297F2E
:105B4100007E807D0C7C0012BD77902864E04403C8
:105B5100F09000CA7410F0A374EFF07F9C7E3C7D3E
:105B61001D7C9112C6B6800312F04E9028587449DC
:105B7100F09000CA7410F0A374F4F07F307EA87D19
:105B8100617C0412C6B69000CA7410F0A374FAF0D6
:105B91007F107EC27DDE7C0612C6B69000CA7410EC
:105BA100F0A374F5F07F017E007D007C0012C6B683
:105BB1009000CA7410F0A374FBF07F017E007D0099
:105BC1007C0012C6B69000CA7428F0A37478F07FE6
:105BD100737E007D007C0012C6B69000CA7428F066
:105BE100A37479F07F007E007D007C0012C6B69020
:105BF10000CA7428F0A3747AF07F607E007D007C77
:105C01000012C6B69000CA7410F0A374F0F07F00C1
:105C11007E007D007C0012C6B69000CA7410F0A30D
:105C210074F1F07F007E007D007C0012C6B690000A
:105C3100CA7410F0A374F2F07F007E007D007C0036
:105C410012C6B69000CA7410F0A374F3F07F007E00
:105C5100007D007C0012C6B69000CA7410F0A374D7
:105C6100F6F07F007E007D007C0012C6B69000CA6F
:105C71007410F0A374F7F07F007E007D007C0012A9
:105C8100C6B69000CA7410F0A374F8F07F007E00CD
:105C91007D007C0012C6B69000CA7410F0A374F99E
:105CA100F07F007E007D007C0012C6B69000CA74B1
:105CB10028F0A3747DF07F7F7E007D007C0012C6FA
:105CC100B69000CA7428F0A3747BF07F007E007D3B
:105CD100007C0012C6B69000CA7428F0A3747CF050
:105CE1007F007E007D007C0012C6B69000CA742839
:105CF100F0A3747EF07F007E007D007C0012C6B6AA
:105D01009000CA7410F0A374FCF07F007E007D0047
:105D11007C0012C6B653A4DF43AD2053A4BF43ADEC
:105D21004043E803902843E04480F090284BE0444E
:095D310080F09007ED7403F022EC
:058F8A0090000CEFF067
:108F8F006401704E7FD37E1012925490000D121B0D
:108F9F00A7E4FFFEFD7C8090000DE0F8A3E0F9A3AD
:108FAF00E0FAA3E0FBC3121B24402490000DE0FC69
:108FBF00A3E0FDA3E0FEA3E0FF121AF3EF2401FFED
:108FCF00E43EFEE43DFDE43CFC90000D121BA702C5
:108FDF00907290000CE0640260030290B4FB7D017C
:108FEF007F1B7E01120000BF013478197C007D01C8
:108FFF007B017A0079007E007F0412182C7B017AA6
:10900F000079197D0412C0E3900019E0FCA3E0FD84
:10901F00A3E0FEA3E0FF90000D121BA780079006B0
:10902F00FEE04410F0E4FFFEFD7C8090000DE0F8C0
:10903F00A3E0F9A3E0FAA3E0FBC3121B24402490A2
:10904F00000DE0FCA3E0FDA3E0FEA3E0FF121AF386
:10905F00EF2401FFE43EFEE43DFDE43CFC90000DF7
:10906F00121BA790000DE0FCA3E0FDA3E0FEA3E020
:10907F00FFE412161C9005DEE0F8A3E0F9A3E0FA76
:10908F00A3E0FB121409900015121BA7900015E026
:10909F00FCA3E0FDA3E0FEA3E0FF12165A9000111F
:1090AF00121BA7800A900011121BB300000000E4EE
:1090BF007F32FEFDFC900011E0F8A3E0F9A3E0FA87
:1090CF00A3E0FBC3121B24500A900011121BB30024
:1090DF00000000900011E0FCA3E0FDA3E0FEA3E080
:0190EF00FF81
:0190F000225D
:059C200090000CEFF0C4
:109C25006401704D7FD57E1012925490000D121B69
:109C3500A7E4FFFEFD7C8090000DE0F8A3E0F9A30A
:109C4500E0FAA3E0FBC3121B24407C90000DE0FC6E
:109C5500A3E0FDA3E0FEA3E0FF121AF3EF2401FF4A
:109C6500E43EFEE43DFDE43CFC90000D121BA780A4
:109C75005690000CE064026003029D0E7FD47E10B6
:109C850012925490000D121BA7E4FFFEFD7C8090FC
:109C9500000DE0F8A3E0F9A3E0FAA3E0FBC3121B73
:109CA50024402490000DE0FCA3E0FDA3E0FEA3E02A
:109CB500FF121AF3EF2401FFE43EFEE43DFDE43C10
:109CC500FC90000D121BA790000DE0FCA3E0FDA386
:109CD500E0FEA3E0FFE412161C9005E6E0F8A3E021
:109CE500F9A3E0FAA3E0FB121409900015121BA7D3
:109CF500900015E0FCA3E0FDA3E0FEA3E0FF121633
:109D05005A900011121BA7800A900011121BB30074
:109D1500000000E47F14FEFDFC900011E0F8A3E0D4
:109D2500F9A3E0FAA3E0FBC3121B24500A9000112B
:109D3500121BB300000000900011E0FCA3E0FDA39E
:059D4500E0FEA3E0FFB9
:019D4A0022F6
:056D0A00900715EFF0F9
:106D0F006003026D967FD17E101292549007161277
:106D1F001BA7E4FB7D017F197E01120000BF013428
:106D2F0078267C077D017B017A0079007E007F0445
:106D3F0012182C7B017A0779267D0412C0E3900785
:106D4F0026E0FCA3E0FDA3E0FEA3E0FF90071A12EC
:106D5F001BA780079006FEE04410F090071AE0FC96
:106D6F00A3E0FDA3E0FEA3E0FF900716E0F8A3E089
:106D7F00F9A3E0FAA3E02FFFEA3EFEE93DFDE83C70
:106D8F00FC90071E121BA7900715E0B4012C7FD1B2
:106D9F007E10129254900716121BA7E4FFFEFD7C83
:106DAF0080900716E0F8A3E0F9A3E0FAA3E0FBC395
:106DBF00121B245003026E66806D900715E064026B
:106DCF006003026E5CFB7D017F197E01120000BF24
:106DDF00013478267C077D017B017A0079007E00E3
:106DEF007F0412182C7B017A0779267D0412C0E3E9
:106DFF00900726E0FCA3E0FDA3E0FEA3E0FF9007D1
:106E0F0016121BA780079006FEE04410F0E4FFFE69
:106E1F00FD7C80900716E0F8A3E0F9A3E0FAA3E069
:106E2F00FBC3121B244030900716E0FCA3E0FDA328
:106E3F00E0FEA3E0FF121AF3EF2401FFE43EFEE4AD
:106E4F003DFDE43CFC900716121BA7800A90071625
:106E5F00121BB300000000E47F867E19FDFC900733
:106E6F0016E0F8A3E0F9A3E0FAA3E0FBC3121B249A
:106E7F00500C90071E121BB3000000008063900798
:106E8F0015E0B4011FA3E0FCA3E0FDA3E0FEA3E027
:106E9F00FFE412161C90BBA1121B97121409900746
:106EAF0022121BA7900715E0B4021FA3E0FCA3E07A
:106EBF00FDA3E0FEA3E0FFE412161C90BBA1121B82
:106ECF0097121409900722121BA7900722E0FCA328
:106EDF00E0FDA3E0FEA3E0FF12165A90071E121B5F
:0F6EEF00A790071EE0FCA3E0FDA3E0FEA3E0FFD9
:016EFE002271
:05B0E20090000CEFF0EE
:10B0E700BF01247FFD7E1012925490000D121BA702
:10B0F70090000DE0F8A3E0F9A3E0FAA3E0FBE4FF7A
:10B10700FE7DE27C04805D90000CE064027069FBC8
:10B117007D017F9A7E01120000EF6401705178155E
:10B127007C007D017B017A007900FE7F0412182CD8
:10B137007B017A0079157D0412C0E3900015E0FCCD
:10B14700A3E0FDA3E0FEA3E0FF90000D121BA79074
:10B15700000DE0F8A3E0F9A3E0FAA3E0FBE4FFFEAB
:10B167007D887C13121A61900011121BA78013901F
:10B1770006FEE04410F0800A900011121BB3000095
:10B187000000900011E0FCA3E0FDA3E0FEA3E0FFB8
:10B19700E412161C7B9A7A997999783F121409124E
:10B1A700165A900011121BA7900011E0FCA3E0FDB6
:06B1B700A3E0FEA3E0FF8F
:01B1BD00226F
:107EE500900010121BB3000000007FD17E1012928B
:107EF50054900010121BA7E4FFFEFD7C809000103B
:107F0500E0F8A3E0F9A3E0FAA3E0FBC3121B249079
:107F150007EEE0402954EFF0900010E0FCA3E0FDEF
:107F2500A3E0FEA3E0FF121AF3EF2401FFE43EFEF7
:107F3500E43DFDE43CFC900010121BA780034410B7
:107F4500F0900010E0FCA3E0FDA3E0FEA3E0FF90AD
:107F5500000C121BA7E47F867E19FDFC900010E043
:107F6500F8A3E0F9A3E0FAA3E0FBC3121B24501B1E
:107F750090000C121BB300000000900010121BB300
:107F8500000000009007EEE054EFF090000CE0FCDC
:107F9500A3E0FDA3E0FEA3E0FF9000CA7410F0A3E8
:107FA50074FCF012C6B6900010E0FCA3E0FDA3E05F
:107FB500FEA3E0FFE412161C90BBA1121B9712143E
:107FC5000912165A900693121BA77FD27E101292A1
:107FD50054900010121BA7E4FFFEFD7C809000105A
:107FE500E0F8A3E0F9A3E0FAA3E0FBC3121B2440E9
:107FF50024900010E0FCA3E0FDA3E0FEA3E0FF1247
:108005001AF3EF2401FFE43EFEE43DFDE43CFC9061
:108015000010121BA7900010E0FCA3E0FDA3E0FEFA
:10802500A3E0FF90000C121BA7E47F867E19FDFCE0
:10803500900010E0F8A3E0F9A3E0FAA3E0FBC31277
:108045001B24501490000C121BB30000000090007C
:1080550010121BB300000000900010E0FCA3E0FD2F
:10806500A3E0FEA3E0FFE412161C90BBA5121B972C
:108075001214097B397AB479C8783F121512121691
:078085005A900697021BA7A9
:103BD8009006CC121BB3000000009006C8121BB35D
:103BE800000000009006D4121BB3000000007FD232
:103BF8007E101292549006CC121BA77FEE7E1012F4
:103C080092549006C8121BA7E4FB7D017F1A7E011F
:103C1800120000EF6401704578DC7C067D017B01B1
:103C28007A007900FE7F0412182C7B017A0679DC71
:103C38007D0412C0E39006DCE0FCA3E0FDA3E0FEF7
:103C4800A3E0FFE412161C7BCB7AA179D5783F124A
:103C5800140912165A9006D4121BA780089006FE63
:103C6800E04410F022E47F867E19FDFC9006D0E047
:103C7800F8A3E0F9A3E0FAA3E0FBD3121B24401B4E
:103C88007F7A7EE67DFF7CFF9006D0E0F8A3E0F91E
:103C9800A3E0FAA3E0FB121B24400A9006D0121BF3
:103CA800B300000000E47F867E19FDFC9006D8E092
:103CB800F8A3E0F9A3E0FAA3E0FBD3121B24401B0E
:103CC8007F7A7EE67DFF7CFF9006D8E0F8A3E0F9D6
:103CD800A3E0FAA3E0FB121B24400A9006D8121BAB
:103CE800B3000000009006CC9006D49007EEE030B8
:103CF800E503023E1E30E3509006D4E0FCA3E0FD4D
:103D0800A3E0FEA3E0FF121AF3EF2401FFE43EFE56
:103D1800E43DFDE43CFC9006D4121BA79006CCE0E1
:103D2800FCA3E0FDA3E0FEA3E0FF9006D4E0F8A327
:103D3800E0F9A3E0FAA3E02FFFEA3EFEE93DFDE843
:103D48003CFC9006DC023F619006D4E0FCA3E0FD59
:103D5800A3E0FEA3E0FF9006CCE0F8A3E0F9A3E01F
:103D6800FAA3E0FBC3121B2440509006D4E0F8A34A
:103D7800E0F9A3E0FAA3E0FB9006CCE0FCA3E0FDA9
:103D8800A3E0FEA3E09BFFEE9AFEED99FDEC98FC04
:103D98009006DC121BA79006D4E0FCA3E0FDA3E08C
:103DA800FEA3E0FF121AF3EF2401FFE43EFEE43D18
:103DB800FDE43CFC9006D4023F619006CCE0F8A3F9
:103DC800E0F9A3E0FAA3E0FB9006D4E0FCA3E0FD51
:103DD800A3E0FEA3E0C39BFFEE9AFEED99FDEC98ED
:103DE800FC9006DC121BA7900709E06455600302EB
:103DF8003F649006D4E0FCA3E0FDA3E0FEA3E0FF4F
:103E0800121AF3EF2401FFE43EFEE43DFDE43CFC1E
:103E18009006D4023F619007EEE020E303023EFFE4
:103E28009006D4E0FCA3E0FDA3E0FEA3E0FF90062B
:103E3800CCE0F8A3E0F9A3E0FAA3E0FBC3121B244B
:103E480040659006D4E0F8A3E0F9A3E0FAA3E0FB0C
:103E58009006CCE0FCA3E0FDA3E0FEA3E09BFFEE10
:103E68009AFEED99FDEC98FC9006DC121BA79007D2
:103E780009E064559006D4600DE0FCA3E0FDA3E0E2
:103E8800FEA3E0FF801BE0FCA3E0FDA3E0FEA3E0AF
:103E9800FF121AF3EF2401FFE43EFEE43DFDE43C8B
:103EA800FC9006D4023F619006CCE0F8A3E0F9A3A9
:103EB800E0FAA3E0FB9006D4E0FCA3E0FDA3E0FE5B
:103EC800A3E0C39BFFEE9AFEED99FDEC98FC9006EB
:103ED800DC121BA79006D4E0FCA3E0FDA3E0FEA340
:103EE800E0FF121AF3EF2401FFE43EFEE43DFDE497
:103EF8003CFC9006D480629006D4E0FCA3E0FDA3CD
:103F0800E0FEA3E0FF9006CCE0F8A3E0F9A3E0FA16
:103F1800A3E02FFFEA3EFEE93DFDE83CFC9006DC0D
:103F2800121BA7900709E064559006D4600DE0FCC9
:103F3800A3E0FDA3E0FEA3E0FF801BE0FCA3E0FDFF
:103F4800A3E0FEA3E0FF121AF3EF2401FFE43EFE14
:103F5800E43DFDE43CFC9006D4121BA79005B2E0BA
:103F6800FCA3E0FDA3E0FEA3E02400FFE43EFEE4A2
:103F78003DFDEC3480FCE412161CA804A905AA0631
:103F8800AB07E4FFFEFD7C4F1215129006E0121BF2
:103F9800A7E4FFFEFD7C809006D4E0F8A3E0F9A337
:103FA800E0FAA3E0FBD3121B249006D4E0FC406B9C
:103FB800A3E0FDA3E0FEA3E0FF121AF3EF2401FF44
:103FC800E43EFEE43DFDE43CFC9006D4121BA790C1
:103FD80006D4E0FCA3E0FDA3E0FEA3E0FFE4121694
:103FE8001C9006E0E0F8A3E0F9A3E0FAA3E0FB12D6
:103FF800140912165A9006D4121BA79006D4E0FC96
:10400800A3E0FDA3E0FEA3E0FF121AF3EF2401FFF3
:10401800E43EFEE43DFDE43CFC8021A3E0FDA3E09A
:10402800FEA3E0FFE412161C9006E0E0F8A3E0F916
:10403800A3E0FAA3E0FB12140912165A9006D41250
:104048001BA79006D4E0FCA3E0FDA3E0FEA3E0FFDD
:104058009000CA7410F0A374EEF012C6B6E4FFFE26
:10406800FD7C809006D4E0F8A3E0F9A3E0FAA3E091
:10407800FBD3121B2440249006D4E0FCA3E0FDA34C
:10408800E0FEA3E0FF121AF3EF2401FFE43EFEE492
:104098003DFDE43CFC9006D4121BA7E4FFFEFD7C2A
:1040A800809006CCE0F8A3E0F9A3E0FAA3E0FBD304
:1040B800121B2440249006CCE0FCA3E0FDA3E0FE04
:1040C800A3E0FF121AF3EF2401FFE43EFEE43DFDF6
:1040D800E43CFC9006CC121BA7E4FFFEFD7C80901C
:1040E80006DCE0F8A3E0F9A3E0FAA3E0FBD3121B97
:1040F8002440249006DCE0FCA3E0FDA3E0FEA3E05E
:10410800FF121AF3EF2401FFE43EFEE43DFDE43C18
:10411800FC9006DC121BA79006CCE0FCA3E0FDA3F4
:10412800E0FEA3E0FFE412161C90BBA5121B971239
:10413800140912165A900697121BA79006DCE0FC89
:10414800A3E0FDA3E0FEA3E0FFE412161C90BBA5CC
:10415800121B9712140912165A9006AB121BA7903D
:1041680006D4E0FCA3E0FDA3E0FEA3E0FFE4121602
:104178001C90BBA5121B9712140912165A9006BF61
:0D418800121BA79006D3121BB3000000000D
:014195002207
:057B8F00900764EFF017
:107B9400BF014B7FD27E10129254900765121BA72F
:107BA400E4FFFEFD7C80900765E0F8A3E0F9A3E024
:107BB400FAA3E0FBC3121B245003027CA5900765C3
:107BC400E0FCA3E0FDA3E0FEA3E0FF121AF3EF2420
:107BD40001FFE43EFEE43DFDE43CFC027C9390079F
:107BE40064E064026003027C9BFB7D017F1A7E01DA
:107BF400120000BF013478717C077D017B017A009B
:107C040079007E007F0412182C7B017A0779717D3C
:107C14000412C0E3900771E0FCA3E0FDA3E0FEA31F
:107C2400E0FF900765121BA780079006FEE0441052
:107C3400F0E4FFFEFD7C80900765E0F8A3E0F9A383
:107C4400E0FAA3E0FBC3121B244024900765E0FC88
:107C5400A3E0FDA3E0FEA3E0FF121AF3EF2401FF6B
:107C6400E43EFEE43DFDE43CFC900765121BA79056
:107C74000765E0FCA3E0FDA3E0FEA3E0FFE4121629
:107C84001C7BCB7AA179D5783F12140912165A902D
:107C94000765121BA7800A900765121BB30000003A
:107CA40000E47F867E19FDFC900765E0F8A3E0F907
:107CB400A3E0FAA3E0FBC3121B24500C9007691243
:107CC4001BB3000000008063900764E0B4011FA3AD
:107CD400E0FCA3E0FDA3E0FEA3E0FFE412161C9089
:107CE400BBA5121B9712140990076D121BA79007CE
:107CF40064E0B4021FA3E0FCA3E0FDA3E0FEA3E064
:107D0400FFE412161C90BBA5121B971214099007CE
:107D14006D121BA790076DE0FCA3E0FDA3E0FEA39A
:107D2400E0FF12165A900769121BA7900769E0FC3E
:097D3400A3E0FDA3E0FEA3E0FFC3
:017D3D002223
:10E5870003E503E803EC03EF03D903DC03E003E34C
:10E5970003D303D603D903DC03C603C903CC03CFD4
:10E5A700041004130416041904030407040A040DD1
:10E5B70003FA03FD0400040303ED03F103F403F777
:10E6C000EFB401089028637481F0800BEF6402704E
:10E6D0002A90286374A2F0902864E04408F0A3E034
:10E6E0004401F07F787E28129254EF4418FF900086
:0BE6F000CA7428F0A37478F012C6B6BC
:01E6FB0022FC
:10EB6600902864E054F7F09028637480F09028654C
:10EB7600E04401F07F787E28129254EF54F7FF901C
:0CEB860000CA7428F0A37478F002C6B630
:10E6FC007F0212E6C07F0A7E0012EF407FCE7E10B2
:10E70C001292547810121B35EE30E70FEFF4FFEE37
:10E71C00F4FEEF2401FFE43EFE800F7C007D4712E7
:0BE72C001900EF24FBFFEE34FFFE009D
:01E7370022BF
:10EA7D007F0112E6C07F0A7E0012EF401200569011
:10EA8D00000D121BA7E4FFFE7D207C4190000DE0E0
:10EA9D00F8A3E0F9A3E0FAA3E0FB12140912165A49
:01EAAD002246
:100056009000127404F0A37420F0E4900011F09064
:100066000011E0FFC394035043EF75F018A4FF900E
:100076000013E02FFD900012E035F0FC7E007F14A7
:100086007B1512E8247B017A00791490003D7433C5
:10009600F07D137C0012ECAF900033EFF090002857
:1000A600E06F6008900011E004F080B37B017A00F5
:1000B60079147D0412C0E37B017A0079187D04125D
:1000C600C0E37B017A00791C7D0412C0E37B017AD0
:1000D6000079207D0412C0E37B017A0079247D0437
:1000E60012C0E37FCE7E101292547810121B359008
:1000F6000034121BA77E007F29902862E0543E241C
:1001060087F582E434E5AD82FC7B0212E824900098
:1001160029E0FEA3E0FFE4FCFD900034E0F8A3E054
:10012600F9A3E0FAA3E0FB1219D6E47BE87A03F917
:10013600F8121A61900034121BA7900028E0FF9075
:100146000033E06F6032900014121BB30000466269
:10015600900018121BB30000000190001C121BB384
:100166000D5A4336900020121BB300001BB49000BA
:1001760024121BB30000000A900034E0FCA3E0FD4B
:10018600A3E0FEA3E0FF900020E0F8A3E0F9A3E0DF
:10019600FAA3E0FB1219D690001CE0F8A3E0F9A33D
:1001A600E0FAA3E02FFFEA3EFEE93DFDE83CFCE471
:1001B60012161C12C194C004C005C006C0079000E8
:1001C60018E0FCA3E0FDA3E0FEA3E0FFE412161C8A
:1001D600D003D002D001D000121409C004C005C05B
:1001E60006C007900014E0FCA3E0FDA3E0FEA3E038
:1001F600FFE412161CA804A905AA06AB07D007D06F
:1002060006D005D004121314C004C005C006C007EA
:10021600900024E0FCA3E0FDA3E0FEA3E0FFE412CF
:10022600161CA804A905AA06AB07D007D006D00558
:10023600D00412151290002F121BA79000127404FE
:10024600F0A37480F0E4900011F0900011E0FFC379
:1002560094035046EF75F004A4FF900013E02FFDC1
:10026600900012E035F0FC7E007F2B7B0412E82420
:100276007B017A00792B90003D7433F07D027C007F
:1002860012ECAF90002DEFF0A3E0FF90002DE06F91
:100296006008900011E004F080B090002EE0FF901E
:1002A600002DE06F6007E490002BF0A3F090002B88
:1002B600E030E75B90002BE0FEA3E0F4FFEEF4FEF7
:1002C600EF2401FFE43E90002BF0A3EFF090002F07
:1002D600E0FCA3E0FDA3E0FEA3E0FFC004C005C070
:1002E60006C00790002BE0FEA3E0FF7C007D0A120B
:1002F6001900AC06AD07E4121621A804A905AA0642
:10030600AB07D007D006D005D0041213148038905E
:10031600002FE0F8A3E0F9A3E0FAA3E0FBC000C0D9
:1003260001C002C00390002BE0FEA3E0FF7C007D2D
:100336000A121900AC06AD07E4121621D003D0024A
:10034600D001D00012131890002F121BA7E4FFFE55
:100356007DB47C4290002FE0F8A3E0F9A3E0FAA375
:10036600E0FB1215AF600E400C90002F121BB3423B
:10037600B400008024E4FFFE7D2C7CC290002FE0B8
:10038600F8A3E0F9A3E0FAA3E0FB1215AF500A9038
:10039600002F121BB3C22C000090002FE0FCA3E03C
:0703A600FDA3E0FEA3E0FF50
:0103AD00222D
:06AE3F00900007121BA7A2
:10AE4500E490000BF0C286C285902867E044C0F00C
:10AE5500A37420F0900007E0FCA3E0FDA3E0FEA3AF
:10AE6500E0FF121C8CAE92000C8000AE9A00190017
:10AE750000AEAA00320000AEB200640000AEBF0012
:10AE8500C80000AED1019000000000AEE390286735
:10AE9500E054FC800A902867E04401F0E054FDF09E
:10AEA500A3E4F0803C902867E054FE800690286774
:10AEB500E04401F0E04402F08027902867E0440177
:10AEC500F0E04402F0A3E04440F08015902867E0EC
:10AED5004401F0E04402F0A3E044C0F0800312F026
:10AEE5004EE5A320E00F90000BE004F0E0D3943290
:10AEF50040EF7F0022D280E490000BF020800F907D
:10AF0500000BE004F0E0D3943240F17F002290285A
:0EAF15005FE4F0A37403F0A3E04420F07F019A
:01AF2300220B
:06BD7700900001121BA761
:10BD7D00E4900005F0C284902867E044C0F0900084
:10BD8D0001E0FCA3E0FDA3E0FEA3E0FF121C8CBDCF
:10BD9D00B800000000BDBD000C8000BDCA00190038
:10BDAD0000BDDF003200000000BDF4D2847F01220F
:10BDBD00902867E054F3F0E054CFF0802D90286781
:10BDCD00E04404F0E054F7F0E04410F0E054DFF00C
:10BDDD008018902867E054FBF0E04408F0E054EF41
:10BDED00F0E04420F0800312F04EE5A320E00F9028
:10BDFD000005E004F0E0D3943240EF7F0022D287BB
:10BE0D00E4900005F020870F900005E004F0E0D3EA
:09BE1D00943240F17F00227F0104
:01BE260022F9
:10E05900C286C285902864E4F0902866F090000793
:10E06900F0900007E004F0E0B414F6D284E5A130A2
:10E07900E00312F04EC2802080FDE5A130E00312DA
:10E08900F04EE4900007F0900007E004F0E0B403DC
:10E09900F6902867E4F0902867E070FAD2817F3221
:04E0A90012F0A700CA
:01E0AD002250
:10D475009028ADE054FDF09028ACE054FDF09028E4
:10D48500AEE04402F09028ACE054FBF0A3E054FB7E
:10D49500F0A3E04404F0902820E4F0902828F090D0
:10D4A5002830F0902A05F0902864F0902866E04432
:10D4B50020F09000CA7428F0A3747DF07F007E00F0
:10D4C5007D007C0012C6B69000CA7428F0A374785B
:10D4D500F07F007E007D007C0012C6B6E4FF0FEFF2
:05D4E500B414FBD28429
:01D4EA00221F
:10CEF5009028A8E054F0F09028AAE054F0F075A42A
:10CF0500F275A50AE4F5A643A6049028B2E044020A
:10CF1500F09028B0E054FDF0A3E04401F09028B073
:10CF2500E054FDF0A3E04401F09028C97402F0A399
:10CF3500F09028B1E04410F09028B0E04410F09053
:10CF450028CDE4F053ADDF53A4DF53A6DFA3F09063
:10CF550028B0E054DFF09028B2E04420F09028C8D3
:10CF6500E4F09028ADE04410F09028C7E4F0902854
:0CCF7500ADE04408F053ADFD43A50222DE
:10DFAD009028A874FFF0A3E4F09028AC74FFF0A3C0
:10DFBD00E4F09028B074FFF0A3E4F09028B474FF5F
:10DFCD00F0A3E4F09028B874FFF0A3E4F09028BC1F
:10DFDD0074FFF0A3E4F09028C074FFF0A3E4F09078
:10DFED0028D574FFF0A3E4F09028D974FFF0A3E4D2
:07DFFD00F075A4FFF5A52259
:10EED800E4FF9028B3E020E4050FEFB40AF4EFD381
:09EEE800940740037F01227F0022
:01EEF10022FE
:10EEF200E4FF9028AFE020E4050FEFB40AF4EFD36B
:09EF0200940740037F01227F0007
:01EF0B0022E3
:10EF7100E4FFE5A720E1050FEFB40AF6EFD394070C
:07EF810040037F01227F0025
:01EF88002266
:10EF0C00E4FF9028AFE020E3050FEFB40AF4EFD351
:09EF1C00940740037F01227F00ED
:01EF250022C9
:10EF8900E4FFE5A730E0050FEFB40AF6EFD39407E5
:07EF990040037F01227F000D
:01EFA000224E
:0EF07400C28390285EE4F0902C1E74C2F0223D
:03F0FC00D283229A
:10EE4F00902C08E4F0A3F0A3F0A3F0A3F0A3F0A399
:0CEE5F00F0A3F0902C12F0A3F0A3F0221E
:10EC8800EF902C00F0902C04F0A3F0A3F0A3F090E8
:10EC98002C09F0A3F0A3F0902C0FF0A3F0540FA3CD
:07ECA800F0EF902C13F022A5
:10D8F8009028B4E0440FF09028B8E04403F0902852
:10D90800BCE074FFF09028C0E044FCF09028D5E01B
:10D9180044C0F09028D9E04407F09028B5E054F0CE
:10D92800F09028B9E054FCF09028BDE0E4F090288D
:10D93800C1E05403F09028D6E0543FF09028DAE094
:10D9480054F8F012F074902C1F7403F0A374FFF0D5
:0DD95800A374FCF0A374C0F0A374C7F02208
:10AF240090000612186BFFC4540FFE12185254F00E
:10AF34004E902C00F090000112186BFE54F0FD129C
:10AF44001852540F4D902C04F090000212186B54B8
:10AF5400F0FDEE540F4D902C05F090000312186B89
:10AF6400FE54F0FD90000212186B540F4D902C0605
:10AF7400F090000412186B54F0FDEE540F4D902C19
