:01040000FFFC
:0300000002CC0728
:06CC070075812002CC48FB
:10B8BE000075CEA575CF5A0075CEA575CF5A00C2AC
:10B8CE00AF12E730D2AF0075CEA575CF5A0075CE48
:10B8DE00A575CF5A0012EBC9EF6401600302B96D72
:10B8EE0075CEA575CF5A0075CEA575CF5A009006A8
:10B8FE004BE0FF30E00654FEF012E9B3129B6C9061
:10B90E00064BE0FF30E10654FDF01297F590066706
:10B91E00E064016007900668E0B4010312B0359050
:10B92E000664E064017024F012AF5E75CEA575CF8B
:10B93E005A0075CEA575CF5A007D017F0112B50D47
:10B94E007FFF12E93E9006697403F0129B6C12EDB4
:10B95E006C75CEA575CF5A0075CEA575CF5A00124F
:05B96E009B6C02B8D53E
:10D9CC0000100044443031412D5633302E30311E7E
:10D9DC001E26003000111111111111FFFFFFFFFF66
:10D9EC00FFFFFFFFFF1111111111110000000000CA
:10D9FC0000000000000000000000005A00000000C1
:10DA0C001C0000000000000000000F0101FFFFFFE0
:10DA1C00FFFFFFFFFF0012345600000065341200B8
:01DA2C0000F9
:10D31C00E490064BF0A3F090064F7403F0E49006F3
:10D32C0062F07B017A0679549001D8F0A304F0A343
:10D33C0004F07D997C0012C82A7B017A06795590FD
:10D34C0001D8E4F0A37402F0A3F07D9F7C0012C816
:10D35C002A7B017A0679579001D8E4F0A37402F085
:10D36C00A3F07DA17C0012C82A7B017A06795E901D
:10D37C0001D8E4F0A37404F0A37402F07DC17C0026
:03D38C0002C82AAA
:10D54C0000020000003E0102003E002F1402006D9C
:10D55C000052150200BF00101B02011B001A190219
:10D56C0000CF0009460200D8003A150200BF001097
:10D57C0052020135001A5302014F001E5402016D74
:10D58C0000621A02011200096502080000716602AD
:10D59C0008710071670208E200716802095300719A
:0CD5AC00690209C400716A020A350071AE
:10B44600900008E0FEA3E0FF90000CE0FCA3E0FD06
:02B456007B0277
:10B4580090018BEEF0A3EFF0A3ECF0A3EDF0A3EBDB
:01B46800F0F3
:10B469009001D174A5F0A3745AF090018DE0FEA368
:10B47900E0FFD39400EE9400500302B504EF94402A
:10B48900EE940090019040057440F08002EFF07B4B
:10B49900017A01799190018BE0FCA3E0FD90019084
:10B4A900E0FF9001D8E4F0A3EFF090018FE0900164
:10B4B900DAF012C82A7B017A017991900190E0FDB6
:10B4C9007C00E49001D8F0A3F012E7929001D2E059
:10B4D9002FF09001D1E03EF0900190E0FF7E0090C6
:10B4E900018CE02FF090018BE03EF0C390018EE0DB
:10B4F9009FF090018DE09EF002B4739001D1E0FEBF
:03B50900A3E0FFBD
:01B50C00221C
:08C9470090018BEEF0A3EFF06C
:10C94F00E4FFEF75F006A4244DF582E434D5F583AA
:10C95F00E4936D7068ED640260037FFF22EF75F062
:10C96F0006A4244EF582E434D5F583E493FB7401D9
:10C97F009390018DCBF0A3EBF0EF75F006A424504C
:10C98F00F582E434D5F583740193F990018DE0FAC3
:10C99F00A3E0FBC390018CE09B90018BE09A401DBC
:10C9AF00E9FB90018EE02BFB90018DE03400FAC380
:10C9BF0090018CE09B90018BE09A5001220FEF6465
:08C9CF0012600302C9517FFF51
:01C9D700223D
:10A84900900008E0FCA3E0FD2400FFEC3404FE9036
:10A85900000DE02402FB90000CE03400FA90001691
:03A869007422F066
:10A86C00900010EEF0A3EFF0A3ECF0A3EDF0A3EA50
:04A87C00F0A3EBF06A
:10A88000900014E0FEA3E0FFD39400EE9400500388
:10A8900002A937D3EF9440EE94009000574005741E
:10A8A00040F08002EFF07B017A007917900012E00F
:10A8B000FCA3E0FD900057E0FF9001D8E4F0A3EF87
:10A8C000F0900016E0FFC4540F9001DAF012C82A8D
:10A8D00075CEA575CF5A0075CEA575CF5A007B01F0
:10A8E0007A007917900057E0FD900190E4F0A3ED15
:10A8F000F0900016E0540F900192F0900010E0FEEE
:10A90000A3E0FF12C4B0900057E0FFFD7C00900070
:10A9100011E02DF0900010E03CF0900013E02DF0DD
:10A92000900012E03CF0C3900015E09FF0900014FE
:07A93000E09400F002A88092
:01A9370022FD
:10C17B0090010DEEF0A3EFF0A3ECF0A3EDF0AF0305
:10C18B007B017A017913AD0790017DE4F0A3744034
:10C19B00F012E87390010FE0FEA3E0FFD39400EEE2
:10C1AB0094004069D3EF9440EE9400900153400506
:10C1BB007440F08002EFF090010DE0FEA3E0FF7BF6
:10C1CB00017A017913900153E0FD900190E4F0A303
:10C1DB00EDF0900112E0900192F012C4B075CEA573
:10C1EB0075CF5A0075CEA575CF5A00900153E0FF5D
:10C1FB007E0090010EE02FF090010DE03EF0C39019
:0DC20B000110E09FF090010FE09EF0808791
:01C218002203
:0BC81F009001D8E4F0A37402F0A3F035
:10C82A009001D3EBF0A3EAF0A3E9F0A3ECF0A3EDB7
:01C83A00F00D
:10C83B009001DAE024FE604B0470699001D6E0FEB3
:10C84B00A3E0AA06F99001DB7401F0A3EAF0A3E9D7
:10C85B00F09001DBE0F9A3E0FAA3E09001E1C9F06D
:10C86B00A3EAF0A3E9F09001D8E0FFA3E09001E484
:10C87B00CFF0A3EFF09001D3E0FBA3E0FAA3E0F934
:10C88B0002DA8C9001D3E0FBA3E0FAA3E0F9A3E07A
:10C89B00FCA3E0FDA3E0FFA3E09001E3CFF0A3EF47
:07C8AB00F002C03B12ECA6F5
:01C8B2002263
:10C48F00900004EEF0A3EFF090000A7A007904E038
:10C49F00FEA3E0FF7B01900190E4F0A37402F0A3F0
:01C4AF00F09C
:10C4B00090018BEEF0A3EFF0A3EBF0A3EAF0A3E979
:01C4C000F08B
:10C4C100900192E024FE603C04705A90018BE0FEE2
:10C4D100A3E0AA06F97B01C002C001A3E0F9A3E031
:10C4E100FAA3E09001E1C9F0A3EAF0A3E9F0900119
:10C4F10090E0FFA3E09001E4CFF0A3EFF0D001D0F2
:10C501000202DA8C90018BE0FEA3E0FFA3E0FBA323
:10C51100E0FAA3E0F9A3E0FDA3E0900198CDF0A338
:08C52100EDF002C35512ECA677
:01C5290022EF
:10959E0090017BEBF0A3EAF0A3E9F0900179EEF0F5
:0395AE00A3EFF038
:1095B100900180E0FD12C947900181EFF0C3941240
:1095C100400312ECA6900181E0FF75F006A4244E41
:1095D100F582E434D5F583E493FD7401939001841D
:1095E100CDF0A3EDF0EF75F006A42450F582E4343C
:1095F100D5F58374019324FEFFE49334FFFE9001BB
:1096010088F0A3EFF0900185E02FFF900184E03E08
:10961100900186F0A3EFF0900181E075F006A4249B
:109621004CF582E434D5F583E49390018AF09001FE
:1096310079E0FEA3E0FFA3E0FBA3E0FAA3E0F9A336
:10964100E0FDA3E0900190CDF0A3EDF0900180E06A
:10965100900192F012C4B0900184E0FEA3E0FF906B
:10966100018812B451900182EEF0A3EFF0900186CF
:109671007A01798212C49E90018AE0C394645048B1
:1096810090017AE02400FF900179E03404FE90011A
:109691007BE0FBA3E0FAA3E0F9A3E0FDA3E09001E6
:1096A10090CDF0A3EDF0900180E0900192F012C412
:1096B100B0900187E02400FF900186E03404FE7B36
:0896C100017A01798212C4A5AF
:0196C900227E
:109FA200E4FEEE75F006A4244CF582E434D5F58384
:109FB200E4936F60050EEEB412E8EEC39412400310
:109FC20002A0A2EE75F006A4244EF582E434D5F583
:109FD20083E493FD740193900010CDF0A3EDF0EEB5
:109FE20075F006A42450F582E434D5F58374019308
:109FF20024FEFCE49334FF900012F0A3CCF0EF2493
:10A00200EB602224CF602E24F4603A14604714607F
:10A012005424407072900010E0FEA3E0FF7BFF7AB0
:10A02200D979DB804E900010E0FEA3E0FF7BFF7A3F
:10A03200D97902803E900010E0FEA3E0FF7BFF7A18
:10A04200B7794E802E900010E0FEA3E0FF7BFF7AEE
:10A05200C5792A801E900010E0FEA3E0FF7BFF7A04
:10A06200C57944800E900010E0FEA3E0FF7BFF7AEA
:10A07200C57962A3E0FDA3E0900190CDF0A3EDF0DD
:10A08200A37402F002C4B0900010E0FEA3E0FFA3AC
:10A09200E0FCA3E0FD9001127402F0E4FB12C17B2C
:01A0A200229B
:106D7900E4900003F0900003E0F9C3941240030289
:106D89006F50E490000EF0900003E0FF75F006A448
:106D9900244EF582E434D5F583E493FD7401939090
:106DA9000008CDF0A3EDF0EF75F006A42450F582AC
:106DB900E434D5F58374019324FEFEE49334FF9003
:106DC900000CF0A3CEF090000CE0FAA3E0FB9000D9
:106DD90008E0FCA3E0FD2BFEEC3AA3F0A3CEF0E91A
:106DE90075F006A4244CF582E434D5F583E4939038
:106DF900000FF075CEA575CF5A0075CEA575CF5A7F
:106E090000AF05AE04AD03AC027B0212B45890008A
:106E190004EEF0A3EFF07B017A00790690000AE016
:106E2900FCA3E0FD12C81F900006E0FEA3E0FF905E
:106E39000004E06E7003A3E06F600790000EE04469
:106E490001F090000FE0C39464504B900009E024D6
:106E590000FF900008E03404FE12B44E900004EEE6
:106E6900F0A3EFF07B017A00790690000BE0240093
:106E7900FD90000AE03404FC12C81F900006E0FEF1
:106E8900A3E0FF900004E06E7003A3E06F60079039
:106E9900000EE04402F075CEA575CF5A0075CEA557
:106EA90075CF5A0090000EE07003026F3924FE601E
:106EB900361460412402707590000FE0C394645049
:106EC90015900008E0FEA3E0FF2400FDEE3404FC69
:106ED90012A858026F2690000FE0FF129FA212B469
:106EE9004612C48F026F2690000FE0C3946450408D
:106EF90012A849802890000FE0FF129FA212B44601
:106F090012C48F75CEA575CF5A0075CEA575CF5A07
:106F19000090000FE0C39464501612A84975CEA5DD
:106F290075CF5A0075CEA575CF5A00800312ECA60D
:106F390075CEA575CF5A0075CEA575CF5A009000AC
:076F490003E004F0026D7E7D
:016F5000221E
:05B5D000900095EFF072
:10B5D500E4A3F0900096E0F9C39412400302B68FFD
:10B5E500E0FE75F006A4244EF582E434D5F583E437
:10B5F50093FC740193FDEE75F006A42450F582E4E6
:10B6050034D5F58374019324FE2DFEE43C90009916
:10B61500F0A3CEF0E975F006A4244CF582E434D508
:10B62500F583E493FF90009BF0BF4608900095E0FA
:10B6350064A5704D75CEA575CF5A0075CEA575CF8D
:10B645005A00E4900097F0A3F0900099E0FEA3E083
:10B65500FF7B017A00799712C4A590009BE0C39403
:10B6650064501EE4900097F0A3F090009AE0240047
:10B67500FF900099E03404FE7B017A00799712C4AB
:0AB68500A5900096E004F002B5D88D
:01B68F002298
:10BAD70012EB48EF6401600302BB71900746E0C3B5
:10BAE7009403400302BB85E004F0E0C394035003D2
:10BAF70002BB85900654E0645A600302BB85900739
:10BB070047E06401607812D69075CEA575CF5A00CC
:10BB170075CEA575CF5A0012AF5E75CEA575CF5AF3
:10BB27000075CEA575CF5A0012D2A875CEA575CFD0
:10BB37005A0075CEA575CF5A00129D8F12E1EA758E
:10BB4700CEA575CF5A0075CEA575CF5A0012991F8D
:10BB570075CEA575CF5A0075CEA575CF5A007FA8AB
:10BB67001203AE9007477401F022900746E0D39482
:0FBB7700004003E014F0900746E07002A3F022B4
:10DCA90012EBF9EF64017026900744E0C394035026
:10DCB90043E004F0E0C39403403AA3E06401603414
:10DCC9007D017F0912B50D9007457401F022900777
:10DCD90044E0D394004006900746E014F0900744CE
:10DCE900E07011A3E0B4010C7DFF7F0912B50DE4CA
:05DCF900900745F02238
:10EC6A007B017A07794390017DE4F0A37405F0E40F
:04EC7A00FD02E8733C
:01004A002293
:10EBC900E4FFE5A120E0050FEFB41EF6EFC39419A9
:07EBD90050037F01227F00C1
:01EBE0002212
:10DD530090064DE5A1F0E59560047F0180027F0008
:10DD6300E59460047E0180027E00EE4F60117590A1
:10DD730096759757E4F594F59575909675975600B3
:10DD8300758F019004027486F0E4F58F75A001FF8E
:10DD9300FE7D32FC12AB0612DBFC12EA8302E41CAA
:10A938007B017A0079009001D8E4F0A37403F0A3B6
:10A9480014F07DBA7C0012C82A900000E0B4650BB0
:10A95800A3E0B43406A3E06412602D9004147401DB
:10A96800F012DC539001127402F0E4FBFD7C10FF3E
:10A978007E0812C17B7FA512B5D075CEA575CF5ABA
:10A988000075CEA575CF5A0090064EE07011126D75
:10A998007975CEA575CF5A0075CEA575CF5A001218
:10A9A800D31C12EC6A75CEA575CF5A0075CEA57565
:10A9B800CF5A007B017A0579199001D8E4F0A37485
:10A9C8003AF0A37402F07DD87C0012C82A12ED5C1C
:10A9D80012ED5912D5B875CEA575CF5A0075CEA50A
:10A9E80075CF5A0012E54212CC8D12E8C712E694D0
:10A9F80012EB9675CEA575CF5A0075CEA575CF5AB0
:10AA08000012DB4675CEA575CF5A0075CEA575CF59
:08AA18005A0012803602E6CA62
:10E04A00E4900000F0A3F075CEA575CF5A0075CE06
:10E05A00A575CF5A0075CEA575CF5A0075CEA57590
:10E06A00CF5A0012E8C712CC8D12D4DF12E8EF1291
:10E07A00DBFC7D027F0112E45743C90112DCFEE595
:07E08A00A130E00312ECA637
:01E09100226C
:10CE01007F007E007D327C0012AB0612CAF312D481
:10CE1100DF7FFF12E93E75CEA575CF5A0075CEA50D
:10CE210075CF5A0012A93812ECCCE4FF12D62412A5
:10CE3100ED03E4FF125B721267517B017A067936CA
:10CE410090017DE4F0A37405F0E4FD12E87390060F
:10CE5100E37404F09006DFF07DFF7F0712B50D7BD0
:10CE6100017A0679DF90017DE4F0A3740CF0E4FD12
:0ACE710012E87343A50143A4012257
:10E7300012DD5312EBC9EF70077F2C7E0112EBB094
:10E7400012EBC9EF700890064E7403F08005E49058
:10E75000064EF090064EE0B4030302E04A12CE01EA
:01E760002296
:10DDF20012EB62EF64014E700590066704F0900624
:10DE020067E0B4011EE4F0900589E0B40504E4F093
:10DE12008006900589E004F012B1DF900573740664
:10DE2200F0800C900573E0D394004003E014F0906E
:0DDE32000573E07007900589F012B1DF2242
:109B6C0012EBC9EF6003029C7DD284C2AF125DDEA2
:109B7C007B017A04798590017EE4F0A3743CF0A318
:109B8C007402F0E4FFFE12959E9004147401F0121E
:109B9C00DC5390064E7403F07B017A0679749001C5
:109BAC007EE4F0A37407F0A37402F07FCF7E001262
:109BBC00959E9006E37404F07D017F0712B50D901D
:109BCC0006E67404F09006E2F07DFF7F0A12B50DF4
:109BDC007B017A0679E99001D8E4F0A304F0A304A0
:109BEC00F07D217C0112C82A12BC3512E8EF12DB81
:109BFC00FC9028C8E4F09028ADE04410F012EA8301
:109C0C0012E41C12E8C743A50143A401E49006E149
:109C1C00F09006E5F0900573F075CEA575CF5A005F
:109C2C0075CEA575CF5A00E4FD7F0112E45743C9E8
:109C3C000112ED0312DCFE75CEA575CF5A0075CE60
:109C4C00A575CF5A007F007E007D327C0012AB06DA
:109C5C0012EBF9BF01047D0180027DFF7F02124BE4
:109C6C0008E5A130E00312ECA61279BC12DDF280FB
:029C7C00A8221C
:10ECA60075CEA575CF5A0075CEA575CF5A00000052
:03ECB6000080FBE0
:03000300020046B2
:040046005388FD32AC
:03000B0002DBA273
:10DBA200C0E0C083C082C0D0758A65758C6690065D
:10DBB2004BE04401F090050AE0600E90050CE00491
:10DBC200F0700690050BE004F090050FE0B4011B25
:10DBD200D390050EE0940090050DE09400400CA354
:10DBE200E024FFF090050DE034FFF0900662E004BF
:0ADBF200F0D0D0D082D083D0E03212
:0300130002004E9A
:04004E005388F732AA
:03001B0002ED51A2
:04ED510053887F3232
:03002B0002ED558E
:04ED550053C87F32EE
:03003B0002EC11C3
:10EC1100C0E0E5C030E00553C0FE8008E5C030E14A
:07EC21000353C0FDD0E032F7
:03004300028E69C1
:0D8E6900C0E0C0F0C083C082C0D075D01042
:108E7600902840E0FF902843E05F900237F0E02022
:108E8600E203028F0C902840E054FBF0902836E075
:108E960054FDF0900238E0D394004057A3E0FC2440
:108EA6003CF582E43402F583E0900236F090033913
:108EB600E0B40716900236E0FE547FFD30D006EE91
:108EC6004480F08005900236EDF0900236E090285E
:108ED60037F090050BE4F0A3F0743C2CF582E434F3
:108EE60002F583E4F0900239E004F0900238E014D1
:108EF600F08013900239E4F09003367404F012E126
:108F060064E4FF12BF93900237E0FF30E3509028ED
:108F160040E054F7F0902836E054FEF0A3E09002CB
:108F260036F0E0547FFE900239E0243CF582E434CA
:108F360002F583EEF090050BE4F0A3F0900239E021
:108F460004F0E0FED3940440020000EE75F0FA84CB
:108F5600AEF0900239EEF0D3941540020000EF30E7
:108F6600E407902840E054EFF0900237E030E50740
:108F7600902840E054DFF0900237E0FF30E607909B
:108F86002840E054BFF0EF30E70D902840E0547FD2
:0A8F9600F09004C4E004F05391EFE2
:0B8FA000D0D0D082D083D0F0D0E032DF
:03004B0002D89C3C
:0BD89C00C0E0C083C082C0D075D01077
:10D8A700902848E0FF90284BE05FFD30E407902880
:10D8B70048E054EFF0AF15ED30E507902848E05405
:10D8C700DFF0AF15ED30E614902848E054BFF09034
:10D8D700064BE04402F09005537401F0AF15ED30AC
:10D8E700E70D902848E0547FF09004C3E004F0531C
:02D8F70091DFBF
:09D8F900D0D0D082D083D0E032FF
:0300530002E7F0D1
:0BE7F000C0E0C083C082C0D075D01014
:10E7FB00902850E0FF902853E05FFF30E30790280C
:08E80B0050E054F7F05391BFF7
:09E81300D0D0D082D083D0E032D5
:108FAB004106670041066500410664004106630106
:0C8FBB004106680041066600410669009E
:10C5C4007B017A00790312DA2D7B017A0079031258
:10C5D400A579EF70647B017A0079039001D8F0A308
:10C5E4007407F0A37402F07DCF7C0012C82A7B018B
:10C5F4007A00790312A579EF70369000037403F082
:10C60400A37416F0A37404F0A37420F0A37412F0BE
:10C61400A37430F0A3F07B017A00790390017EE4E7
:10C62400F0A37407F0A37402F07FCF7E0012959EEE
:10C634007B017A00790312D6FA9001E17401F0A328
:10C644007400F0A37403F0A3E4F0A37407F07B0177
:07C654007A06797402DA8C0A
:03ED590002C5C42C
:10D7CC0012EB62EF64014E700F900665E0700990E9
:10D7DC00066704F0900665F012EB62EF4E70049051
:10D7EC000665F012EBE1EF64014E700D900663E0FC
:10D7FC007007A304F0900663F012EBE1EF4E700497
:10D80C00900663F012EB7CEF64014E700F9006668D
:10D81C00E0700990066804F0900666F012EB7CEF5D
:08D82C004E7004900666F02224
:10E9B300E4900000F0900000E0FFC39401501312B4
:10E9C300ACCB900000E0FF12CD86900000E004F095
:05E9D30080E302D7CC37
:1097F50012C5C475CEA575CF5A0075CEA575CF5ABD
:1098050000900757E0D394004006E014F012E8C733
:10981500900757E0703F12878E75CEA575CF5A0019
:1098250075CEA575CF5A00125DDE75CEA575CF5ADA
:109835000075CEA575CF5A0012E2AC12D23475CEA2
:10984500A575CF5A0075CEA575CF5A0012BAD71295
:10985500ED6D12E694900669E0700812B03512B10C
:10986500DF8006900669E014F090067AE0707A12BF
:10987500675175CEA575CF5A0075CEA575CF5A001F
:109885001262A575CEA575CF5A0075CEA575CF5AAE
:10989500001279BC12DC537B017A0079009001D863
:1098A500E4F0A304F0A304F07D717C0012C82A90B3
:1098B5000000E0B4301175CEA575CF5A0075CEA560
:1098C50075CF5A0012C6F275CEA575CF5A0075CE62
:1098D500A575CF5A0012C8B375CEA575CF5A0075B8
:1098E500CEA575CF5A0012DB4690067AE0B4251155
:1098F50012ED6B75CEA575CF5A0075CEA575CF5AED
:109905000090067AE0B4311112EB9675CEA575CFAD
:099915005A0075CEA575CF5A0069
:01991E002226
:01005200228B
:0AED1900E4900673F0900672F022F9
:0BB97300E0FCA3E0A3FDE0900232F036
:10B97E0090022DEBF0A3EAF0A3E9F0A3ECF0A3ED17
:01B98E00F0C8
:10B98F00E4900235F090023374A0F0A304F012E4B7
:10B99F001C900235E004F0E0D3940A40037F0022AC
:10B9AF0012E65D900233E0FF12C3F2BF01E0900296
:10B9BF0030E0FF12C3F2EF640160037F00229002B8
:10B9CF0030A3E0FF12C3F2EF640160037F00221285
:10B9DF00E65D900234E0FF12C3F2EF640160037F73
:10B9EF000022900232E0FF14F0EF6026E07003FFB8
:10B9FF0080027F0112C9D890022DE0FBA3E0FAA3C9
:10BA0F00E0F9EF1218BA90022EE475F00112198BBB
:07BA1F0080D012E41C7F013E
:01BA260022FD
:10BE3D009001E2EEF0A3EFF0A3EBF0A3EAF0A3E99B
:01BE4D00F004
:10BE4E00E49001EAF09001E874A0F0A304F000126F
:10BE5E00E41C9001EAE004F0E0D3940A40037F0072
:10BE6E002212E65D9001E8E0FF12C3F2BF01E090FE
:10BE7E0001E2E0FF12C3F2EF640160037F00229043
:10BE8E0001E2A3E0FF12C3F2EF640160037F002220
:10BE9E009001E4E0FBA3E0FAA3E0F9121852FF12BE
:10BEAE00C3F2EF64016004007F00229001E5E475A7
:10BEBE00F00112198B9001E3E004F070069001E29C
:10BECE00E004F09001E7E014F0E070C412E41C7F8F
:09BEDE00057E0012EBB0007F01AB
:01BEE7002238
:10CD0B009001E6EBF0A3EAF0A3E9F0A3ECF0A3EDBE
:01CD1B00F027
:10CD1C00A3E0FFD394004006EFD3944040037F0080
:10CD2C0022E490022CF07B017A0179EC9001E9125B
:10CD3C00B9739001E6E0FBA3E0FAA3E0F9A312B902
:10CD4C00739002307401F0A37401F0A374ECF090B2
:10CD5C0001EBE0900233F09001E6E0FBA3E0FAA3D4
:10CD6C00E0F912CE7BEF70037F012290022CE004DD
:09CD7C00F0E0C3940340AF7F0016
:01CD8500228B
:10CA660090019BEEF0A3EFF0A3EBF0A3EAF0A3E9AD
:01CA7600F0CF
:10CA7700A3E0FFD394004006EFD39440400312ECA9
:10CA8700A6E49001E1F090019BE0FEA3E0FFA3E0A4
:10CA9700FBA3E0FAA3E0F9A3E09001E7F012BE3DA3
:10CAA7007B017A0179A190019BE0FCA3E09001A0B2
:10CAB70012B9789002307401F0A37401F0A374A145
:10CAC700F09001A0E0900233F090019DE0FBA3E01D
:10CAD700FAA3E0F912CE7BEF70037F01229001E108
:0BCAE700E004F0E0C39403409D7F00DA
:01CAF2002221
:10C03B009001DEEBF0A3EAF0A3E9F0A3ECF0A3EDA3
:01C04B00F004
:10C04C009001E3E0FEA3E0FFD39400EE9400407C6B
:10C05C009001E1A3E0543FFD600974409D9001E51F
:10C06C00F080069001E57440F09001E5E0FDC3EF2F
:10C07C009DEE940050079001E3A3E0A3F09001DE45
:10C08C00E0FBA3E0FAA3E0F9A3E0FCA3E0FD900140
:10C09C00E5E09001EBF012CD0BEF7002FF22900166
:10C0AC00E5E0FFFD7C009001DFEC8DF012198B9028
:10C0BC0001E2E02DF09001E1E03CF0C39001E4E0FE
:0EC0CC009FF09001E3E09400F002C04C7F0171
:01C0DA002243
:10C35500900193EEF0A3EFF0A3EBF0A3EAF0A3E9CD
:01C36500F0E7
:10C36600900198E0FCA3E0FDD39400EC94004079A2
:10C37600900193E0FEA3E0FF543FFB600974409BED
:10C3860090019AF0800690019A7440F090019AE02C
:10C39600FBC3ED9BEC94005007900198A3E0A3F03B
:10C3A600900195E0FBA3E0FAA3E0F990019AE090F2
:10C3B60001A0F012CA66EF7002FF2290019AE0FF18
:10C3C600FD7C00900194E02DF0900193E03CF0900C
:10C3D6000196EC8DF012198BC3900199E09FF090B5
:0BC3E6000198E09400F002C3667F01A4
:01C3F1002229
:10EA83009028ACE04402F0A3E04402F0A3E0440485
:0EEA9300F09028ACE054FBF0A3E054FBF0221E
:10E65D009028ACE04402F0A3E04402F0A3E04404AF
:10E66D00F0000000000000E054FDF09028ADE054F3
:10E67D00FDF09028ACE054FDF0000000000000908B
:07E68D0028AEE054FBF0226F
:10E41C009028AEE054FDF09028ADE054FDF090282B
:10E42C00ACE054FDF00000000000009028AEE04489
:10E43C0004F00000000000009028ACE04402F0A3BF
:0BE44C00E04402F0000000000000228D
:10C3F200E4F508F5089028AEE054FBF0EF30E70EC4
:10C402009028ACE04402F0A3E04402F080159028AA
:10C41200AEE054FDF09028ADE054FDF09028ACE081
:10C4220054FDF0EF25E0FF9028AEE04404F0000058
:10C43200000000000508E508B408BA9028AEE054F0
:10C44200FBF09028ACE04402F0A3E04402F075084F
:10C4520020E4F5089028AFE020E1149028AEE044F3
:10C4620004F0000000000000E054FBF07F01220510
:10C4720008E508B420DE9028AEE04404F000000095
:0CC48200000000E054FBF012E41C7F00FE
:01C48E00228B
:10C9D800E4F508F5099028ACE04402F0A3E044022D
:10C9E800F0A3E054FBF0E4F508E50925E0F509902B
:10C9F80028AEE04404F0000000000000A3E030E1AD
:10CA0800034309019028AEE054FBF0000000000049
:10CA1800000508E508B408D1EF60179028AEE05487
:10CA2800FDF09028ADE054FDF09028ACE054FDF006
:10CA3800800C9028ACE04402F0A3E04402F0902877
:10CA4800AEE04404F0000000000000E054FBF09069
:0DCA580028ACE04402F0A3E04402F0AF0976
:01CA650022AE
:01ED6A002286
:10EC7E00E5E820E10343E80290284BE020E704E0BA
:04EC8E004480F022AC
:10E917007F7D7E28128D1EEF54C7FF9000CC742890
:10E92700F0A3747DF012C2B7902843E0547FF090B3
:06E9370028AEE04408F0E8
:01E93D0022B7
:06C2190090073D121BA777
:10C21F00E4FF90288474CCF0E4F0902885E0600A65
:10C22F000FEFD3940840F37F002290073DA3A3A301
:10C23F00E0FF902880EFF090073DE0FCA3E0FDA326
:10C24F00E0FEA3E0FF7808121B35902881EFF090F5
:10C25F00073DE0FCA3E0FDA3E0FEA3E0FF78101292
:10C26F001B35902882EFF090073DE0FCA3E0FDA383
:10C27F00E0FEA3E0FF7818121B35902883EFF090B3
:10C28F000741E0FEA3E0F5828E83E4F0FF000FEF9D
:10C29F00B408FAE4FF902885E0600A0FEFD3940802
:07C2AF0040F37F00227F0134
:01C2B6002265
:06BB860090072F121BA71F
:10BB8C00E4FB90288474CCF0E4F0902885E0600A03
:10BB9C000BEBD3940840F37F002290072FA3A3A3B1
:10BBAC00E0FF902880EFF090072FE0FCA3E0FDA3CE
:10BBBC00E0FEA3E0FF7808121B35902881EFF0908F
:10BBCC00072FE0FCA3E0FDA3E0FEA3E0FF7810123A
:10BBDC001B35902882EFF090072FE0FCA3E0FDA32B
:10BBEC00E0FEA3E0FF7818121B35902883EFF0D20B
:10BBFC008720870C900735E004F0E0D3941E40F1C9
:10BC0C00900733E0FEA3E0F5828E83E4F0FB000B9B
:10BC1C00EBB408FAE4FB902885E0600A0BEBD394B4
:08BC2C000840F37F00227F01B4
:01BC340022ED
:06C2B7009000C8121BA755
:10C2BD00E4FF90288474CCF0E4F0902885E0600AC7
:10C2CD000FEFD3940840F37F00229000C8A3A3A3DF
:10C2DD00E0FF902880EFF09000C8E0FCA3E0FDA304
:10C2ED00E0FEA3E0FF7808121B35902881EFF09057
:10C2FD0000C8E0FCA3E0FDA3E0FEA3E0FF78101270
:10C30D001B35902882EFF09000C8E0FCA3E0FDA360
:10C31D00E0FEA3E0FF7818121B35902883EFF09014
:10C32D0000CCE0FEA3E0F5828E83E4F0FF000FEF7A
:10C33D00B408FAE4FF902885E0600A0FEFD3940863
:07C34D0040F37F00227F0195
:01C3540022C6
:108D1E0090288474CCF0E4F0F508902885E0600B80
:108D2E000508E508D3940840F180248F828E83E0F5
:108D3E00F508E4F508000508E508B408F8E4F508B8
:108D4E00902885E0600F0508E508D3940840F1E40B
:108D5E00FFFEFDFC22902880E0FFE4FCFDFE90006B
:108D6E00C8121BA7902881E0FFE4FCFDFE780812D4
:108D7E001B489000CC121BA79000C8E0FCA3E0FD9E
:108D8E00A3E0FEA3E0FFA3E0F8A3E0F9A3E0FAA3BB
:108D9E00E0FBEF2BFFEE3AFEED39FDEC38FC9000D8
:108DAE00C8121BA7902882E0FFE4FCFDFE9000CCC9
:108DBE00121BA79000CCE0FCA3E0FDA3E0FEA3E015
:108DCE00FF7810121B489000CC121BA79000C8E031
:108DDE00FCA3E0FDA3E0FEA3E0FFA3E0F8A3E0F90F
:108DEE00A3E0FAA3E0FBEF2BFFEE3AFEED39FDEC2C
:108DFE0038FC9000C8121BA7902883E0FFE4FCFD0E
:108E0E00FE9000CC121BA79000CCE0FCA3E0FDA3CB
:108E1E00E0FEA3E0FF7818121B489000CC121BA7AF
:108E2E009000C8E0FCA3E0FDA3E0FEA3E0FFA3E0FA
:108E3E00F8A3E0F9A3E0FAA3E0FBEF2BFFEE3AFE76
:108E4E00ED39FDEC38FC9000C8121BA79000C8E06D
:0A8E5E00FCA3E0FDA3E0FEA3E0FF8B
:018E680022E7
:10B74E0000000000000000000000000000000000EB
:10B75E0000000000000000000000000000000000DB
:10B76E00000000003D99E1FB3DE6D2F937341C9F05
:10B77E00392B0436392B0436000000000960000016
:10B78E0027100461A83000927C000063B3ED3B707B
:10B79E00B76B3B70B76B01051910E801052910E96D
:10B7AE0001051D287B01052D287C01052110ED01C9
:10B7BE00053110EE01052510EB01053510EC0105E4
:10B7CE003910EA00927C0010F500927C0010FB1DEF
:10B7DE000004C30185300000000186000000000156
:10B7EE0087811D2BA70125000000000183000000AA
:09B7FE0000013200000000012CE2
:0E8FC7004405110000000044051500000000E4
:10E57C007B017A0579199001D874A5F0A3745AF02F
:10E58C007D387C0012E792900551EEF0A3EFF07B02
:10E59C00017A05791990017EE4F0A37438F0A37424
:09E5AC0002F07FD87E0002959E6A
:10E2EB007B017A0579199001D874A5F0A3745AF0C3
:10E2FB007D387C0012E792900551E06E7003A3E02D
:10E30B006F601A7B017A0579199001D8E4F0A37438
:0DE31B003AF0A37402F07DD87C0012C82AED
:01E3280022D2
:106751009000C3121BB30000000012E2EB7B017A30
:106761000079C79001D8E4F0A304F0A304F07DB947
:106771007C0012C82A9000C7E09000CCB43C26747B
:1067810010F0A374F4F07F6B7E2A7D707C0012C23E
:10679100B79000CC7410F0A374FAF07F6B7E2A7D61
:1067A100707C0080247410F0A374F4F07F307EA814
:1067B1007D617C0412C2B79000CC7410F0A374FA0E
:1067C100F07F307EA87D617C0412C2B7E49000B7EF
:1067D100F09000B7E0FF75F006A424D5F582E4340B
:1067E100B7F583E493FD7401939000C1CDF0A3ED5F
:1067F100F0EF75F006A424D1F582E434B7F58312E5
:106801001B879000BD121BA79000B3121BB30000A1
:1068110000009000C1E0FEA3E0FF128D1E9000B3C6
:10682100121BA79000BDE0FCA3E0FDA3E0FEA3E0E6
:10683100FF9000B3E0F8A3E0F9A3E0FAA3E0FBC303
:10684100121B2460349000BDE0FCA3E0FDA3E0FE38
:10685100A3E0FF9000B3121BA79000B3E0FCA3E0FC
:10686100FDA3E0FEA3E0FF9000C1E0FBA3E09000E8
:10687100CCCBF0A3EBF012C2B79000B7E004F0E08C
:10688100C3940250030267D2E49000B7F09000B7BE
:10689100E0FF75F005A424A7F582E434B7F583E49D
:1068A10093FD7401939000BBCDF0A3EDF0EF75F073
:1068B10005A424A4F582E434B7F583E493F97401C3
:1068C10093FA7402939000B8C9F0A3EAF0A3E9F037
:1068D1009000B3121BB3000000009000BBE0FEA3C8
:1068E100E0FF128D1E9000B3121BA79000BBE0FECB
:1068F100A3E0FF647B7003EE6428600AEF647C70A0
:1069010003EE6428701B9000B8E0FBA3E0FAA3E05B
:10691100F9121B5B9000B6E06F605CE4FCFDFE8049
:10692100309000B8E0FBA3E0FAA3E0F9121B5B9002
:1069310000B3E0F8A3E0F9A3E0FAA3E0FBC3121B64
:106941002460349000B8E0FBA3E0FAA3E0F9121B45
:106951005B9000B3121BA79000B3E0FCA3E0FDA382
:10696100E0FEA3E0FF9000BBE0FBA3E09000CCCBF6
:10697100F0A3EBF012C2B79000B7E004F0E0C394CB
:0669810009500302688EBC
:0169870022ED
:0884BC009006A8EFF0A3EDF01B
:1084C40075CEA575CF5A0075CEA575CF5A00900606
:1084D400B3121BB300000000E4900553F09006AE05
:1084E400F09006A8E0FF9006AEE0C39F400302852B
:1084F400FB75CEA575CF5A0075CEA575CF5A0090E1
:108504000553E060FAE4900553F075CEA575CF5A93
:108514000075CEA575CF5A009006A9E070097FD2E8
:108524007E10128D1E803AE4FB7D017F0B7E0112CA
:108534000000BF013478B77C067D017B017A0079A5
:10854400007E007F0412182C7B017A0679B77D0423
:1085540012BCE49006B7E0FCA3E0FDA3E0FEA3E0B8
:10856400FF9006AA121BA7800790064CE04410F067
:10857400E4FFFEFD7C809006AAE0F8A3E0F9A3E006
:10858400FAA3E0FBC3121B2440249006AAE0FCA338
:10859400E0FDA3E0FEA3E0FF121AF3EF2401FFE4E1
:1085A4003EFEE43DFDE43CFC9006AA121BA79006A7
:1085B400AAE0FCA3E0FDA3E0FEA3E0FF9006AF1257
:1085C4001BA79006B3E0FCA3E0FDA3E0FEA3E0FF3D
:1085D4009006AFE0F8A3E0F9A3E0FAA3E0FBEF2BE9
:1085E400FFEE3AFEED39FDEC38FCA3121BA7900612
:1085F400AEE004F00284E59006A8E0FBE4FAF9F8A2
:108604009006B3E0FCA3E0FDA3E0FEA3E0FF121A92
:108614006175CEA575CF5A0075CEA575CF5A0000E9
:018624002233
:088625009006BBEFF0A3EDF09D
:10862D0075CEA575CF5A0075CEA575CF5A0090069B
:10863D00C6121BB300000000E4900553F09006C174
:10864D00F09006BBE0FF9006C1E0C39F4003028798
:10865D006475CEA575CF5A0075CEA575CF5A00900D
:10866D000553E060FAE4900553F075CEA575CF5A29
:10867D000075CEA575CF5A009006BCE070097FD469
:10868D007E10128D1E803AE4FB7D017F0E7E01125D
:10869D000000BF013478CA7C067D017B017A007928
:1086AD00007E007F0412182C7B017A0679CA7D04A6
:1086BD0012BCE49006CAE0FCA3E0FDA3E0FEA3E03B
:1086CD00FF9006BD121BA7800790064CE04410F0EA
:1086DD00E4FFFEFD7C809006BDE0F8A3E0F9A3E089
:1086ED00FAA3E0FBC3121B2440249006BDE0FCA3BB
:1086FD00E0FDA3E0FEA3E0FF121AF3EF2401FFE477
:10870D003EFEE43DFDE43CFC9006BD121BA7900629
:10871D00BDE0FCA3E0FDA3E0FEA3E0FF9006C212C6
:10872D001BA79006C6E0FCA3E0FDA3E0FEA3E0FFBF
:10873D009006C2E0F8A3E0F9A3E0FAA3E0FBEF2B6B
:10874D00FFEE3AFEED39FDEC38FCA3121BA79006A7
:10875D00C1E004F002864E9006BBE0FBE4FAF9F8A6
:10876D009006C6E0FCA3E0FDA3E0FEA3E0FF121A15
:10877D006175CEA575CF5A0075CEA575CF5A00007F
:01878D0022C9
:10A395009000B3E0FCA3E0FDA3E0FEA3E0FF900086
:10A3A500CB121BA79000BBE0FCA3E0FDA3E0FEA33E
:02A3B500E0FFC7
:10A3B700E412161C9000CF121BA79000CBE0FCA361
:10A3C700E0FDA3E0FEA3E0FFE412161C9000D31209
:10A3D7001BA79000CBE0FCA3E0FDA3E0FEA3E0FFFA
:10A3E700E412161CA804A905AA06AB079000CFE043
:10A3F700FCA3E0FDA3E0FEA3E0FF1213149000D33B
:10A40700E0F8A3E0F9A3E0FAA3E0FB12151290002D
:10A41700D7121BA7E4FFFE7D807C3F9000D7E0F8B2
:10A42700A3E0F9A3E0FAA3E0FB121318A804A90517
:10A43700AA06AB07E4FFFE7D807C3F121512900051
:10A44700DB121BA7E4FFFE7D807CBF9000DBE0F8FA
:10A45700A3E0F9A3E0FAA3E0FB1213189000DF12C0
:10A467001BA7E4FFFEFD7C4F9000DFE0F8A3E0F9B7
:0FA47700A3E0FAA3E0FB12140912A75912165A18
:01A4860022B3
:069E9F009000C8121BA791
:109EA500E49000D2F07F32FEFDFC9000CCE0F8A3F8
:109EB500E0F9A3E0FAA3E0FBC3121B2450037F00E3
:109EC500229000C8E0FCA3E0FDA3E0FEA3E0FFA311
:109ED500E0F8A3E0F9A3E0FAA3E0FBD3121B2440CA
:109EE5004D9000C8E0F8A3E0F9A3E0FAA3E0FBA3D6
:109EF500E0FCA3E0FDA3E0FEA3E09BFFEE9AFEEDF0
:109F050099FDEC98FCE47BE87A03F9F81219D690F0
:109F150000CCE0F8A3E0F9A3E0FAA3E0FB121A6194
:109F25009000D0EEF0A3EFF0A37401F0804A90000A
:109F3500CCE0F8A3E0F9A3E0FAA3E0FB9000C8E0C9
:109F4500FCA3E0FDA3E0FEA3E0C39BFFEE9AFEEDBC
:109F550099FDEC98FCE47BE87A03F9F81219D690A0
:109F650000CCE0F8A3E0F9A3E0FAA3E0FB121A6144
:109F75009000D0EEF0A3EFF09000D0E0FEA3E0FF5C
:109F85007C0B7DC3121CC6E47BD07A07F9F8121A44
:0C9F9500619000D2E0B40104EF4480FFB2
:019FA100229D
:069C7E00900714121BA761
:109C840075CEA575CF5A0075CEA575CF5A0090072D
:109C940018E07040A3121BB300000000900719E005
:109CA400FCA3E0FDA3E0FEA3E0FF9000CC7410F061
:109CB400A374E9F012C2B7900719E0FCA3E0FDA376
:109CC400E0FEA3E0FF9000CC7410F0A374EEF01259
:109CD400C2B78046900719121BB30000000090071A
:109CE40019E0FCA3E0FDA3E0FEA3E0FF90000074F4
:109CF40001F0A3742EF0E4A3F0120000900719E021
:109D0400FCA3E0FDA3E0FEA3E0FF9000007401F0DB
:109D1400A3742FF0E4A3F0120000900718E0FD7F75
:109D2400021284BCC004C005C006C007900714E03A
:109D3400FCA3E0FDA3E0FEA3E0FF9000CB121BA771
:109D4400D007D006D005D00412A3B7900719121B70
:109D5400A775CEA575CF5A0075CEA575CF5A0090BC
:109D64000718E07011A3E0FCA3E0FDA3E0FEA3E06C
:109D7400FF9005298011900719E0FCA3E0FDA3E002
:0A9D8400FEA3E0FF900519121BA7D3
:019D8E0022B2
:06B10B0090071D121BA7B6
:10B11100C20575CEA575CF5A0075CEA575CF5A005B
:10B12100900722121BB300000000900721E0701B62
:10B13100A3E0FCA3E0FDA3E0FEA3E0FF9000CC743C
:10B1410010F0A374EEF012C2B7801E900722E0FC4B
:10B15100A3E0FDA3E0FEA3E0FF9000007401F0A3D3
:10B16100742FF0E4A3F0120000900721E0FD7F03AB
:10B171001284BCC004C005C006C00790071DE0FCD6
:10B18100A3E0FDA3E0FEA3E0FF9000CC121BA7D03B
:10B1910007D006D005D004129E9FE4FCFDFE900767
:10B1A10022121BA775CEA575CF5A0075CEA575CFF6
:10B1B1005A00900721E07011A3E0FCA3E0FDA3E099
:10B1C100FEA3E0FF9005318011900722E0FCA3E08F
:0DB1D100FDA3E0FEA3E0FF900521121BA7E7
:01B1DE00224E
:06712900900726121BA7CF
:10712F0075CEA575CF5A0075CEA575CF5A009007AD
:10713F002B121BB30000000090072AE0701BA3E086
:10714F00FCA3E0FDA3E0FEA3E0FF9000CC7428F0C9
:10715F00A3747CF012C2B780169000007401F0A3E4
:10716F007484F0E4A3F07FA9FE7D0BFC1200007580
:10717F00CEA575CF5A0075CEA575CF5A00E49005F0
:10718F0053F0900553E060FAE4900553F090072A0E
:10719F00E0FD7F021284BCC004C005C006C007908A
:1071AF000726E0FCA3E0FDA3E0FEA3E0FF9000CCE8
:1071BF00121BA7D007D006D005D004129E9FE4FC67
:1071CF00FDFE90072B121BA775CEA575CF5A007524
:1071DF00CEA575CF5A0090072AE0700FA3E0FCA34D
:1071EF00E0FDA3E0FEA3E0FF0272F790072BA3A33D
:1071FF00A3E05480FFEF90072B6066E0FCA3E0FD57
:10720F00A3E0FEA3E0547FFFEC90072B121BA79087
:10721F00072BE0FCA3E0FDA3E0FEA3E0FFE41216C2
:10722F001C7BCD7ACC798C783F12140912165A90A8
:10723F00072B121BA790072BE0FCA3E0FDA3E0FE9A
:10724F00A3E0FF7808121B4890072B121BA790078B
:10725F002BE0FCA3E0FDA3E0FEA3E0FFED440480E0
:10726F004DE0FCA3E0FDA3E0FEA3E0FFE412161C3B
:10727F007BCD7ACC798C783F12140912165A90076D
:10728F002B121BA790072BE0FCA3E0FDA3E0FEA3AE
:10729F00E0FF7808121B4890072B121BA790072BB3
:1072AF00E0FCA3E0FDA3E0FEA3E0FFED54FBFDEC4B
:1072BF0090072B121BA790052D121BB3000B00A9D3
:1072CF0090052DE0FCA3E0FDA3E0FEA3E0FF9007F7
:1072DF002BE0F8A3E0F9A3E0FAA3E0FBEF4BFFEEFE
:0E72EF004AFEED49FDEC48FC90052D121BA750
:0172FD00226E
:107D0300900681EEF0A3EFF0E024E8FF900681E017
:107D13003403AB07FA3395E0F9F8E4FFFEFD7C800A
:107D2300121A61900687121BA7900682E024E8FFCF
:107D3300900681E03403AB07FA3395E0F9F8E4FFEA
:107D4300FEFD7C80121A61AF03900683EAF0A3EF75
:107D5300F0900683E0FEA3E0FF7C037DE81218EEBB
:107D6300900681E0FAA3E0FB24E8FDEA3403FC1269
:107D73001900A3EEF0A3EFF0AF03AE02EE3395E0EC
:107D8300FDFC900687E0F8A3E0F9A3E0FAA3E0FB8B
:107D93001219D6C004A905AA06AB07900683E0FC16
:107DA300A3E0FD900681E0FEA3E0FF1218EE7C0342
:107DB3007DE8121900E4FCFDD000EB2FFFEA3EFE44
:107DC300ED39FDEC38FC90068B121BA7900682E080
:107DD30024E8FF900681E03403AB07FA3395E0F91A
:107DE300F890067DE0FCA3E0FDA3E0FEA3E0FF1214
:107DF300E12090068F121BA7900682E024E8FF90F3
:107E03000681E03403AB07FA3395E0F9F890067D79
:107E1300E0FCA3E0FDA3E0FEA3E0FF12E120AE023D
:107E2300AF03900685EEF0A3EFF07C037DE8121814
:107E3300EE900682E024E8FD900681E03403FC1214
:107E43001900900685EEF0A3EFF0E47FE87E03FDD2
:107E5300FC90068FE0F8A3E0F9A3E0FAA3E0FB129D
:107E630019D6A804A905AA06AB07900685E0FEA3C8
:107E7300E0FFE4FCFDEB2FFFEA3EFEED39FDEC38BD
:107E8300FC90068BE0F8A3E0F9A3E0FAA3E0FBC3C0
:0C7E9300EF9BFFEE9AFEED99FDEC98FCD1
:017E9F0022C0
:10A1A1007FFD7E10128D1EA804A905AA06AB07E447
:10A1B100FFFE7D7DFC121A61900768EEF0A3EFF0BF
:10A1C100E4FCFD900511E0F8A3E0F9A3E0FAA3E0B7
:10A1D100FBC3121B24700302A29D900768E0FAA33F
:10A1E100E0FBFFAE02E4FCFD900511121BA7D3EBCF
:10A1F10094F4EA9401400F900769E0240CFF900762
:10A2010068E034FE801F900768E0FEA3E0FFC3947E
:10A21100F4EE94015057C374F49FFF74019EFEC382
:10A22100E49FFFE49EFEEF25E0FFEE33FEC006C093
:10A2310007900519E0FCA3E0FDA3E0FEA3E0FF9079
:10A24100067D121BA7D007D006127D0390052912A7
:10A251001BA7900529E0FCA3E0FDA3E0FEA3E0FF1E
:10A261009000CC7410F0A374E9F002C2B790051904
:10A27100E0FCA3E0FDA3E0FEA3E0FF9000CC74109E
:10A28100F0A374E9F012C2B7900519E0FCA3E0FD58
:0CA29100A3E0FEA3E0FF900529121BA72C
:01A29D00229E
:102EB50090059C121BB30000000020AF030236945E
:102EC5009005547455F090B798121B879005A01281
:102ED5001BA7E47F19FEFDFC9005A0E0F8A3E0F92F
:102EE500A3E0FAA3E0FB1219D6E47B0AFAF9F8127B
:102EF5001A619005A6121BA7E47F46FEFDFC90050E
:102F0500A0E0F8A3E0F9A3E0FAA3E0FB1219D6E4E8
:102F15007B64FAF9F8121A619005AA121BA7E47FDF
:102F250023FEFDFC9005A0E0F8A3E0F9A3E0FAA3D9
:102F3500E0FB1219D6E47B64FAF9F8121A619005E0
:102F4500AE121BA7E47F03FEFDFC9005A0E0F8A3ED
:102F5500E0F9A3E0FAA3E0FB1219D6E47B64FAF9E1
:102F6500F8121A619005B2121BA775CEA575CF5A36
:102F75000075CEA575CF5A00E4FD7F041284BC9080
:102F850005B6121BA79005A6E0FCA3E0FDA3E0FE95
:102F9500A3E0FF9005B6E0F8A3E0F9A3E0FAA3E00B
:102FA500FBD3121B244008E49005A4F002303390B3
:102FB50005AAE0FCA3E0FDA3E0FEA3E0FF9005B6B3
:102FC500E0F8A3E0F9A3E0FAA3E0FBD3121B244049
:102FD500089005A47401F080559005AEE0FCA3E0CF
:102FE500FDA3E0FEA3E0FF9005B6E0F8A3E0F9A39A
:102FF500E0FAA3E0FBD3121B2440089005A4740259
:10300500F0802B9005B2E0FCA3E0FDA3E0FEA3E079
:10301500FFA3E0F8A3E0F9A3E0FAA3E0FBD3121BBA
:10302500249005A440057403F080037408F090050E
:10303500A4E07019900529121BB30000000090054B
:103045002D121BB3000000007FA01203AE9005A453
:10305500E06401600302327E9005A0E0FCA3E0FD80
:10306500A3E0FEA3E0FFE4900718F0129C7E900514
:1030750098121BB300000000E4900593F07F1E7EBC
:103085000012EBB07FD57E10128D1E900594121B99
:10309500A7E4FFFEFD7C80900594E0F8A3E0F9A38A
:1030A500E0FAA3E0FBC3121B244024900594E0FC46
:1030B500A3E0FDA3E0FEA3E0FF121AF3EF2401FF56
:1030C500E43EFEE43DFDE43CFC900594121BA79014
:1030D5000598E0FCA3E0FDA3E0FEA3E0FF900594C6
:1030E500E0F8A3E0F9A3E0FAA3E0FBEF2BFFEE3A4B
:1030F500FEED39FDEC38FCA3121BA775CEA575CFE7
:103105005A0075CEA575CF5A00900593E004F0E0FE
:10311500C394085003023082900598E0FCA3E0FDBB
:10312500A3E0FEA3E0FFE47B08FAF9F8121A619028
:103135000598121BA7900598E0FCA3E0FDA3E0FE0F
:10314500A3E0FFE412161CC004C005C006C007902A
:10315500B78C121B87E412161CD003D002D001D005
:103165000012151290054D121BA7900598121BB35E
:1031750000000000E4900593F07F1E7E0012EBB086
:103185007FD37E10128D1E900594121BA7E4FFFEBF
:10319500FD7C80900594E0F8A3E0F9A3E0FAA3E0B4
:1031A500FBC3121B244024900594E0FCA3E0FDA37F
:1031B500E0FEA3E0FF121AF3EF2401FFE43EFEE474
:1031C5003DFDE43CFC900594121BA7900598E0FC9E
:1031D500A3E0FDA3E0FEA3E0FF900594E0F8A3E0E3
:1031E500F9A3E0FAA3E0FBEF2BFFEE3AFEED39FD84
:1031F500EC38FCA3121BA775CEA575CF5A0075CE6A
:10320500A575CF5A00900593E004F0E0C3940850EB
:103215000302317E900598E0FCA3E0FDA3E0FEA348
:10322500E0FFE47B08FAF9F8121A61900598121B81
:10323500A7900598E0FCA3E0FDA3E0FEA3E0FFE472
:1032450012161CC004C005C006C00790B788121B23
:1032550087E412161CD003D002D001D0001215123B
:10326500900545121BA77FA11203AE75CEA575CF9C
:103275005A0075CEA575CF5A009005A4E0B4023862
:103285009005A0E0FCA3E0FDA3E0FEA3E0FFE47B46
:1032950002FAF9F8121A619005A0121BA79005A071
:1032A500E0FCA3E0FDA3E0FEA3E0FFE490072AF025
:1032B5001271297FA21203AE9005A4E0B4033890E1
:1032C50005A0E0FCA3E0FDA3E0FEA3E0FFE47B1482
:1032D500FAF9F8121A619005A0121BA79005A0E053
:1032E500FCA3E0FDA3E0FEA3E0FFE4900721F012BC
:1032F500B10B7FA31203AE9005A5E0B404199005A8
:1033050029121BB30000000090052D121BB3000B02
:1033150000A97FA41203AE9005A5E0640560030231
:10332500359E90071804F07FED7EB37D637C001217
:103335009C7E900598121BB300000000E490059355
:10334500F0E4FB7D017F0E7E01120000BF013478A1
:10335500BE7C057D017B017A0079007E007F041229
:10336500182C7B017A0579BE7D0412BCE49005BE5C
:10337500E0FCA3E0FDA3E0FEA3E0FF900594121B93
:10338500A7800790064CE04410F0E4FFFEFD7C802A
:10339500900594E0F8A3E0F9A3E0FAA3E0FBC312DB
:1033A5001B244024900594E0FCA3E0FDA3E0FEA3CC
:1033B500E0FF121AF3EF2401FFE43EFEE43DFDE4D5
:1033C5003CFC900594121BA7900598E0FCA3E0FD3A
:1033D500A3E0FEA3E0FF900594E0F8A3E0F9A3E0E5
:1033E500FAA3E0FBEF2BFFEE3AFEED39FDEC38FCDE
:1033F500A3121BA775CEA575CF5A0075CEA575CF9F
:103405005A00900593E004F0E0C39408500302339A
:1034150046900598E0FCA3E0FDA3E0FEA3E0FFE4F1
:103425007B08FAF9F8121A61900598121BA7900506
:1034350098E0FCA3E0FDA3E0FEA3E0FFE412161C68
:10344500C004C005C006C00790B78C121B87E412E4
:10345500161CD003D002D001D00012151290054DD4
:10346500121BA7900598121BB300000000E49005FD
:1034750093F0E4FB7D017F0D7E01120000BF013456
:1034850078BE7C057D017B017A0079007E007F0492
:1034950012182C7B017A0579BE7D0412BCE49005D7
:1034A500BEE0FCA3E0FDA3E0FEA3E0FF90059412BF
:1034B5001BA7800790064CE04410F0E4FFFEFD7C5E
:1034C50080900594E0F8A3E0F9A3E0FAA3E0FBC33C
:1034D500121B244024900594E0FCA3E0FDA3E0FE2C
:1034E500A3E0FF121AF3EF2401FFE43EFEE43DFDE5
:1034F500E43CFC900594121BA7900598E0FCA3E022
:10350500FDA3E0FEA3E0FF900594E0F8A3E0F9A396
:10351500E0FAA3E0FBEF2BFFEE3AFEED39FDEC38C8
:10352500FCA3121BA775CEA575CF5A0075CEA57540
:10353500CF5A00900593E004F0E0C39408500302CD
:103545003477900598E0FCA3E0FDA3E0FEA3E0FF3F
:10355500E47B08FAF9F8121A61900598121BA790F6
:103565000598E0FCA3E0FDA3E0FEA3E0FFE412164E
:103575001CC004C005C006C00790B788121B87E4AD
:1035850012161CD003D002D001D0001215129005DE
:1035950045121BA77FA51203AE9005A5E0B4063919
:1035A5009005A0E0FCA3E0FDA3E0FEA3E0FFE47B23
:1035B50002FAF9F8121A619005A0121BA79005A04E
:1035C500E0FCA3E0FDA3E0FEA3E0FF90072A740161
:1035D500F01271297FA61203AE9005A5E0B4073954
:1035E5009005A0E0FCA3E0FDA3E0FEA3E0FFE47BE3
:1035F50014FAF9F8121A619005A0121BA79005A0FC
:10360500E0FCA3E0FDA3E0FEA3E0FF900721740129
:10361500F012B10B7FA71203AE9005A5E064087008
:10362500559005A4E06408704D12D69075CEA57529
:10363500CF5A0075CEA575CF5A0012AF5E75CEA5CF
:1036450075CF5A0075CEA575CF5A00129D8F90047F
:10365500C8E075F00AA4240BF582E43405F583E48B
:10366500F0A3F075CEA575CF5A0075CEA575CF5AC6
:10367500007FA81203AE12E57C12675175CEA575C1
:0F368500CF5A0075CEA575CF5A00E4900554F0CA
:013694002213
:0B562800900095EBF0A3EAF0A3E9F07E
:10563300E49000A4F0900095E0FBA3E0FAA3E0F966
:1056430090000D12186BFF12E4A69000A5EFF090E6
:105653000095E0FBA3E0FAA3E0F990000E12186BAB
:10566300FF12E4A6EFC454F0FEC006900095E0FBE1
:10567300A3E0FAA3E0F990000F12186BFF12E4A65F
:10568300D0E02F9000A6F0900095E0FBA3E0FAA3F2
:10569300E0F990001112186BFF12E4A6EFC454F066
:1056A300FEC006900095E0FBA3E0FAA3E0F99000AA
:1056B3001212186BFF12E4A6D0E02F9000A7F07B24
:1056C300017A0079A412B37D900098121BA7E4908D
:1056D30000A4F0900095E0FBA3E0FAA3E0F99000AA
:1056E3001312186BFF12E4A69000A5EFF09000953B
:1056F300E0FBA3E0FAA3E0F990001412186BFF1289
:10570300E4A6EFC454F0FEC006900095E0FBA3E0CE
:10571300FAA3E0F990001612186BFF12E4A6D0E08A
:105723002F9000A6F0900095E0FBA3E0FAA3E0F928
:1057330090001712186BFF12E4A6EFC454F0FEC0DA
:1057430006900095E0FBA3E0FAA3E0F9900018129D
:10575300186BFF12E4A6D0E02F9000A7F07B017A2C
:105763000079A412B37D90009C121BA7E49000A4BF
:10577300F0900095E0FBA3E0FAA3E0F99000191282
:10578300186BFF12E4A69000A5EFF0900095E0FBE4
:10579300A3E0FAA3E0F990001A12186BFF12E4A633
:1057A300EFC454F0FEC006900095E0FBA3E0FAA31B
:1057B300E0F990001B12186BFF12E4A6D0E02F90C3
:1057C30000A6F0900095E0FBA3E0FAA3E0F99000B7
:1057D3001C12186BFF12E4A6EFC454F0FEC006902F
:1057E3000095E0FBA3E0FAA3E0F990001E12186B0A
:1057F300FF12E4A6D0E02F9000A7F07B017A007996
:10580300A412B37D9000A0121BA7900095E0FBA308
:10581300E0FAA3E0241FF9E43AFA9001E1EBF0A3E4
:10582300EAF0A3E9F0A3E4F0A37406F07B017A00A5
:1058330079A812DA8CE49000AEF07B017A0079A8A3
:1058430012E0019000AF121BA79004DBE0FCA3E081
:10585300FDA3E0FEA3E0FF121C8C58850000FEB000
:1058630058CB0000FEB158DE0000FEB258850000A0
:10587300FEB358CB0000FEB458DE0000FEB50000B6
:1058830059039000AFE0FCA3E0FDA3E0FEA3E0FF1B
:105893001290E375CEA575CF5A0075CEA575CF5A74
:1058A30000900098E0FCA3E0FDA3E0FEA3E0FF90DE
:1058B30000B7121BA790009CE0FCA3E0FDA3E0FE51
:1058C300A3E0FF12590480249000AFE0FCA3E0FDA5
:1058D300A3E0FEA3E0FF129A4880119000AFE0FC22
:1058E300A3E0FDA3E0FEA3E0FF12781512E57C120E
:1058F300675175CEA575CF5A0075CEA575CF5A00E1
:015903002281
:0690E3009000B3121BA770
:1090E90075CEA575CF5A0075CEA575CF5A00E4FF88
:1090F900FEFDFC9000B3E0F8A3E0F9A3E0FAA3E0D9
:10910900FB1215AFE4FFFE7DC87C429000B3E0F886
:10911900A3E0F9A3E0FAA3E0FB1213187B007A504D
:1091290079C3784712140912165A9000B8121BA76E
:10913900E47FB37EFEFDFC9004DBE0F8A3E0F9A335
:10914900E0FAA3E0FBC3121B2470517FE87E1012E2
:109159008D1E9000BC121BA79000CB121BB3009868
:1091690096809000B812A3AC9000BC121BA7900087
:10917900BCE0FCA3E0FDA3E0FEA3E0FF9000CC74FB
:1091890010F0A374E8F012C2B79000BCE0FCA3E0B1
:10919900FDA3E0FEA3E0FF900519806AE47FB07E9D
:1091A900FEFDFC9004DBE0F8A3E0F9A3E0FAA3E0FC
:1091B900FBC3121B2470527FE97E10128D1E900092
:1091C900BC121BA79000CB121BB30098968090008D
:1091D900B812A3AC9000BC121BA79000BCE0FCA382
:1091E900E0FDA3E0FEA3E0FF9000CC7410F0A374AF
:1091F900E9F012C2B79000BCE0FCA3E0FDA3E0FED9
:09920900A3E0FF900529121BA748
:019212002239
:065904009000B3121BA786
:10590A00E47FB07EFEFDFC9004DBE0F8A3E0F9A39F
:10591A00E0FAA3E0FBC3121B246003025A237FD9D7
:10592A007E10128D1E9000BB121BA79000BBE0FCDC
:10593A00A3E0FDA3E0FEA3E0FFE412161C900549D4
:10594A00E0F8A3E0F9A3E0FAA3E0FB1214091216A7
:10595A005A9000BB121BA77FEB7E10128D1E90007F
:10596A00BF121BA7E4FFFEFDFC9000BFE0F8A3E016
:10597A00F9A3E0FAA3E0FBC3121B24701D12A3953E
:10598A009000BF121BA79000BFE0FCA3E0FDA3E0BC
:10599A00FEA3E0FF900525121BA77FD87E10128D6B
:1059AA001E9000BB121BA7E4FFFE7D207C419005E0
:1059BA0045E0F8A3E0F9A3E0FAA3E0FB121409C05A
:1059CA0004C005C006C0079000BBE0FCA3E0FDA32D
:1059DA00E0FEA3E0FFE412161CD003D002D001D0EF
:1059EA000012140912165A9000BB121BA77FEA7EF6
:1059FA0010128D1E9000BF121BA7E4FFFEFDFC9043
:105A0A0000BFE0F8A3E0F9A3E0FAA3E0FBC3121B8E
:105A1A00246003025B71025B36E47FB37EFEFDFC09
:105A2A009004DBE0F8A3E0F9A3E0FAA3E0FBC312D9
:105A3A001B246003025B717FDA7E10128D1E9000B8
:105A4A00BB121BA79000BBE0FCA3E0FDA3E0FEA3F2
:105A5A00E0FFE412161C90054DE0F8A3E0F9A3E07C
:105A6A00FAA3E0FB12140912165A9000BB121BA7E4
:105A7A007FEC7E10128D1E9000BF121BA7E4FFFE62
:105A8A00FDFC9000BFE0F8A3E0F9A3E0FAA3E0FB75
:105A9A00C3121B24701D12A3959000BF121BA7905E
:105AAA0000BFE0FCA3E0FDA3E0FEA3E0FF90053504
:105ABA00121BA77FD87E10128D1E9000BB121BA747
:105ACA00E4FFFE7D207C41900545E0F8A3E0F9A3C0
:105ADA00E0FAA3E0FB121409C004C005C006C0071F
:105AEA009000BBE0FCA3E0FDA3E0FEA3E0FFE4120C
:105AFA00161CD003D002D001D00012140912165A73
:105B0A009000BB121BA77FEA7E10128D1E9000BF69
:105B1A00121BA7E4FFFEFDFC9000BFE0F8A3E0F92A
:105B2A00A3E0FAA3E0FBC3121B24703B9000B71258
:105B3A00A3989000BF121BA79000BFE0FCA3E0FD52
:105B4A00A3E0FEA3E0FF900539121BA79000BFE077
:105B5A00FCA3E0FDA3E0FEA3E0FF9000CC7410F0EC
:075B6A00A374EAF012C2B7B8
:015B71002211
:069A48009000B3121BA701
:109A4E00E4FFFEFDFC9000B3E0F8A3E0F9A3E0FA1A
:109A5E00A3E0FB1215AFE4FFFE7DC87C429000B37D
:109A6E00E0F8A3E0F9A3E0FAA3E0FB1213187B00E1
:109A7E007A5079C3784712140912165A9000B71209
:109A8E001BA79000CC121BB3009896809000B7E0F5
:109A9E00FCA3E0FDA3E0FEA3E0FF129E9FE4FCFD0D
:109AAE00FE9000BB121BA7E47FB47EFEFDFC90046B
:109ABE00DBE0F8A3E0F9A3E0FAA3E0FBC3121B245A
:109ACE00703F9000BBE0FCA3E0FDA3E0FEA3E0FF2F
:109ADE0090051D121BA77B017A0079C09000BBE098
:109AEE00FCA3E0FDA3E0FEA3E0FF12B8079000C3C5
:109AFE00E0FFE4FCFDFE9000CC7428F0A3747B80A4
:109B0E0058E47FB17EFEFDFC9004DBE0F8A3E0F9A3
:109B1E00A3E0FAA3E0FBC3121B2470419000BBE04C
:109B2E00FCA3E0FDA3E0FEA3E0FF90052D121BA712
:109B3E007B017A0079C49000BBE0FCA3E0FDA3E0BA
:109B4E00FEA3E0FF12B8079000C7E0FFE4FCFDFEA5
:0D9B5E009000CC7428F0A3747CF012C2B704
:019B6B0022D7
:067815009000B3121BA756
:10781B00E47FB57EFEFDFC9004DBE0F8A3E0F9A36A
:10782B00E0FAA3E0FBC3121B2460030278EB7FD6C4
:10783B007E10128D1E9000C0121BA79000C0E0FCA2
:10784B00A3E0FDA3E0FEA3E0FFEC12161C9000B337
:10785B00E0F8A3E0F9A3E0FAA3E0FB121409E4FBC0
:10786B00FA79C8784212151212165A9000BC121BE4
:10787B00A7E49000BBF0FFFEFDFCA3E0F8A3E0F94A
:10788B00A3E0FAA3E0FBD3121B0E9000BCE0FCA319
:10789B00E0FDA3E0FEA3E04003FF800F24FFFFEE1B
:1078AB0034FFFEED34FFFDEC34FFFC9000B7121BF0
:1078BB00A79000B7E0FCA3E0FDA3E0FEA3E0FF90E0
:1078CB0000CC7410F0A374EDF012C2B79000B7E0C7
:1078DB00FCA3E0FDA3E0FEA3E0FF9005210279B835
:1078EB00E47FB27EFEFDFC9004DBE0F8A3E0F9A39D
:1078FB00E0FAA3E0FBC3121B2460030279BB7FD722
:10790B007E10128D1E9000C0121BA79000C0E0FCD1
:10791B00A3E0FDA3E0FEA3E0FFEC12161C9000B366
:10792B00E0F8A3E0F9A3E0FAA3E0FB121409E4FBEF
:10793B00FA79C8784212151212165A9000BC121B13
:10794B00A7E49000BBF0FFFEFDFCA3E0F8A3E0F979
:10795B00A3E0FAA3E0FBD3121B0E9000BCE0FCA348
:10796B00E0FDA3E0FEA3E04003FF800F24FFFFEE4A
:10797B0034FFFEED34FFFDEC34FFFC9000B7121B1F
:10798B00A79000B7E0FCA3E0FDA3E0FEA3E0FF900F
:10799B0000CC7410F0A374EEF012C2B79000B7E0F5
:1079AB00FCA3E0FDA3E0FEA3E0FF900531121BA7B3
:0179BB0022A9
:03ED5C0002E2EBE5
:105B7200900000EFF0BF030C9028637480F0A3E460
:105B8200F0D28422C2849000CC7428F0A3747DF0F9
:105B92007F007E007D007C0012C2B79000CC74288A
:105BA200F0A37478F07F007E007D007C0012C2B703
:105BB2009028637480F0A3E4F0900000E07023FF6B
:105BC200FE7D32FC12BA27902864E04407F0900070
:105BD200CC7410F0A374EFF07FBC7E747D937C884C
:105BE2008031900000E0FF64016004EFB402297F7D
:105BF200007E807D0C7C0012BA27902864E044036A
:105C0200F09000CC7410F0A374EFF07F9C7E3C7D8A
:105C12001D7C9112C2B7800312ECA69028587449D9
:105C2200F09000CC7410F0A374F4F07F307EA87D65
:105C3200617C0412C2B79000CC7410F0A374FAF025
:105C42007F107EC27DDE7C0612C2B79000CC74103B
:105C5200F0A374F5F07F017E007D007C0012C2B7D4
:105C62009000CC7410F0A374FBF07F017E007D00E5
:105C72007C0012C2B79000CC7428F0A37478F07F35
:105C8200577E007D007C0012C2B79000CC7428F0D1
:105C9200A37479F07F007E007D007C0012C2B79071
:105CA20000CC7428F0A3747AF07F707E007D007CB3
:105CB2000012C2B79000CC7410F0A374F0F07F0011
:105CC2007E007D007C0012C2B79000CC7410F0A35D
:105CD20074F1F07F007E007D007C0012C2B790005C
:105CE200CC7410F0A374F2F07F007E007D007C0083
:105CF20012C2B79000CC7410F0A374F3F07F007E50
:105D0200007D007C0012C2B79000CC7410F0A37426
:105D1200F6F07F007E007D007C0012C2B79000CCBE
:105D22007410F0A374F7F07F007E007D007C0012F7
:105D3200C2B79000CC7410F0A374F8F07F007E001C
:105D42007D007C0012C2B79000CC7410F0A374F9ED
:105D5200F07F007E007D007C0012C2B79000CC7400
:105D620028F0A3747DF07FDE7E007D007C0012C2ED
:105D7200B79000CC7428F0A3747BF07F007E007D86
:105D8200007C0012C2B79000CC7428F0A3747CF09F
:105D92007F007E007D007C0012C2B79000CC742888
:105DA200F0A3747EF07F017E007D007C0012C2B7FA
:105DB2009000CC7410F0A374FCF07F017E007D0093
:105DC2007C0012C2B753A4DF43AD2043E8029028FF
:0C5DD2004BE04480F09007577403F0226F
:0588F60090000DEFF001
:1088FB006401704E7FD37E10128D1E90000E121BE2
:10890B00A7E4FFFEFD7C8090000EE0F8A3E0F9A346
:10891B00E0FAA3E0FBC3121B24402490000EE0FC02
:10892B00A3E0FDA3E0FEA3E0FF121AF3EF2401FF87
:10893B00E43EFEE43DFDE43CFC90000E121BA7025E
:10894B0089DE90000DE064026003028A20FB7D014A
:10895B007F1B7E01120000BF0134781A7C007D0161
:10896B007B017A0079007E007F0412182C7B017A40
:10897B0000791A7D0412BCE490001AE0FCA3E0FD20
:10898B00A3E0FEA3E0FF90000E121BA7800790064A
:10899B004CE04410F0E4FFFEFD7C8090000EE0F80C
:1089AB00A3E0F9A3E0FAA3E0FBC3121B244024903D
:1089BB00000EE0FCA3E0FDA3E0FEA3E0FF121AF320
:1089CB00EF2401FFE43EFEE43DFDE43CFC90000E91
:1089DB00121BA790000EE0FCA3E0FDA3E0FEA3E0BA
:1089EB00FFE412161C900545E0F8A3E0F9A3E0FAAA
:1089FB00A3E0FB121409900016121BA7900016E0BF
:108A0B00FCA3E0FDA3E0FEA3E0FF12165A900012B8
:108A1B00121BA7800A900012121BB300000000E487
:108A2B007F32FEFDFC900012E0F8A3E0F9A3E0FA20
:108A3B00A3E0FBC3121B24500A900012121BB300BD
:108A4B00000000900012E0FCA3E0FDA3E0FEA3E019
:018A5B00FF1B
:018A5C0022F7
:0596CA0090000DEFF01F
:1096CF006401704D7FD57E10128D1E90000E121BFF
:1096DF00A7E4FFFEFD7C8090000EE0F8A3E0F9A365
:1096EF00E0FAA3E0FBC3121B24407C90000EE0FCC9
:1096FF00A3E0FDA3E0FEA3E0FF121AF3EF2401FFA6
:10970F00E43EFEE43DFDE43CFC90000E121BA780FE
:10971F005690000DE0640260030297B87FD47E106C
:10972F00128D1E90000E121BA7E4FFFEFD7C809091
:10973F00000EE0F8A3E0F9A3E0FAA3E0FBC3121BCD
:10974F0024402490000EE0FCA3E0FDA3E0FEA3E084
:10975F00FF121AF3EF2401FFE43EFEE43DFDE43C6B
:10976F00FC90000E121BA790000EE0FCA3E0FDA3DF
:10977F00E0FEA3E0FFE412161C90054DE0F8A3E015
:10978F00F9A3E0FAA3E0FB121409900016121BA72D
:10979F00900016E0FCA3E0FDA3E0FEA3E0FF12168D
:1097AF005A900012121BA7800A900012121BB300CE
:1097BF00000000E47F14FEFDFC900012E0F8A3E02F
:1097CF00F9A3E0FAA3E0FBC3121B24500A90001286
:1097DF00121BB300000000900012E0FCA3E0FDA3F9
:0597EF00E0FEA3E0FF15
:0197F4002252
:056B8400900693EFF004
:106B89006003026C107FD17E10128D1E9006941244
:106B99001BA7E4FB7D017F197E01120000BF0134B0
:106BA90078A47C067D017B017A0079007E007F0450
:106BB90012182C7B017A0679A47D0412BCE4900694
:106BC900A4E0FCA3E0FDA3E0FEA3E0FF9006981279
:106BD9001BA7800790064CE04410F0900698E0FC53
:106BE900A3E0FDA3E0FEA3E0FF900694E0F8A3E094
:106BF900F9A3E0FAA3E02FFFEA3EFEE93DFDE83CF8
:106C0900FC90069C121BA7900693E0B4012C7FD13F
:106C19007E10128D1E900694121BA7E4FFFEFD7CC8
:106C290080900694E0F8A3E0F9A3E0FAA3E0FBC39F
:106C3900121B245003026CE0806D900693E06402FD
:106C49006003026CD6FB7D017F197E01120000BF33
:106C5900013478A47C067D017B017A0079007E00ED
:106C69007F0412182C7B017A0679A47D0412BCE4F6
:106C79009006A4E0FCA3E0FDA3E0FEA3E0FF9006DC
:106C890094121BA7800790064CE04410F0E4FFFE25
:106C9900FD7C80900694E0F8A3E0F9A3E0FAA3E074
:106CA900FBC3121B244030900694E0FCA3E0FDA333
:106CB900E0FEA3E0FF121AF3EF2401FFE43EFEE435
:106CC9003DFDE43CFC900694121BA7800A900694B3
:106CD900121BB300000000E47F867E19FDFC9006BC
:106CE90094E0F8A3E0F9A3E0FAA3E0FBC3121B24A4
:106CF900500C90069C121BB30000000080639006A4
:106D090093E0B4011FA3E0FCA3E0FDA3E0FEA3E030
:106D1900FFE412161C90B79C121B971214099006D7
:106D2900A0121BA7900693E0B4021FA3E0FCA3E006
:106D3900FDA3E0FEA3E0FFE412161C90B79C121B12
:106D4900971214099006A0121BA79006A0E0FCA3B5
:106D5900E0FDA3E0FEA3E0FF12165A90069C121B69
:0F6D6900A790069CE0FCA3E0FDA3E0FEA3E0FFE3
:016D780022F8
:05ADA90090000DEFF029
:10ADAE00BF01247FFD7E10128D1E90000E121BA778
:10ADBE0090000EE0F8A3E0F9A3E0FAA3E0FBE4FFB5
:10ADCE00FE7DE27C04805D90000DE064027069FB04
:10ADDE007D017F9A7E01120000EF6401705178169A
:10ADEE007C007D017B017A007900FE7F0412182C15
:10ADFE007B017A0079167D0412BCE4900016E0FC0B
:10AE0E00A3E0FDA3E0FEA3E0FF90000E121BA790AF
:10AE1E00000EE0F8A3E0F9A3E0FAA3E0FBE4FFFEE6
:10AE2E007D887C13121A61900012121BA78013905A
:10AE3E00064CE04410F0800A900012121BB3000082
:10AE4E000000900012E0FCA3E0FDA3E0FEA3E0FFF3
:10AE5E00E412161C7B9A7A997999783F121409128A
:10AE6E00165A900012121BA7900012E0FCA3E0FDF0
:06AE7E00A3E0FEA3E0FFCB
:01AE840022AB
:108BC000900011121BB300000000900011E0F8A308
:108BD000E0F9A3E0FAA3E0FBC000C001C002C003BB
:108BE0007FD17E10128D1ED003D002D001D000EBB9
:108BF0002FFFEA3EFEE93DFDE83CFC900011121B10
:108C0000A7900011E0F8A3E0F9A3E0FAA3E0FBC00D
:108C100000C001C002C0037FD27E10128D1ED0039F
:108C2000D002D001D000EB2FFFEA3EFEE93DFDE887
:108C30003CFC900011121BA7E4FFFEFD7C8090001D
:108C400011E0F8A3E0F9A3E0FAA3E0FBC3121B24B0
:108C5000900758E0402954EFF0900011E0FCA3E0A9
:108C6000FDA3E0FEA3E0FF121AF3EF2401FFE43EB0
:108C7000FEE43DFDE43CFC900011121BA780034480
:108C800010F0900011E0FCA3E0FDA3E0FEA3E0FFE4
:108C900090000D121BA7E47F867E19FDFC90001149
:108CA000E0F8A3E0F9A3E0FAA3E0FBC3121B245011
:108CB0001190000D121BB300000000900758E05403
:108CC000EFF090000DE0FCA3E0FDA3E0FEA3E0FFC9
:108CD000E47B02FAF9F8121A6190000D121BA790BA
:108CE000000DE0FCA3E0FDA3E0FEA3E0FF9000CCBC
:108CF0007410F0A374FCF012C2B7900011E0FCA352
:108D0000E0FDA3E0FEA3E0FFE412161C90B79C1266
:0E8D10001B9712140912165A9005FE021BA79B
:103C9E0090061A121BB300000000900616121BB3FA
:103CAE0000000000900622121BB3000000007FD21D
:103CBE007E10128D1E90061A121BA77FEE7E10121A
:103CCE008D1E900616121BA7E4FB7D017F1A7E0146
:103CDE00120000EF64017045782A7C067D017B019D
:103CEE007A007900FE7F0412182C7B017A06792A5D
:103CFE007D0412BCE490062AE0FCA3E0FDA3E0FEE6
:103D0E00A3E0FFE412161C7BCB7AA179D5783F1283
:103D1E00140912165A900622121BA7800890064C00
:103D2E00E04410F022E47F867E19FDFC90061EE032
:103D3E00F8A3E0F9A3E0FAA3E0FBD3121B24401B87
:103D4E007F7A7EE67DFF7CFF90061EE0F8A3E0F909
:103D5E00A3E0FAA3E0FB121B24400A90061E121BDE
:103D6E00B300000000E47F867E19FDFC900626E07D
:103D7E00F8A3E0F9A3E0FAA3E0FBD3121B24401B47
:103D8E007F7A7EE67DFF7CFF900626E0F8A3E0F9C1
:103D9E00A3E0FAA3E0FB121B24400A900626121B96
:103DAE00B30000000090061A900622900758E030EB
:103DBE00E503023EE430E350900622E0FCA3E0FD72
:103DCE00A3E0FEA3E0FF121AF3EF2401FFE43EFE90
:103DDE00E43DFDE43CFC900622121BA790061AE07F
:103DEE00FCA3E0FDA3E0FEA3E0FF900622E0F8A313
:103DFE00E0F9A3E0FAA3E02FFFEA3EFEE93DFDE87D
:103E0E003CFC90062A024027900622E0FCA3E0FD2F
:103E1E00A3E0FEA3E0FF90061AE0F8A3E0F9A3E00A
:103E2E00FAA3E0FBC3121B244050900622E0F8A335
:103E3E00E0F9A3E0FAA3E0FB90061AE0FCA3E0FD94
:103E4E00A3E0FEA3E09BFFEE9AFEED99FDEC98FC3D
:103E5E0090062A121BA7900622E0FCA3E0FDA3E029
:103E6E00FEA3E0FF121AF3EF2401FFE43EFEE43D51
:103E7E00FDE43CFC90062202402790061AE0F8A3CF
:103E8E00E0F9A3E0FAA3E0FB900622E0FCA3E0FD3C
:103E9E00A3E0FEA3E0C39BFFEE9AFEED99FDEC9826
:103EAE00FC90062A121BA7900657E0645560030289
:103EBE00402A900622E0FCA3E0FDA3E0FEA3E0FF73
:103ECE00121AF3EF2401FFE43EFEE43DFDE43CFC58
:103EDE00900622024027900758E020E303023FC5D8
:103EEE00900622E0FCA3E0FDA3E0FEA3E0FF900617
:103EFE001AE0F8A3E0F9A3E0FAA3E0FBC3121B2437
:103F0E004065900622E0F8A3E0F9A3E0FAA3E0FBF7
:103F1E0090061AE0FCA3E0FDA3E0FEA3E09BFFEEFB
:103F2E009AFEED99FDEC98FC90062A121BA79006BE
:103F3E0057E06455900622600DE0FCA3E0FDA3E07F
:103F4E00FEA3E0FF801BE0FCA3E0FDA3E0FEA3E0E8
:103F5E00FF121AF3EF2401FFE43EFEE43DFDE43CC4
:103F6E00FC90062202402790061AE0F8A3E0F9A37F
:103F7E00E0FAA3E0FB900622E0FCA3E0FDA3E0FE46
:103F8E00A3E0C39BFFEE9AFEED99FDEC98FC900624
:103F9E002A121BA7900622E0FCA3E0FDA3E0FEA3DD
:103FAE00E0FF121AF3EF2401FFE43EFEE43DFDE4D0
:103FBE003CFC9006228062900622E0FCA3E0FDA36A
:103FCE00E0FEA3E0FF90061AE0F8A3E0F9A3E0FA02
:103FDE00A3E02FFFEA3EFEE93DFDE83CFC90062AF9
:103FEE00121BA7900657E06455900622600DE0FC68
:103FFE00A3E0FDA3E0FEA3E0FF801BE0FCA3E0FD39
:10400E00A3E0FEA3E0FF121AF3EF2401FFE43EFE4D
:10401E00E43DFDE43CFC900622121BA7900519E03E
:10402E00FCA3E0FDA3E0FEA3E02400FFE43EFEE4DB
:10403E003DFDEC3480FCE412161CA804A905AA066A
:10404E00AB07E4FFFEFD7C4F12151290062E121BDD
:10405E00A7E4FFFEFD7C80900622E0F8A3E0F9A322
:10406E00E0FAA3E0FBD3121B24900622E0FC406B87
:10407E00A3E0FDA3E0FEA3E0FF121AF3EF2401FF7D
:10408E00E43EFEE43DFDE43CFC900622121BA790AC
:10409E000622E0FCA3E0FDA3E0FEA3E0FFE412167F
:1040AE001C90062EE0F8A3E0F9A3E0FAA3E0FB12C1
:1040BE00140912165A900622121BA7900622E0FC33
:1040CE00A3E0FDA3E0FEA3E0FF121AF3EF2401FF2D
:1040DE00E43EFEE43DFDE43CFC8021A3E0FDA3E0D4
:1040EE00FEA3E0FFE412161C90062EE0F8A3E0F902
:1040FE00A3E0FAA3E0FB12140912165A900622123C
:10410E001BA7900622E0FCA3E0FDA3E0FEA3E0FFC8
:10411E009000CC7410F0A374EEF012C2B7E4FFFE60
:10412E00FD7C80900622E0F8A3E0F9A3E0FAA3E07C
:10413E00FBD3121B244024900622E0FCA3E0FDA337
:10414E00E0FEA3E0FF121AF3EF2401FFE43EFEE4CB
:10415E003DFDE43CFC900622121BA7E4FFFEFD7C15
:10416E008090061AE0F8A3E0F9A3E0FAA3E0FBD3EF
:10417E00121B24402490061AE0FCA3E0FDA3E0FEEF
:10418E00A3E0FF121AF3EF2401FFE43EFEE43DFD2F
:10419E00E43CFC90061A121BA7E4FFFEFD7C809007
:1041AE00062AE0F8A3E0F9A3E0FAA3E0FBD3121B82
:1041BE0024402490062AE0FCA3E0FDA3E0FEA3E049
:1041CE00FF121AF3EF2401FFE43EFEE43DFDE43C52
:1041DE00FC90062A121BA790061AE0FCA3E0FDA392
:1041EE00E0FEA3E0FFE412161C90B7A0121B97127C
:1041FE00140912165A900602121BA790062AE0FC0A
:10420E00A3E0FDA3E0FEA3E0FFE412161C90B7A00E
:10421E00121B9712140912165A900616121BA7900B
:10422E000622E0FCA3E0FDA3E0FEA3E0FFE41216ED
:10423E001C90B7A0121B9712140912165A90062A38
:0D424E00121BA790063E121BB300000000DB
:01425B002240
:057666009006CEEFF0DC
:10766B00BF014B7FD27E10128D1E9006CF121BA72F
:10767B00E4FFFEFD7C809006CFE0F8A3E0F9A3E0E9
:10768B00FAA3E0FBC3121B24500302777C9006CFB6
:10769B00E0FCA3E0FDA3E0FEA3E0FF121AF3EF244E
:1076AB0001FFE43EFEE43DFDE43CFC02776A9006FC
:1076BB00CEE064026003027772FB7D017F1A7E01CC
:1076CB00120000BF013478DB7C067D017B017A0060
:1076DB0079007E007F0412182C7B017A0679DB7D02
:1076EB000412BCE49006DBE0FCA3E0FDA3E0FEA3E8
:1076FB00E0FF9006CF121BA7800790064CE04410CA
:10770B00F0E4FFFEFD7C809006CFE0F8A3E0F9A348
:10771B00E0FAA3E0FBC3121B2440249006CFE0FC4D
:10772B00A3E0FDA3E0FEA3E0FF121AF3EF2401FF99
:10773B00E43EFEE43DFDE43CFC9006CF121BA7901B
:10774B0006CFE0FCA3E0FDA3E0FEA3E0FFE41216EE
:10775B001C7BCB7AA179D5783F12140912165A905B
:10776B0006CF121BA7800A9006CF121BB300000096
:10777B0000E47F867E19FDFC9006CFE0F8A3E0F9CC
:10778B00A3E0FAA3E0FBC3121B24500C9006D31208
:10779B001BB30000000080639006CEE0B4011FA372
:1077AB00E0FCA3E0FDA3E0FEA3E0FFE412161C90B7
:1077BB00B7A0121B971214099006D7121BA790069D
:1077CB00CEE0B4021FA3E0FCA3E0FDA3E0FEA3E028
:1077DB00FFE412161C90B7A0121B97121409900607
:1077EB00D7121BA79006D7E0FCA3E0FDA3E0FEA3F6
:1077FB00E0FF12165A9006D3121BA79006D3E0FC9B
:09780B00A3E0FDA3E0FEA3E0FFF1
:017814002251
:10E22C0003E503E803EC03EF03D903DC03E003E3AA
:10E23C0003D303D603D903DC03C603C903CC03CF32
:10E24C00041004130416041904030407040A040D2F
:10E25C0003FA03FD0400040303ED03F103F403F7D5
:10E3A400EFB401089028637481F0800BEF6402706D
:10E3B4002A90286374A2F0902864E04408F0A3E053
:10E3C4004401F07F787E28128D1EEF4418FF9000E0
:0BE3D400CC7428F0A37478F012C2B7DC
:01E3DF00221B
:10E81C00902864E054F7F09028637480F090286599
:10E82C00E04401F07F787E28128D1EEF54F7FF90A4
:0CE83C0000CC7428F0A37478F002C2B77E
:10E3E0007F0212E3A47F0A7E0012EBB07FCE7E1084
:10E3F000128D1E7810121B35EE30E70FEFF4FFEE92
:10E40000F4FEEF2401FFE43EFE800F7C007D471206
:0BE410001900EF24FBFFEE34FFFE00BC
:01E41B0022DE
:10E761007F0112E3A47F0A7E0012EBB012005690E3
:10E771000003121BA7E4FFFE7D207C41900003E013
:10E78100F8A3E0F9A3E0FAA3E0FB12140912165A68
:01E791002265
:100056009000087404F0A37420F0E4900007F09078
:100066000007E0FFC394035043EF75F018A4FF9018
:100076000009E02FFD900008E035F0FC7E007F0AC5
:100086007B1512E5087B017A00790A9000337433F8
:10009600F07D137C0012E965900029EFF090001EB8
:1000A600E06F6008900007E004F080B37B017A00FF
:1000B600790A7D0412BCE47B017A00790E7D041274
:1000C600BCE47B017A0079127D0412BCE47B017AE0
:1000D6000079167D0412BCE47B017A00791A7D044E
:1000E60012BCE47FCE7E10128D1E7810121B359046
:1000F600002A121BA77E007F1F902862E0543E2430
:100106002CF582E434E2AD82FC7B0212E508900015
:100116001FE0FEA3E0FFE4FCFD90002AE0F8A3E068
:10012600F9A3E0FAA3E0FB1219D6E47BE87A03F917
:10013600F8121A6190002A121BA790001EE0FF9089
:100146000029E06F603290000A121BB3000046627D
:1001560090000E121BB300000001900012121BB398
:100166000D5A4336900016121BB300001BB49000C4
:100176001A121BB30000000A90002AE0FCA3E0FD5F
:10018600A3E0FEA3E0FF900016E0F8A3E0F9A3E0E9
:10019600FAA3E0FB1219D6900012E0F8A3E0F9A347
:1001A600E0FAA3E02FFFEA3EFEE93DFDE83CFCE471
:1001B60012161C12BD95C004C005C006C0079000EB
:1001C6000EE0FCA3E0FDA3E0FEA3E0FFE412161C94
:1001D600D003D002D001D000121409C004C005C05B
:1001E60006C00790000AE0FCA3E0FDA3E0FEA3E042
:1001F600FFE412161CA804A905AA06AB07D007D06F
:1002060006D005D004121314C004C005C006C007EA
:1002160090001AE0FCA3E0FDA3E0FEA3E0FFE412D9
:10022600161CA804A905AA06AB07D007D006D00558
:10023600D004121512900025121BA7900008740412
:10024600F0A37480F0E4900007F0900007E0FFC38D
:1002560094035046EF75F004A4FF900009E02FFDCB
:10026600900008E035F0FC7E007F217B0412E50853
:100276007B017A0079219000337433F07D027C0093
:1002860012E965900023EFF0A3E0FF900023E06FF2
:100296006008900007E004F080B0900024E0FF9032
:1002A6000023E06F6007E4900021F0A3F0900021A6
:1002B600E030E75B900021E0FEA3E0F4FFEEF4FE01
:1002C600EF2401FFE43E900021F0A3EFF09000251B
:1002D600E0FCA3E0FDA3E0FEA3E0FFC004C005C070
:1002E60006C007900021E0FEA3E0FF7C007D0A1215
:1002F6001900AC06AD07E4121621A804A905AA0642
:10030600AB07D007D006D005D0041213148038905E
:100316000025E0F8A3E0F9A3E0FAA3E0FBC000C0E3
:1003260001C002C003900021E0FEA3E0FF7C007D37
:100336000A121900AC06AD07E4121621D003D0024A
:10034600D001D000121318900025121BA7E4FFFE5F
:100356007DB47C42900025E0F8A3E0F9A3E0FAA37F
:10036600E0FB1215AF600E400C900025121BB34245
:10037600B400008024E4FFFE7D2C7CC2900025E0C2
:10038600F8A3E0F9A3E0FAA3E0FB1215AF500A9038
:100396000025121BB3C22C0000900025E0FCA3E050
:0703A600FDA3E0FEA3E0FF50
:0103AD00222D
:06AB0600900000121BA7E5
:10AB0C00E4900004F0C286C285902867E044C0F04F
:10AB1C00A37420F0900000E0FCA3E0FDA3E0FEA3F2
:10AB2C00E0FF121C8CAB59000C8000AB61001900CB
:10AB3C0000AB7100320000AB7900640000AB860002
:10AB4C00C80000AB98019000000000ABAA902867E9
:10AB5C00E054FC800A902867E04401F0E054FDF0DA
:10AB6C00A3E4F0803C902867E054FE8006902867B0
:10AB7C00E04401F0E04402F08027902867E04401B3
:10AB8C00F0E04402F0A3E04440F08015902867E028
:10AB9C004401F0E04402F0A3E044C0F0800312EC66
:10ABAC00A6E5A320E00F900004E004F0E0D394327B
:10ABBC0040EF7F0022D280E4900004F020800F90C0
:10ABCC000004E004F0E0D3943240F17F002290289E
:0EABDC005FE4F0A37403F0A3E04420F07F01D7
:01ABEA002248
:06BA2700900001121BA7B4
:10BA2D00E4900005F0C284902867E044C0F09000D7
:10BA3D0001E0FCA3E0FDA3E0FEA3E0FF121C8CBA25
:10BA4D006800000000BA6D000C8000BA7A00190081
:10BA5D0000BA8F003200000000BAA4D2847F012208
:10BA6D00902867E054F3F0E054CFF0802D902867D4
:10BA7D00E04404F0E054F7F0E04410F0E054DFF05F
:10BA8D008018902867E054FBF0E04408F0E054EF94
:10BA9D00F0E04420F0800312ECA6E5A320E00F9027
:10BAAD000005E004F0E0D3943240EF7F0022D2870E
:10BABD00E4900005F020870F900005E004F0E0D33E
:09BACD00943240F17F00227F0158
:01BAD600224D
:10DCFE00C286C285902864E4F0902866F0900002F7
:10DD0E00F0900002E004F0E0B414F6D284E5A13005
:10DD1E00E00312ECA6C2802080FDE5A130E00312E4
:10DD2E00ECA6E4900002F0900002E004F0E0B403F0
:10DD3E00F6902867E4F0902867E070FAD2817F327F
:04DD4E0012ED0E00C4
:01DD520022AE
:10D05C009028ADE054FDF09028ACE054FDF0902801
:10D06C00AEE04402F09028ACE054FBF0A3E054FB9B
:10D07C00F0A3E04404F0902820E4F0902828F090ED
:10D08C002830F0902A05F0902864F0902866E0444F
:10D09C0020F09000CC7428F0A3747DF07F007E000B
:10D0AC007D007C0012C2B79000CC7428F0A3747879
:10D0BC00F07F007E007D007C0012C2B7E4FF0FEF12
:05D0CC00B414FBD28446
:01D0D100223C
:10CAF3009028A8E054F0F09028AAE054F0F075A430
:10CB0300F275A50AE4F5A643A6049028B2E0440210
:10CB1300F09028B0E054FDF0A3E04401F09028B079
:10CB2300E054FDF0A3E04401F09028C97402F0A39F
:10CB3300F09028B1E04410F09028B0E04410F09059
:10CB430028CDE4F053ADDF53A4DF53A6DFA3F09069
:10CB530028B0E054DFF09028B2E04420F09028C8D9
:10CB6300E4F09028ADE04410F09028C7E4F090285A
:0CCB7300ADE04408F053ADFD43A50222E4
:10DBFC009028A874FFF0A3E4F09028AC74FFF0A375
:10DC0C00E4F09028B074FFF0A3E4F09028B474FF13
:10DC1C00F0A3E4F09028B874FFF0A3E4F09028BCD3
:10DC2C0074FFF0A3E4F09028C074FFF0A3E4F0902C
:10DC3C0028D574FFF0A3E4F09028D974FFF0A3E486
:07DC4C00F075A4FFF5A5220D
:10EB4800E4FF9028B3E020E4050FEFB40AF4EFD314
:09EB5800940740037F01227F00B5
:01EB61002291
:10EB6200E4FF9028AFE020E4050FEFB40AF4EFD3FE
:09EB7200940740037F01227F009B
:01EB7B002277
:10EBE100E4FFE5A720E1050FEFB40AF6EFD39407A0
:07EBF10040037F01227F00B9
:01EBF80022FA
:10EB7C00E4FF9028AFE020E3050FEFB40AF4EFD3E5
:09EB8C00940740037F01227F0081
:01EB9500225D
:10EBF900E4FFE5A730E0050FEFB40AF6EFD3940779
:07EC090040037F01227F00A0
:01EC100022E1
:0EECDB00C28390285EE4F0902C1E74C2F022DA
:03ED5F00D283223A
:10EABF00902C08E4F0A3F0A3F0A3F0A3F0A3F0A32D
:0CEACF00F0A3F0902C12F0A3F0A3F022B2
:10E93E00EF902C00F0902C04F0A3F0A3F0A3F09035
:10E94E002C09F0A3F0A3F0902C0FF0A3F0540FA31A
:07E95E00F0EF902C13F022F2
:10D4DF009028B4E0440FF09028B8E04403F090286F
:10D4EF00BCE074FFF09028C0E044FCF09028D5E039
:10D4FF0044C0F09028D9E04407F09028B5E054F0EC
:10D50F00F09028B9E054FCF09028BDE0E4F09028AA
:10D51F00C1E05403F09028D6E0543FF09028DAE0B1
:10D52F0054F8F012ECDB902C1F7403F0A374FFF08F
:0DD53F00A374FCF0A374C0F0A374C7F02225
:10ABEB0090000612186BFFC4540FFE12185254F04B
:10ABFB004E902C00F090000112186BFE54F0FD12D9
:10AC0B001852540F4D902C04F090000212186B54F4
:10AC1B00F0FDEE540F4D902C05F090000312186BC5
:10AC2B00FE54F0FD90000212186B540F4D902C0641
:10AC3B00F090000412186B54F0FDEE540F4D902C55
:10AC4B0007F090000512186BFE54F0FD90000412F3
:10AC5B00186B540F4D902C09F090000912186B547F
:10AC6B00F0FDEE540F4D902C0AF090000A12186B69
:10AC7B00FE54F0FD90000912186B540F4D902C0BE5
:10AC8B00F090000712186B54F0FDEF540F4D902C01
:10AC9B000FF090000812186BFF54F0FD9000071294
:10ACAB00186B540F4D902C10F0EF540FA3F0900035
:10ACBB000B12186B54F0FFEE540F4F902C13F02225
:10ECB9009028C77406F09028ACE054F7F0A3E0540C
:03ECC900F7F0223F
:0BED030043E80290284BE04440F0225F
:10E45700900002EFF0A3EDF07590967597577F3215
:10E4670012ED0E900003E0FFF596EFB4070D75DF90
:10E4770040900002E0543F25DFF5DF7F3212ED0EBA
:0BE487007590967597567F3202ED0EDF
:0BDA2D009000AFEBF0A3EAF0A3E9F0DB
:10DA3800A3E5DAF07F6412ED0E9000AFE0FBA3E0FF
:10DA4800FAA3E0F9E59E1218BA9000AFE0FBA3E054
:10DA5800FAA3E0F9900001E5931218CC900002E5D2
:10DA68009F1218CC900003E59D1218CC900004E595
:10DA78009C1218CC900005E59B1218CC900006E586
:04DA88009A0218CC1A
:10D6FA00900095EBF0A3EAF0A3E9F0759096759780
:10D70A00577F3212ED0E900095E0FBA3E0FAA3E0FA
