:01040000FFFC
:0300000002CFAC80
:06CFAC0075812002CFEDAB
:10BC63000075CEA575CF5A0075CEA575CF5A00C203
:10BC7300AF12E9DCD2AF0075CEA575CF5A0075CEF1
:10BC8300A575CF5A0012EEBBEF6401600302BD122B
:10BC930075CEA575CF5A0075CEA575CF5A009006FF
:10BCA3004EE0FF30E00654FEF012EC5F129D41902F
:10BCB300064EE0FF30E10654FDF012964390066A0B
:10BCC300E06401600790066BE0B4010312B30E90C9
:10BCD3000667E064017024F012B23775CEA575CF04
:10BCE3005A0075CEA575CF5A007D017F0112B97038
:10BCF3007FFF12EBEA90066C7403F0129D4112F081
:10BD03005E75CEA575CF5A0075CEA575CF5A0012B4
:05BD13009D4102BC7A15
:10DC780000100044443031412D5632302E30321ECF
:10DC88001E26003000111111111111FFFFFFFFFFB7
:10DC9800FFFFFFFFFF11111111111100000000001B
:10DCA80000000000000000000000005A0000000012
:10DCB8001C0000000000000000000F0101FFFFFF32
:10DCC800FFFFFFFFFF00123456000000653412000A
:01DCD800004B
:10D5C800E490064EF0A3F09006527403F0E490063F
:10D5D80065F07B017A0679579001D8F0A304F0A38F
:10D5E80004F07D997C0012CBCF7B017A06795890A4
:10D5F80001D8E4F0A37402F0A3F07D9F7C0012CB65
:10D60800CF7B017A06795A9001D8E4F0A37402F02E
:10D61800A3F07DA17C0012CBCF7B017A06796190C3
:10D6280001D8E4F0A37404F0A37402F07DC17C0077
:03D6380002CBCF53
:10D7F80000020000003E0102003E002F1402006DEE
:10D808000052150200BF00101B02011B001A19026A
:10D8180000CF0009460200D8003A150200BF0010E8
:10D8280052020135001A5302014F001E5402016DC5
:10D8380000621A02011200096502080000716602FE
:10D8480008710071670208E20071680209530071EB
:0CD85800690209C400716A020A350071FF
:10B71F00900008E0FEA3E0FF90000CE0FCA3E0FD2A
:02B72F007B029B
:10B7310090018BEEF0A3EFF0A3ECF0A3EDF0A3EBFF
:01B74100F017
:10B742009001D174A5F0A3745AF090018DE0FEA38C
:10B75200E0FFD39400EE9400500302B7DDEF944073
:10B76200EE940090019040057440F08002EFF07B6F
:10B77200017A01799190018BE0FCA3E0FD900190A8
:10B78200E0FF9001D8E4F0A3EFF090018FE0900188
:10B79200DAF012CBCF7B017A017991900190E0FD32
:10B7A2007C00E49001D8F0A3F012EA3E9001D2E0CE
:10B7B2002FF09001D1E03EF0900190E0FF7E0090EA
:10B7C200018CE02FF090018BE03EF0C390018EE0FF
:10B7D2009FF090018DE09EF002B74C9001D1E0FE07
:03B7E200A3E0FFE2
:01B7E5002241
:08CCEC0090018BEEF0A3EFF0C4
:10CCF400E4FFEF75F006A424F9F582E434D7F58354
:10CD0400E4936D7068ED640260037FFF22EF75F0B9
:10CD140006A424FAF582E434D7F583E493FB740182
:10CD24009390018DCBF0A3EBF0EF75F006A424FCF7
:10CD3400F582E434D7F583740193F990018DE0FA18
:10CD4400A3E0FBC390018CE09B90018BE09A401D13
:10CD5400E9FB90018EE02BFB90018DE03400FAC3D7
:10CD640090018CE09B90018BE09A5001220FEF64BC
:08CD740012600302CCF67FFF00
:01CD7C002294
:10AB2500900008E0FCA3E0FD2400FFEC3404FE9057
:10AB3500000DE02402FB90000CE03400FA900016B2
:03AB45007422F087
:10AB4800900010EEF0A3EFF0A3ECF0A3EDF0A3EA71
:04AB5800F0A3EBF08B
:10AB5C00900014E0FEA3E0FFD39400EE94005003A9
:10AB6C0002AC13D3EF9440EE940090005740057460
:10AB7C0040F08002EFF07B017A007917900012E030
:10AB8C00FCA3E0FD900057E0FF9001D8E4F0A3EFA8
:10AB9C00F0900016E0FFC4540F9001DAF012CBCF06
:10ABAC0075CEA575CF5A0075CEA575CF5A007B0111
:10ABBC007A007917900057E0FD900190E4F0A3ED36
:10ABCC00F0900016E0540F900192F0900010E0FE0F
:10ABDC00A3E0FF12C855900057E0FFFD7C009000E9
:10ABEC0011E02DF0900010E03CF0900013E02DF0FF
:10ABFC00900012E03CF0C3900015E09FF090001420
:07AC0C00E09400F002AB5CD4
:01AC1300221E
:10C5200090007AEEF0A3EFF0A3ECF0A3EDF0AF03F0
:10C530007B017A007980AD0790017DE4F0A374401F
:10C54000F012EB1F90007CE0FEA3E0FFD39400EE1E
:10C5500094004069D3EF9440EE94009000C04005F1
:10C560007440F08002EFF090007AE0FEA3E0FF7BE1
:10C57000017A0079809000C0E0FD900190E4F0A382
:10C58000EDF090007FE0900192F012C85575CEA5B5
:10C5900075CF5A0075CEA575CF5A009000C0E0FF48
:10C5A0007E0090007BE02FF090007AE03EF0C39098
:0DC5B000007DE09FF090007CE09EF0808711
:01C5BD00225B
:0BCBC4009001D8E4F0A37402F0A3F08D
:10CBCF009001D3EBF0A3EAF0A3E9F0A3ECF0A3ED0F
:01CBDF00F065
:10CBE0009001DAE024FE604B0470699001D6E0FE0B
:10CBF000A3E0AA06F99001DB7401F0A3EAF0A3E92F
:10CC0000F09001DBE0F9A3E0FAA3E09001E1C9F0C4
:10CC1000A3EAF0A3E9F09001D8E0FFA3E09001E4DB
:10CC2000CFF0A3EFF09001D3E0FBA3E0FAA3E0F98B
:10CC300002DD389001D3E0FBA3E0FAA3E0F9A3E022
:10CC4000FCA3E0FDA3E0FFA3E09001E3CFF0A3EF9E
:07CC5000F002C3E012EF98AF
:01CC570022BA
:10C83400900004EEF0A3EFF090000A7A007904E08F
:10C84400FEA3E0FF7B01900190E4F0A37402F0A347
:01C85400F0F3
:10C8550090018BEEF0A3EFF0A3EBF0A3EAF0A3E9D0
:01C86500F0E2
:10C86600900192E024FE603C04705A90018BE0FE39
:10C87600A3E0AA06F97B01C002C001A3E0F9A3E088
:10C88600FAA3E09001E1C9F0A3EAF0A3E9F0900170
:10C8960090E0FFA3E09001E4CFF0A3EFF0D001D049
:10C8A6000202DD3890018BE0FEA3E0FFA3E0FBA3CC
:10C8B600E0FAA3E0F9A3E0FDA3E0900198CDF0A390
:08C8C600EDF002C6FA12EF9832
:01C8CE002247
:10989D0090017BEBF0A3EAF0A3E9F0900179EEF0F3
:0398AD00A3EFF036
:1098B000900180E0FD12CCEC900181EFF0C3941296
:1098C000400312EF98900181E0FF75F006A424FA9E
:1098D000F582E434D7F583E493FD74019390018419
:1098E000CDF0A3EDF0EF75F006A424FCF582E4348E
:1098F000D7F58374019324FEFFE49334FFFE9001B7
:1099000088F0A3EFF0900185E02FFF900184E03E06
:10991000900186F0A3EFF0900181E075F006A42499
:10992000F8F582E434D7F583E49390018AF090014E
:1099300079E0FEA3E0FFA3E0FBA3E0FAA3E0F9A334
:10994000E0FDA3E0900190CDF0A3EDF0900180E068
:10995000900192F012C855900184E0FEA3E0FF90C0
:10996000018812B72A900182EEF0A3EFF0900186F1
:109970007A01798212C84390018AE0C39464504806
:1099800090017AE02400FF900179E03404FE900118
:109990007BE0FBA3E0FAA3E0F9A3E0FDA3E09001E4
:1099A00090CDF0A3EDF0900180E0900192F012C80C
:1099B00055900187E02400FF900186E03404FE7B8F
:0899C000017A01798212C84A04
:0199C800227C
:10A27E00E4FEEE75F006A424F8F582E434D7F583F7
:10A28E00E4936F60050EEEB412E8EEC39412400331
:10A29E0002A37EEE75F006A424FAF582E434D7F517
:10A2AE0083E493FD740193900010CDF0A3EDF0EED6
:10A2BE0075F006A424FCF582E434D7F5837401937B
:10A2CE0024FEFCE49334FF900012F0A3CCF0EF24B4
:10A2DE00EB602224CF602E24F4603A1460471460A1
:10A2EE005424407072900010E0FEA3E0FF7BFF7AD2
:10A2FE00DC7987804E900010E0FEA3E0FF7BFF7AB2
:10A30E00DB79AE803E900010E0FEA3E0FF7BFF7A8B
:10A31E00BA79F3802E900010E0FEA3E0FF7BFF7A67
:10A32E00C879CF801E900010E0FEA3E0FF7BFF7A7D
:10A33E00C879E9800E900010E0FEA3E0FF7BFF7A63
:10A34E00C97907A3E0FDA3E0900190CDF0A3EDF055
:10A35E00A37402F002C855900010E0FEA3E0FFA324
:10A36E00E0FCA3E0FD90007F7402F0E4FB12C52038
:01A37E0022BC
:1071E700E4900003F0900003E0F9C3941240030217
:1071F70073BEE490000EF0900003E0FF75F006A464
:1072070024FAF582E434D7F583E493FD740193906F
:107217000008CDF0A3EDF0EF75F006A424FCF5828D
:10722700E434D7F58374019324FEFEE49334FF908E
:10723700000CF0A3CEF090000CE0FAA3E0FB900066
:1072470008E0FCA3E0FD2BFEEC3AA3F0A3CEF0E9A7
:1072570075F006A424F8F582E434D7F583E4939017
:10726700000FF075CEA575CF5A0075CEA575CF5A0C
:1072770000AF05AE04AD03AC027B0212B73190003C
:1072870004EEF0A3EFF07B017A00790690000AE0A4
:10729700FCA3E0FD12CBC4900006E0FEA3E0FF9044
:1072A7000004E06E7003A3E06F600790000EE044F7
:1072B70001F090000FE0C39464504B900009E02464
:1072C70000FF900008E03404FE12B727900004EE98
:1072D700F0A3EFF07B017A00790690000BE0240021
:1072E700FD90000AE03404FC12CBC4900006E0FED7
:1072F700A3E0FF900004E06E7003A3E06F600790C7
:10730700000EE04402F075CEA575CF5A0075CEA5E4
:1073170075CF5A0090000EE070030273A724FE6039
:10732700361460412402707590000FE0C3946450D6
:1073370015900008E0FEA3E0FF2400FDEE3404FCF6
:1073470012AB3402739490000FE0FF12A27E12B7C3
:107357001F12C83402739490000FE0C39464504026
:1073670012AB25802890000FE0FF12A27E12B71FF4
:1073770012C83475CEA575CF5A0075CEA575CF5AEC
:107387000090000FE0C39464501612AB2575CEA58C
:1073970075CF5A0075CEA575CF5A00800312EF98A6
:1073A70075CEA575CF5A0075CEA575CF5A0090003A
:0773B70003E004F00271EC99
:0173BE0022AC
:05BA3300900095EFF00A
:10BA3800E4A3F0900096E0F9C39412400302BAF22E
:10BA4800E0FE75F006A424FAF582E434D7F583E421
:10BA580093FC740193FDEE75F006A424FCF582E4D2
:10BA680034D7F58374019324FE2DFEE43C900099AD
:10BA7800F0A3CEF0E975F006A424F8F582E434D7F3
:10BA8800F583E493FF90009BF0BF4608900095E093
:10BA980064A5704D75CEA575CF5A0075CEA575CF26
:10BAA8005A00E4900097F0A3F0900099E0FEA3E01C
:10BAB800FF7B017A00799712C84A90009BE0C394F3
:10BAC80064501EE4900097F0A3F090009AE02400E0
:10BAD800FF900099E03404FE7B017A00799712C840
:0ABAE8004A900096E004F002BA3B19
:01BAF2002231
:10BE7C0012EE3AEF6401600302BF16900731E0C383
:10BE8C009403400302BF2AE004F0E0C39403500380
:10BE9C0002BF2A900657E0645A600302BF2A90073B
:10BEAC0032E06401607812D93C75CEA575CF5A008A
:10BEBC0075CEA575CF5A0012B23775CEA575CF5A6F
:10BECC000075CEA575CF5A0012D55475CEA575CF79
:10BEDC005A0075CEA575CF5A00129F6412E4967560
:10BEEC00CEA575CF5A0075CEA575CF5A00129AF40F
:10BEFC0075CEA575CF5A0075CEA575CF5A007FA803
:10BF0C001203AE9007327401F022900731E0D39403
:0FBF1C00004003E014F0900731E07002A3F02220
:10DF550012EEEBEF6401702690072FE0C394035097
:10DF650043E004F0E0C39403403AA3E06401603465
:10DF75007D017F0912B9709007307401F022900776
:10DF85002FE0D394004006900731E014F090072F5E
:10DF9500E07011A3E0B4010C7DFF7F0912B970E4B4
:05DFA500900730F0229E
:10EF5C007B017A07792E90017DE4F0A37405F0E42F
:04EF6C00FD02EB1F98
:01004A002293
:10EEBB00E4FFE5A120E0050FEFB41EF6EFC39419B4
:07EECB0050037F01227F00CC
:01EED200221D
:10DFFF00900650E5A1F0E59560047F0180027F0057
:10E00F00E59460047E0180027E00EE4F60117590F2
:10E01F0096759757E4F594F5957590967597560004
:10E02F00758F019004027486F0E4F58F75A001FFDF
:10E03F00FE7D32FC12ADDF12DEA812ED7502E6C8CE
:10ACFA007B017A0079009001D8E4F0A37403F0A3F1
:10AD0A0014F07DBA7C0012CBCF900000E0B4650B42
:10AD1A00A3E0B43406A3E06412602D900415740114
:10AD2A00F012DEFF90007F7402F0E4FBFD7C10FF5E
:10AD3A007E0812C5207FA512BA3375CEA575CF5AE3
:10AD4A000075CEA575CF5A00900651E070111271A8
:10AD5A00E775CEA575CF5A0075CEA575CF5A0012E4
:10AD6A00D5C812EF5C75CEA575CF5A0075CEA575FC
:10AD7A00CF5A007B017A05791C9001D8E4F0A374BC
:10AD8A003AF0A37402F07DD87C0012CBCF12F04EB9
:10AD9A0012F04B12D86475CEA575CF5A0075CEA5A0
:10ADAA0075CF5A0012E7EE12589812EB7312E94067
:10ADBA0012EE8875CEA575CF5A0075CEA575CF5AF5
:10ADCA000012DDF275CEA575CF5A0075CEA575CFE6
:05ADDA005A0002E976B9
:10E2F600E4900000F0A3F075CEA575CF5A0075CE58
:10E30600A575CF5A0075CEA575CF5A0075CEA575E1
:10E31600CF5A0012EB7312589812D78B12EB9B123E
:10E32600DEA87D027F0112E70343C90112DFAAE5D9
:07E33600A130E00312EF9893
:01E33D0022BD
:10D0AD007F007E007D327C0012ADDF12CE9812D74C
:10D0BD008B7FFF12EBEA75CEA575CF5A0075CEA505
:10D0CD0075CF5A0012ACFA12EFBEE4FF12D8D0128F
:10D0DD00EFF5E4FF125DB51269B97B017A06793976
:10D0ED0090017DE4F0A37405F0E4FD12EB1F9006B2
:10D0FD00CE7404F09006CAF07DFF7F0712B9707BE5
:10D10D00017A0679CA90017DE4F0A3740CF0E4FD78
:0AD11D0012EB1F43A50143A40122F9
:10E9DC0012DFFF12EEBBEF70077F2C7E0112EEA24E
:10E9EC0012EEBBEF70089006517403F08005E490B2
:10E9FC000651F0900651E0B4030302E2F612D0ADDA
:01EA0C0022E7
:10E09E0012EE54EF64014E700590066A04F090067D
:10E0AE006AE0B4011EE4F090058CE0B40504E4F0DF
:10E0BE00800690058CE004F012B4B89005767406D4
:10E0CE00F0800C900576E0D394004003E014F090BD
:0DE0DE000576E0700790058CF012B4B822B2
:109D410012EEBBEF6003029E52D284C2AF12629C3C
:109D51007B017A04798790017EE4F0A3743CF0A33F
:109D61007402F0E4FFFE12989D9004157401F01244
:109D7100DEFF9006517403F07B017A06797790013A
:109D81007EE4F0A37407F0A37402F07FCF7E00128B
:109D9100989D9006CE7404F07D017F0712B97090F2
:109DA10006D17404F09006CDF07DFF7F0A12B970E0
:109DB1007B017A0679D49001D8E4F0A304F0A304DE
:109DC100F07D217C0112CBCF12BFDA12EB9B12DEA8
:109DD100A89028C8E4F09028ADE04410F012ED7589
:109DE10012E6C812EB7343A50143A401E49006CC2B
:109DF100F09006D0F0900576F075CEA575CF5A009B
:109E010075CEA575CF5A00E4FD7F0112E70343C962
:109E11000112EFF512DFAA75CEA575CF5A0075CEE6
:109E2100A575CF5A007F007E007D327C0012ADDF28
:109E310012EEEBBF01047D0180027DFF7F02124A19
:109E41009CE5A130E00312EF98126BF012E09E80C6
:029E5100A82245
:10EF980075CEA575CF5A0075CEA575CF5A0000005D
:03EFA8000080FBEB
:03000300020046B2
:040046005388FD32AC
:03000B0002DE4EC4
:10DE4E00C0E0C083C082C0D0758A65758C669006AE
:10DE5E004EE04401F090050DE0600E90050FE004D9
:10DE6E00F0700690050EE004F0900512E0B4011B70
:10DE7E00D3900511E09400900510E09400400CA39F
:10DE8E00E024FFF0900510E034FFF0900665E0040A
:0ADE9E00F0D0D0D082D083D0E03263
:0300130002004E9A
:04004E005388F732AA
:03001B0002F043AD
:04F0430053887F323D
:03002B0002F04799
:04F0470053C87F32F9
:03003B0002EF03CE
:10EF0300C0E0E5C030E00553C0FE8008E5C030E155
:07EF13000353C0FDD0E03202
:03004300029167C0
:0D916700C0E0C0F0C083C082C0D075D01041
:10917400902840E0FF902843E05F900237F0E02021
:10918400E20302920A902840E054FBF0902836E073
:1091940054FDF0900238E0D394004057A3E0FC243F
:1091A4003CF582E43402F583E0900236F090033912
:1091B400E0B40716900236E0FE547FFD30D006EE90
:1091C4004480F08005900236EDF0900236E090285D
:1091D40037F090050EE4F0A3F0743C2CF582E434EF
:1091E40002F583E4F0900239E004F0900238E014D0
:1091F400F08013900239E4F09003367404F012E422
:1092040010E4FF12C338900237E0FF30E350902897
:1092140040E054F7F0902836E054FEF0A3E09002CA
:1092240036F0E0547FFE900239E0243CF582E434C9
:1092340002F583EEF090050EE4F0A3F0900239E01D
:1092440004F0E0FED3940440020000EE75F0FA84CA
:10925400AEF0900239EEF0D3941540020000EF30E6
:10926400E407902840E054EFF0900237E030E5073F
:10927400902840E054DFF0900237E0FF30E607909A
:109284002840E054BFF0EF30E70D902840E0547FD1
:0A929400F09004C6E004F05391EFDF
:0B929E00D0D0D082D083D0F0D0E032DE
:03004B0002DB488D
:0BDB4800C0E0C083C082C0D075D010C8
:10DB5300902848E0FF90284BE05FFD30E4079028D1
:10DB630048E054EFF0AF15ED30E507902848E05456
:10DB7300DFF0AF15ED30E614902848E054BFF09085
:10DB8300064EE04402F09005567401F0AF15ED30F7
:10DB9300E70D902848E0547FF09004C5E004F0536B
:02DBA30091DF10
:09DBA500D0D0D082D083D0E03250
:0300530002EA9C22
:0BEA9C00C0E0C083C082C0D075D01065
:10EAA700902850E0FF902853E05FFF30E30790285D
:08EAB70050E054F7F05391BF49
:09EABF00D0D0D082D083D0E03227
:1092A90041066A00410668004106670041066601F9
:0C92B90041066B004106690041066C0094
:10C969007B017A00790312DCD97B017A0079031201
:10C97900A855EF70647B017A0079039001D8F0A380
:10C989007407F0A37402F07DCF7C0012CBCF7B013A
:10C999007A00790312A855EF70369000037403F0FA
:10C9A900A37416F0A37404F0A37420F0A37412F016
:10C9B900A37430F0A3F07B017A00790390017EE43F
:10C9C900F0A37407F0A37402F07FCF7E0012989D44
:10C9D9007B017A00790312D9A69001E17401F0A3D1
:10C9E9007400F0A37403F0A3E4F0A37407F07B01CF
:07C9F9007A06797702DD38B0
:03F04B0002C9698E
:10DA780012EE54EF64014E700F900668E070099042
:10DA8800066A04F0900668F012EE54EF4E700490A7
:10DA98000668F012EED3EF64014E700D900666E052
:10DAA8007007A304F0900666F012EED3EF4E7004F0
:10DAB800900666F012EE6EEF64014E700F900669E4
:10DAC800E0700990066B04F0900669F012EE6EEFB4
:08DAD8004E7004900669F02273
:10EC5F00E4900000F0900000E0FFC3940150131205
:10EC6F00AFA4900000E0FF12A074900000E004F049
:05EC7F0080E302DA78D9
:1096430012C96975CEA575CF5A0075CEA575CF5AC7
:1096530000900742E0D394004006E014F012EB734D
:10966300900742E0703F128BEA75CEA575CF5A0082
:1096730075CEA575CF5A0012629C75CEA575CF5ACB
:109683000075CEA575CF5A0012E55812D4E075CEF9
:10969300A575CF5A0075CEA575CF5A0012BE7C12A0
:1096A300F05F12E94090066CE0700812B30E12B43A
:1096B300B8800690066CE014F012A47D90067DE05D
:1096C300707A1269B975CEA575CF5A0075CEA57596
:1096D300CF5A0012676375CEA575CF5A0075CEA514
:1096E30075CF5A00126BF012DEFF7B017A0079000E
:1096F3009001D8E4F0A304F0A304F07D717C001280
:10970300CBCF900000E0B4301175CEA575CF5A00D1
:1097130075CEA575CF5A0012CA9775CEA575CF5AC7
:109723000075CEA575CF5A0012CC5875CEA575CF4E
:109733005A0075CEA575CF5A0012DDF290067DE072
:10974300B4251112F05D75CEA575CF5A0075CEA55F
:1097530075CF5A0090067DE0B4311112EE8875CEB4
:0C976300A575CF5A0075CEA575CF5A0031
:01976F0022D7
:01005200228B
:0AF00B00E4900676F0900675F022FE
:0BBD1800E0FCA3E0A3FDE0900232F08D
:10BD230090022DEBF0A3EAF0A3E9F0A3ECF0A3ED6E
:01BD3300F01F
:10BD3400E4900235F090023374A0F0A304F012E60C
:10BD4400C8900235E004F0E0D3940A40037F002257
:10BD540012E909900233E0FF12C797BF01E0900295
:10BD640030E0FF12C797EF640160037F0022900266
:10BD740030A3E0FF12C797EF640160037F00221233
:10BD8400E909900234E0FF12C797EF640160037F72
:10BD94000022900232E0FF14F0EF6026E07003FF0F
:10BDA40080027F0112CD7D90022DE0FBA3E0FAA377
:10BDB400E0F9EF1218BA90022EE475F00112198B13
:07BDC40080D012E6C87F01E8
:01BDCB002255
:10C1E2009001E2EEF0A3EFF0A3EBF0A3EAF0A3E9F3
:01C1F200F05C
:10C1F300E49001EAF09001E874A0F0A304F00012C7
:10C20300E6C89001EAE004F0E0D3940A40037F001B
:10C213002212E9099001E8E0FF12C797BF01E090FD
:10C2230001E2E0FF12C797EF640160037F002290F1
:10C2330001E2A3E0FF12C797EF640160037F0022CE
:10C243009001E4E0FBA3E0FAA3E0F9121852FF1215
:10C25300C797EF64016004007F00229001E5E47555
:10C26300F00112198B9001E3E004F070069001E2F3
:10C27300E004F09001E7E014F0E070C412E6C87F38
:09C28300057E0012EEA2007F010D
:01C28C00228F
:10D032009001E6EBF0A3EAF0A3E9F0A3ECF0A3ED94
:01D04200F0FD
:10D04300A3E0FFD394004006EFD3944040037F0056
:10D0530022E490022CF07B017A0179EC9001E91231
:10D06300BD189001E6E0FBA3E0FAA3E0F9A312BD2B
:10D07300189002307401F0A37401F0A374ECF090E3
:10D0830001EBE0900233F09001E6E0FBA3E0FAA3AA
:10D09300E0F912D127EF70037F012290022CE00404
:09D0A300F0E0C3940340AF7F00EC
:01D0AC002261
:10CE0B0090019BEEF0A3EFF0A3EBF0A3EAF0A3E904
:01CE1B00F026
:10CE1C00A3E0FFD394004006EFD39440400312EFFD
:10CE2C0098E49001E1F090019BE0FEA3E0FFA3E009
:10CE3C00FBA3E0FAA3E0F9A3E09001E7F012C1E252
:10CE4C007B017A0179A190019BE0FCA3E09001A009
:10CE5C0012BD1D9002307401F0A37401F0A374A1F3
:10CE6C00F09001A0E0900233F090019DE0FBA3E074
:10CE7C00FAA3E0F912D127EF70037F01229001E1B0
:0BCE8C00E004F0E0C39403409D7F0031
:01CE97002278
:10C3E0009001DEEBF0A3EAF0A3E9F0A3ECF0A3EDFB
:01C3F000F05C
:10C3F1009001E3E0FEA3E0FFD39400EE9400407CC3
:10C401009001E1A3E0543FFD600974409D9001E576
:10C41100F080069001E57440F09001E5E0FDC3EF86
:10C421009DEE940050079001E3A3E0A3F09001DE9C
:10C43100E0FBA3E0FAA3E0F9A3E0FCA3E0FD900197
:10C44100E5E09001EBF012D032EF7002FF22900193
:10C45100E5E0FFFD7C009001DFEC8DF012198B907F
:10C4610001E2E02DF09001E1E03CF0C39001E4E055
:0EC471009FF09001E3E09400F002C3F17F0120
:01C47F00229A
:10C6FA00900193EEF0A3EFF0A3EBF0A3EAF0A3E925
:01C70A00F03E
:10C70B00900198E0FCA3E0FDD39400EC94004079F9
:10C71B00900193E0FEA3E0FF543FFB600974409B44
:10C72B0090019AF0800690019A7440F090019AE083
:10C73B00FBC3ED9BEC94005007900198A3E0A3F092
:10C74B00900195E0FBA3E0FAA3E0F990019AE09049
:10C75B0001A0F012CE0BEF7002FF2290019AE0FFC6
:10C76B00FD7C00900194E02DF0900193E03CF09063
:10C77B000196EC8DF012198BC3900199E09FF0900C
:0BC78B000198E09400F002C70B7F0152
:01C796002280
:10ED75009028ACE04402F0A3E04402F0A3E0440490
:0EED8500F09028ACE054FBF0A3E054FBF02229
:10E909009028ACE04402F0A3E04402F0A3E0440400
:10E91900F0000000000000E054FDF09028ADE05444
:10E92900FDF09028ACE054FDF000000000000090DC
:07E9390028AEE054FBF022C0
:10E6C8009028AEE054FDF09028ADE054FDF090287D
:10E6D800ACE054FDF00000000000009028AEE044DB
:10E6E80004F00000000000009028ACE04402F0A311
:0BE6F800E04402F000000000000022DF
:10C79700E4F508F5089028AEE054FBF0EF30E70E1B
:10C7A7009028ACE04402F0A3E04402F08015902802
:10C7B700AEE054FDF09028ADE054FDF09028ACE0D9
:10C7C70054FDF0EF25E0FF9028AEE04404F00000B0
:10C7D700000000000508E508B408BA9028AEE05448
:10C7E700FBF09028ACE04402F0A3E04402F07508A7
:10C7F70020E4F5089028AFE020E1149028AEE0444B
:10C8070004F0000000000000E054FBF07F01220567
:10C8170008E508B420DE9028AEE04404F0000000EC
:0CC82700000000E054FBF012E6C87F00A7
:01C8330022E2
:10CD7D00E4F508F5099028ACE04402F0A3E0440284
:10CD8D00F0A3E054FBF0E4F508E50925E0F5099082
:10CD9D0028AEE04404F0000000000000A3E030E104
:10CDAD00034309019028AEE054FBF00000000000A1
:10CDBD00000508E508B408D1EF60179028AEE054DF
:10CDCD00FDF09028ADE054FDF09028ACE054FDF05E
:10CDDD00800C9028ACE04402F0A3E04402F09028CF
:10CDED00AEE04404F0000000000000E054FBF090C1
:0DCDFD0028ACE04402F0A3E04402F0AF09CE
:01CE0A002205
:01F05C002291
:10EF7000E5E820E10343E80290284BE020E704E0C5
:04EF80004480F022B7
:10EBC3007F7D7E2812901CEF54C7FF9000CC7428E1
:10EBD300F0A3747DF012C65C902843E0547FF0905C
:06EBE30028AEE04408F03A
:01EBE9002209
:06C5BE00900728121BA7E4
:10C5C400E4FF90288474CCF0E4F0902885E0600ABD
:10C5D4000FEFD3940840F37F0022900728A3A3A36E
:10C5E400E0FF902880EFF0900728E0FCA3E0FDA393
:10C5F400E0FEA3E0FF7808121B35902881EFF0904D
:10C604000728E0FCA3E0FDA3E0FEA3E0FF781012FE
:10C614001B35902882EFF0900728E0FCA3E0FDA3EF
:10C62400E0FEA3E0FF7818121B35902883EFF0900A
:10C63400072CE0FEA3E0F5828E83E4F0FF000FEF09
:10C64400B408FAE4FF902885E0600A0FEFD3940859
:07C6540040F37F00227F018B
:01C65B0022BC
:06BF2B0090071A121BA78B
:10BF3100E4FB90288474CCF0E4F0902885E0600A5A
:10BF41000BEBD3940840F37F002290071AA3A3A31D
:10BF5100E0FF902880EFF090071AE0FCA3E0FDA33A
:10BF6100E0FEA3E0FF7808121B35902881EFF090E6
:10BF7100071AE0FCA3E0FDA3E0FEA3E0FF781012A6
:10BF81001B35902882EFF090071AE0FCA3E0FDA397
:10BF9100E0FEA3E0FF7818121B35902883EFF0D262
:10BFA1008720870C900720E004F0E0D3941E40F135
:10BFB10090071EE0FEA3E0F5828E83E4F0FB000B08
:10BFC100EBB408FAE4FB902885E0600A0BEBD3940C
:08BFD1000840F37F00227F010C
:01BFD9002245
:06C65C009000C8121BA7AC
:10C66200E4FF90288474CCF0E4F0902885E0600A1E
:10C672000FEFD3940840F37F00229000C8A3A3A336
:10C68200E0FF902880EFF09000C8E0FCA3E0FDA35B
:10C69200E0FEA3E0FF7808121B35902881EFF090AE
:10C6A20000C8E0FCA3E0FDA3E0FEA3E0FF781012C7
:10C6B2001B35902882EFF09000C8E0FCA3E0FDA3B8
:10C6C200E0FEA3E0FF7818121B35902883EFF0906C
:10C6D20000CCE0FEA3E0F5828E83E4F0FF000FEFD2
:10C6E200B408FAE4FF902885E0600A0FEFD39408BB
:07C6F20040F37F00227F01ED
:01C6F900221E
:10901C0090288474CCF0E4F0F508902885E0600B7F
:10902C000508E508D3940840F180248F828E83E0F4
:10903C00F508E4F508000508E508B408F8E4F508B7
:10904C00902885E0600F0508E508D3940840F1E40A
:10905C00FFFEFDFC22902880E0FFE4FCFDFE90006A
:10906C00C8121BA7902881E0FFE4FCFDFE780812D3
:10907C001B489000CC121BA79000C8E0FCA3E0FD9D
:10908C00A3E0FEA3E0FFA3E0F8A3E0F9A3E0FAA3BA
:10909C00E0FBEF2BFFEE3AFEED39FDEC38FC9000D7
:1090AC00C8121BA7902882E0FFE4FCFDFE9000CCC8
:1090BC00121BA79000CCE0FCA3E0FDA3E0FEA3E014
:1090CC00FF7810121B489000CC121BA79000C8E030
:1090DC00FCA3E0FDA3E0FEA3E0FFA3E0F8A3E0F90E
:1090EC00A3E0FAA3E0FBEF2BFFEE3AFEED39FDEC2B
:1090FC0038FC9000C8121BA7902883E0FFE4FCFD0D
:10910C00FE9000CC121BA79000CCE0FCA3E0FDA3CA
:10911C00E0FEA3E0FF7818121B489000CC121BA7AE
:10912C009000C8E0FCA3E0FDA3E0FEA3E0FFA3E0F9
:10913C00F8A3E0F9A3E0FAA3E0FBEF2BFFEE3AFE75
:10914C00ED39FDEC38FC9000C8121BA79000C8E06C
:0A915C00FCA3E0FDA3E0FEA3E0FF8A
:0191660022E6
:10BAF3000000000000000000000000000000000043
:10BB03000000000000000000000000000000000032
:10BB1300000000003D99E1FB3DE6D2F937341C9F5C
:10BB2300392B0436392B043600000000096000006D
:10BB330027100461A83000927C000063B3ED3B70D2
:10BB4300B76B3B70B76B01051C10E801052C10E9BE
:10BB5300010520287B010530287C01052410ED0117
:10BB6300053410EE01052810EB01053810EC010532
:10BB73003C10EA00927C0010F500927C0010FB1D43
:10BB83000004C301853000000001860000000001AD
:10BB930087811D2BA7012500000000018300000001
:09BBA30000013200000000012C39
:0E92C5004405140000000044051800000000DD
:10E828007B017A05791C9001D874A5F0A3745AF07D
:10E838007D387C0012EA3E900554EEF0A3EFF07BA1
:10E84800017A05791C90017EE4F0A37438F0A37472
:09E8580002F07FD87E0002989DB9
:10E597007B017A05791C9001D874A5F0A3745AF011
:10E5A7007D387C0012EA3E900554E06E7003A3E0CC
:10E5B7006F601A7B017A05791C9001D8E4F0A37487
:0DE5C7003AF0A37402F07DD87C0012CBCF97
:01E5D4002224
:1069B9009000C3121BB30000000012E5977B017A17
:1069C9000079C79001D8E4F0A304F0A304F07DB9DD
:1069D9007C0012CBCF9000C7E09000CCB43C267469
:1069E90010F0A374F4F07F6B7E2A7D707C0012C6D0
:1069F9005C9000CC7410F0A374FAF07F6B7E2A7D52
:106A0900707C0080247410F0A374F4F07F307EA8A9
:106A19007D617C0412C65C9000CC7410F0A374FAFA
:106A2900F07F307EA87D617C0412C65CE49000B7DB
:106A3900F09000B7E0FF75F006A4247AF582E434FB
:106A4900BBF583E493FD7401939000C1CDF0A3EDF0
:106A5900F0EF75F006A42476F582E434BBF58312D1
:106A69001B879000BD121BA79000B3121BB3000037
:106A790000009000C1E0FEA3E0FF12901C9000B35B
:106A8900121BA79000BDE0FCA3E0FDA3E0FEA3E07C
:106A9900FF9000B3E0F8A3E0F9A3E0FAA3E0FBC399
:106AA900121B2460349000BDE0FCA3E0FDA3E0FECE
:106AB900A3E0FF9000B3121BA79000B3E0FCA3E092
:106AC900FDA3E0FEA3E0FF9000C1E0FBA3E090007E
:106AD900CCCBF0A3EBF012C65C9000B7E004F0E079
:106AE900C394025003026A3AE49000B7F09000B7E9
:106AF900E0FF75F005A4244CF582E434BBF583E48A
:106B090093FD7401939000BBCDF0A3EDF0EF75F008
:106B190005A42449F582E434BBF583E493F97401AF
:106B290093FA7402939000B8C9F0A3EAF0A3E9F0CC
:106B39009000B3121BB3000000009000BBE0FEA35D
:106B4900E0FF12901C9000B3121BA79000BBE0FE5F
:106B5900A3E0FF647B7003EE6428600AEF647C7035
:106B690003EE6428701B9000B8E0FBA3E0FAA3E0F1
:106B7900F9121B5B9000B6E06F605CE4FCFDFE80DF
:106B8900309000B8E0FBA3E0FAA3E0F9121B5B9098
:106B990000B3E0F8A3E0F9A3E0FAA3E0FBC3121BFA
:106BA9002460349000B8E0FBA3E0FAA3E0F9121BDB
:106BB9005B9000B3121BA79000B3E0FCA3E0FDA318
:106BC900E0FEA3E0FF9000BBE0FBA3E09000CCCB8C
:106BD900F0A3EBF012C65C9000B7E004F0E0C394B8
:066BE900095003026AF6E8
:016BEF002283
:08891800900693EFF0A3EDF0CF
:1089200075CEA575CF5A0075CEA575CF5A009006A5
:108930009E121BB300000000E4900556F0900699CB
:10894000F0900693E0FF900699E0C39F4003028AEF
:108950005775CEA575CF5A0075CEA575CF5A009024
:108960000556E060FAE4900556F075CEA575CF5A2D
:108970000075CEA575CF5A00900694E070097FD29D
:108980007E1012901C803AE4FB7D017F0B7E011269
:108990000000BF013478A27C067D017B017A00795A
:1089A000007E007F0412182C7B017A0679A27D04D8
:1089B00012C0899006A2E0FCA3E0FDA3E0FEA3E0C4
:1089C000FF900695121BA7800790064FE04410F019
:1089D000E4FFFEFD7C80900695E0F8A3E0F9A3E0BB
:1089E000FAA3E0FBC3121B244024900695E0FCA3ED
:1089F000E0FDA3E0FEA3E0FF121AF3EF2401FFE481
:108A00003EFEE43DFDE43CFC900695121BA790065B
:108A100095E0FCA3E0FDA3E0FEA3E0FF90069A1220
:108A20001BA790069EE0FCA3E0FDA3E0FEA3E0FFF1
:108A300090069AE0F8A3E0F9A3E0FAA3E0FBEF2B9D
:108A4000FFEE3AFEED39FDEC38FCA3121BA79006B1
:108A500099E004F0028941900693E0FBE4FAF9F80A
:108A600090069EE0FCA3E0FDA3E0FEA3E0FF121A47
:108A70006175CEA575CF5A0075CEA575CF5A000089
:018A800022D3
:088A81009006A6EFF0A3EDF052
:108A890075CEA575CF5A0075CEA575CF5A0090063B
:108A9900B1121BB300000000E4900556F09006AC3B
:108AA900F09006A6E0FF9006ACE0C39F4003028B5E
:108AB900C075CEA575CF5A0075CEA575CF5A009051
:108AC9000556E060FAE4900556F075CEA575CF5AC3
:108AD9000075CEA575CF5A009006A7E070097FD41E
:108AE9007E1012901C803AE4FB7D017F0E7E0112FC
:108AF9000000BF013478B57C067D017B017A0079DD
:108B0900007E007F0412182C7B017A0679B57D045A
:108B190012C0899006B5E0FCA3E0FDA3E0FEA3E046
:108B2900FF9006A8121BA7800790064FE04410F09B
:108B3900E4FFFEFD7C809006A8E0F8A3E0F9A3E03D
:108B4900FAA3E0FBC3121B2440249006A8E0FCA36F
:108B5900E0FDA3E0FEA3E0FF121AF3EF2401FFE416
:108B69003EFEE43DFDE43CFC9006A8121BA79006DE
:108B7900A8E0FCA3E0FDA3E0FEA3E0FF9006AD1290
:108B89001BA79006B1E0FCA3E0FDA3E0FEA3E0FF74
:108B99009006ADE0F8A3E0F9A3E0FAA3E0FBEF2B20
:108BA900FFEE3AFEED39FDEC38FCA3121BA7900647
:108BB900ACE004F0028AAA9006A6E0FBE4FAF9F810
:108BC9009006B1E0FCA3E0FDA3E0FEA3E0FF121ACA
:108BD9006175CEA575CF5A0075CEA575CF5A00001F
:018BE9002269
:10A671009000B3E0FCA3E0FDA3E0FEA3E0FF9000A7
:10A68100CB121BA79000BBE0FCA3E0FDA3E0FEA35F
:02A69100E0FFE8
:10A69300E412161C9000CF121BA79000CBE0FCA382
:10A6A300E0FDA3E0FEA3E0FFE412161C9000D3122A
:10A6B3001BA79000CBE0FCA3E0FDA3E0FEA3E0FF1B
:10A6C300E412161CA804A905AA06AB079000CFE064
:10A6D300FCA3E0FDA3E0FEA3E0FF1213149000D35C
:10A6E300E0F8A3E0F9A3E0FAA3E0FB12151290004F
:10A6F300D7121BA7E4FFFE7D807C3F9000D7E0F8D4
:10A70300A3E0F9A3E0FAA3E0FB121318A804A90538
:10A71300AA06AB07E4FFFE7D807C3F121512900072
:10A72300DB121BA7E4FFFE7D807CBF9000DBE0F81B
:10A73300A3E0F9A3E0FAA3E0FB1213189000DF12E1
:10A743001BA7E4FFFEFD7C4F9000DFE0F8A3E0F9D8
:0FA75300A3E0FAA3E0FB12140912AA3512165A5A
:01A7620022D4
:06A17B009000C8121BA7B2
:10A18100E49000D2F07F32FEFDFC9000CCE0F8A319
:10A19100E0F9A3E0FAA3E0FBC3121B2450037F0004
:10A1A100229000C8E0FCA3E0FDA3E0FEA3E0FFA332
:10A1B100E0F8A3E0F9A3E0FAA3E0FBD3121B2440EB
:10A1C1004D9000C8E0F8A3E0F9A3E0FAA3E0FBA3F7
:10A1D100E0FCA3E0FDA3E0FEA3E09BFFEE9AFEED11
:10A1E10099FDEC98FCE47BE87A03F9F81219D69012
:10A1F10000CCE0F8A3E0F9A3E0FAA3E0FB121A61B6
:10A201009000D0EEF0A3EFF0A37401F0804A90002B
:10A21100CCE0F8A3E0F9A3E0FAA3E0FB9000C8E0EA
:10A22100FCA3E0FDA3E0FEA3E0C39BFFEE9AFEEDDD
:10A2310099FDEC98FCE47BE87A03F9F81219D690C1
:10A2410000CCE0F8A3E0F9A3E0FAA3E0FB121A6165
:10A251009000D0EEF0A3EFF09000D0E0FEA3E0FF7D
:10A261007C0B7DC3121CC6E47BD07A07F9F8121A65
:0CA27100619000D2E0B40104EF4480FFD3
:01A27D0022BE
:069E53009006FF121BA7A0
:109E590075CEA575CF5A0075CEA575CF5A00900756
:109E690003E07040A3121BB300000000900704E058
:109E7900FCA3E0FDA3E0FEA3E0FF9000CC7410F08A
:109E8900A374E9F012C65C900704E0FCA3E0FDA30B
:109E9900E0FEA3E0FF9000CC7410F0A374EEF01282
:109EA900C65C8046900704121BB3000000009007AF
:109EB90004E0FCA3E0FDA3E0FEA3E0FF9000007432
:109EC90001F0A3742EF0E4A3F0120000900704E05F
:109ED900FCA3E0FDA3E0FEA3E0FF9000007401F005
:109EE900A3742FF0E4A3F0120000900703E0FD7FB4
:109EF90002128918C004C005C006C0079006FFE019
:109F0900FCA3E0FDA3E0FEA3E0FF9000CB121BA79A
:109F1900D007D006D005D00412A693900704121BCF
:109F2900A775CEA575CF5A0075CEA575CF5A0090E5
:109F39000703E07011A3E0FCA3E0FDA3E0FEA3E0AA
:109F4900FF90052C8011900704E0FCA3E0FDA3E03D
:0A9F5900FEA3E0FF90051C121BA7F9
:019F630022DB
:06B3E400900708121BA7F0
:10B3EA00C20575CEA575CF5A0075CEA575CF5A0080
:10B3FA0090070D121BB30000000090070CE0701BB1
:10B40A00A3E0FCA3E0FDA3E0FEA3E0FF9000CC7460
:10B41A0010F0A374EEF012C65C801E90070DE0FCDB
:10B42A00A3E0FDA3E0FEA3E0FF9000007401F0A3F7
:10B43A00742FF0E4A3F012000090070CE0FD7F03E4
:10B44A00128918C004C005C006C007900708E0FCAE
:10B45A00A3E0FDA3E0FEA3E0FF9000CC121BA7D05F
:10B46A0007D006D005D00412A17BE4FCFDFE9007AC
:10B47A000D121BA775CEA575CF5A0075CEA575CF2F
:10B48A005A0090070CE07011A3E0FCA3E0FDA3E0D2
:10B49A00FEA3E0FF900534801190070DE0FCA3E0C5
:0DB4AA00FDA3E0FEA3E0FF900524121BA708
:01B4B7002272
:06759700900711121BA772
:10759D0075CEA575CF5A0075CEA575CF5A0090073B
:1075AD0016121BB300000000900715E0701BA3E03E
:1075BD00FCA3E0FDA3E0FEA3E0FF9000CC7428F057
:1075CD00A3747CF012C65C80169000007401F0A3C9
:1075DD007484F0E4A3F07FA9FE7D0BFC120000750E
:1075ED00CEA575CF5A0075CEA575CF5A00E490057E
:1075FD0056F0900556E060FAE4900556F0900715A8
:10760D00E0FD7F02128918C004C005C006C00790B6
:10761D000711E0FCA3E0FDA3E0FEA3E0FF9000CC8A
:10762D00121BA7D007D006D005D00412A17BE4FC15
:10763D00FDFE900716121BA775CEA575CF5A0075C6
:10764D00CEA575CF5A00900715E0700FA3E0FCA3EF
:10765D00E0FDA3E0FEA3E0FF027765900716A3A36C
:10766D00A3E05480FFEF9007166066E0FCA3E0FDF9
:10767D00A3E0FEA3E0547FFFEC900716121BA7902A
:10768D000716E0FCA3E0FDA3E0FEA3E0FFE4121665
:10769D001C7BCD7ACC798C783F12140912165A9036
:1076AD000716121BA7900716E0FCA3E0FDA3E0FE52
:1076BD00A3E0FF7808121B48900716121BA790072E
:1076CD0016E0FCA3E0FDA3E0FEA3E0FFED44048083
:1076DD004DE0FCA3E0FDA3E0FEA3E0FFE412161CC9
:1076ED007BCD7ACC798C783F12140912165A9007FB
:1076FD0016121BA7900716E0FCA3E0FDA3E0FEA366
:10770D00E0FF7808121B48900716121BA79007166A
:10771D00E0FCA3E0FDA3E0FEA3E0FFED54FBFDECD8
:10772D00900716121BA7900530121BB3000B00A972
:10773D00900530E0FCA3E0FDA3E0FEA3E0FF900781
:10774D0016E0F8A3E0F9A3E0FAA3E0FBEF4BFFEEA0
:0E775D004AFEED49FDEC48FC900530121BA7DA
:01776B0022FB
:107FCC00900009EEF0A3EFF0E024E8FF900009E048
:107FDC003403AB07FA3395E0F9F8E4FFFEFD7C803F
:107FEC00121A6190000F121BA790000AE024E8FF00
:107FFC00900009E03403AB07FA3395E0F9F8E4FF9D
:10800C00FEFD7C80121A61AF0390000BEAF0A3EF27
:10801C00F090000BE0FEA3E0FF7C037DE81218EE6D
:10802C00900009E0FAA3E0FB24E8FDEA3403FC121B
:10803C001900A3EEF0A3EFF0AF03AE02EE3395E020
:10804C00FDFC90000FE0F8A3E0F9A3E0FAA3E0FB3D
:10805C001219D6C004A905AA06AB0790000BE0FCC8
:10806C00A3E0FD900009E0FEA3E0FF1218EE7C03F4
:10807C007DE8121900E4FCFDD000EB2FFFEA3EFE78
:10808C00ED39FDEC38FC900013121BA790000AE0B0
:10809C0024E8FF900009E03403AB07FA3395E0F9CC
:1080AC00F8900005E0FCA3E0FDA3E0FEA3E0FF12C6
:1080BC00E3CC900017121BA790000AE024E8FF9075
:1080CC000009E03403AB07FA3395E0F9F8900005AA
:1080DC00E0FCA3E0FDA3E0FEA3E0FF12E3CCAE02C4
:1080EC00AF0390000DEEF0A3EFF07C037DE81218C7
:1080FC00EE90000AE024E8FD900009E03403FC1245
:10810C00190090000DEEF0A3EFF0E47FE87E03FD84
:10811C00FC900017E0F8A3E0F9A3E0FAA3E0FB124F
:10812C0019D6A804A905AA06AB0790000DE0FEA37A
:10813C00E0FFE4FCFDEB2FFFEA3EFEED39FDEC38F1
:10814C00FC900013E0F8A3E0F9A3E0FAA3E0FBC372
:0C815C00EF9BFFEE9AFEED99FDEC98FC05
:0181680022F4
:10A47D007FFD7E1012901CA804A905AA06AB07E467
:10A48D00FFFE7D7DFC121A61900001EEF0A3EFF04E
:10A49D00E4FCFD900514E0F8A3E0F9A3E0FAA3E0D5
:10A4AD00FBC3121B24700302A579900001E0FAA3EF
:10A4BD00E0FBFFAE02E4FCFD900514121BA7D3EBED
:10A4CD0094F4EA9401400F900002E0240CFF9000F8
:10A4DD0001E034FE801F900001E0FEA3E0FFC39475
:10A4ED00F4EE94015057C374F49FFF74019EFEC3A4
:10A4FD00E49FFFE49EFEEF25E0FFEE33FEC006C0B5
:10A50D000790051CE0FCA3E0FDA3E0FEA3E0FF9097
:10A51D000005121BA7D007D006127FCC90052C1278
:10A52D001BA790052CE0FCA3E0FDA3E0FEA3E0FF3C
:10A53D009000CC7410F0A374E9F002C65C90051C79
:10A54D00E0FCA3E0FDA3E0FEA3E0FF9000CC7410BF
:10A55D00F0A374E9F012C65C90051CE0FCA3E0FDCD
:0CA56D00A3E0FEA3E0FF90052C121BA74A
:01A5790022BF
:102E490090059F121BB30000000020AF0302362833
:102E59009005577455F090BB3D121B879005A3123E
:102E69001BA7E47F19FEFDFC9005A3E0F8A3E0F998
:102E7900A3E0FAA3E0FB1219D6E47B0AFAF9F812E7
:102E89001A619005A9121BA7E47F46FEFDFC900577
:102E9900A3E0F8A3E0F9A3E0FAA3E0FB1219D6E452
:102EA9007B64FAF9F8121A619005AD121BA7E47F49
:102EB90023FEFDFC9005A3E0F8A3E0F9A3E0FAA343
:102EC900E0FB1219D6E47B64FAF9F8121A6190054D
:102ED900B1121BA7E47F03FEFDFC9005A3E0F8A354
:102EE900E0F9A3E0FAA3E0FB1219D6E47B64FAF94E
:102EF900F8121A619005B5121BA775CEA575CF5AA0
:102F09000075CEA575CF5A00E4FD7F04128918908B
:102F190005B9121BA79005A9E0FCA3E0FDA3E0FEFB
:102F2900A3E0FF9005B9E0F8A3E0F9A3E0FAA3E074
:102F3900FBD3121B244008E49005A7F0022FC79089
:102F490005ADE0FCA3E0FDA3E0FEA3E0FF9005B919
:102F5900E0F8A3E0F9A3E0FAA3E0FBD3121B2440B5
:102F6900089005A77401F080559005B1E0FCA3E035
:102F7900FDA3E0FEA3E0FF9005B9E0F8A3E0F9A303
:102F8900E0FAA3E0FBD3121B2440089005A77402C2
:102F9900F0802B9005B5E0FCA3E0FDA3E0FEA3E0E3
:102FA900FFA3E0F8A3E0F9A3E0FAA3E0FBD3121B27
:102FB900249005A740057403F080037408F0900578
:102FC900A7E0701990052C121BB3000000009005B2
:102FD90030121BB3000000007FA01203AE9005A7BA
:102FE900E0640160030232129005A3E0FCA3E0FD56
:102FF900A3E0FEA3E0FFE4900703F0129E539005BF
:103009009B121BB300000000E4900596F07F1E7E22
:103019000012EEA27FD57E1012901C900597121B0C
:10302900A7E4FFFEFD7C80900597E0F8A3E0F9A3F3
:10303900E0FAA3E0FBC3121B244024900597E0FCAF
:10304900A3E0FDA3E0FEA3E0FF121AF3EF2401FFC2
:10305900E43EFEE43DFDE43CFC900597121BA7907D
:10306900059BE0FCA3E0FDA3E0FEA3E0FF9005972C
:10307900E0F8A3E0F9A3E0FAA3E0FBEF2BFFEE3AB7
:10308900FEED39FDEC38FCA3121BA775CEA575CF53
:103099005A0075CEA575CF5A00900596E004F0E068
:1030A900C39408500302301690059BE0FCA3E0FD91
:1030B900A3E0FEA3E0FFE47B08FAF9F8121A619095
:1030C900059B121BA790059BE0FCA3E0FDA3E0FE76
:1030D900A3E0FFE412161CC004C005C006C0079097
:1030E900BB31121B87E412161CD003D002D001D0C9
:1030F90000121512900550121BA790059B121BB3C5
:1031090000000000E4900596F07F1E7E0012EEA2FA
:103119007FD37E1012901C900597121BA7E4FFFE27
:10312900FD7C80900597E0F8A3E0F9A3E0FAA3E01D
:10313900FBC3121B244024900597E0FCA3E0FDA3E8
:10314900E0FEA3E0FF121AF3EF2401FFE43EFEE4E0
:103159003DFDE43CFC900597121BA790059BE0FC04
:10316900A3E0FDA3E0FEA3E0FF900597E0F8A3E04C
:10317900F9A3E0FAA3E0FBEF2BFFEE3AFEED39FDF0
:10318900EC38FCA3121BA775CEA575CF5A0075CED6
:10319900A575CF5A00900596E004F0E0C394085055
:1031A9000302311290059BE0FCA3E0FDA3E0FEA31E
:1031B900E0FFE47B08FAF9F8121A6190059B121BEB
:1031C900A790059BE0FCA3E0FDA3E0FEA3E0FFE4DC
:1031D90012161CC004C005C006C00790BB2D121BE7
:1031E90087E412161CD003D002D001D000121512A8
:1031F900900548121BA77FA11203AE75CEA575CF06
:103209005A0075CEA575CF5A009005A7E0B40238CB
:103219009005A3E0FCA3E0FDA3E0FEA3E0FFE47BAF
:1032290002FAF9F8121A619005A3121BA79005A3D7
:10323900E0FCA3E0FDA3E0FEA3E0FFE4900715F0A6
:103249001275977FA21203AE9005A7E0B4033890D8
:1032590005A3E0FCA3E0FDA3E0FEA3E0FFE47B14EB
:10326900FAF9F8121A619005A3121BA79005A3E0B9
:10327900FCA3E0FDA3E0FEA3E0FFE490070CF0123D
:10328900B3E47FA31203AE9005A8E0B40419900536
:103299002C121BB300000000900530121BB3000B69
:1032A90000A97FA41203AE9005A8E064056003029B
:1032B900353290070304F07FED7EB37D637C001205
:1032C9009E5390059B121BB300000000E4900596E5
:1032D900F0E4FB7D017F0E7E01120000BF0134780E
:1032E900C17C057D017B017A0079007E007F041293
:1032F900182C7B017A0579C17D0412C0899005C11A
:10330900E0FCA3E0FDA3E0FEA3E0FF900597121BFC
:10331900A7800790064FE04410F0E4FFFEFD7C8093
:10332900900597E0F8A3E0F9A3E0FAA3E0FBC31244
:103339001B244024900597E0FCA3E0FDA3E0FEA335
:10334900E0FF121AF3EF2401FFE43EFEE43DFDE441
:103359003CFC900597121BA790059BE0FCA3E0FDA0
:10336900A3E0FEA3E0FF900597E0F8A3E0F9A3E04E
:10337900FAA3E0FBEF2BFFEE3AFEED39FDEC38FC4A
:10338900A3121BA775CEA575CF5A0075CEA575CF0B
:103399005A00900596E004F0E0C394085003023205
:1033A900DA90059BE0FCA3E0FDA3E0FEA3E0FFE4C7
:1033B9007B08FAF9F8121A6190059B121BA7900570
:1033C9009BE0FCA3E0FDA3E0FEA3E0FFE412161CD2
:1033D900C004C005C006C00790BB31121B87E412A8
:1033E900161CD003D002D001D0001215129005503E
:1033F900121BA790059B121BB300000000E4900567
:1034090096F0E4FB7D017F0D7E01120000BF0134BF
:1034190078C17C057D017B017A0079007E007F04FB
:1034290012182C7B017A0579C17D0412C089900597
:10343900C1E0FCA3E0FDA3E0FEA3E0FF9005971225
:103449001BA7800790064FE04410F0E4FFFEFD7CC7
:1034590080900597E0F8A3E0F9A3E0FAA3E0FBC3A5
:10346900121B244024900597E0FCA3E0FDA3E0FE95
:10347900A3E0FF121AF3EF2401FFE43EFEE43DFD51
:10348900E43CFC900597121BA790059BE0FCA3E088
:10349900FDA3E0FEA3E0FF900597E0F8A3E0F9A300
:1034A900E0FAA3E0FBEF2BFFEE3AFEED39FDEC3835
:1034B900FCA3121BA775CEA575CF5A0075CEA575AD
:1034C900CF5A00900596E004F0E0C3940850030237
:1034D900340B90059BE0FCA3E0FDA3E0FEA3E0FF15
:1034E900E47B08FAF9F8121A6190059B121BA79060
:1034F900059BE0FCA3E0FDA3E0FEA3E0FFE41216B8
:103509001CC004C005C006C00790BB2D121B87E470
:1035190012161CD003D002D001D00012151290054A
:1035290048121BA77FA51203AE9005A8E0B406397F
:103539009005A3E0FCA3E0FDA3E0FEA3E0FFE47B8C
:1035490002FAF9F8121A619005A3121BA79005A3B4
:10355900E0FCA3E0FDA3E0FEA3E0FF9007157401E2
:10356900F01275977FA61203AE9005A8E0B407394B
:103579009005A3E0FCA3E0FDA3E0FEA3E0FFE47B4C
:1035890014FAF9F8121A619005A3121BA79005A362
:10359900E0FCA3E0FDA3E0FEA3E0FF90070C7401AB
:1035A900F012B3E47FA71203AE9005A8E064087097
:1035B900559005A7E06408704D12D93C75CEA575E4
:1035C900CF5A0075CEA575CF5A0012B23775CEA560
:1035D90075CF5A0075CEA575CF5A00129F64900415
:1035E900CAE075F00AA4240EF582E43405F583E4F3
:1035F900F0A3F075CEA575CF5A0075CEA575CF5A33
:10360900007FA81203AE12E8281269B975CEA57514
:0F361900CF5A0075CEA575CF5A00E4900557F033
:01362800227F
:0B55BC00900095EBF0A3EAF0A3E9F0EB
:1055C700E49000A4F0900095E0FBA3E0FAA3E0F9D3
:1055D70090000D12186BFF12E7529000A5EFF090A4
:1055E7000095E0FBA3E0FAA3E0F990000E12186B18
:1055F700FF12E752EFC454F0FEC006900095E0FB9F
:10560700A3E0FAA3E0F990000F12186BFF12E7521C
:10561700D0E02F9000A6F0900095E0FBA3E0FAA35E
:10562700E0F990001112186BFF12E752EFC454F023
:10563700FEC006900095E0FBA3E0FAA3E0F9900016
:105647001212186BFF12E752D0E02F9000A7F07BE1
:10565700017A0079A412B656900098121BA7E4901D
:1056670000A4F0900095E0FBA3E0FAA3E0F9900016
:105677001312186BFF12E7529000A5EFF0900095F8
:10568700E0FBA3E0FAA3E0F990001412186BFF12F5
:10569700E752EFC454F0FEC006900095E0FBA3E08C
:1056A700FAA3E0F990001612186BFF12E752D0E048
:1056B7002F9000A6F0900095E0FBA3E0FAA3E0F995
:1056C70090001712186BFF12E752EFC454F0FEC098
:1056D70006900095E0FBA3E0FAA3E0F9900018120A
:1056E700186BFF12E752D0E02F9000A7F07B017AEA
:1056F7000079A412B65690009C121BA7E49000A450
:10570700F0900095E0FBA3E0FAA3E0F990001912EE
:10571700186BFF12E7529000A5EFF0900095E0FBA1
:10572700A3E0FAA3E0F990001A12186BFF12E752F0
:10573700EFC454F0FEC006900095E0FBA3E0FAA387
:10574700E0F990001B12186BFF12E752D0E02F9080
:1057570000A6F0900095E0FBA3E0FAA3E0F9900023
:105767001C12186BFF12E752EFC454F0FEC00690EC
:105777000095E0FBA3E0FAA3E0F990001E12186B76
:10578700FF12E752D0E02F9000A7F07B017A007953
:10579700A412B6569000A0121BA7900095E0FBA399
:1057A700E0FAA3E0241FF9E43AFA9001E1EBF0A351
:1057B700EAF0A3E9F0A3E4F0A37406F07B017A0012
:1057C70079A812DD38E49000AEF07B017A0079A861
:1057D70012E2AD9000AF121BA79004DDE0FCA3E03E
:1057E700FDA3E0FEA3E0FF121C8C58190000FEB0D9
:1057F700585F0000FEB158720000FEB25819000051
:10580700FEB3585F0000FEB458720000FEB50000FA
:1058170058979000AFE0FCA3E0FDA3E0FEA3E0FFF4
:1058270012B8AC75CEA575CF5A0075CEA575CF5AEF
:1058370000900098E0FCA3E0FDA3E0FEA3E0FF904A
:1058470000B7121BA790009CE0FCA3E0FDA3E0FEBD
:10585700A3E0FF12602E80249000AFE0FCA3E0FDE0
:10586700A3E0FEA3E0FF129C1D80119000AFE0FCB7
:10587700A3E0FDA3E0FEA3E0FF127C8312E8281259
:1058870069B975CEA575CF5A0075CEA575CF5A00E3
:0158970022EE
:06B8AC009000B3121BA77F
:10B8B20075CEA575CF5A0075CEA575CF5A00E4FF97
:10B8C200FEFDFC9000B3E0F8A3E0F9A3E0FAA3E0E8
:10B8D200FB1215AFE4FFFE7DC87C429000B3E0F896
:10B8E200A3E0F9A3E0FAA3E0FB1213187B007A505D
:10B8F20079C3784712140912165A9000B8121BA77E
:10B90200E47FB07EFEFDFC9004DDE0F8A3E0F9A345
:10B91200E0FAA3E0FBC3121B2470527FE87E1012F0
:10B92200901C9000BC121BA79000CB121BB3009876
:10B9320096809000B812A6889000BC121BA79000B7
:10B94200BCE0FCA3E0FDA3E0FEA3E0FF9000CC740A
:10B9520010F0A374E8F012C65C9000BCE0FCA3E017
:0DB96200FDA3E0FEA3E0FF90051C121BA753
:01B96F0022B5
:06602E009000B3121BA755
:10603400E47FB07EFEFDFC9004DDE0F8A3E0F9A36C
:10604400E0FAA3E0FBC3121B24600302614D7FD975
:106054007E1012901C9000BB121BA79000BBE0FCAA
:10606400A3E0FDA3E0FEA3E0FFE412161C90054CA0
:10607400E0F8A3E0F9A3E0FAA3E0FB121409121676
:106084005A9000BB121BA77FEB7E1012901C90004D
:10609400BF121BA7E4FFFEFDFC9000BFE0F8A3E0E5
:1060A400F9A3E0FAA3E0FBC3121B24701D12A6712E
:1060B4009000BF121BA79000BFE0FCA3E0FDA3E08B
:1060C400FEA3E0FF900528121BA77FD87E10129034
:1060D4001C9000BB121BA7E4FFFE7D207C419005B1
:1060E40048E0F8A3E0F9A3E0FAA3E0FB121409C026
:1060F40004C005C006C0079000BBE0FCA3E0FDA3FC
:10610400E0FEA3E0FFE412161CD003D002D001D0BD
:106114000012140912165A9000BB121BA77FEA7EC4
:106124001012901C9000BF121BA7E4FFFEFDFC9010
:1061340000BFE0F8A3E0F9A3E0FAA3E0FBC3121B5D
:1061440024600302629B026260E47FB37EFEFDFC76
:106154009004DDE0F8A3E0F9A3E0FAA3E0FBC312A6
:106164001B24600302629B7FDA7E1012901C900055
:10617400BB121BA79000BBE0FCA3E0FDA3E0FEA3C1
:10618400E0FFE412161C900550E0F8A3E0F9A3E048
:10619400FAA3E0FB12140912165A9000BB121BA7B3
:1061A4007FEC7E1012901C9000BF121BA7E4FFFE30
:1061B400FDFC9000BFE0F8A3E0F9A3E0FAA3E0FB44
:1061C400C3121B24701D12A6719000BF121BA7904E
:1061D40000BFE0FCA3E0FDA3E0FEA3E0FF900538D0
:1061E400121BA77FD87E1012901C9000BB121BA715
:1061F400E4FFFE7D207C41900548E0F8A3E0F9A38C
:10620400E0FAA3E0FB121409C004C005C006C007ED
:106214009000BBE0FCA3E0FDA3E0FEA3E0FFE412DA
:10622400161CD003D002D001D00012140912165A41
:106234009000BB121BA77FEA7E1012901C9000BF37
:10624400121BA7E4FFFEFDFC9000BFE0F8A3E0F9F9
:10625400A3E0FAA3E0FBC3121B24703B9000B71227
:10626400A6749000BF121BA79000BFE0FCA3E0FD42
:10627400A3E0FEA3E0FF90053C121BA79000BFE043
:10628400FCA3E0FDA3E0FEA3E0FF9000CC7410F0BB
:07629400A374EAF012C65CDE
:01629B0022E0
:069C1D009000B3121BA72A
:109C2300E4FFFEFDFC9000B3E0F8A3E0F9A3E0FA43
:109C3300A3E0FB1215AFE4FFFE7DC87C429000B3A6
:109C4300E0F8A3E0F9A3E0FAA3E0FB1213187B000A
:109C53007A5079C3784712140912165A9000B71232
:109C63001BA79000CC121BB3009896809000B7E01E
:109C7300FCA3E0FDA3E0FEA3E0FF12A17BE4FCFD57
:109C8300FE9000BB121BA7E47FB17EFEFDFC900497
:109C9300DDE0F8A3E0F9A3E0FAA3E0FBC3121B2481
:109CA300703F9000BBE0FCA3E0FDA3E0FEA3E0FF58
:109CB300900520121BA77B017A0079C09000BBE0BE
:109CC300FCA3E0FDA3E0FEA3E0FF12BBAC9000C346
:109CD300E0FFE4FCFDFE9000CC7428F0A3747B80CD
:109CE30058E47FB47EFEFDFC9004DDE0F8A3E0F9C8
:109CF300A3E0FAA3E0FBC3121B2470419000BBE076
:109D0300FCA3E0FDA3E0FEA3E0FF900530121BA738
:109D13007B017A0079C49000BBE0FCA3E0FDA3E0E3
:109D2300FEA3E0FF12BBAC9000C7E0FFE4FCFDFE26
:0D9D33009000CC7428F0A3747CF012C65C84
:019D40002200
:067C83009000B3121BA7E4
:107C8900E47FB27EFEFDFC9004DDE0F8A3E0F9A3F9
:107C9900E0FAA3E0FBC3121B246003027D597FD6DF
:107CA9007E1012901C9000C0121BA79000C0E0FC2F
:107CB900A3E0FDA3E0FEA3E0FFEC12161C9000B3C5
:107CC900E0F8A3E0F9A3E0FAA3E0FB121409E4FB4E
:107CD900FA79C8784212151212165A9000BC121B72
:107CE900A7E49000BBF0FFFEFDFCA3E0F8A3E0F9D8
:107CF900A3E0FAA3E0FBD3121B0E9000BCE0FCA3A7
:107D0900E0FDA3E0FEA3E04003FF800F24FFFFEEA8
:107D190034FFFEED34FFFDEC34FFFC9000B7121B7D
:107D2900A79000B7E0FCA3E0FDA3E0FEA3E0FF906D
:107D390000CC7410F0A374EDF012C65C9000B7E0AB
:107D4900FCA3E0FDA3E0FEA3E0FF900524027E264C
:107D5900E47FB57EFEFDFC9004DDE0F8A3E0F9A325
:107D6900E0FAA3E0FBC3121B246003027E297FD73C
:107D79007E1012901C9000C0121BA79000C0E0FC5E
:107D8900A3E0FDA3E0FEA3E0FFEC12161C9000B3F4
:107D9900E0F8A3E0F9A3E0FAA3E0FB121409E4FB7D
:107DA900FA79C8784212151212165A9000BC121BA1
:107DB900A7E49000BBF0FFFEFDFCA3E0F8A3E0F907
:107DC900A3E0FAA3E0FBD3121B0E9000BCE0FCA3D6
:107DD900E0FDA3E0FEA3E04003FF800F24FFFFEED8
:107DE90034FFFEED34FFFDEC34FFFC9000B7121BAD
:107DF900A79000B7E0FCA3E0FDA3E0FEA3E0FF909D
:107E090000CC7410F0A374EEF012C65C9000B7E0D9
:107E1900FCA3E0FDA3E0FEA3E0FF900534121BA73D
:017E29002236
:03F04E0002E59741
:105DB500900000EFF0BF030C9028637480F0A3E41B
:105DC500F0D28422C2849000CC7428F0A3747DF0B4
:105DD5007F007E007D007C0012C65C9000CC74289C
:105DE500F0A37478F07F007E007D007C0012C65C15
:105DF5009028637480F0A3E4F0900000E07023FF26
:105E0500FE7D32FC12BDCC902864E04407F0900082
:105E1500CC7410F0A374EFF07FBC7E747D937C8806
:105E25008031900000E0FF64016004EFB402297F37
:105E3500007E807D0C7C0012BDCC902864E044037C
:105E4500F09000CC7410F0A374EFF07F9C7E3C7D45
:105E55001D7C9112C65C800312EF989028587449F6
:105E6500F09000CC7410F0A374F4F07F307EA87D20
:105E7500617C0412C65C9000CC7410F0A374FAF037
:105E85007F107EC27DDE7C0612C65C9000CC74104D
:105E9500F0A374F5F07F017E007D007C0012C65CE6
:105EA5009000CC7410F0A374FBF07F017E007D00A0
:105EB5007C0012C65C9000CC7428F0A37478F07F47
:105EC500737E007D007C0012C65C9000CC7428F0C7
:105ED500A37479F07F007E007D007C0012C65C9083
:105EE50000CC7428F0A3747AF07F607E007D007C7E
:105EF5000012C65C9000CC7410F0A374F0F07F0023
:105F05007E007D007C0012C65C9000CC7410F0A36E
:105F150074F1F07F007E007D007C0012C65C90006D
:105F2500CC7410F0A374F2F07F007E007D007C003D
:105F350012C65C9000CC7410F0A374F3F07F007E61
:105F4500007D007C0012C65C9000CC7410F0A37438
:105F5500F6F07F007E007D007C0012C65C9000CCD0
:105F65007410F0A374F7F07F007E007D007C0012B2
:105F7500C65C9000CC7410F0A374F8F07F007E002E
:105F85007D007C0012C65C9000CC7410F0A374F9FF
:105F9500F07F007E007D007C0012C65C9000CC7412
:105FA50028F0A3747DF07F7F7E007D007C0012C603
:105FB5005C9000CC7428F0A3747BF07F007E007D9C
:105FC500007C0012C65C9000CC7428F0A3747CF0B1
:105FD5007F007E007D007C0012C65C9000CC74289A
:105FE500F0A3747EF07F007E007D007C0012C65C0D
:105FF5009000CC7410F0A374FCF07F007E007D004F
:106005007C0012C65C53A4DF43AD2053A4BF43AD4F
:106015004043E803902843E04480F090284BE04457
:0960250080F09007427403F022A0
:058D520090000DEFF0A0
:108D57006401704E7FD37E1012901C90000E121B80
:108D6700A7E4FFFEFD7C8090000EE0F8A3E0F9A3E6
:108D7700E0FAA3E0FBC3121B24402490000EE0FCA2
:108D8700A3E0FDA3E0FEA3E0FF121AF3EF2401FF27
:108D9700E43EFEE43DFDE43CFC90000E121BA702FE
:108DA7008E3A90000DE064026003028E7CFB7D0129
:108DB7007F1B7E01120000BF0134781A7C007D0101
:108DC7007B017A0079007E007F0412182C7B017AE0
:108DD70000791A7D0412C08990001AE0FCA3E0FD17
:108DE700A3E0FEA3E0FF90000E121BA780079006EA
:108DF7004FE04410F0E4FFFEFD7C8090000EE0F8A9
:108E0700A3E0F9A3E0FAA3E0FBC3121B24402490DC
:108E1700000EE0FCA3E0FDA3E0FEA3E0FF121AF3BF
:108E2700EF2401FFE43EFEE43DFDE43CFC90000E30
:108E3700121BA790000EE0FCA3E0FDA3E0FEA3E059
:108E4700FFE412161C900548E0F8A3E0F9A3E0FA46
:108E5700A3E0FB121409900016121BA7900016E05E
:108E6700FCA3E0FDA3E0FEA3E0FF12165A90001258
:108E7700121BA7800A900012121BB300000000E427
:108E87007F32FEFDFC900012E0F8A3E0F9A3E0FAC0
:108E9700A3E0FBC3121B24500A900012121BB3005D
:108EA700000000900012E0FCA3E0FDA3E0FEA3E0B9
:018EB700FFBB
:018EB8002297
:0599C90090000DEFF01D
:1099CE006401704D7FD57E1012901C90000E121BFC
:1099DE00A7E4FFFEFD7C8090000EE0F8A3E0F9A363
:1099EE00E0FAA3E0FBC3121B24407C90000EE0FCC7
:1099FE00A3E0FDA3E0FEA3E0FF121AF3EF2401FFA4
:109A0E00E43EFEE43DFDE43CFC90000E121BA780FC
:109A1E005690000DE064026003029AB77FD47E1068
:109A2E0012901C90000E121BA7E4FFFEFD7C80908E
:109A3E00000EE0F8A3E0F9A3E0FAA3E0FBC3121BCB
:109A4E0024402490000EE0FCA3E0FDA3E0FEA3E082
:109A5E00FF121AF3EF2401FFE43EFEE43DFDE43C69
:109A6E00FC90000E121BA790000EE0FCA3E0FDA3DD
:109A7E00E0FEA3E0FFE412161C900550E0F8A3E010
:109A8E00F9A3E0FAA3E0FB121409900016121BA72B
:109A9E00900016E0FCA3E0FDA3E0FEA3E0FF12168B
:109AAE005A900012121BA7800A900012121BB300CC
:109ABE00000000E47F14FEFDFC900012E0F8A3E02D
:109ACE00F9A3E0FAA3E0FBC3121B24500A90001284
:109ADE00121BB300000000900012E0FCA3E0FDA3F7
:059AEE00E0FEA3E0FF13
:019AF3002250
:056FF20090067EEFF0A7
:106FF700600302707E7FD17E1012901C90067F1274
:107007001BA7E4FB7D017F197E01120000BF01343D
:10701700788F7C067D017B017A0079007E007F04F2
:1070270012182C7B017A06798F7D0412C08990068D
:107037008FE0FCA3E0FDA3E0FEA3E0FF9006831230
:107047001BA7800790064FE04410F0900683E0FCF2
:10705700A3E0FDA3E0FEA3E0FF90067FE0F8A3E036
:10706700F9A3E0FAA3E02FFFEA3EFEE93DFDE83C85
:10707700FC900687121BA790067EE0B4012C7FD1F7
:107087007E1012901C90067F121BA7E4FFFEFD7C6A
:107097008090067FE0F8A3E0F9A3E0FAA3E0FBC342
:1070A700121B24500302714E806D90067EE064022D
:1070B7006003027144FB7D017F197E01120000BF4E
:1070C7000134788F7C067D017B017A0079007E0090
:1070D7007F0412182C7B017A06798F7D0412C089F0
:1070E70090068FE0FCA3E0FDA3E0FEA3E0FF90067F
:1070F7007F121BA7800790064FE04410F0E4FFFEC5
:10710700FD7C8090067FE0F8A3E0F9A3E0FAA3E016
:10711700FBC3121B24403090067FE0FCA3E0FDA3D5
:10712700E0FEA3E0FF121AF3EF2401FFE43EFEE4C2
:107137003DFDE43CFC90067F121BA7800A90067F6A
:10714700121BB300000000E47F867E19FDFC900649
:107157007FE0F8A3E0F9A3E0FAA3E0FBC3121B2446
:10716700500C900687121BB3000000008063900646
:107177007EE0B4011FA3E0FCA3E0FDA3E0FEA3E0D3
:10718700FFE412161C90BB41121B971214099006BC
:107197008B121BA790067EE0B4021FA3E0FCA3E0BE
:1071A700FDA3E0FEA3E0FFE412161C90BB41121BF7
:1071B7009712140990068B121BA790068BE0FCA36D
:1071C700E0FDA3E0FEA3E0FF12165A900687121B0C
:0F71D700A7900687E0FCA3E0FDA3E0FEA3E0FF86
:0171E6002286
:05B0820090000DEFF04D
:10B08700BF01247FFD7E1012901C90000E121BA79B
:10B0970090000EE0F8A3E0F9A3E0FAA3E0FBE4FFD9
:10B0A700FE7DE27C04805D90000DE064027069FB28
:10B0B7007D017F9A7E01120000EF640170517816BE
:10B0C7007C007D017B017A007900FE7F0412182C39
:10B0D7007B017A0079167D0412C089900016E0FC86
:10B0E700A3E0FDA3E0FEA3E0FF90000E121BA790D4
:10B0F700000EE0F8A3E0F9A3E0FAA3E0FBE4FFFE0B
:10B107007D887C13121A61900012121BA78013907E
:10B11700064FE04410F0800A900012121BB30000A3
:10B127000000900012E0FCA3E0FDA3E0FEA3E0FF17
:10B13700E412161C7B9A7A997999783F12140912AE
:10B14700165A900012121BA7900012E0FCA3E0FD14
:06B15700A3E0FEA3E0FFEF
:01B15D0022CF
:1082FF00900011121BB3000000007FD17E1012906E
:10830F001C900011121BA7E4FFFEFD7C8090001152
:10831F00E0F8A3E0F9A3E0FAA3E0FBC3121B24905B
:10832F000743E0402954EFF0900011E0FCA3E0FD7B
:10833F00A3E0FEA3E0FF121AF3EF2401FFE43EFED9
:10834F00E43DFDE43CFC900011121BA78003441098
:10835F00F0900011E0FCA3E0FDA3E0FEA3E0FF908E
:10836F00000D121BA7E47F867E19FDFC900011E023
:10837F00F8A3E0F9A3E0FAA3E0FBC3121B2450110A
:10838F0090000D121BB300000000900743E054EF64
:10839F00F090000DE0FCA3E0FDA3E0FEA3E0FF9052
:1083AF0000CC7410F0A374FCF012C65C900011E0C6
:1083BF00FCA3E0FDA3E0FEA3E0FFE412161C90BBBC
:1083CF0041121B9712140912165A900601121BA77D
:1083DF007FD27E1012901C900011121BA7E4FFFE9B
:1083EF00FD7C80900011E0F8A3E0F9A3E0FAA3E090
:1083FF00FBC3121B244024900011E0FCA3E0FDA35B
:10840F00E0FEA3E0FF121AF3EF2401FFE43EFEE4C7
:10841F003DFDE43CFC900011121BA7900011E0FC05
:10842F00A3E0FDA3E0FEA3E0FF90000D121BA7E465
:10843F007F867E19FDFC900011E0F8A3E0F9A3E020
:10844F00FAA3E0FBC3121B24500A90000D121BB3BA
:10845F0000000000900011E0FCA3E0FDA3E0FEA3EC
:10846F00E0FFE412161C90BB45121B971214097BF8
:10847F00397AB479C8783F12151212165A90060538
:03848F00021BA726
:103C320090061D121BB300000000900619121BB360
:103C420000000000900625121BB3000000007FD286
:103C52007E1012901C90061D121BA77FEE7E101282
:103C6200901C900619121BA7E4FB7D017F1A7E01AE
:103C7200120000EF64017045782D7C067D017B0106
:103C82007A007900FE7F0412182C7B017A06792DC6
:103C92007D0412C08990062DE0FCA3E0FDA3E0FEA6
:103CA200A3E0FFE412161C7BCB7AA179D5783F12F0
:103CB200140912165A900625121BA7800890064F67
:103CC200E04410F022E47F867E19FDFC900621E09C
:103CD200F8A3E0F9A3E0FAA3E0FBD3121B24401BF4
:103CE2007F7A7EE67DFF7CFF900621E0F8A3E0F973
:103CF200A3E0FAA3E0FB121B24400A900621121B48
:103D0200B300000000E47F867E19FDFC900629E0E6
:103D1200F8A3E0F9A3E0FAA3E0FBD3121B24401BB3
:103D22007F7A7EE67DFF7CFF900629E0F8A3E0F92A
:103D3200A3E0FAA3E0FB121B24400A900629121BFF
:103D4200B30000000090061D900625900743E03066
:103D5200E503023E7830E350900625E0FCA3E0FD47
:103D6200A3E0FEA3E0FF121AF3EF2401FFE43EFEFC
:103D7200E43DFDE43CFC900625121BA790061DE0E5
:103D8200FCA3E0FDA3E0FEA3E0FF900625E0F8A37C
:103D9200E0F9A3E0FAA3E02FFFEA3EFEE93DFDE8E9
:103DA2003CFC90062D023FBB900625E0FCA3E0FD03
:103DB200A3E0FEA3E0FF90061DE0F8A3E0F9A3E074
:103DC200FAA3E0FBC3121B244050900625E0F8A39F
:103DD200E0F9A3E0FAA3E0FB90061DE0FCA3E0FDFE
:103DE200A3E0FEA3E09BFFEE9AFEED99FDEC98FCAA
:103DF20090062D121BA7900625E0FCA3E0FDA3E090
:103E0200FEA3E0FF121AF3EF2401FFE43EFEE43DBD
:103E1200FDE43CFC900625023FBB90061DE0F8A3A2
:103E2200E0F9A3E0FAA3E0FB900625E0FCA3E0FDA5
:103E3200A3E0FEA3E0C39BFFEE9AFEED99FDEC9892
:103E4200FC90062D121BA790065AE06455600302EF
:103E52003FBE900625E0FCA3E0FDA3E0FEA3E0FF49
:103E6200121AF3EF2401FFE43EFEE43DFDE43CFCC4
:103E7200900625023FBB900743E020E303023F592F
:103E8200900625E0FCA3E0FDA3E0FEA3E0FF900680
:103E92001DE0F8A3E0F9A3E0FAA3E0FBC3121B24A0
:103EA2004065900625E0F8A3E0F9A3E0FAA3E0FB61
:103EB20090061DE0FCA3E0FDA3E0FEA3E09BFFEE65
:103EC2009AFEED99FDEC98FC90062D121BA7900628
:103ED2005AE06455900625600DE0FCA3E0FDA3E0E6
:103EE200FEA3E0FF801BE0FCA3E0FDA3E0FEA3E055
:103EF200FF121AF3EF2401FFE43EFEE43DFDE43C31
:103F0200FC900625023FBB90061DE0F8A3E0F9A352
:103F1200E0FAA3E0FB900625E0FCA3E0FDA3E0FEAF
:103F2200A3E0C39BFFEE9AFEED99FDEC98FC900690
:103F32002D121BA7900625E0FCA3E0FDA3E0FEA343
:103F4200E0FF121AF3EF2401FFE43EFEE43DFDE43C
:103F52003CFC9006258062900625E0FCA3E0FDA3D0
:103F6200E0FEA3E0FF90061DE0F8A3E0F9A3E0FA6B
:103F7200A3E02FFFEA3EFEE93DFDE83CFC90062D62
:103F8200121BA790065AE06455900625600DE0FCCE
:103F9200A3E0FDA3E0FEA3E0FF801BE0FCA3E0FDA5
:103FA200A3E0FEA3E0FF121AF3EF2401FFE43EFEBA
:103FB200E43DFDE43CFC900625121BA790051CE0A5
:103FC200FCA3E0FDA3E0FEA3E02400FFE43EFEE448
:103FD2003DFDEC3480FCE412161CA804A905AA06D7
:103FE200AB07E4FFFEFD7C4F121512900631121B47
:103FF200A7E4FFFEFD7C80900625E0F8A3E0F9A38C
:10400200E0FAA3E0FBD3121B24900625E0FC406BF0
:10401200A3E0FDA3E0FEA3E0FF121AF3EF2401FFE9
:10402200E43EFEE43DFDE43CFC900625121BA79015
:104032000625E0FCA3E0FDA3E0FEA3E0FFE41216E8
:104042001C900631E0F8A3E0F9A3E0FAA3E0FB122A
:10405200140912165A900625121BA7900625E0FC99
:10406200A3E0FDA3E0FEA3E0FF121AF3EF2401FF99
:10407200E43EFEE43DFDE43CFC8021A3E0FDA3E040
:10408200FEA3E0FFE412161C900631E0F8A3E0F96B
:10409200A3E0FAA3E0FB12140912165A90062512A5
:1040A2001BA7900625E0FCA3E0FDA3E0FEA3E0FF32
:1040B2009000CC7410F0A374EEF012C65CE4FFFE24
:1040C200FD7C80900625E0F8A3E0F9A3E0FAA3E0E6
:1040D200FBD3121B244024900625E0FCA3E0FDA3A1
:1040E200E0FEA3E0FF121AF3EF2401FFE43EFEE438
:1040F2003DFDE43CFC900625121BA7E4FFFEFD7C7F
:104102008090061DE0F8A3E0F9A3E0FAA3E0FBD358
:10411200121B24402490061DE0FCA3E0FDA3E0FE58
:10412200A3E0FF121AF3EF2401FFE43EFEE43DFD9B
:10413200E43CFC90061D121BA7E4FFFEFD7C809070
:10414200062DE0F8A3E0F9A3E0FAA3E0FBD3121BEB
:1041520024402490062DE0FCA3E0FDA3E0FEA3E0B2
:10416200FF121AF3EF2401FFE43EFEE43DFDE43CBE
:10417200FC90062D121BA790061DE0FCA3E0FDA3F8
:10418200E0FEA3E0FFE412161C90BB45121B97123F
:10419200140912165A900605121BA790062DE0FC70
:1041A200A3E0FDA3E0FEA3E0FFE412161C90BB45D2
:1041B200121B9712140912165A900619121BA79075
:1041C2000625E0FCA3E0FDA3E0FEA3E0FFE4121657
:1041D2001C90BB45121B9712140912165A90062DF9
:0D41E200121BA7900641121BB30000000045
:0141EF0022AD
:057AD4009006B9EFF07F
:107AD900BF014B7FD27E1012901C9006BA121BA7D1
:107AE900E4FFFEFD7C809006BAE0F8A3E0F9A3E08C
:107AF900FAA3E0FBC3121B245003027BEA9006BAE7
:107B0900E0FCA3E0FDA3E0FEA3E0FF121AF3EF24DB
:107B190001FFE43EFEE43DFDE43CFC027BD8900617
:107B2900B9E064026003027BE0FB7D017F1A7E01FC
:107B3900120000BF013478C67C067D017B017A0002
:107B490079007E007F0412182C7B017A0679C67DA4
:107B59000412C0899006C6E0FCA3E0FDA3E0FEA3E1
:107B6900E0FF9006BA121BA7800790064FE0441069
:107B7900F0E4FFFEFD7C809006BAE0F8A3E0F9A3EB
:107B8900E0FAA3E0FBC3121B2440249006BAE0FCF0
:107B9900A3E0FDA3E0FEA3E0FF121AF3EF2401FF27
:107BA900E43EFEE43DFDE43CFC9006BA121BA790BE
:107BB90006BAE0FCA3E0FDA3E0FEA3E0FFE4121691
:107BC9001C7BCB7AA179D5783F12140912165A90E9
:107BD90006BA121BA7800A9006BA121BB30000004E
:107BE90000E47F867E19FDFC9006BAE0F8A3E0F96F
:107BF900A3E0FAA3E0FBC3121B24500C9006BE12AB
:107C09001BB30000000080639006B9E0B4011FA314
:107C1900E0FCA3E0FDA3E0FEA3E0FFE412161C9044
:107C2900BB45121B971214099006C2121BA7900696
:107C3900B9E0B4021FA3E0FCA3E0FDA3E0FEA3E0CA
:107C4900FFE412161C90BB45121B971214099006EB
:107C5900C2121BA79006C2E0FCA3E0FDA3E0FEA3AD
:107C6900E0FF12165A9006BE121BA79006BEE0FC52
:097C7900A3E0FDA3E0FEA3E0FF7F
:017C820022DF
:10E4D80003E503E803EC03EF03D903DC03E003E3FC
:10E4E80003D303D603D903DC03C603C903CC03CF84
:10E4F800041004130416041904030407040A040D81
:10E5080003FA03FD0400040303ED03F103F403F726
:10E65000EFB401089028637481F0800BEF640270BE
:10E660002A90286374A2F0902864E04408F0A3E0A4
:10E670004401F07F787E2812901CEF4418FF900030
:0BE68000CC7428F0A37478F012C65C84
:01E68B00226C
:10EAC800902864E054F7F09028637480F0902865EB
:10EAD800E04401F07F787E2812901CEF54F7FF90F5
:0CEAE80000CC7428F0A37478F002C65C27
:10E68C007F0212E6507F0A7E0012EEA27FCE7E1031
:10E69C0012901C7810121B35EE30E70FEFF4FFEEE2
:10E6AC00F4FEEF2401FFE43EFE800F7C007D471258
:0BE6BC001900EF24FBFFEE34FFFE000E
:01E6C7002230
:10EA0D007F0112E6507F0A7E0012EEA21200569090
:10EA1D000003121BA7E4FFFE7D207C41900003E064
:10EA2D00F8A3E0F9A3E0FAA3E0FB12140912165AB9
:01EA3D0022B6
:100056009000087404F0A37420F0E4900007F09078
:100066000007E0FFC394035043EF75F018A4FF9018
:100076000009E02FFD900008E035F0FC7E007F0AC5
:100086007B1512E7B47B017A00790A90003374334A
:10009600F07D137C0012EC11900029EFF090001E09
:1000A600E06F6008900007E004F080B37B017A00FF
:1000B600790A7D0412C0897B017A00790E7D0412CB
:1000C600C0897B017A0079127D0412C0897B017A8E
:1000D6000079167D0412C0897B017A00791A7D04A5
:1000E60012C0897FCE7E1012901C7810121B35909C
:1000F600002A121BA77E007F1F902862E0543E2430
:10010600D8F582E434E4AD82FC7B0212E7B49000B9
:100116001FE0FEA3E0FFE4FCFD90002AE0F8A3E068
:10012600F9A3E0FAA3E0FB1219D6E47BE87A03F917
:10013600F8121A6190002A121BA790001EE0FF9089
:100146000029E06F603290000A121BB3000046627D
:1001560090000E121BB300000001900012121BB398
:100166000D5A4336900016121BB300001BB49000C4
:100176001A121BB30000000A90002AE0FCA3E0FD5F
:10018600A3E0FEA3E0FF900016E0F8A3E0F9A3E0E9
:10019600FAA3E0FB1219D6900012E0F8A3E0F9A347
:1001A600E0FAA3E02FFFEA3EFEE93DFDE83CFCE471
:1001B60012161C12C13AC004C005C006C007900042
:1001C6000EE0FCA3E0FDA3E0FEA3E0FFE412161C94
:1001D600D003D002D001D000121409C004C005C05B
:1001E60006C00790000AE0FCA3E0FDA3E0FEA3E042
:1001F600FFE412161CA804A905AA06AB07D007D06F
:1002060006D005D004121314C004C005C006C007EA
:1002160090001AE0FCA3E0FDA3E0FEA3E0FFE412D9
:10022600161CA804A905AA06AB07D007D006D00558
:10023600D004121512900025121BA7900008740412
:10024600F0A37480F0E4900007F0900007E0FFC38D
:1002560094035046EF75F004A4FF900009E02FFDCB
:10026600900008E035F0FC7E007F217B0412E7B4A5
:100276007B017A0079219000337433F07D027C0093
:1002860012EC11900023EFF0A3E0FF900023E06F43
:100296006008900007E004F080B0900024E0FF9032
:1002A6000023E06F6007E4900021F0A3F0900021A6
:1002B600E030E75B900021E0FEA3E0F4FFEEF4FE01
:1002C600EF2401FFE43E900021F0A3EFF09000251B
:1002D600E0FCA3E0FDA3E0FEA3E0FFC004C005C070
:1002E60006C007900021E0FEA3E0FF7C007D0A1215
:1002F6001900AC06AD07E4121621A804A905AA0642
:10030600AB07D007D006D005D0041213148038905E
:100316000025E0F8A3E0F9A3E0FAA3E0FBC000C0E3
:1003260001C002C003900021E0FEA3E0FF7C007D37
:100336000A121900AC06AD07E4121621D003D0024A
:10034600D001D000121318900025121BA7E4FFFE5F
:100356007DB47C42900025E0F8A3E0F9A3E0FAA37F
:10036600E0FB1215AF600E400C900025121BB34245
:10037600B400008024E4FFFE7D2C7CC2900025E0C2
:10038600F8A3E0F9A3E0FAA3E0FB1215AF500A9038
:100396000025121BB3C22C0000900025E0FCA3E050
:0703A600FDA3E0FEA3E0FF50
:0103AD00222D
:06ADDF00900000121BA70A
:10ADE500E4900004F0C286C285902867E044C0F074
:10ADF500A37420F0900000E0FCA3E0FDA3E0FEA317
:10AE0500E0FF121C8CAE32000C8000AE3A00190037
:10AE150000AE4A00320000AE5200640000AE5F0092
:10AE2500C80000AE71019000000000AE8390286755
:10AE3500E054FC800A902867E04401F0E054FDF0FE
:10AE4500A3E4F0803C902867E054FE8006902867D4
:10AE5500E04401F0E04402F08027902867E04401D7
:10AE6500F0E04402F0A3E04440F08015902867E04C
:10AE75004401F0E04402F0A3E044C0F0800312EF87
:10AE850098E5A320E00F900004E004F0E0D39432AD
:10AE950040EF7F0022D280E4900004F020800F90E4
:10AEA5000004E004F0E0D3943240F17F00229028C2
:0EAEB5005FE4F0A37403F0A3E04420F07F01FB
:01AEC300226C
:06BDCC00900001121BA70C
:10BDD200E4900005F0C284902867E044C0F090002F
:10BDE20001E0FCA3E0FDA3E0FEA3E0FF121C8CBE79
:10BDF2000D00000000BE12000C8000BE1F001900E2
:10BE020000BE34003200000000BE49D2847F01220D
:10BE1200902867E054F3F0E054CFF0802D9028672B
:10BE2200E04404F0E054F7F0E04410F0E054DFF0B6
:10BE32008018902867E054FBF0E04408F0E054EFEB
:10BE4200F0E04420F0800312EF98E5A320E00F9089
:10BE52000005E004F0E0D3943240EF7F0022D28765
:10BE6200E4900005F020870F900005E004F0E0D395
:09BE7200943240F17F00227F01AF
:01BE7B0022A4
:10DFAA00C286C285902864E4F0902866F090000248
:10DFBA00F0900002E004F0E0B414F6D284E5A13057
:10DFCA00E00312EF98C2802080FDE5A130E0031241
:10DFDA00EF98E4900002F0900002E004F0E0B4034D
:10DFEA00F6902867E4F0902867E070FAD2817F32D1
:04DFFA0012F0000021
:01DFFE002200
:10D308009028ADE054FDF09028ACE054FDF0902852
:10D31800AEE04402F09028ACE054FBF0A3E054FBEC
:10D32800F0A3E04404F0902820E4F0902828F0903E
:10D338002830F0902A05F0902864F0902866E044A0
:10D3480020F09000CC7428F0A3747DF07F007E005C
:10D358007D007C0012C65C9000CC7428F0A3747821
:10D36800F07F007E007D007C0012C65CE4FF0FEFBA
:05D37800B414FBD28497
:01D37D00228D
:10CE98009028A8E054F0F09028AAE054F0F075A487
:10CEA800F275A50AE4F5A643A6049028B2E0440268
:10CEB800F09028B0E054FDF0A3E04401F09028B0D1
:10CEC800E054FDF0A3E04401F09028C97402F0A3F7
:10CED800F09028B1E04410F09028B0E04410F090B1
:10CEE80028CDE4F053ADDF53A4DF53A6DFA3F090C1
:10CEF80028B0E054DFF09028B2E04420F09028C831
:10CF0800E4F09028ADE04410F09028C7E4F09028B1
:0CCF1800ADE04408F053ADFD43A502223B
:10DEA8009028A874FFF0A3E4F09028AC74FFF0A3C6
:10DEB800E4F09028B074FFF0A3E4F09028B474FF65
:10DEC800F0A3E4F09028B874FFF0A3E4F09028BC25
:10DED80074FFF0A3E4F09028C074FFF0A3E4F0907E
:10DEE80028D574FFF0A3E4F09028D974FFF0A3E4D8
:07DEF800F075A4FFF5A5225F
:10EE3A00E4FF9028B3E020E4050FEFB40AF4EFD31F
:09EE4A00940740037F01227F00C0
:01EE5300229C
:10EE5400E4FF9028AFE020E4050FEFB40AF4EFD309
:09EE6400940740037F01227F00A6
:01EE6D002282
:10EED300E4FFE5A720E1050FEFB40AF6EFD39407AB
:07EEE30040037F01227F00C4
:01EEEA002205
:10EE6E00E4FF9028AFE020E3050FEFB40AF4EFD3F0
:09EE7E00940740037F01227F008C
:01EE87002268
:10EEEB00E4FFE5A730E0050FEFB40AF6EFD3940784
:07EEFB0040037F01227F00AC
:01EF020022EC
:0EEFCD00C28390285EE4F0902C1E74C2F022E5
:03F05100D2832245
:10EDB100902C08E4F0A3F0A3F0A3F0A3F0A3F0A338
:0CEDC100F0A3F0902C12F0A3F0A3F022BD
:10EBEA00EF902C00F0902C04F0A3F0A3F0A3F09087
:10EBFA002C09F0A3F0A3F0902C0FF0A3F0540FA36C
:07EC0A00F0EF902C13F02243
:10D78B009028B4E0440FF09028B8E04403F09028C0
:10D79B00BCE074FFF09028C0E044FCF09028D5E08A
:10D7AB0044C0F09028D9E04407F09028B5E054F03D
:10D7BB00F09028B9E054FCF09028BDE0E4F09028FC
:10D7CB00C1E05403F09028D6E0543FF09028DAE003
:10D7DB0054F8F012EFCD902C1F7403F0A374FFF0EC
:0DD7EB00A374FCF0A374C0F0A374C7F02277
:10AEC40090000612186BFFC4540FFE12185254F06F
:10AED4004E902C00F090000112186BFE54F0FD12FD
:10AEE4001852540F4D902C04F090000212186B5419
:10AEF400F0FDEE540F4D902C05F090000312186BEA
:10AF0400FE54F0FD90000212186B540F4D902C0665
:10AF1400F090000412186B54F0FDEE540F4D902C79
:10AF240007F090000512186BFE54F0FD9000041217
:10AF3400186B540F4D902C09F090000912186B54A3
:10AF4400F0FDEE540F4D902C0AF090000A12186B8D
:10AF5400FE54F0FD90000912186B540F4D902C0B09
:10AF6400F090000712186B54F0FDEF540F4D902C25
:10AF74000FF090000812186BFF54F0FD90000712B8
:10AF8400186B540F4D902C10F0EF540FA3F0900059
:10AF94000B12186B54F0FFEE540F4F902C13F02249
:10EFAB009028C77406F09028ACE054F7F0A3E05417
:03EFBB00F7F0224A
:0BEFF50043E80290284BE04440F0226B
:10E70300900002EFF0A3EDF07590967597577F3266
:10E7130012F000900003E0FFF596EFB4070D75DFEC
:10E7230040900002E0543F25DFF5DF7F3212F00016
:0BE733007590967597567F3202F0003B
:0BDCD90090001CEBF0A3EAF0A3E9F0C0
:10DCE400A3E5DAF07F6412F00090001CE0FBA3E0EF
:10DCF400FAA3E0F9E59E1218BA90001CE0FBA3E039
:10DD0400FAA3E0F9900001E5931218CC900002E523
:10DD14009F1218CC900003E59D1218CC900004E5E6
:10DD24009C1218CC900005E59B1218CC900006E5D7
:04DD34009A0218CC6B
:10D9A600900095EBF0A3EAF0A3E9F07590967597D1
:10D9B600577F3212F000900095E0FBA3E0FAA3E057
:10D9C600F9121852F59E90000112186BF59390000B
:10D9D6000212186BF59F90000312186BF59D9000CC
